{"abi":[{"type":"function","name":"bridgeTokens","inputs":[{"name":"token","type":"address","internalType":"address"},{"name":"amount","type":"uint256","internalType":"uint256"},{"name":"receiver","type":"address","internalType":"address"},{"name":"dstChainId","type":"uint256","internalType":"uint256"}],"outputs":[],"stateMutability":"nonpayable"},{"type":"function","name":"lastAmount","inputs":[],"outputs":[{"name":"","type":"uint256","internalType":"uint256"}],"stateMutability":"view"},{"type":"function","name":"lastDstChainId","inputs":[],"outputs":[{"name":"","type":"uint256","internalType":"uint256"}],"stateMutability":"view"},{"type":"function","name":"lastReceiver","inputs":[],"outputs":[{"name":"","type":"address","internalType":"address"}],"stateMutability":"view"},{"type":"function","name":"lastToken","inputs":[],"outputs":[{"name":"","type":"address","internalType":"address"}],"stateMutability":"view"},{"type":"event","name":"BridgeStarted","inputs":[{"name":"token","type":"address","indexed":true,"internalType":"address"},{"name":"amount","type":"uint256","indexed":false,"internalType":"uint256"},{"name":"receiver","type":"address","indexed":true,"internalType":"address"},{"name":"dstChainId","type":"uint256","indexed":false,"internalType":"uint256"}],"anonymous":false},{"type":"error","name":"SafeERC20FailedOperation","inputs":[{"name":"token","type":"address","internalType":"address"}]}],"bytecode":{"object":"0x608060405234801561000f575f80fd5b506102c08061001d5f395ff3fe608060405234801561000f575f80fd5b5060043610610055575f3560e01c80632f796f50146100595780632f99492f14610089578063829a86d91461009e578063e4b3978a146100b4578063f8ea8ed0146100bd575b5f80fd5b60035461006c906001600160a01b031681565b6040516001600160a01b0390911681526020015b60405180910390f35b61009c610097366004610249565b6100d0565b005b6100a65f5481565b604051908152602001610080565b6100a660025481565b60015461006c906001600160a01b031681565b6100e56001600160a01b03851633308661015e565b600380546001600160a01b03199081166001600160a01b038781169182179093555f86905560018054909216928516928317909155600283905560408051868152602081018590527f168ec803d6b3e6c97b28f1ae54ec71c398b6414ab55d125a7cafeae1c490f99c910160405180910390a350505050565b604080516001600160a01b0385811660248301528416604482015260648082018490528251808303909101815260849091019091526020810180516001600160e01b03166323b872dd60e01b1790526101b89085906101be565b50505050565b5f8060205f8451602086015f885af1806101dd576040513d5f823e3d81fd5b50505f513d915081156101f4578060011415610201565b6001600160a01b0384163b155b156101b857604051635274afe760e01b81526001600160a01b038516600482015260240160405180910390fd5b80356001600160a01b0381168114610244575f80fd5b919050565b5f805f806080858703121561025c575f80fd5b6102658561022e565b93506020850135925061027a6040860161022e565b939692955092936060013592505056fea26469706673582212209d2c5aef486360b5780828cae90fc49707f070247355818ea8a665e3cd4d4d5b64736f6c63430008180033","linkReferences":{}},"methodIdentifiers":{"bridgeTokens(address,uint256,address,uint256)":"2f99492f","lastAmount()":"829a86d9","lastDstChainId()":"e4b3978a","lastReceiver()":"f8ea8ed0","lastToken()":"2f796f50"},"id":9}