{"abi":[{"type":"constructor","inputs":[{"name":"_token","type":"address","internalType":"address"},{"name":"_aToken","type":"address","internalType":"address"},{"name":"_aavePool","type":"address","internalType":"address"}],"stateMutability":"nonpayable"},{"type":"function","name":"aToken","inputs":[],"outputs":[{"name":"","type":"address","internalType":"contract IERC20"}],"stateMutability":"view"},{"type":"function","name":"aavePool","inputs":[],"outputs":[{"name":"","type":"address","internalType":"contract IAavePool"}],"stateMutability":"view"},{"type":"function","name":"deposit","inputs":[{"name":"dealId","type":"uint256","internalType":"uint256"},{"name":"amount","type":"uint256","internalType":"uint256"}],"outputs":[],"stateMutability":"nonpayable"},{"type":"function","name":"deposits","inputs":[{"name":"","type":"uint256","internalType":"uint256"}],"outputs":[{"name":"principal","type":"uint256","internalType":"uint256"},{"name":"aTokenBalance","type":"uint256","internalType":"uint256"},{"name":"depositTimestamp","type":"uint256","internalType":"uint256"},{"name":"active","type":"bool","internalType":"bool"}],"stateMutability":"view"},{"type":"function","name":"escrow","inputs":[],"outputs":[{"name":"","type":"address","internalType":"address"}],"stateMutability":"view"},{"type":"function","name":"getAccruedYield","inputs":[{"name":"dealId","type":"uint256","internalType":"uint256"}],"outputs":[{"name":"","type":"uint256","internalType":"uint256"}],"stateMutability":"view"},{"type":"function","name":"getPrincipal","inputs":[{"name":"dealId","type":"uint256","internalType":"uint256"}],"outputs":[{"name":"","type":"uint256","internalType":"uint256"}],"stateMutability":"view"},{"type":"function","name":"owner","inputs":[],"outputs":[{"name":"","type":"address","internalType":"address"}],"stateMutability":"view"},{"type":"function","name":"setEscrow","inputs":[{"name":"_escrow","type":"address","internalType":"address"}],"outputs":[],"stateMutability":"nonpayable"},{"type":"function","name":"token","inputs":[],"outputs":[{"name":"","type":"address","internalType":"contract IERC20"}],"stateMutability":"view"},{"type":"function","name":"totalDeposited","inputs":[],"outputs":[{"name":"","type":"uint256","internalType":"uint256"}],"stateMutability":"view"},{"type":"function","name":"withdraw","inputs":[{"name":"dealId","type":"uint256","internalType":"uint256"}],"outputs":[{"name":"total","type":"uint256","internalType":"uint256"}],"stateMutability":"nonpayable"},{"type":"event","name":"Deposited","inputs":[{"name":"dealId","type":"uint256","indexed":true,"internalType":"uint256"},{"name":"amount","type":"uint256","indexed":false,"internalType":"uint256"},{"name":"aTokenReceived","type":"uint256","indexed":false,"internalType":"uint256"}],"anonymous":false},{"type":"event","name":"EscrowSet","inputs":[{"name":"escrow","type":"address","indexed":false,"internalType":"address"}],"anonymous":false},{"type":"event","name":"Withdrawn","inputs":[{"name":"dealId","type":"uint256","indexed":true,"internalType":"uint256"},{"name":"principal","type":"uint256","indexed":false,"internalType":"uint256"},{"name":"total","type":"uint256","indexed":false,"internalType":"uint256"}],"anonymous":false},{"type":"error","name":"SafeERC20FailedOperation","inputs":[{"name":"token","type":"address","internalType":"address"}]}],"bytecode":{"object":"0x60e060405234801561000f575f80fd5b5060405161103d38038061103d83398101604081905261002e9161014e565b6001600160a01b0383166100795760405162461bcd60e51b815260206004820152600d60248201526c24b73b30b634b2103a37b5b2b760991b60448201526064015b60405180910390fd5b6001600160a01b0382166100c05760405162461bcd60e51b815260206004820152600e60248201526d24b73b30b634b21030aa37b5b2b760911b6044820152606401610070565b6001600160a01b0381166101055760405162461bcd60e51b815260206004820152600c60248201526b125b9d985b1a59081c1bdbdb60a21b6044820152606401610070565b6001600160a01b0392831660805290821660a0521660c0525f80546001600160a01b0319163317905561018e565b80516001600160a01b0381168114610149575f80fd5b919050565b5f805f60608486031215610160575f80fd5b61016984610133565b925061017760208501610133565b915061018560408501610133565b90509250925092565b60805160a05160c051610e2a6102135f395f818161011d015281816104f5015281816105e00152818161098d0152610a7901525f8181610144015281816102900152818161041501528181610524015281816108c70152610af101525f8181610220015281816105a90152818161094c015281816109bc0152610a3e0152610e2a5ff3fe608060405234801561000f575f80fd5b50600436106100b1575f3560e01c8063c10c35461161006e578063c10c3546146101c1578063da4779e0146101d6578063e2bbb158146101f5578063e2fdcc1714610208578063fc0c546a1461021b578063ff50abdc14610242575f80fd5b806324d09a8f146100b55780632e1a7d4d146100db5780638da5cb5b146100ee578063a03e4bc314610118578063a0c1f15e1461013f578063b02c43d014610166575b5f80fd5b6100c86100c3366004610ce4565b61024b565b6040519081526020015b60405180910390f35b6100c86100e9366004610ce4565b61035a565b5f54610100906001600160a01b031681565b6040516001600160a01b0390911681526020016100d2565b6101007f000000000000000000000000000000000000000000000000000000000000000081565b6101007f000000000000000000000000000000000000000000000000000000000000000081565b61019f610174366004610ce4565b600260208190525f918252604090912080546001820154928201546003909201549092919060ff1684565b60408051948552602085019390935291830152151560608201526080016100d2565b6101d46101cf366004610cfb565b610694565b005b6100c86101e4366004610ce4565b5f9081526002602052604090205490565b6101d4610203366004610d28565b6107ca565b600154610100906001600160a01b031681565b6101007f000000000000000000000000000000000000000000000000000000000000000081565b6100c860035481565b5f818152600260205260408120600381015460ff16158061026c5750600354155b1561027957505f92915050565b6040516370a0823160e01b81523060048201525f907f00000000000000000000000000000000000000000000000000000000000000006001600160a01b0316906370a0823190602401602060405180830381865afa1580156102dd573d5f803e3d5ffd5b505050506040513d601f19601f820116820180604052508101906103019190610d48565b90505f825f015460035403610317575080610333565b60035483546103269084610d73565b6103309190610d90565b90505b8254811161034557505f949350505050565b82546103519082610daf565b95945050505050565b6001545f906001600160a01b031633146103a95760405162461bcd60e51b815260206004820152600b60248201526a4f6e6c7920657363726f7760a81b60448201526064015b60405180910390fd5b5f828152600260205260409020600381015460ff166103fe5760405162461bcd60e51b8152602060048201526011602482015270139bc81858dd1a5d994819195c1bdcda5d607a1b60448201526064016103a0565b6040516370a0823160e01b81523060048201525f907f00000000000000000000000000000000000000000000000000000000000000006001600160a01b0316906370a0823190602401602060405180830381865afa158015610462573d5f803e3d5ffd5b505050506040513d601f19601f820116820180604052508101906104869190610d48565b90505f825f01546003540361049c5750806104b8565b60035483546104ab9084610d73565b6104b59190610d90565b90505b6003808401805460ff19169055835481549091905f906104d9908490610daf565b909155505060405163095ea7b360e01b81526001600160a01b037f000000000000000000000000000000000000000000000000000000000000000081166004830152602482018390527f0000000000000000000000000000000000000000000000000000000000000000169063095ea7b3906044016020604051808303815f875af115801561056a573d5f803e3d5ffd5b505050506040513d601f19601f8201168201806040525081019061058e9190610dc2565b50600154604051631a4ca37b60e21b81526001600160a01b037f0000000000000000000000000000000000000000000000000000000000000000811660048301526024820184905291821660448201527f0000000000000000000000000000000000000000000000000000000000000000909116906369328dec906064016020604051808303815f875af1158015610628573d5f803e3d5ffd5b505050506040513d601f19601f8201168201806040525081019061064c9190610d48565b8354604080519182526020820183905291955086917fabd2ab552bc04cdbfa4a54107fa44ac8c9cb06f6d21da11933ac05a653be19e9910160405180910390a2505050919050565b5f546001600160a01b031633146106da5760405162461bcd60e51b815260206004820152600a60248201526927b7363c9037bbb732b960b11b60448201526064016103a0565b600154600160a01b900460ff16156107295760405162461bcd60e51b8152602060048201526012602482015271115cd8dc9bddc8185b1c9958591e481cd95d60721b60448201526064016103a0565b6001600160a01b0381166107705760405162461bcd60e51b815260206004820152600e60248201526d496e76616c696420657363726f7760901b60448201526064016103a0565b600180546001600160a81b0319166001600160a01b038316908117600160a01b179091556040519081527fa585aec3a6cb0e1a084ed18c7638024e40cc3e3ea815166e2cb6fc17d7f1392b9060200160405180910390a150565b6001546001600160a01b031633146108125760405162461bcd60e51b815260206004820152600b60248201526a4f6e6c7920657363726f7760a81b60448201526064016103a0565b5f8281526002602052604090206003015460ff161561086c5760405162461bcd60e51b81526020600482015260166024820152751119585b08185b1c9958591e4819195c1bdcda5d195960521b60448201526064016103a0565b5f81116108b05760405162461bcd60e51b81526020600482015260126024820152710416d6f756e74206d757374206265203e20360741b60448201526064016103a0565b6040516370a0823160e01b81523060048201525f907f00000000000000000000000000000000000000000000000000000000000000006001600160a01b0316906370a0823190602401602060405180830381865afa158015610914573d5f803e3d5ffd5b505050506040513d601f19601f820116820180604052508101906109389190610d48565b600154909150610976906001600160a01b037f0000000000000000000000000000000000000000000000000000000000000000811691163085610c18565b60405163095ea7b360e01b81526001600160a01b037f000000000000000000000000000000000000000000000000000000000000000081166004830152602482018490527f0000000000000000000000000000000000000000000000000000000000000000169063095ea7b3906044016020604051808303815f875af1158015610a02573d5f803e3d5ffd5b505050506040513d601f19601f82011682018060405250810190610a269190610dc2565b5060405163617ba03760e01b81526001600160a01b037f000000000000000000000000000000000000000000000000000000000000000081166004830152602482018490523060448301525f60648301527f0000000000000000000000000000000000000000000000000000000000000000169063617ba037906084015f604051808303815f87803b158015610aba575f80fd5b505af1158015610acc573d5f803e3d5ffd5b50506040516370a0823160e01b81523060048201525f92508391506001600160a01b037f000000000000000000000000000000000000000000000000000000000000000016906370a0823190602401602060405180830381865afa158015610b36573d5f803e3d5ffd5b505050506040513d601f19601f82011682018060405250810190610b5a9190610d48565b610b649190610daf565b604080516080810182528581526020808201848152428385019081526001606085018181525f8c8152600295869052968720955186559251908501555191830191909155516003918201805460ff191691151591909117905580549293508592909190610bd2908490610de1565b9091555050604080518481526020810183905285917f1ca606821992e3b34613b5b29c0bbade3a907b2969d7f9f2927f726fa4baccfb910160405180910390a250505050565b604080516001600160a01b0385811660248301528416604482015260648082018490528251808303909101815260849091019091526020810180516001600160e01b03166323b872dd60e01b179052610c72908590610c78565b50505050565b5f8060205f8451602086015f885af180610c97576040513d5f823e3d81fd5b50505f513d91508115610cae578060011415610cbb565b6001600160a01b0384163b155b15610c7257604051635274afe760e01b81526001600160a01b03851660048201526024016103a0565b5f60208284031215610cf4575f80fd5b5035919050565b5f60208284031215610d0b575f80fd5b81356001600160a01b0381168114610d21575f80fd5b9392505050565b5f8060408385031215610d39575f80fd5b50508035926020909101359150565b5f60208284031215610d58575f80fd5b5051919050565b634e487b7160e01b5f52601160045260245ffd5b8082028115828204841417610d8a57610d8a610d5f565b92915050565b5f82610daa57634e487b7160e01b5f52601260045260245ffd5b500490565b81810381811115610d8a57610d8a610d5f565b5f60208284031215610dd2575f80fd5b81518015158114610d21575f80fd5b80820180821115610d8a57610d8a610d5f56fea26469706673582212204622acaf15fdcc00f5419f5bdadcca5ea1e14ae020b1a2dcef6ca8ce494587a664736f6c634300081a0033","linkReferences":{}},"methodIdentifiers":{"aToken()":"a0c1f15e","aavePool()":"a03e4bc3","deposit(uint256,uint256)":"e2bbb158","deposits(uint256)":"b02c43d0","escrow()":"e2fdcc17","getAccruedYield(uint256)":"24d09a8f","getPrincipal(uint256)":"da4779e0","owner()":"8da5cb5b","setEscrow(address)":"c10c3546","token()":"fc0c546a","totalDeposited()":"ff50abdc","withdraw(uint256)":"2e1a7d4d"},"id":0}