{"abi":[{"type":"constructor","inputs":[{"name":"_token","type":"address","internalType":"address"},{"name":"_aToken","type":"address","internalType":"address"},{"name":"_aavePool","type":"address","internalType":"address"}],"stateMutability":"nonpayable"},{"type":"function","name":"aToken","inputs":[],"outputs":[{"name":"","type":"address","internalType":"contract IERC20"}],"stateMutability":"view"},{"type":"function","name":"aavePool","inputs":[],"outputs":[{"name":"","type":"address","internalType":"contract IAavePool"}],"stateMutability":"view"},{"type":"function","name":"deposit","inputs":[{"name":"dealId","type":"uint256","internalType":"uint256"},{"name":"amount","type":"uint256","internalType":"uint256"}],"outputs":[],"stateMutability":"nonpayable"},{"type":"function","name":"deposits","inputs":[{"name":"","type":"uint256","internalType":"uint256"}],"outputs":[{"name":"principal","type":"uint256","internalType":"uint256"},{"name":"aTokenBalance","type":"uint256","internalType":"uint256"},{"name":"depositTimestamp","type":"uint40","internalType":"uint40"},{"name":"active","type":"bool","internalType":"bool"}],"stateMutability":"view"},{"type":"function","name":"escrow","inputs":[],"outputs":[{"name":"","type":"address","internalType":"address"}],"stateMutability":"view"},{"type":"function","name":"getAccruedYield","inputs":[{"name":"dealId","type":"uint256","internalType":"uint256"}],"outputs":[{"name":"","type":"uint256","internalType":"uint256"}],"stateMutability":"view"},{"type":"function","name":"getPrincipal","inputs":[{"name":"dealId","type":"uint256","internalType":"uint256"}],"outputs":[{"name":"","type":"uint256","internalType":"uint256"}],"stateMutability":"view"},{"type":"function","name":"owner","inputs":[],"outputs":[{"name":"","type":"address","internalType":"address"}],"stateMutability":"view"},{"type":"function","name":"rescueTokens","inputs":[{"name":"_token","type":"address","internalType":"contract IERC20"},{"name":"to","type":"address","internalType":"address"},{"name":"amount","type":"uint256","internalType":"uint256"}],"outputs":[],"stateMutability":"nonpayable"},{"type":"function","name":"setEscrow","inputs":[{"name":"_escrow","type":"address","internalType":"address"}],"outputs":[],"stateMutability":"nonpayable"},{"type":"function","name":"token","inputs":[],"outputs":[{"name":"","type":"address","internalType":"contract IERC20"}],"stateMutability":"view"},{"type":"function","name":"totalDeposited","inputs":[],"outputs":[{"name":"","type":"uint256","internalType":"uint256"}],"stateMutability":"view"},{"type":"function","name":"withdraw","inputs":[{"name":"dealId","type":"uint256","internalType":"uint256"}],"outputs":[{"name":"total","type":"uint256","internalType":"uint256"}],"stateMutability":"nonpayable"},{"type":"event","name":"Deposited","inputs":[{"name":"dealId","type":"uint256","indexed":true,"internalType":"uint256"},{"name":"amount","type":"uint256","indexed":false,"internalType":"uint256"},{"name":"aTokenReceived","type":"uint256","indexed":false,"internalType":"uint256"}],"anonymous":false},{"type":"event","name":"EscrowSet","inputs":[{"name":"escrow","type":"address","indexed":false,"internalType":"address"}],"anonymous":false},{"type":"event","name":"Withdrawn","inputs":[{"name":"dealId","type":"uint256","indexed":true,"internalType":"uint256"},{"name":"principal","type":"uint256","indexed":false,"internalType":"uint256"},{"name":"total","type":"uint256","indexed":false,"internalType":"uint256"}],"anonymous":false},{"type":"error","name":"DealAlreadyDeposited","inputs":[]},{"type":"error","name":"EscrowAlreadySet","inputs":[]},{"type":"error","name":"InvalidAmount","inputs":[]},{"type":"error","name":"InvalidEscrow","inputs":[]},{"type":"error","name":"InvalidToken","inputs":[]},{"type":"error","name":"NoActiveDeposit","inputs":[]},{"type":"error","name":"OnlyEscrow","inputs":[]},{"type":"error","name":"OnlyOwner","inputs":[]},{"type":"error","name":"SafeERC20FailedOperation","inputs":[{"name":"token","type":"address","internalType":"address"}]}],"bytecode":{"object":"0x610100604052348015610010575f80fd5b5060405161104538038061104583398101604081905261002f916100e0565b6001600160a01b0383166100565760405163c1ab6dc160e01b815260040160405180910390fd5b6001600160a01b03821661007d5760405163c1ab6dc160e01b815260040160405180910390fd5b6001600160a01b0381166100a45760405163c1ab6dc160e01b815260040160405180910390fd5b6001600160a01b0392831660805290821660a0521660c0523360e052610120565b80516001600160a01b03811681146100db575f80fd5b919050565b5f805f606084860312156100f2575f80fd5b6100fb846100c5565b9250610109602085016100c5565b9150610117604085016100c5565b90509250925092565b60805160a05160c05160e051610e896101bc5f395f818161010d01528181610650015261073c01525f818161014c0152818161051c015281816105910152818161090a015261098101525f8181610173015281816102ec01528181610431015281816104fa0152818161082d01526109f901525f81816102750152818161055a015281816108b1015281816108e801526109460152610e895ff3fe608060405234801561000f575f80fd5b50600436106100cb575f3560e01c8063c10c354611610088578063e2bbb15811610063578063e2bbb1581461024b578063e2fdcc171461025e578063fc0c546a14610270578063ff50abdc14610297575f80fd5b8063c10c354614610204578063cea9d26f14610219578063da4779e01461022c575f80fd5b806324d09a8f146100cf5780632e1a7d4d146100f55780638da5cb5b14610108578063a03e4bc314610147578063a0c1f15e1461016e578063b02c43d014610195575b5f80fd5b6100e26100dd366004610d1e565b6102a0565b6040519081526020015b60405180910390f35b6100e2610103366004610d1e565b6103b6565b61012f7f000000000000000000000000000000000000000000000000000000000000000081565b6040516001600160a01b0390911681526020016100ec565b61012f7f000000000000000000000000000000000000000000000000000000000000000081565b61012f7f000000000000000000000000000000000000000000000000000000000000000081565b6101d56101a3366004610d1e565b600160208190525f918252604090912080549181015460029091015464ffffffffff811690600160281b900460ff1684565b6040516100ec9493929190938452602084019290925264ffffffffff1660408301521515606082015260800190565b610217610212366004610d4c565b610645565b005b610217610227366004610d6e565b610731565b6100e261023a366004610d1e565b5f9081526001602052604090205490565b610217610259366004610dac565b610793565b5f5461012f906001600160a01b031681565b61012f7f000000000000000000000000000000000000000000000000000000000000000081565b6100e260025481565b5f8181526001602052604081206002810154600160281b900460ff1615806102c85750600254155b156102d557505f92915050565b6040516370a0823160e01b81523060048201525f907f00000000000000000000000000000000000000000000000000000000000000006001600160a01b0316906370a0823190602401602060405180830381865afa158015610339573d5f803e3d5ffd5b505050506040513d601f19601f8201168201806040525081019061035d9190610dcc565b90505f825f01546002540361037357508061038f565b60025483546103829084610df7565b61038c9190610e0e565b90505b825481116103a157505f949350505050565b82546103ad9082610e2d565b95945050505050565b5f80546001600160a01b031633146103e157604051630d0418ed60e11b815260040160405180910390fd5b5f8281526001602052604090206002810154600160281b900460ff1661041a5760405163a542e6b360e01b815260040160405180910390fd5b6040516370a0823160e01b81523060048201525f907f00000000000000000000000000000000000000000000000000000000000000006001600160a01b0316906370a0823190602401602060405180830381865afa15801561047e573d5f803e3d5ffd5b505050506040513d601f19601f820116820180604052508101906104a29190610dcc565b90505f825f0154600254036104b85750806104d4565b60025483546104c79084610df7565b6104d19190610e0e565b90505b6002808401805465ff000000000019169055835481540390556105416001600160a01b037f0000000000000000000000000000000000000000000000000000000000000000167f000000000000000000000000000000000000000000000000000000000000000083610b36565b5f54604051631a4ca37b60e21b81526001600160a01b037f0000000000000000000000000000000000000000000000000000000000000000811660048301526024820184905291821660448201527f0000000000000000000000000000000000000000000000000000000000000000909116906369328dec906064016020604051808303815f875af11580156105d9573d5f803e3d5ffd5b505050506040513d601f19601f820116820180604052508101906105fd9190610dcc565b8354604080519182526020820183905291955086917fabd2ab552bc04cdbfa4a54107fa44ac8c9cb06f6d21da11933ac05a653be19e9910160405180910390a2505050919050565b336001600160a01b037f0000000000000000000000000000000000000000000000000000000000000000161461068e57604051635fc483c560e01b815260040160405180910390fd5b5f546001600160a01b0316156106b75760405163023b82b360e61b815260040160405180910390fd5b6001600160a01b0381166106de5760405163c4c3834b60e01b815260040160405180910390fd5b5f80546001600160a01b0319166001600160a01b0383169081179091556040519081527fa585aec3a6cb0e1a084ed18c7638024e40cc3e3ea815166e2cb6fc17d7f1392b9060200160405180910390a150565b336001600160a01b037f0000000000000000000000000000000000000000000000000000000000000000161461077a57604051635fc483c560e01b815260040160405180910390fd5b61078e6001600160a01b0384168383610bf9565b505050565b5f546001600160a01b031633146107bd57604051630d0418ed60e11b815260040160405180910390fd5b5f82815260016020526040902060020154600160281b900460ff16156107f6576040516367a8c21d60e11b815260040160405180910390fd5b805f036108165760405163162908e360e11b815260040160405180910390fd5b6040516370a0823160e01b81523060048201525f907f00000000000000000000000000000000000000000000000000000000000000006001600160a01b0316906370a0823190602401602060405180830381865afa15801561087a573d5f803e3d5ffd5b505050506040513d601f19601f8201168201806040525081019061089e9190610dcc565b5f549091506108db906001600160a01b037f0000000000000000000000000000000000000000000000000000000000000000811691163085610c2a565b61092f6001600160a01b037f0000000000000000000000000000000000000000000000000000000000000000167f000000000000000000000000000000000000000000000000000000000000000084610b36565b60405163617ba03760e01b81526001600160a01b037f000000000000000000000000000000000000000000000000000000000000000081166004830152602482018490523060448301525f60648301527f0000000000000000000000000000000000000000000000000000000000000000169063617ba037906084015f604051808303815f87803b1580156109c2575f80fd5b505af11580156109d4573d5f803e3d5ffd5b50506040516370a0823160e01b81523060048201525f92508391506001600160a01b037f000000000000000000000000000000000000000000000000000000000000000016906370a0823190602401602060405180830381865afa158015610a3e573d5f803e3d5ffd5b505050506040513d601f19601f82011682018060405250810190610a629190610dcc565b610a6c9190610e2d565b60408051608081018252858152602080820184815264ffffffffff4281168486019081526001606086018181525f8d8152958290529685209551865592519285019290925590516002938401805495511515600160281b0265ffffffffffff1990961691909216179390931790925580549293508592909190610af0908490610e40565b9091555050604080518481526020810183905285917f1ca606821992e3b34613b5b29c0bbade3a907b2969d7f9f2927f726fa4baccfb910160405180910390a250505050565b604080516001600160a01b038416602482015260448082018490528251808303909101815260649091019091526020810180516001600160e01b031663095ea7b360e01b179052610b878482610c63565b610bf3576040516001600160a01b0384811660248301525f6044830152610be991869182169063095ea7b3906064015b604051602081830303815290604052915060e01b6020820180516001600160e01b038381831617835250505050610cae565b610bf38482610cae565b50505050565b6040516001600160a01b0383811660248301526044820183905261078e91859182169063a9059cbb90606401610bb7565b6040516001600160a01b038481166024830152838116604483015260648201839052610bf39186918216906323b872dd90608401610bb7565b5f805f8060205f8651602088015f8a5af192503d91505f519050828015610ca257508115610c945780600114610ca2565b5f866001600160a01b03163b115b93505050505b92915050565b5f8060205f8451602086015f885af180610ccd576040513d5f823e3d81fd5b50505f513d91508115610ce4578060011415610cf1565b6001600160a01b0384163b155b15610bf357604051635274afe760e01b81526001600160a01b038516600482015260240160405180910390fd5b5f60208284031215610d2e575f80fd5b5035919050565b6001600160a01b0381168114610d49575f80fd5b50565b5f60208284031215610d5c575f80fd5b8135610d6781610d35565b9392505050565b5f805f60608486031215610d80575f80fd5b8335610d8b81610d35565b92506020840135610d9b81610d35565b929592945050506040919091013590565b5f8060408385031215610dbd575f80fd5b50508035926020909101359150565b5f60208284031215610ddc575f80fd5b5051919050565b634e487b7160e01b5f52601160045260245ffd5b8082028115828204841417610ca857610ca8610de3565b5f82610e2857634e487b7160e01b5f52601260045260245ffd5b500490565b81810381811115610ca857610ca8610de3565b80820180821115610ca857610ca8610de356fea26469706673582212204bc02698d315bc54eb8ef523567354796ced6695d9365761d4cca30b6c69a11364736f6c634300081a0033","linkReferences":{}},"methodIdentifiers":{"aToken()":"a0c1f15e","aavePool()":"a03e4bc3","deposit(uint256,uint256)":"e2bbb158","deposits(uint256)":"b02c43d0","escrow()":"e2fdcc17","getAccruedYield(uint256)":"24d09a8f","getPrincipal(uint256)":"da4779e0","owner()":"8da5cb5b","rescueTokens(address,address,uint256)":"cea9d26f","setEscrow(address)":"c10c3546","token()":"fc0c546a","totalDeposited()":"ff50abdc","withdraw(uint256)":"2e1a7d4d"},"id":0}