{"abi":[{"type":"constructor","inputs":[{"name":"_token","type":"address","internalType":"address"},{"name":"_aToken","type":"address","internalType":"address"},{"name":"_aavePool","type":"address","internalType":"address"}],"stateMutability":"nonpayable"},{"type":"function","name":"aToken","inputs":[],"outputs":[{"name":"","type":"address","internalType":"contract IERC20"}],"stateMutability":"view"},{"type":"function","name":"aavePool","inputs":[],"outputs":[{"name":"","type":"address","internalType":"contract IAavePool"}],"stateMutability":"view"},{"type":"function","name":"deposit","inputs":[{"name":"dealId","type":"uint256","internalType":"uint256"},{"name":"amount","type":"uint256","internalType":"uint256"}],"outputs":[],"stateMutability":"nonpayable"},{"type":"function","name":"deposits","inputs":[{"name":"","type":"uint256","internalType":"uint256"}],"outputs":[{"name":"principal","type":"uint256","internalType":"uint256"},{"name":"aTokenBalance","type":"uint256","internalType":"uint256"},{"name":"depositTimestamp","type":"uint40","internalType":"uint40"},{"name":"active","type":"bool","internalType":"bool"}],"stateMutability":"view"},{"type":"function","name":"escrow","inputs":[],"outputs":[{"name":"","type":"address","internalType":"address"}],"stateMutability":"view"},{"type":"function","name":"getAccruedYield","inputs":[{"name":"dealId","type":"uint256","internalType":"uint256"}],"outputs":[{"name":"","type":"uint256","internalType":"uint256"}],"stateMutability":"view"},{"type":"function","name":"getPrincipal","inputs":[{"name":"dealId","type":"uint256","internalType":"uint256"}],"outputs":[{"name":"","type":"uint256","internalType":"uint256"}],"stateMutability":"view"},{"type":"function","name":"owner","inputs":[],"outputs":[{"name":"","type":"address","internalType":"address"}],"stateMutability":"view"},{"type":"function","name":"setEscrow","inputs":[{"name":"_escrow","type":"address","internalType":"address"}],"outputs":[],"stateMutability":"nonpayable"},{"type":"function","name":"token","inputs":[],"outputs":[{"name":"","type":"address","internalType":"contract IERC20"}],"stateMutability":"view"},{"type":"function","name":"totalDeposited","inputs":[],"outputs":[{"name":"","type":"uint256","internalType":"uint256"}],"stateMutability":"view"},{"type":"function","name":"withdraw","inputs":[{"name":"dealId","type":"uint256","internalType":"uint256"}],"outputs":[{"name":"total","type":"uint256","internalType":"uint256"}],"stateMutability":"nonpayable"},{"type":"event","name":"Deposited","inputs":[{"name":"dealId","type":"uint256","indexed":true,"internalType":"uint256"},{"name":"amount","type":"uint256","indexed":false,"internalType":"uint256"},{"name":"aTokenReceived","type":"uint256","indexed":false,"internalType":"uint256"}],"anonymous":false},{"type":"event","name":"EscrowSet","inputs":[{"name":"escrow","type":"address","indexed":false,"internalType":"address"}],"anonymous":false},{"type":"event","name":"Withdrawn","inputs":[{"name":"dealId","type":"uint256","indexed":true,"internalType":"uint256"},{"name":"principal","type":"uint256","indexed":false,"internalType":"uint256"},{"name":"total","type":"uint256","indexed":false,"internalType":"uint256"}],"anonymous":false},{"type":"error","name":"DealAlreadyDeposited","inputs":[]},{"type":"error","name":"EscrowAlreadySet","inputs":[]},{"type":"error","name":"InvalidAmount","inputs":[]},{"type":"error","name":"InvalidEscrow","inputs":[]},{"type":"error","name":"InvalidToken","inputs":[]},{"type":"error","name":"NoActiveDeposit","inputs":[]},{"type":"error","name":"OnlyEscrow","inputs":[]},{"type":"error","name":"OnlyOwner","inputs":[]},{"type":"error","name":"SafeERC20FailedOperation","inputs":[{"name":"token","type":"address","internalType":"address"}]}],"bytecode":{"object":"0x610100604052348015610010575f80fd5b50604051610f33380380610f3383398101604081905261002f916100e0565b6001600160a01b0383166100565760405163c1ab6dc160e01b815260040160405180910390fd5b6001600160a01b03821661007d5760405163c1ab6dc160e01b815260040160405180910390fd5b6001600160a01b0381166100a45760405163c1ab6dc160e01b815260040160405180910390fd5b6001600160a01b0392831660805290821660a0521660c0523360e052610120565b80516001600160a01b03811681146100db575f80fd5b919050565b5f805f606084860312156100f2575f80fd5b6100fb846100c5565b9250610109602085016100c5565b9150610117604085016100c5565b90509250925092565b60805160a05160c05160e051610d7f6101b45f395f818160f3015261062301525f8181610132015281816104ef015281816105640152818161087b01526108f201525f8181610159015281816102bf01528181610404015281816104cd0152818161079e015261096a01525f81816102480152818161052d015281816108220152818161085901526108b70152610d7f5ff3fe608060405234801561000f575f80fd5b50600436106100b1575f3560e01c8063c10c35461161006e578063c10c3546146101ea578063da4779e0146101ff578063e2bbb1581461021e578063e2fdcc1714610231578063fc0c546a14610243578063ff50abdc1461026a575f80fd5b806324d09a8f146100b55780632e1a7d4d146100db5780638da5cb5b146100ee578063a03e4bc31461012d578063a0c1f15e14610154578063b02c43d01461017b575b5f80fd5b6100c86100c3366004610c5e565b610273565b6040519081526020015b60405180910390f35b6100c86100e9366004610c5e565b610389565b6101157f000000000000000000000000000000000000000000000000000000000000000081565b6040516001600160a01b0390911681526020016100d2565b6101157f000000000000000000000000000000000000000000000000000000000000000081565b6101157f000000000000000000000000000000000000000000000000000000000000000081565b6101bb610189366004610c5e565b600160208190525f918252604090912080549181015460029091015464ffffffffff811690600160281b900460ff1684565b6040516100d29493929190938452602084019290925264ffffffffff1660408301521515606082015260800190565b6101fd6101f8366004610c75565b610618565b005b6100c861020d366004610c5e565b5f9081526001602052604090205490565b6101fd61022c366004610ca2565b610704565b5f54610115906001600160a01b031681565b6101157f000000000000000000000000000000000000000000000000000000000000000081565b6100c860025481565b5f8181526001602052604081206002810154600160281b900460ff16158061029b5750600254155b156102a857505f92915050565b6040516370a0823160e01b81523060048201525f907f00000000000000000000000000000000000000000000000000000000000000006001600160a01b0316906370a0823190602401602060405180830381865afa15801561030c573d5f803e3d5ffd5b505050506040513d601f19601f820116820180604052508101906103309190610cc2565b90505f825f015460025403610346575080610362565b60025483546103559084610ced565b61035f9190610d04565b90505b8254811161037457505f949350505050565b82546103809082610d23565b95945050505050565b5f80546001600160a01b031633146103b457604051630d0418ed60e11b815260040160405180910390fd5b5f8281526001602052604090206002810154600160281b900460ff166103ed5760405163a542e6b360e01b815260040160405180910390fd5b6040516370a0823160e01b81523060048201525f907f00000000000000000000000000000000000000000000000000000000000000006001600160a01b0316906370a0823190602401602060405180830381865afa158015610451573d5f803e3d5ffd5b505050506040513d601f19601f820116820180604052508101906104759190610cc2565b90505f825f01546002540361048b5750806104a7565b600254835461049a9084610ced565b6104a49190610d04565b90505b6002808401805465ff000000000019169055835481540390556105146001600160a01b037f0000000000000000000000000000000000000000000000000000000000000000167f000000000000000000000000000000000000000000000000000000000000000083610aa7565b5f54604051631a4ca37b60e21b81526001600160a01b037f0000000000000000000000000000000000000000000000000000000000000000811660048301526024820184905291821660448201527f0000000000000000000000000000000000000000000000000000000000000000909116906369328dec906064016020604051808303815f875af11580156105ac573d5f803e3d5ffd5b505050506040513d601f19601f820116820180604052508101906105d09190610cc2565b8354604080519182526020820183905291955086917fabd2ab552bc04cdbfa4a54107fa44ac8c9cb06f6d21da11933ac05a653be19e9910160405180910390a2505050919050565b336001600160a01b037f0000000000000000000000000000000000000000000000000000000000000000161461066157604051635fc483c560e01b815260040160405180910390fd5b5f546001600160a01b03161561068a5760405163023b82b360e61b815260040160405180910390fd5b6001600160a01b0381166106b15760405163c4c3834b60e01b815260040160405180910390fd5b5f80546001600160a01b0319166001600160a01b0383169081179091556040519081527fa585aec3a6cb0e1a084ed18c7638024e40cc3e3ea815166e2cb6fc17d7f1392b9060200160405180910390a150565b5f546001600160a01b0316331461072e57604051630d0418ed60e11b815260040160405180910390fd5b5f82815260016020526040902060020154600160281b900460ff1615610767576040516367a8c21d60e11b815260040160405180910390fd5b805f036107875760405163162908e360e11b815260040160405180910390fd5b6040516370a0823160e01b81523060048201525f907f00000000000000000000000000000000000000000000000000000000000000006001600160a01b0316906370a0823190602401602060405180830381865afa1580156107eb573d5f803e3d5ffd5b505050506040513d601f19601f8201168201806040525081019061080f9190610cc2565b5f5490915061084c906001600160a01b037f0000000000000000000000000000000000000000000000000000000000000000811691163085610b6a565b6108a06001600160a01b037f0000000000000000000000000000000000000000000000000000000000000000167f000000000000000000000000000000000000000000000000000000000000000084610aa7565b60405163617ba03760e01b81526001600160a01b037f000000000000000000000000000000000000000000000000000000000000000081166004830152602482018490523060448301525f60648301527f0000000000000000000000000000000000000000000000000000000000000000169063617ba037906084015f604051808303815f87803b158015610933575f80fd5b505af1158015610945573d5f803e3d5ffd5b50506040516370a0823160e01b81523060048201525f92508391506001600160a01b037f000000000000000000000000000000000000000000000000000000000000000016906370a0823190602401602060405180830381865afa1580156109af573d5f803e3d5ffd5b505050506040513d601f19601f820116820180604052508101906109d39190610cc2565b6109dd9190610d23565b60408051608081018252858152602080820184815264ffffffffff4281168486019081526001606086018181525f8d8152958290529685209551865592519285019290925590516002938401805495511515600160281b0265ffffffffffff1990961691909216179390931790925580549293508592909190610a61908490610d36565b9091555050604080518481526020810183905285917f1ca606821992e3b34613b5b29c0bbade3a907b2969d7f9f2927f726fa4baccfb910160405180910390a250505050565b604080516001600160a01b038416602482015260448082018490528251808303909101815260649091019091526020810180516001600160e01b031663095ea7b360e01b179052610af88482610ba3565b610b64576040516001600160a01b0384811660248301525f6044830152610b5a91869182169063095ea7b3906064015b604051602081830303815290604052915060e01b6020820180516001600160e01b038381831617835250505050610bee565b610b648482610bee565b50505050565b6040516001600160a01b038481166024830152838116604483015260648201839052610b649186918216906323b872dd90608401610b28565b5f805f8060205f8651602088015f8a5af192503d91505f519050828015610be257508115610bd45780600114610be2565b5f866001600160a01b03163b115b93505050505b92915050565b5f8060205f8451602086015f885af180610c0d576040513d5f823e3d81fd5b50505f513d91508115610c24578060011415610c31565b6001600160a01b0384163b155b15610b6457604051635274afe760e01b81526001600160a01b038516600482015260240160405180910390fd5b5f60208284031215610c6e575f80fd5b5035919050565b5f60208284031215610c85575f80fd5b81356001600160a01b0381168114610c9b575f80fd5b9392505050565b5f8060408385031215610cb3575f80fd5b50508035926020909101359150565b5f60208284031215610cd2575f80fd5b5051919050565b634e487b7160e01b5f52601160045260245ffd5b8082028115828204841417610be857610be8610cd9565b5f82610d1e57634e487b7160e01b5f52601260045260245ffd5b500490565b81810381811115610be857610be8610cd9565b80820180821115610be857610be8610cd956fea2646970667358221220b901fc99e4111521dc2da70b46d16138b2436c2b549e4cd02c5aaa6529d1f34464736f6c634300081a0033","linkReferences":{}},"methodIdentifiers":{"aToken()":"a0c1f15e","aavePool()":"a03e4bc3","deposit(uint256,uint256)":"e2bbb158","deposits(uint256)":"b02c43d0","escrow()":"e2fdcc17","getAccruedYield(uint256)":"24d09a8f","getPrincipal(uint256)":"da4779e0","owner()":"8da5cb5b","setEscrow(address)":"c10c3546","token()":"fc0c546a","totalDeposited()":"ff50abdc","withdraw(uint256)":"2e1a7d4d"},"id":0}