{"abi":[{"type":"function","name":"getSettleCallCount","inputs":[],"outputs":[{"name":"","type":"uint256","internalType":"uint256"}],"stateMutability":"view"},{"type":"function","name":"getSettleWithHookCallCount","inputs":[],"outputs":[{"name":"","type":"uint256","internalType":"uint256"}],"stateMutability":"view"},{"type":"function","name":"settle","inputs":[{"name":"params","type":"tuple","internalType":"struct SettleParams","components":[{"name":"dealId","type":"uint256","internalType":"uint256"},{"name":"depositor","type":"address","internalType":"address"},{"name":"counterparty","type":"address","internalType":"address"},{"name":"principal","type":"uint256","internalType":"uint256"},{"name":"total","type":"uint256","internalType":"uint256"},{"name":"yieldSplitCounterparty","type":"uint8","internalType":"uint8"}]},{"name":"lifiData","type":"bytes","internalType":"bytes"}],"outputs":[],"stateMutability":"nonpayable"},{"type":"function","name":"settleCalls","inputs":[{"name":"","type":"uint256","internalType":"uint256"}],"outputs":[{"name":"dealId","type":"uint256","internalType":"uint256"},{"name":"depositor","type":"address","internalType":"address"},{"name":"counterparty","type":"address","internalType":"address"},{"name":"principal","type":"uint256","internalType":"uint256"},{"name":"total","type":"uint256","internalType":"uint256"},{"name":"yieldSplitCounterparty","type":"uint8","internalType":"uint8"},{"name":"lifiData","type":"bytes","internalType":"bytes"}],"stateMutability":"view"},{"type":"function","name":"settleWithHook","inputs":[{"name":"params","type":"tuple","internalType":"struct SettleParams","components":[{"name":"dealId","type":"uint256","internalType":"uint256"},{"name":"depositor","type":"address","internalType":"address"},{"name":"counterparty","type":"address","internalType":"address"},{"name":"principal","type":"uint256","internalType":"uint256"},{"name":"total","type":"uint256","internalType":"uint256"},{"name":"yieldSplitCounterparty","type":"uint8","internalType":"uint8"}]},{"name":"preferredToken","type":"address","internalType":"address"}],"outputs":[],"stateMutability":"nonpayable"},{"type":"function","name":"settleWithHookCalls","inputs":[{"name":"","type":"uint256","internalType":"uint256"}],"outputs":[{"name":"dealId","type":"uint256","internalType":"uint256"},{"name":"depositor","type":"address","internalType":"address"},{"name":"counterparty","type":"address","internalType":"address"},{"name":"principal","type":"uint256","internalType":"uint256"},{"name":"total","type":"uint256","internalType":"uint256"},{"name":"yieldSplitCounterparty","type":"uint8","internalType":"uint8"},{"name":"preferredToken","type":"address","internalType":"address"}],"stateMutability":"view"},{"type":"event","name":"DealSettled","inputs":[{"name":"dealId","type":"uint256","indexed":true,"internalType":"uint256"},{"name":"depositor","type":"address","indexed":true,"internalType":"address"},{"name":"counterparty","type":"address","indexed":true,"internalType":"address"},{"name":"counterpartyPayout","type":"uint256","indexed":false,"internalType":"uint256"},{"name":"depositorPayout","type":"uint256","indexed":false,"internalType":"uint256"}],"anonymous":false},{"type":"event","name":"EscrowUpdated","inputs":[{"name":"escrow","type":"address","indexed":true,"internalType":"address"}],"anonymous":false},{"type":"event","name":"HookUpdated","inputs":[{"name":"hook","type":"address","indexed":true,"internalType":"address"}],"anonymous":false},{"type":"error","name":"HookNotConfigured","inputs":[]},{"type":"error","name":"InvalidEscrow","inputs":[]},{"type":"error","name":"InvalidPrincipal","inputs":[]},{"type":"error","name":"InvalidToken","inputs":[]},{"type":"error","name":"InvalidYieldSplit","inputs":[]},{"type":"error","name":"LiFiAmountMismatch","inputs":[]},{"type":"error","name":"LiFiBridgeFailed","inputs":[]},{"type":"error","name":"LiFiNotConfigured","inputs":[]},{"type":"error","name":"OnlyEscrow","inputs":[]},{"type":"error","name":"OnlyOwner","inputs":[]},{"type":"error","name":"TotalLessThanPrincipal","inputs":[]}],"bytecode":{"object":"0x6080604052348015600e575f80fd5b506108198061001c5f395ff3fe608060405234801561000f575f80fd5b5060043610610060575f3560e01c806326fa7f241461006457806342a7155c1461007b5780635f1c753a14610090578063850ad1ba146100975780638f9c8602146100aa578063cfc6bd8b146100d0575b5f80fd5b6001545b6040519081526020015b60405180910390f35b61008e610089366004610519565b610127565b005b5f54610068565b61008e6100a536600461054b565b610249565b6100bd6100b83660046105ca565b6103a5565b60405161007297969594939291906105e1565b6100e36100de3660046105ca565b61048b565b604080519788526001600160a01b039687166020890152948616948701949094526060860192909252608085015260ff1660a08401521660c082015260e001610072565b60016040518060e00160405280845f013581526020018460200160208101906101509190610656565b6001600160a01b0316815260200161016e6060860160408701610656565b6001600160a01b031681526060808601356020830152608086013560408301520161019f60c0860160a08701610676565b60ff90811682526001600160a01b039485166020928301528354600181810186555f9586529483902084516006909202019081559183015193820180549486166001600160a01b031995861617905560408301516002830180549187169190951617909355606082015160038201556080820151600482015560a08201516005909101805460c090930151909416610100026001600160a81b031990921692169190911717905550565b5f6040518060e00160405280855f013581526020018560200160208101906102719190610656565b6001600160a01b0316815260200161028f6060870160408801610656565b6001600160a01b03168152606080870135602083015260808701356040830152016102c060c0870160a08801610676565b60ff16815260200184848080601f0160208091040260200160405190810160405280939291908181526020018383808284375f92018290525093909452505083546001818101865594825260209182902084516007909202019081559083015193810180546001600160a01b039586166001600160a01b03199182161790915560408401516002830180549190961691161790935550606081015160038301556080810151600483015560a081015160058301805460ff90921660ff1990921691909117905560c0810151909190600682019061039d9082610728565b505050505050565b5f81815481106103b3575f80fd5b5f91825260209091206007909102018054600182015460028301546003840154600485015460058601546006870180549698506001600160a01b039586169795909416959294919360ff9091169261040a906106aa565b80601f0160208091040260200160405190810160405280929190818152602001828054610436906106aa565b80156104815780601f1061045857610100808354040283529160200191610481565b820191905f5260205f20905b81548152906001019060200180831161046457829003601f168201915b5050505050905087565b6001818154811061049a575f80fd5b5f9182526020909120600690910201805460018201546002830154600384015460048501546005909501549395506001600160a01b039283169491831693909260ff82169161010090041687565b5f60c082840312156104f8575f80fd5b50919050565b80356001600160a01b0381168114610514575f80fd5b919050565b5f8060e0838503121561052a575f80fd5b61053484846104e8565b915061054260c084016104fe565b90509250929050565b5f805f60e0848603121561055d575f80fd5b61056785856104e8565b925060c084013567ffffffffffffffff811115610582575f80fd5b8401601f81018613610592575f80fd5b803567ffffffffffffffff8111156105a8575f80fd5b8660208284010111156105b9575f80fd5b939660209190910195509293505050565b5f602082840312156105da575f80fd5b5035919050565b87815260018060a01b038716602082015260018060a01b038616604082015284606082015283608082015260ff831660a082015260e060c08201525f82518060e0840152806020850161010085015e5f6101008285010152610100601f19601f83011684010191505098975050505050505050565b5f60208284031215610666575f80fd5b61066f826104fe565b9392505050565b5f60208284031215610686575f80fd5b813560ff8116811461066f575f80fd5b634e487b7160e01b5f52604160045260245ffd5b600181811c908216806106be57607f821691505b6020821081036104f857634e487b7160e01b5f52602260045260245ffd5b601f82111561072357805f5260205f20601f840160051c810160208510156107015750805b601f840160051c820191505b81811015610720575f815560010161070d565b50505b505050565b815167ffffffffffffffff81111561074257610742610696565b6107568161075084546106aa565b846106dc565b6020601f821160018114610788575f83156107715750848201515b5f19600385901b1c1916600184901b178455610720565b5f84815260208120601f198516915b828110156107b75787850151825560209485019460019092019101610797565b50848210156107d457868401515f19600387901b60f8161c191681555b50505050600190811b0190555056fea26469706673582212202602464b0badec64f1cecc6a008268e8c2f393ae83f35ab6cd85f0b5f0dd448864736f6c634300081a0033","linkReferences":{}},"methodIdentifiers":{"getSettleCallCount()":"5f1c753a","getSettleWithHookCallCount()":"26fa7f24","settle((uint256,address,address,uint256,uint256,uint8),bytes)":"850ad1ba","settleCalls(uint256)":"8f9c8602","settleWithHook((uint256,address,address,uint256,uint256,uint8),address)":"42a7155c","settleWithHookCalls(uint256)":"cfc6bd8b"},"id":12}