{"abi":[{"type":"function","name":"getSettleCallCount","inputs":[],"outputs":[{"name":"","type":"uint256","internalType":"uint256"}],"stateMutability":"view"},{"type":"function","name":"getSettleWithHookCallCount","inputs":[],"outputs":[{"name":"","type":"uint256","internalType":"uint256"}],"stateMutability":"view"},{"type":"function","name":"settle","inputs":[{"name":"dealId","type":"uint256","internalType":"uint256"},{"name":"depositor","type":"address","internalType":"address"},{"name":"counterparty","type":"address","internalType":"address"},{"name":"principal","type":"uint256","internalType":"uint256"},{"name":"total","type":"uint256","internalType":"uint256"},{"name":"yieldSplitCounterparty","type":"uint8","internalType":"uint8"},{"name":"lifiData","type":"bytes","internalType":"bytes"}],"outputs":[],"stateMutability":"nonpayable"},{"type":"function","name":"settleCalls","inputs":[{"name":"","type":"uint256","internalType":"uint256"}],"outputs":[{"name":"dealId","type":"uint256","internalType":"uint256"},{"name":"depositor","type":"address","internalType":"address"},{"name":"counterparty","type":"address","internalType":"address"},{"name":"principal","type":"uint256","internalType":"uint256"},{"name":"total","type":"uint256","internalType":"uint256"},{"name":"yieldSplitCounterparty","type":"uint8","internalType":"uint8"},{"name":"lifiData","type":"bytes","internalType":"bytes"}],"stateMutability":"view"},{"type":"function","name":"settleWithHook","inputs":[{"name":"dealId","type":"uint256","internalType":"uint256"},{"name":"depositor","type":"address","internalType":"address"},{"name":"counterparty","type":"address","internalType":"address"},{"name":"principal","type":"uint256","internalType":"uint256"},{"name":"total","type":"uint256","internalType":"uint256"},{"name":"yieldSplitCounterparty","type":"uint8","internalType":"uint8"},{"name":"preferredToken","type":"address","internalType":"address"}],"outputs":[],"stateMutability":"nonpayable"},{"type":"function","name":"settleWithHookCalls","inputs":[{"name":"","type":"uint256","internalType":"uint256"}],"outputs":[{"name":"dealId","type":"uint256","internalType":"uint256"},{"name":"depositor","type":"address","internalType":"address"},{"name":"counterparty","type":"address","internalType":"address"},{"name":"principal","type":"uint256","internalType":"uint256"},{"name":"total","type":"uint256","internalType":"uint256"},{"name":"yieldSplitCounterparty","type":"uint8","internalType":"uint8"},{"name":"preferredToken","type":"address","internalType":"address"}],"stateMutability":"view"}],"bytecode":{"object":"0x608060405234801561000f575f80fd5b506108938061001d5f395ff3fe608060405234801561000f575f80fd5b5060043610610060575f3560e01c806326fa7f24146100645780635ab9a38c1461007b5780635f1c753a146102145780638f9c86021461021b578063b310d9c614610241578063cfc6bd8b14610254575b5f80fd5b6001545b6040519081526020015b60405180910390f35b610212610089366004610540565b6040805160e0810182529788526001600160a01b0396871660208901908152958716908801908152606088019485526080880193845260ff92831660a0890190815291871660c089019081526001805480820182555f91909152985160069099027fb10e2d527612073b26eecdfd717e6a320cf44b4afac2b0732d9fcbe2b7fa0cf681019990995595517fb10e2d527612073b26eecdfd717e6a320cf44b4afac2b0732d9fcbe2b7fa0cf7890180549189166001600160a01b031992831617905590517fb10e2d527612073b26eecdfd717e6a320cf44b4afac2b0732d9fcbe2b7fa0cf8890180549189169190921617905592517fb10e2d527612073b26eecdfd717e6a320cf44b4afac2b0732d9fcbe2b7fa0cf987015590517fb10e2d527612073b26eecdfd717e6a320cf44b4afac2b0732d9fcbe2b7fa0cfa86015590517fb10e2d527612073b26eecdfd717e6a320cf44b4afac2b0732d9fcbe2b7fa0cfb90940180549251909316610100026001600160a81b0319909216931692909217919091179055565b005b5f54610068565b61022e6102293660046105ac565b6102ab565b60405161007297969594939291906105c3565b61021261024f36600461064d565b610391565b6102676102623660046105ac565b6104b8565b604080519788526001600160a01b039687166020890152948616948701949094526060860192909252608085015260ff1660a08401521660c082015260e001610072565b5f81815481106102b9575f80fd5b5f91825260209091206007909102018054600182015460028301546003840154600485015460058601546006870180549698506001600160a01b039586169795909416959294919360ff9091169261031090610705565b80601f016020809104026020016040519081016040528092919081815260200182805461033c90610705565b80156103875780601f1061035e57610100808354040283529160200191610387565b820191905f5260205f20905b81548152906001019060200180831161036a57829003601f168201915b5050505050905087565b5f6040518060e001604052808a8152602001896001600160a01b03168152602001886001600160a01b031681526020018781526020018681526020018560ff16815260200184848080601f0160208091040260200160405190810160405280939291908181526020018383808284375f92018290525093909452505083546001818101865594825260209182902084516007909202019081559083015193810180546001600160a01b039586166001600160a01b03199182161790915560408401516002830180549190961691161790935550606081015160038301556080810151600483015560a081015160058301805460ff90921660ff1990921691909117905560c081015190919060068201906104ab908261079d565b5050505050505050505050565b600181815481106104c7575f80fd5b5f9182526020909120600690910201805460018201546002830154600384015460048501546005909501549395506001600160a01b039283169491831693909260ff82169161010090041687565b80356001600160a01b038116811461052b575f80fd5b919050565b803560ff8116811461052b575f80fd5b5f805f805f805f60e0888a031215610556575f80fd5b8735965061056660208901610515565b955061057460408901610515565b9450606088013593506080880135925061059060a08901610530565b915061059e60c08901610515565b905092959891949750929550565b5f602082840312156105bc575f80fd5b5035919050565b8781525f602060018060a01b03808a16602085015280891660408501525086606084015285608084015260ff851660a084015260e060c084015283518060e08501525f5b818110156106245785810183015185820161010001528201610607565b5061010091505f82828601015281601f19601f8301168501019250505098975050505050505050565b5f805f805f805f8060e0898b031215610664575f80fd5b8835975061067460208a01610515565b965061068260408a01610515565b9550606089013594506080890135935061069e60a08a01610530565b925060c089013567ffffffffffffffff808211156106ba575f80fd5b818b0191508b601f8301126106cd575f80fd5b8135818111156106db575f80fd5b8c60208285010111156106ec575f80fd5b6020830194508093505050509295985092959890939650565b600181811c9082168061071957607f821691505b60208210810361073757634e487b7160e01b5f52602260045260245ffd5b50919050565b634e487b7160e01b5f52604160045260245ffd5b601f82111561079857805f5260205f20601f840160051c810160208510156107765750805b601f840160051c820191505b81811015610795575f8155600101610782565b50505b505050565b815167ffffffffffffffff8111156107b7576107b761073d565b6107cb816107c58454610705565b84610751565b602080601f8311600181146107fe575f84156107e75750858301515b5f19600386901b1c1916600185901b178555610855565b5f85815260208120601f198616915b8281101561082c5788860151825594840194600190910190840161080d565b508582101561084957878501515f19600388901b60f8161c191681555b505060018460011b0185555b50505050505056fea264697066735822122006b4ba2b29bc56dcd3990c0b238472240870fd42f560816520005aac81fd421a64736f6c63430008180033","linkReferences":{}},"methodIdentifiers":{"getSettleCallCount()":"5f1c753a","getSettleWithHookCallCount()":"26fa7f24","settle(uint256,address,address,uint256,uint256,uint8,bytes)":"b310d9c6","settleCalls(uint256)":"8f9c8602","settleWithHook(uint256,address,address,uint256,uint256,uint8,address)":"5ab9a38c","settleWithHookCalls(uint256)":"cfc6bd8b"},"id":11}