{"abi":[{"type":"constructor","inputs":[{"name":"_token","type":"address","internalType":"address"},{"name":"_lifiDiamond","type":"address","internalType":"address"},{"name":"_hook","type":"address","internalType":"address"}],"stateMutability":"nonpayable"},{"type":"function","name":"escrow","inputs":[],"outputs":[{"name":"","type":"address","internalType":"address"}],"stateMutability":"view"},{"type":"function","name":"hook","inputs":[],"outputs":[{"name":"","type":"address","internalType":"contract IRestlessSettlementHook"}],"stateMutability":"view"},{"type":"function","name":"lifiDiamond","inputs":[],"outputs":[{"name":"","type":"address","internalType":"address"}],"stateMutability":"view"},{"type":"function","name":"owner","inputs":[],"outputs":[{"name":"","type":"address","internalType":"address"}],"stateMutability":"view"},{"type":"function","name":"rescueTokens","inputs":[{"name":"_token","type":"address","internalType":"contract IERC20"},{"name":"to","type":"address","internalType":"address"},{"name":"amount","type":"uint256","internalType":"uint256"}],"outputs":[],"stateMutability":"nonpayable"},{"type":"function","name":"setEscrow","inputs":[{"name":"_escrow","type":"address","internalType":"address"}],"outputs":[],"stateMutability":"nonpayable"},{"type":"function","name":"setHook","inputs":[{"name":"_hook","type":"address","internalType":"address"}],"outputs":[],"stateMutability":"nonpayable"},{"type":"function","name":"settle","inputs":[{"name":"params","type":"tuple","internalType":"struct SettleParams","components":[{"name":"dealId","type":"uint256","internalType":"uint256"},{"name":"depositor","type":"address","internalType":"address"},{"name":"counterparty","type":"address","internalType":"address"},{"name":"principal","type":"uint256","internalType":"uint256"},{"name":"total","type":"uint256","internalType":"uint256"},{"name":"yieldSplitCounterparty","type":"uint8","internalType":"uint8"}]},{"name":"lifiData","type":"bytes","internalType":"bytes"}],"outputs":[],"stateMutability":"nonpayable"},{"type":"function","name":"settleWithHook","inputs":[{"name":"params","type":"tuple","internalType":"struct SettleParams","components":[{"name":"dealId","type":"uint256","internalType":"uint256"},{"name":"depositor","type":"address","internalType":"address"},{"name":"counterparty","type":"address","internalType":"address"},{"name":"principal","type":"uint256","internalType":"uint256"},{"name":"total","type":"uint256","internalType":"uint256"},{"name":"yieldSplitCounterparty","type":"uint8","internalType":"uint8"}]},{"name":"preferredToken","type":"address","internalType":"address"}],"outputs":[],"stateMutability":"nonpayable"},{"type":"function","name":"token","inputs":[],"outputs":[{"name":"","type":"address","internalType":"contract IERC20"}],"stateMutability":"view"},{"type":"event","name":"DealSettled","inputs":[{"name":"dealId","type":"uint256","indexed":true,"internalType":"uint256"},{"name":"depositor","type":"address","indexed":true,"internalType":"address"},{"name":"counterparty","type":"address","indexed":true,"internalType":"address"},{"name":"counterpartyPayout","type":"uint256","indexed":false,"internalType":"uint256"},{"name":"depositorPayout","type":"uint256","indexed":false,"internalType":"uint256"}],"anonymous":false},{"type":"event","name":"EscrowUpdated","inputs":[{"name":"escrow","type":"address","indexed":true,"internalType":"address"}],"anonymous":false},{"type":"event","name":"HookUpdated","inputs":[{"name":"hook","type":"address","indexed":true,"internalType":"address"}],"anonymous":false},{"type":"error","name":"HookNotConfigured","inputs":[]},{"type":"error","name":"InvalidEscrow","inputs":[]},{"type":"error","name":"InvalidPrincipal","inputs":[]},{"type":"error","name":"InvalidToken","inputs":[]},{"type":"error","name":"InvalidYieldSplit","inputs":[]},{"type":"error","name":"LiFiAmountMismatch","inputs":[]},{"type":"error","name":"LiFiBridgeFailed","inputs":[]},{"type":"error","name":"LiFiNotConfigured","inputs":[]},{"type":"error","name":"OnlyEscrow","inputs":[]},{"type":"error","name":"OnlyOwner","inputs":[]},{"type":"error","name":"SafeERC20FailedOperation","inputs":[{"name":"token","type":"address","internalType":"address"}]},{"type":"error","name":"TotalLessThanPrincipal","inputs":[]}],"bytecode":{"object":"0x60e060405234801561000f575f80fd5b5060405161109038038061109083398101604081905261002e916100b2565b6001600160a01b0383166100555760405163c1ab6dc160e01b815260040160405180910390fd5b6001600160a01b0380841660805282811660a0523360c05281161561008f575f80546001600160a01b0319166001600160a01b0383161790555b5050506100f2565b80516001600160a01b03811681146100ad575f80fd5b919050565b5f805f606084860312156100c4575f80fd5b6100cd84610097565b92506100db60208501610097565b91506100e960408501610097565b90509250925092565b60805160a05160c051610efe6101925f395f8181610134015281816101c101528181610670015261072901525f818160a40152818161097101528181610a6f01528181610a970152610c0e01525f8181610194015281816102af0152818161031201528181610353015281816104370152818161051f015281816105be015281816109cd01528181610a4d01528181610b460152610bec0152610efe5ff3fe608060405234801561000f575f80fd5b506004361061009b575f3560e01c80638da5cb5b116100635780638da5cb5b1461012f578063c10c354614610156578063cea9d26f14610169578063e2fdcc171461017c578063fc0c546a1461018f575f80fd5b80632bd16c8f1461009f5780633dfd3873146100e257806342a7155c146100f75780637f5a7c7b1461010a578063850ad1ba1461011c575b5f80fd5b6100c67f000000000000000000000000000000000000000000000000000000000000000081565b6040516001600160a01b03909116815260200160405180910390f35b6100f56100f0366004610d09565b6101b6565b005b6100f5610105366004610d41565b610246565b5f546100c6906001600160a01b031681565b6100f561012a366004610d77565b6104de565b6100c67f000000000000000000000000000000000000000000000000000000000000000081565b6100f5610164366004610d09565b610665565b6100f5610177366004610df6565b61071e565b6001546100c6906001600160a01b031681565b6100c67f000000000000000000000000000000000000000000000000000000000000000081565b336001600160a01b037f000000000000000000000000000000000000000000000000000000000000000016146101ff57604051635fc483c560e01b815260040160405180910390fd5b5f80546001600160a01b0319166001600160a01b038316908117825560405190917fe816c20840d998c8612f9b624b91687a80510eeb293cb09f7637379f6d73342d91a250565b6001546001600160a01b0316331461027157604051630d0418ed60e11b815260040160405180910390fd5b61027a82610780565b5f546001600160a01b03166102a25760405163990d458560e01b815260040160405180910390fd5b6102db6001600160a01b037f00000000000000000000000000000000000000000000000000000000000000001633306080860135610804565b5f806102e684610871565b909250905060608401351561033d5761033d6103086060860160408701610d09565b6001600160a01b037f0000000000000000000000000000000000000000000000000000000000000000169060608701356108af565b8115610414575f5461037c906001600160a01b037f000000000000000000000000000000000000000000000000000000000000000081169116846108e0565b5f546001600160a01b03166329d0820b61039c6060870160408801610d09565b6040516001600160e01b031960e084901b1681526001600160a01b0391821660048201526024810186905290861660448201526064016020604051808303815f875af11580156103ee573d5f803e3d5ffd5b505050506040513d601f19601f820116820180604052508101906104129190610e34565b505b801561045e5761045e61042d6040860160208701610d09565b6001600160a01b037f00000000000000000000000000000000000000000000000000000000000000001690836108af565b61046e6060850160408601610d09565b6001600160a01b03166104876040860160208701610d09565b6001600160a01b031685357f38d1d351aaed4d042e96c9e1ebf794cafeb9ec533318564d969b5335b2d2c3216104c18660608a0135610e5f565b60408051918252602082018790520160405180910390a450505050565b6001546001600160a01b0316331461050957604051630d0418ed60e11b815260040160405180910390fd5b61051283610780565b61054b6001600160a01b037f00000000000000000000000000000000000000000000000000000000000000001633306080870135610804565b5f8061055685610871565b90925090505f61056a836060880135610e5f565b9050801561059b5783156105885761058381868661096f565b61059b565b61059b61042d6060880160408901610d09565b81156105e5576105e56105b46040880160208901610d09565b6001600160a01b037f00000000000000000000000000000000000000000000000000000000000000001690846108af565b6105f56060870160408801610d09565b6001600160a01b031661060e6040880160208901610d09565b6001600160a01b0316875f01357f38d1d351aaed4d042e96c9e1ebf794cafeb9ec533318564d969b5335b2d2c3218486604051610655929190918252602082015260400190565b60405180910390a4505050505050565b336001600160a01b037f000000000000000000000000000000000000000000000000000000000000000016146106ae57604051635fc483c560e01b815260040160405180910390fd5b6001600160a01b0381166106d55760405163c4c3834b60e01b815260040160405180910390fd5b600180546001600160a01b0319166001600160a01b0383169081179091556040517f43ab431641dd45dd0661cad4b820e826d7c526af92e3121e1242d721f82ab3ad905f90a250565b336001600160a01b037f0000000000000000000000000000000000000000000000000000000000000000161461076757604051635fc483c560e01b815260040160405180910390fd5b61077b6001600160a01b03841683836108af565b505050565b80606001355f036107a45760405163dfee2c0b60e01b815260040160405180910390fd5b8060600135816080013510156107cd57604051633dae791760e21b815260040160405180910390fd5b60646107df60c0830160a08401610e72565b60ff1611156108015760405163abc4df1160e01b815260040160405180910390fd5b50565b6040516001600160a01b03848116602483015283811660448301526064820183905261086b9186918216906323b872dd906084015b604051602081830303815290604052915060e01b6020820180516001600160e01b038381831617835250505050610c3a565b50505050565b5f806060830135608084013503606461089060c0860160a08701610e72565b60ff168202816108a2576108a2610e92565b0494908590039350915050565b6040516001600160a01b0383811660248301526044820183905261077b91859182169063a9059cbb90606401610839565b604080516001600160a01b038416602482015260448082018490528251808303909101815260649091019091526020810180516001600160e01b031663095ea7b360e01b1790526109318482610caa565b61086b576040516001600160a01b0384811660248301525f604483015261096591869182169063095ea7b390606401610839565b61086b8482610c3a565b7f00000000000000000000000000000000000000000000000000000000000000006001600160a01b03166109b65760405163f22d627560e01b815260040160405180910390fd5b6040516370a0823160e01b81523060048201525f907f00000000000000000000000000000000000000000000000000000000000000006001600160a01b0316906370a0823190602401602060405180830381865afa158015610a1a573d5f803e3d5ffd5b505050506040513d601f19601f82011682018060405250810190610a3e9190610e34565b9050610a946001600160a01b037f0000000000000000000000000000000000000000000000000000000000000000167f0000000000000000000000000000000000000000000000000000000000000000866108e0565b5f7f00000000000000000000000000000000000000000000000000000000000000006001600160a01b03168484604051610acf929190610ea6565b5f604051808303815f865af19150503d805f8114610b08576040519150601f19603f3d011682016040523d82523d5f602084013e610b0d565b606091505b5050905080610b2f576040516389cac52d60e01b815260040160405180910390fd5b6040516370a0823160e01b815230600482015285907f00000000000000000000000000000000000000000000000000000000000000006001600160a01b0316906370a0823190602401602060405180830381865afa158015610b93573d5f803e3d5ffd5b505050506040513d601f19601f82011682018060405250810190610bb79190610e34565b610bc19084610eb5565b14610bdf5760405163b80dff7760e01b815260040160405180910390fd5b610c336001600160a01b037f0000000000000000000000000000000000000000000000000000000000000000167f00000000000000000000000000000000000000000000000000000000000000005f6108e0565b5050505050565b5f8060205f8451602086015f885af180610c59576040513d5f823e3d81fd5b50505f513d91508115610c70578060011415610c7d565b6001600160a01b0384163b155b1561086b57604051635274afe760e01b81526001600160a01b038516600482015260240160405180910390fd5b5f805f8060205f8651602088015f8a5af192503d91505f519050828015610ce957508115610cdb5780600114610ce9565b5f866001600160a01b03163b115b93505050505b92915050565b6001600160a01b0381168114610801575f80fd5b5f60208284031215610d19575f80fd5b8135610d2481610cf5565b9392505050565b5f60c08284031215610d3b575f80fd5b50919050565b5f8060e08385031215610d52575f80fd5b610d5c8484610d2b565b915060c0830135610d6c81610cf5565b809150509250929050565b5f805f60e08486031215610d89575f80fd5b610d938585610d2b565b925060c084013567ffffffffffffffff811115610dae575f80fd5b8401601f81018613610dbe575f80fd5b803567ffffffffffffffff811115610dd4575f80fd5b866020828401011115610de5575f80fd5b939660209190910195509293505050565b5f805f60608486031215610e08575f80fd5b8335610e1381610cf5565b92506020840135610e2381610cf5565b929592945050506040919091013590565b5f60208284031215610e44575f80fd5b5051919050565b634e487b7160e01b5f52601160045260245ffd5b80820180821115610cef57610cef610e4b565b5f60208284031215610e82575f80fd5b813560ff81168114610d24575f80fd5b634e487b7160e01b5f52601260045260245ffd5b818382375f9101908152919050565b81810381811115610cef57610cef610e4b56fea264697066735822122007dfba0dca094c427ab65941f48b85fdf2befa7ede2c7f85ff7a47315ff9688164736f6c634300081a0033","linkReferences":{}},"methodIdentifiers":{"escrow()":"e2fdcc17","hook()":"7f5a7c7b","lifiDiamond()":"2bd16c8f","owner()":"8da5cb5b","rescueTokens(address,address,uint256)":"cea9d26f","setEscrow(address)":"c10c3546","setHook(address)":"3dfd3873","settle((uint256,address,address,uint256,uint256,uint8),bytes)":"850ad1ba","settleWithHook((uint256,address,address,uint256,uint256,uint8),address)":"42a7155c","token()":"fc0c546a"},"id":3}