{"abi":[{"type":"constructor","inputs":[{"name":"_token","type":"address","internalType":"address"},{"name":"_lifiDiamond","type":"address","internalType":"address"},{"name":"_hook","type":"address","internalType":"address"}],"stateMutability":"nonpayable"},{"type":"function","name":"hook","inputs":[],"outputs":[{"name":"","type":"address","internalType":"contract IRestlessSettlementHook"}],"stateMutability":"view"},{"type":"function","name":"lifiDiamond","inputs":[],"outputs":[{"name":"","type":"address","internalType":"address"}],"stateMutability":"view"},{"type":"function","name":"owner","inputs":[],"outputs":[{"name":"","type":"address","internalType":"address"}],"stateMutability":"view"},{"type":"function","name":"setHook","inputs":[{"name":"_hook","type":"address","internalType":"address"}],"outputs":[],"stateMutability":"nonpayable"},{"type":"function","name":"settle","inputs":[{"name":"params","type":"tuple","internalType":"struct ISettlement.SettleParams","components":[{"name":"dealId","type":"uint256","internalType":"uint256"},{"name":"depositor","type":"address","internalType":"address"},{"name":"counterparty","type":"address","internalType":"address"},{"name":"principal","type":"uint256","internalType":"uint256"},{"name":"total","type":"uint256","internalType":"uint256"},{"name":"yieldSplitCounterparty","type":"uint8","internalType":"uint8"}]},{"name":"lifiData","type":"bytes","internalType":"bytes"}],"outputs":[],"stateMutability":"nonpayable"},{"type":"function","name":"settleWithHook","inputs":[{"name":"params","type":"tuple","internalType":"struct ISettlement.SettleParams","components":[{"name":"dealId","type":"uint256","internalType":"uint256"},{"name":"depositor","type":"address","internalType":"address"},{"name":"counterparty","type":"address","internalType":"address"},{"name":"principal","type":"uint256","internalType":"uint256"},{"name":"total","type":"uint256","internalType":"uint256"},{"name":"yieldSplitCounterparty","type":"uint8","internalType":"uint8"}]},{"name":"preferredToken","type":"address","internalType":"address"}],"outputs":[],"stateMutability":"nonpayable"},{"type":"function","name":"token","inputs":[],"outputs":[{"name":"","type":"address","internalType":"contract IERC20"}],"stateMutability":"view"},{"type":"event","name":"DealSettled","inputs":[{"name":"dealId","type":"uint256","indexed":true,"internalType":"uint256"},{"name":"depositor","type":"address","indexed":true,"internalType":"address"},{"name":"counterparty","type":"address","indexed":true,"internalType":"address"},{"name":"counterpartyPayout","type":"uint256","indexed":false,"internalType":"uint256"},{"name":"depositorPayout","type":"uint256","indexed":false,"internalType":"uint256"}],"anonymous":false},{"type":"event","name":"HookUpdated","inputs":[{"name":"hook","type":"address","indexed":true,"internalType":"address"}],"anonymous":false},{"type":"error","name":"SafeERC20FailedOperation","inputs":[{"name":"token","type":"address","internalType":"address"}]}],"bytecode":{"object":"0x60e060405234801561000f575f80fd5b5060405161116b38038061116b83398101604081905261002e916100d5565b6001600160a01b0383166100785760405162461bcd60e51b815260206004820152600d60248201526c24b73b30b634b2103a37b5b2b760991b604482015260640160405180910390fd5b6001600160a01b0380841660805282811660a0523360c0528116156100b2575f80546001600160a01b0319166001600160a01b0383161790555b505050610115565b80516001600160a01b03811681146100d0575f80fd5b919050565b5f805f606084860312156100e7575f80fd5b6100f0846100ba565b92506100fe602085016100ba565b915061010c604085016100ba565b90509250925092565b60805160a05160c051610fc46101a75f395f8181610113015261016701525f81816083015281816107c8015281816108d2015281816109740152610b2201525f818161013a0152818161035f0152818161040001528181610459015281816105810152818161072e0152818161084a0152818161090401528181610a4801528181610b500152610be00152610fc45ff3fe608060405234801561000f575f80fd5b506004361061007a575f3560e01c80637f5a7c7b116100585780637f5a7c7b146100e9578063850ad1ba146100fb5780638da5cb5b1461010e578063fc0c546a14610135575f80fd5b80632bd16c8f1461007e5780633dfd3873146100c157806342a7155c146100d6575b5f80fd5b6100a57f000000000000000000000000000000000000000000000000000000000000000081565b6040516001600160a01b03909116815260200160405180910390f35b6100d46100cf366004610dcc565b61015c565b005b6100d46100e4366004610e02565b61020d565b5f546100a5906001600160a01b031681565b6100d4610109366004610e34565b610629565b6100a57f000000000000000000000000000000000000000000000000000000000000000081565b6100a57f000000000000000000000000000000000000000000000000000000000000000081565b336001600160a01b037f000000000000000000000000000000000000000000000000000000000000000016146101c65760405162461bcd60e51b815260206004820152600a60248201526927b7363c9037bbb732b960b11b60448201526064015b60405180910390fd5b5f80546001600160a01b0319166001600160a01b038316908117825560405190917fe816c20840d998c8612f9b624b91687a80510eeb293cb09f7637379f6d73342d91a250565b5f8260600135116102585760405162461bcd60e51b815260206004820152601560248201527405072696e636970616c206d757374206265203e203605c1b60448201526064016101bd565b8160600135826080013510156102ac5760405162461bcd60e51b8152602060048201526019602482015278151bdd185b081b195cdcc81d1a185b881c1c9a5b98da5c185b603a1b60448201526064016101bd565b60646102be60c0840160a08501610eb3565b60ff1611156103055760405162461bcd60e51b8152602060048201526013602482015272125b9d985b1a59081e5a595b19081cdc1b1a5d606a1b60448201526064016101bd565b5f546001600160a01b03166103525760405162461bcd60e51b8152602060048201526013602482015272121bdbdac81b9bdd0818dbdb999a59dd5c9959606a1b60448201526064016101bd565b61038b6001600160a01b037f00000000000000000000000000000000000000000000000000000000000000001633306080860135610ca2565b5f61039e60608401356080850135610ee7565b90505f60646103b360c0860160a08701610eb3565b6103c09060ff1684610f00565b6103ca9190610f17565b90505f6103d78284610ee7565b905060608501351561042b5761042b6103f66060870160408801610dcc565b6001600160a01b037f000000000000000000000000000000000000000000000000000000000000000016906060880135610d0f565b811561055e575f5460405163095ea7b360e01b81526001600160a01b039182166004820152602481018490527f00000000000000000000000000000000000000000000000000000000000000009091169063095ea7b3906044016020604051808303815f875af11580156104a1573d5f803e3d5ffd5b505050506040513d601f19601f820116820180604052508101906104c59190610f36565b505f546001600160a01b03166329d0820b6104e66060880160408901610dcc565b6040516001600160e01b031960e084901b1681526001600160a01b0391821660048201526024810186905290871660448201526064016020604051808303815f875af1158015610538573d5f803e3d5ffd5b505050506040513d601f19601f8201168201806040525081019061055c9190610f55565b505b80156105a8576105a86105776040870160208801610dcc565b6001600160a01b037f0000000000000000000000000000000000000000000000000000000000000000169083610d0f565b6105b86060860160408701610dcc565b6001600160a01b03166105d16040870160208801610dcc565b6001600160a01b031686357f38d1d351aaed4d042e96c9e1ebf794cafeb9ec533318564d969b5335b2d2c32161060b8660608b0135610f6c565b60408051918252602082018790520160405180910390a45050505050565b5f8360600135116106745760405162461bcd60e51b815260206004820152601560248201527405072696e636970616c206d757374206265203e203605c1b60448201526064016101bd565b8260600135836080013510156106c85760405162461bcd60e51b8152602060048201526019602482015278151bdd185b081b195cdcc81d1a185b881c1c9a5b98da5c185b603a1b60448201526064016101bd565b60646106da60c0850160a08601610eb3565b60ff1611156107215760405162461bcd60e51b8152602060048201526013602482015272125b9d985b1a59081e5a595b19081cdc1b1a5d606a1b60448201526064016101bd565b61075a6001600160a01b037f00000000000000000000000000000000000000000000000000000000000000001633306080870135610ca2565b5f61076d60608501356080860135610ee7565b90505f606461078260c0870160a08801610eb3565b61078f9060ff1684610f00565b6107999190610f17565b90505f6107a68284610ee7565b90505f6107b7836060890135610f6c565b9050818115610c07578515610bc3577f00000000000000000000000000000000000000000000000000000000000000006001600160a01b03166108335760405162461bcd60e51b815260206004820152601460248201527313124b9192481b9bdd0818dbdb999a59dd5c995960621b60448201526064016101bd565b6040516370a0823160e01b81523060048201525f907f00000000000000000000000000000000000000000000000000000000000000006001600160a01b0316906370a0823190602401602060405180830381865afa158015610897573d5f803e3d5ffd5b505050506040513d601f19601f820116820180604052508101906108bb9190610f55565b60405163095ea7b360e01b81526001600160a01b037f000000000000000000000000000000000000000000000000000000000000000081166004830152602482018690529192507f00000000000000000000000000000000000000000000000000000000000000009091169063095ea7b3906044016020604051808303815f875af115801561094c573d5f803e3d5ffd5b505050506040513d601f19601f820116820180604052508101906109709190610f36565b505f7f00000000000000000000000000000000000000000000000000000000000000006001600160a01b031689896040516109ac929190610f7f565b5f604051808303815f865af19150503d805f81146109e5576040519150601f19603f3d011682016040523d82523d5f602084013e6109ea565b606091505b5050905080610a315760405162461bcd60e51b815260206004820152601360248201527213124b919248189c9a5919d94819985a5b1959606a1b60448201526064016101bd565b6040516370a0823160e01b81523060048201525f907f00000000000000000000000000000000000000000000000000000000000000006001600160a01b0316906370a0823190602401602060405180830381865afa158015610a95573d5f803e3d5ffd5b505050506040513d601f19601f82011682018060405250810190610ab99190610f55565b905084610ac68285610ee7565b14610b0b5760405162461bcd60e51b8152602060048201526015602482015274098925c8c9240c2dadeeadce840dad2e6dac2e8c6d605b1b60448201526064016101bd565b60405163095ea7b360e01b81526001600160a01b037f0000000000000000000000000000000000000000000000000000000000000000811660048301525f60248301527f0000000000000000000000000000000000000000000000000000000000000000169063095ea7b3906044016020604051808303815f875af1158015610b96573d5f803e3d5ffd5b505050506040513d601f19601f82011682018060405250810190610bba9190610f36565b50505050610c07565b610c07610bd660608a0160408b01610dcc565b6001600160a01b037f0000000000000000000000000000000000000000000000000000000000000000169084610d0f565b8015610c2057610c2061057760408a0160208b01610dcc565b610c306060890160408a01610dcc565b6001600160a01b0316610c4960408a0160208b01610dcc565b6001600160a01b0316895f01357f38d1d351aaed4d042e96c9e1ebf794cafeb9ec533318564d969b5335b2d2c3218585604051610c90929190918252602082015260400190565b60405180910390a45050505050505050565b6040516001600160a01b038481166024830152838116604483015260648201839052610d099186918216906323b872dd906084015b604051602081830303815290604052915060e01b6020820180516001600160e01b038381831617835250505050610d45565b50505050565b6040516001600160a01b03838116602483015260448201839052610d4091859182169063a9059cbb90606401610cd7565b505050565b5f8060205f8451602086015f885af180610d64576040513d5f823e3d81fd5b50505f513d91508115610d7b578060011415610d88565b6001600160a01b0384163b155b15610d0957604051635274afe760e01b81526001600160a01b03851660048201526024016101bd565b80356001600160a01b0381168114610dc7575f80fd5b919050565b5f60208284031215610ddc575f80fd5b610de582610db1565b9392505050565b5f60c08284031215610dfc575f80fd5b50919050565b5f8060e08385031215610e13575f80fd5b610e1d8484610dec565b9150610e2b60c08401610db1565b90509250929050565b5f805f60e08486031215610e46575f80fd5b610e508585610dec565b925060c084013567ffffffffffffffff811115610e6b575f80fd5b8401601f81018613610e7b575f80fd5b803567ffffffffffffffff811115610e91575f80fd5b866020828401011115610ea2575f80fd5b939660209190910195509293505050565b5f60208284031215610ec3575f80fd5b813560ff81168114610de5575f80fd5b634e487b7160e01b5f52601160045260245ffd5b81810381811115610efa57610efa610ed3565b92915050565b8082028115828204841417610efa57610efa610ed3565b5f82610f3157634e487b7160e01b5f52601260045260245ffd5b500490565b5f60208284031215610f46575f80fd5b81518015158114610de5575f80fd5b5f60208284031215610f65575f80fd5b5051919050565b80820180821115610efa57610efa610ed3565b818382375f910190815291905056fea2646970667358221220e49ff2ba558eaf7fa85f54ba0c1f3f003dd0da85de7a6a5a87a35415448e25bc64736f6c634300081a0033","linkReferences":{}},"methodIdentifiers":{"hook()":"7f5a7c7b","lifiDiamond()":"2bd16c8f","owner()":"8da5cb5b","setHook(address)":"3dfd3873","settle((uint256,address,address,uint256,uint256,uint8),bytes)":"850ad1ba","settleWithHook((uint256,address,address,uint256,uint256,uint8),address)":"42a7155c","token()":"fc0c546a"},"id":2}