{"abi":[{"type":"constructor","inputs":[{"name":"_token","type":"address","internalType":"address"},{"name":"_lifiDiamond","type":"address","internalType":"address"},{"name":"_hook","type":"address","internalType":"address"}],"stateMutability":"nonpayable"},{"type":"function","name":"hook","inputs":[],"outputs":[{"name":"","type":"address","internalType":"contract IRestlessSettlementHook"}],"stateMutability":"view"},{"type":"function","name":"lifiDiamond","inputs":[],"outputs":[{"name":"","type":"address","internalType":"address"}],"stateMutability":"view"},{"type":"function","name":"owner","inputs":[],"outputs":[{"name":"","type":"address","internalType":"address"}],"stateMutability":"view"},{"type":"function","name":"setHook","inputs":[{"name":"_hook","type":"address","internalType":"address"}],"outputs":[],"stateMutability":"nonpayable"},{"type":"function","name":"settle","inputs":[{"name":"params","type":"tuple","internalType":"struct SettleParams","components":[{"name":"dealId","type":"uint256","internalType":"uint256"},{"name":"depositor","type":"address","internalType":"address"},{"name":"counterparty","type":"address","internalType":"address"},{"name":"principal","type":"uint256","internalType":"uint256"},{"name":"total","type":"uint256","internalType":"uint256"},{"name":"yieldSplitCounterparty","type":"uint8","internalType":"uint8"}]},{"name":"lifiData","type":"bytes","internalType":"bytes"}],"outputs":[],"stateMutability":"nonpayable"},{"type":"function","name":"settleWithHook","inputs":[{"name":"params","type":"tuple","internalType":"struct SettleParams","components":[{"name":"dealId","type":"uint256","internalType":"uint256"},{"name":"depositor","type":"address","internalType":"address"},{"name":"counterparty","type":"address","internalType":"address"},{"name":"principal","type":"uint256","internalType":"uint256"},{"name":"total","type":"uint256","internalType":"uint256"},{"name":"yieldSplitCounterparty","type":"uint8","internalType":"uint8"}]},{"name":"preferredToken","type":"address","internalType":"address"}],"outputs":[],"stateMutability":"nonpayable"},{"type":"function","name":"token","inputs":[],"outputs":[{"name":"","type":"address","internalType":"contract IERC20"}],"stateMutability":"view"},{"type":"event","name":"DealSettled","inputs":[{"name":"dealId","type":"uint256","indexed":true,"internalType":"uint256"},{"name":"depositor","type":"address","indexed":true,"internalType":"address"},{"name":"counterparty","type":"address","indexed":true,"internalType":"address"},{"name":"counterpartyPayout","type":"uint256","indexed":false,"internalType":"uint256"},{"name":"depositorPayout","type":"uint256","indexed":false,"internalType":"uint256"}],"anonymous":false},{"type":"event","name":"HookUpdated","inputs":[{"name":"hook","type":"address","indexed":true,"internalType":"address"}],"anonymous":false},{"type":"error","name":"SafeERC20FailedOperation","inputs":[{"name":"token","type":"address","internalType":"address"}]}],"bytecode":{"object":"0x60e060405234801561000f575f80fd5b5060405161106c38038061106c83398101604081905261002e916100d5565b6001600160a01b0383166100785760405162461bcd60e51b815260206004820152600d60248201526c24b73b30b634b2103a37b5b2b760991b604482015260640160405180910390fd5b6001600160a01b0380841660805282811660a0523360c0528116156100b2575f80546001600160a01b0319166001600160a01b0383161790555b505050610115565b80516001600160a01b03811681146100d0575f80fd5b919050565b5f805f606084860312156100e7575f80fd5b6100f0846100ba565b92506100fe602085016100ba565b915061010c604085016100ba565b90509250925092565b60805160a05160c051610ec56101a75f395f8181610113015261016701525f818160830152818161084f01528181610959015281816109fb0152610ba601525f818161013a01528181610270015281816102d30152818161032c0152818161045401528181610511015281816105b0015281816108d10152818161098b01528181610acf0152610bd40152610ec55ff3fe608060405234801561000f575f80fd5b506004361061007a575f3560e01c80637f5a7c7b116100585780637f5a7c7b146100e9578063850ad1ba146100fb5780638da5cb5b1461010e578063fc0c546a14610135575f80fd5b80632bd16c8f1461007e5780633dfd3873146100c157806342a7155c146100d6575b5f80fd5b6100a57f000000000000000000000000000000000000000000000000000000000000000081565b6040516001600160a01b03909116815260200160405180910390f35b6100d46100cf366004610ccd565b61015c565b005b6100d46100e4366004610d03565b61020d565b5f546100a5906001600160a01b031681565b6100d4610109366004610d35565b6104fb565b6100a57f000000000000000000000000000000000000000000000000000000000000000081565b6100a57f000000000000000000000000000000000000000000000000000000000000000081565b336001600160a01b037f000000000000000000000000000000000000000000000000000000000000000016146101c65760405162461bcd60e51b815260206004820152600a60248201526927b7363c9037bbb732b960b11b60448201526064015b60405180910390fd5b5f80546001600160a01b0319166001600160a01b038316908117825560405190917fe816c20840d998c8612f9b624b91687a80510eeb293cb09f7637379f6d73342d91a250565b61021682610657565b5f546001600160a01b03166102635760405162461bcd60e51b8152602060048201526013602482015272121bdbdac81b9bdd0818dbdb999a59dd5c9959606a1b60448201526064016101bd565b61029c6001600160a01b037f00000000000000000000000000000000000000000000000000000000000000001633306080860135610756565b5f806102a7846107c3565b90925090506060840135156102fe576102fe6102c96060860160408701610ccd565b6001600160a01b037f000000000000000000000000000000000000000000000000000000000000000016906060870135610817565b8115610431575f5460405163095ea7b360e01b81526001600160a01b039182166004820152602481018490527f00000000000000000000000000000000000000000000000000000000000000009091169063095ea7b3906044016020604051808303815f875af1158015610374573d5f803e3d5ffd5b505050506040513d601f19601f820116820180604052508101906103989190610db4565b505f546001600160a01b03166329d0820b6103b96060870160408801610ccd565b6040516001600160e01b031960e084901b1681526001600160a01b0391821660048201526024810186905290861660448201526064016020604051808303815f875af115801561040b573d5f803e3d5ffd5b505050506040513d601f19601f8201168201806040525081019061042f9190610dd3565b505b801561047b5761047b61044a6040860160208701610ccd565b6001600160a01b037f0000000000000000000000000000000000000000000000000000000000000000169083610817565b61048b6060850160408601610ccd565b6001600160a01b03166104a46040860160208701610ccd565b6001600160a01b031685357f38d1d351aaed4d042e96c9e1ebf794cafeb9ec533318564d969b5335b2d2c3216104de8660608a0135610dfe565b60408051918252602082018790520160405180910390a450505050565b61050483610657565b61053d6001600160a01b037f00000000000000000000000000000000000000000000000000000000000000001633306080870135610756565b5f80610548856107c3565b90925090505f61055c836060880135610dfe565b9050801561058d57831561057a5761057581868661084d565b61058d565b61058d61044a6060880160408901610ccd565b81156105d7576105d76105a66040880160208901610ccd565b6001600160a01b037f0000000000000000000000000000000000000000000000000000000000000000169084610817565b6105e76060870160408801610ccd565b6001600160a01b03166106006040880160208901610ccd565b6001600160a01b0316875f01357f38d1d351aaed4d042e96c9e1ebf794cafeb9ec533318564d969b5335b2d2c3218486604051610647929190918252602082015260400190565b60405180910390a4505050505050565b5f8160600135116106a25760405162461bcd60e51b815260206004820152601560248201527405072696e636970616c206d757374206265203e203605c1b60448201526064016101bd565b8060600135816080013510156106fa5760405162461bcd60e51b815260206004820152601960248201527f546f74616c206c657373207468616e207072696e636970616c0000000000000060448201526064016101bd565b606461070c60c0830160a08401610e17565b60ff1611156107535760405162461bcd60e51b8152602060048201526013602482015272125b9d985b1a59081e5a595b19081cdc1b1a5d606a1b60448201526064016101bd565b50565b6040516001600160a01b0384811660248301528381166044830152606482018390526107bd9186918216906323b872dd906084015b604051602081830303815290604052915060e01b6020820180516001600160e01b038381831617835250505050610c46565b50505050565b5f80806107d860608501356080860135610e37565b905060646107ec60c0860160a08701610e17565b6107f99060ff1683610e4a565b6108039190610e61565b925061080f8382610e37565b915050915091565b6040516001600160a01b0383811660248301526044820183905261084891859182169063a9059cbb9060640161078b565b505050565b7f00000000000000000000000000000000000000000000000000000000000000006001600160a01b03166108ba5760405162461bcd60e51b815260206004820152601460248201527313124b9192481b9bdd0818dbdb999a59dd5c995960621b60448201526064016101bd565b6040516370a0823160e01b81523060048201525f907f00000000000000000000000000000000000000000000000000000000000000006001600160a01b0316906370a0823190602401602060405180830381865afa15801561091e573d5f803e3d5ffd5b505050506040513d601f19601f820116820180604052508101906109429190610dd3565b60405163095ea7b360e01b81526001600160a01b037f000000000000000000000000000000000000000000000000000000000000000081166004830152602482018790529192507f00000000000000000000000000000000000000000000000000000000000000009091169063095ea7b3906044016020604051808303815f875af11580156109d3573d5f803e3d5ffd5b505050506040513d601f19601f820116820180604052508101906109f79190610db4565b505f7f00000000000000000000000000000000000000000000000000000000000000006001600160a01b03168484604051610a33929190610e80565b5f604051808303815f865af19150503d805f8114610a6c576040519150601f19603f3d011682016040523d82523d5f602084013e610a71565b606091505b5050905080610ab85760405162461bcd60e51b815260206004820152601360248201527213124b919248189c9a5919d94819985a5b1959606a1b60448201526064016101bd565b6040516370a0823160e01b815230600482015285907f00000000000000000000000000000000000000000000000000000000000000006001600160a01b0316906370a0823190602401602060405180830381865afa158015610b1c573d5f803e3d5ffd5b505050506040513d601f19601f82011682018060405250810190610b409190610dd3565b610b4a9084610e37565b14610b8f5760405162461bcd60e51b8152602060048201526015602482015274098925c8c9240c2dadeeadce840dad2e6dac2e8c6d605b1b60448201526064016101bd565b60405163095ea7b360e01b81526001600160a01b037f0000000000000000000000000000000000000000000000000000000000000000811660048301525f60248301527f0000000000000000000000000000000000000000000000000000000000000000169063095ea7b3906044016020604051808303815f875af1158015610c1a573d5f803e3d5ffd5b505050506040513d601f19601f82011682018060405250810190610c3e9190610db4565b505050505050565b5f8060205f8451602086015f885af180610c65576040513d5f823e3d81fd5b50505f513d91508115610c7c578060011415610c89565b6001600160a01b0384163b155b156107bd57604051635274afe760e01b81526001600160a01b03851660048201526024016101bd565b80356001600160a01b0381168114610cc8575f80fd5b919050565b5f60208284031215610cdd575f80fd5b610ce682610cb2565b9392505050565b5f60c08284031215610cfd575f80fd5b50919050565b5f8060e08385031215610d14575f80fd5b610d1e8484610ced565b9150610d2c60c08401610cb2565b90509250929050565b5f805f60e08486031215610d47575f80fd5b610d518585610ced565b925060c084013567ffffffffffffffff811115610d6c575f80fd5b8401601f81018613610d7c575f80fd5b803567ffffffffffffffff811115610d92575f80fd5b866020828401011115610da3575f80fd5b939660209190910195509293505050565b5f60208284031215610dc4575f80fd5b81518015158114610ce6575f80fd5b5f60208284031215610de3575f80fd5b5051919050565b634e487b7160e01b5f52601160045260245ffd5b80820180821115610e1157610e11610dea565b92915050565b5f60208284031215610e27575f80fd5b813560ff81168114610ce6575f80fd5b81810381811115610e1157610e11610dea565b8082028115828204841417610e1157610e11610dea565b5f82610e7b57634e487b7160e01b5f52601260045260245ffd5b500490565b818382375f910190815291905056fea2646970667358221220c4cab6e13afb615a54af4fe7445964abf92d0c1d8e91506cd5f616c0cf97434764736f6c634300081a0033","linkReferences":{}},"methodIdentifiers":{"hook()":"7f5a7c7b","lifiDiamond()":"2bd16c8f","owner()":"8da5cb5b","setHook(address)":"3dfd3873","settle((uint256,address,address,uint256,uint256,uint8),bytes)":"850ad1ba","settleWithHook((uint256,address,address,uint256,uint256,uint8),address)":"42a7155c","token()":"fc0c546a"},"id":3}