{"abi":[{"type":"constructor","inputs":[{"name":"_token","type":"address","internalType":"address"},{"name":"_lifiDiamond","type":"address","internalType":"address"},{"name":"_hook","type":"address","internalType":"address"}],"stateMutability":"nonpayable"},{"type":"function","name":"escrow","inputs":[],"outputs":[{"name":"","type":"address","internalType":"address"}],"stateMutability":"view"},{"type":"function","name":"hook","inputs":[],"outputs":[{"name":"","type":"address","internalType":"contract IRestlessSettlementHook"}],"stateMutability":"view"},{"type":"function","name":"lifiDiamond","inputs":[],"outputs":[{"name":"","type":"address","internalType":"address"}],"stateMutability":"view"},{"type":"function","name":"owner","inputs":[],"outputs":[{"name":"","type":"address","internalType":"address"}],"stateMutability":"view"},{"type":"function","name":"rescueTokens","inputs":[{"name":"_token","type":"address","internalType":"contract IERC20"},{"name":"to","type":"address","internalType":"address"},{"name":"amount","type":"uint256","internalType":"uint256"}],"outputs":[],"stateMutability":"nonpayable"},{"type":"function","name":"setEscrow","inputs":[{"name":"_escrow","type":"address","internalType":"address"}],"outputs":[],"stateMutability":"nonpayable"},{"type":"function","name":"setHook","inputs":[{"name":"_hook","type":"address","internalType":"address"}],"outputs":[],"stateMutability":"nonpayable"},{"type":"function","name":"settle","inputs":[{"name":"params","type":"tuple","internalType":"struct SettleParams","components":[{"name":"dealId","type":"uint256","internalType":"uint256"},{"name":"depositor","type":"address","internalType":"address"},{"name":"counterparty","type":"address","internalType":"address"},{"name":"principal","type":"uint256","internalType":"uint256"},{"name":"total","type":"uint256","internalType":"uint256"},{"name":"yieldSplitCounterparty","type":"uint8","internalType":"uint8"}]},{"name":"lifiData","type":"bytes","internalType":"bytes"}],"outputs":[],"stateMutability":"nonpayable"},{"type":"function","name":"settleWithHook","inputs":[{"name":"params","type":"tuple","internalType":"struct SettleParams","components":[{"name":"dealId","type":"uint256","internalType":"uint256"},{"name":"depositor","type":"address","internalType":"address"},{"name":"counterparty","type":"address","internalType":"address"},{"name":"principal","type":"uint256","internalType":"uint256"},{"name":"total","type":"uint256","internalType":"uint256"},{"name":"yieldSplitCounterparty","type":"uint8","internalType":"uint8"}]},{"name":"preferredToken","type":"address","internalType":"address"}],"outputs":[],"stateMutability":"nonpayable"},{"type":"function","name":"token","inputs":[],"outputs":[{"name":"","type":"address","internalType":"contract IERC20"}],"stateMutability":"view"},{"type":"event","name":"DealSettled","inputs":[{"name":"dealId","type":"uint256","indexed":true,"internalType":"uint256"},{"name":"depositor","type":"address","indexed":true,"internalType":"address"},{"name":"counterparty","type":"address","indexed":true,"internalType":"address"},{"name":"counterpartyPayout","type":"uint256","indexed":false,"internalType":"uint256"},{"name":"depositorPayout","type":"uint256","indexed":false,"internalType":"uint256"}],"anonymous":false},{"type":"event","name":"EscrowUpdated","inputs":[{"name":"escrow","type":"address","indexed":true,"internalType":"address"}],"anonymous":false},{"type":"event","name":"HookUpdated","inputs":[{"name":"hook","type":"address","indexed":true,"internalType":"address"}],"anonymous":false},{"type":"error","name":"HookNotConfigured","inputs":[]},{"type":"error","name":"InvalidEscrow","inputs":[]},{"type":"error","name":"InvalidPrincipal","inputs":[]},{"type":"error","name":"InvalidToken","inputs":[]},{"type":"error","name":"InvalidYieldSplit","inputs":[{"name":"provided","type":"uint8","internalType":"uint8"}]},{"type":"error","name":"LiFiAmountMismatch","inputs":[{"name":"expected","type":"uint256","internalType":"uint256"},{"name":"actual","type":"uint256","internalType":"uint256"}]},{"type":"error","name":"LiFiBridgeFailed","inputs":[]},{"type":"error","name":"LiFiNotConfigured","inputs":[]},{"type":"error","name":"OnlyEscrow","inputs":[{"name":"caller","type":"address","internalType":"address"}]},{"type":"error","name":"OnlyOwner","inputs":[{"name":"caller","type":"address","internalType":"address"}]},{"type":"error","name":"SafeERC20FailedOperation","inputs":[{"name":"token","type":"address","internalType":"address"}]},{"type":"error","name":"TotalLessThanPrincipal","inputs":[{"name":"total","type":"uint256","internalType":"uint256"},{"name":"principal","type":"uint256","internalType":"uint256"}]}],"bytecode":{"object":"0x60e060405234801561000f575f80fd5b506040516110d03803806110d083398101604081905261002e916100b2565b6001600160a01b0383166100555760405163c1ab6dc160e01b815260040160405180910390fd5b6001600160a01b0380841660805282811660a0523360c05281161561008f575f80546001600160a01b0319166001600160a01b0383161790555b5050506100f2565b80516001600160a01b03811681146100ad575f80fd5b919050565b5f805f606084860312156100c4575f80fd5b6100cd84610097565b92506100db60208501610097565b91506100e960408501610097565b90509250925092565b60805160a05160c051610f3e6101925f395f8181610134015281816101c10152818161067b015261073601525f818160a4015281816109a601528181610aa401528181610acc0152610c5101525f8181610194015281816102b80152818161031b0152818161035c015281816104400152818161052a015281816105c901528181610a0201528181610a8201528181610b7b0152610c2f0152610f3e5ff3fe608060405234801561000f575f80fd5b506004361061009b575f3560e01c80638da5cb5b116100635780638da5cb5b1461012f578063c10c354614610156578063cea9d26f14610169578063e2fdcc171461017c578063fc0c546a1461018f575f80fd5b80632bd16c8f1461009f5780633dfd3873146100e257806342a7155c146100f75780637f5a7c7b1461010a578063850ad1ba1461011c575b5f80fd5b6100c67f000000000000000000000000000000000000000000000000000000000000000081565b6040516001600160a01b03909116815260200160405180910390f35b6100f56100f0366004610d49565b6101b6565b005b6100f5610105366004610d81565b61024d565b5f546100c6906001600160a01b031681565b6100f561012a366004610db7565b6104e7565b6100c67f000000000000000000000000000000000000000000000000000000000000000081565b6100f5610164366004610d49565b610670565b6100f5610177366004610e36565b61072b565b6001546100c6906001600160a01b031681565b6100c67f000000000000000000000000000000000000000000000000000000000000000081565b336001600160a01b037f0000000000000000000000000000000000000000000000000000000000000000161461020657604051630543601560e11b81523360048201526024015b60405180910390fd5b5f80546001600160a01b0319166001600160a01b038316908117825560405190917fe816c20840d998c8612f9b624b91687a80510eeb293cb09f7637379f6d73342d91a250565b6001546001600160a01b0316331461027a5760405163bc552e7760e01b81523360048201526024016101fd565b6102838261078f565b5f546001600160a01b03166102ab5760405163990d458560e01b815260040160405180910390fd5b6102e46001600160a01b037f00000000000000000000000000000000000000000000000000000000000000001633306080860135610839565b5f806102ef846108a6565b9092509050606084013515610346576103466103116060860160408701610d49565b6001600160a01b037f0000000000000000000000000000000000000000000000000000000000000000169060608701356108e4565b811561041d575f54610385906001600160a01b037f00000000000000000000000000000000000000000000000000000000000000008116911684610915565b5f546001600160a01b03166329d0820b6103a56060870160408801610d49565b6040516001600160e01b031960e084901b1681526001600160a01b0391821660048201526024810186905290861660448201526064016020604051808303815f875af11580156103f7573d5f803e3d5ffd5b505050506040513d601f19601f8201168201806040525081019061041b9190610e74565b505b8015610467576104676104366040860160208701610d49565b6001600160a01b037f00000000000000000000000000000000000000000000000000000000000000001690836108e4565b6104776060850160408601610d49565b6001600160a01b03166104906040860160208701610d49565b6001600160a01b031685357f38d1d351aaed4d042e96c9e1ebf794cafeb9ec533318564d969b5335b2d2c3216104ca8660608a0135610e9f565b60408051918252602082018790520160405180910390a450505050565b6001546001600160a01b031633146105145760405163bc552e7760e01b81523360048201526024016101fd565b61051d8361078f565b6105566001600160a01b037f00000000000000000000000000000000000000000000000000000000000000001633306080870135610839565b5f80610561856108a6565b90925090505f610575836060880135610e9f565b905080156105a65783156105935761058e8186866109a4565b6105a6565b6105a66104366060880160408901610d49565b81156105f0576105f06105bf6040880160208901610d49565b6001600160a01b037f00000000000000000000000000000000000000000000000000000000000000001690846108e4565b6106006060870160408801610d49565b6001600160a01b03166106196040880160208901610d49565b6001600160a01b0316875f01357f38d1d351aaed4d042e96c9e1ebf794cafeb9ec533318564d969b5335b2d2c3218486604051610660929190918252602082015260400190565b60405180910390a4505050505050565b336001600160a01b037f000000000000000000000000000000000000000000000000000000000000000016146106bb57604051630543601560e11b81523360048201526024016101fd565b6001600160a01b0381166106e25760405163c4c3834b60e01b815260040160405180910390fd5b600180546001600160a01b0319166001600160a01b0383169081179091556040517f43ab431641dd45dd0661cad4b820e826d7c526af92e3121e1242d721f82ab3ad905f90a250565b336001600160a01b037f0000000000000000000000000000000000000000000000000000000000000000161461077657604051630543601560e11b81523360048201526024016101fd565b61078a6001600160a01b03841683836108e4565b505050565b80606001355f036107b35760405163dfee2c0b60e01b815260040160405180910390fd5b8060600135816080013510156107ec57604051632276e54d60e11b815260808201356004820152606082013560248201526044016101fd565b60646107fe60c0830160a08401610eb2565b60ff1611156108365761081760c0820160a08301610eb2565b604051631b97b62b60e11b815260ff90911660048201526024016101fd565b50565b6040516001600160a01b0384811660248301528381166044830152606482018390526108a09186918216906323b872dd906084015b604051602081830303815290604052915060e01b6020820180516001600160e01b038381831617835250505050610c7e565b50505050565b5f80606083013560808401350360646108c560c0860160a08701610eb2565b60ff168202816108d7576108d7610ed2565b0494908590039350915050565b6040516001600160a01b0383811660248301526044820183905261078a91859182169063a9059cbb9060640161086e565b604080516001600160a01b038416602482015260448082018490528251808303909101815260649091019091526020810180516001600160e01b031663095ea7b360e01b1790526109668482610cea565b6108a0576040516001600160a01b0384811660248301525f604483015261099a91869182169063095ea7b39060640161086e565b6108a08482610c7e565b7f00000000000000000000000000000000000000000000000000000000000000006001600160a01b03166109eb5760405163f22d627560e01b815260040160405180910390fd5b6040516370a0823160e01b81523060048201525f907f00000000000000000000000000000000000000000000000000000000000000006001600160a01b0316906370a0823190602401602060405180830381865afa158015610a4f573d5f803e3d5ffd5b505050506040513d601f19601f82011682018060405250810190610a739190610e74565b9050610ac96001600160a01b037f0000000000000000000000000000000000000000000000000000000000000000167f000000000000000000000000000000000000000000000000000000000000000086610915565b5f7f00000000000000000000000000000000000000000000000000000000000000006001600160a01b03168484604051610b04929190610ee6565b5f604051808303815f865af19150503d805f8114610b3d576040519150601f19603f3d011682016040523d82523d5f602084013e610b42565b606091505b5050905080610b64576040516389cac52d60e01b815260040160405180910390fd5b6040516370a0823160e01b81523060048201525f907f00000000000000000000000000000000000000000000000000000000000000006001600160a01b0316906370a0823190602401602060405180830381865afa158015610bc8573d5f803e3d5ffd5b505050506040513d601f19601f82011682018060405250810190610bec9190610e74565b610bf69084610ef5565b9050858114610c22576040516316e0eff960e31b815260048101879052602481018290526044016101fd565b610c766001600160a01b037f0000000000000000000000000000000000000000000000000000000000000000167f00000000000000000000000000000000000000000000000000000000000000005f610915565b505050505050565b5f8060205f8451602086015f885af180610c9d576040513d5f823e3d81fd5b50505f513d91508115610cb4578060011415610cc1565b6001600160a01b0384163b155b156108a057604051635274afe760e01b81526001600160a01b03851660048201526024016101fd565b5f805f8060205f8651602088015f8a5af192503d91505f519050828015610d2957508115610d1b5780600114610d29565b5f866001600160a01b03163b115b93505050505b92915050565b6001600160a01b0381168114610836575f80fd5b5f60208284031215610d59575f80fd5b8135610d6481610d35565b9392505050565b5f60c08284031215610d7b575f80fd5b50919050565b5f8060e08385031215610d92575f80fd5b610d9c8484610d6b565b915060c0830135610dac81610d35565b809150509250929050565b5f805f60e08486031215610dc9575f80fd5b610dd38585610d6b565b925060c084013567ffffffffffffffff811115610dee575f80fd5b8401601f81018613610dfe575f80fd5b803567ffffffffffffffff811115610e14575f80fd5b866020828401011115610e25575f80fd5b939660209190910195509293505050565b5f805f60608486031215610e48575f80fd5b8335610e5381610d35565b92506020840135610e6381610d35565b929592945050506040919091013590565b5f60208284031215610e84575f80fd5b5051919050565b634e487b7160e01b5f52601160045260245ffd5b80820180821115610d2f57610d2f610e8b565b5f60208284031215610ec2575f80fd5b813560ff81168114610d64575f80fd5b634e487b7160e01b5f52601260045260245ffd5b818382375f9101908152919050565b81810381811115610d2f57610d2f610e8b56fea264697066735822122033b3819f373d29708718bdeda30b1d0fe97d0b886d0eb2237eccd07119e8a58e64736f6c634300081a0033","linkReferences":{}},"methodIdentifiers":{"escrow()":"e2fdcc17","hook()":"7f5a7c7b","lifiDiamond()":"2bd16c8f","owner()":"8da5cb5b","rescueTokens(address,address,uint256)":"cea9d26f","setEscrow(address)":"c10c3546","setHook(address)":"3dfd3873","settle((uint256,address,address,uint256,uint256,uint8),bytes)":"850ad1ba","settleWithHook((uint256,address,address,uint256,uint256,uint8),address)":"42a7155c","token()":"fc0c546a"},"id":3}