{"abi":[{"type":"constructor","inputs":[{"name":"_token","type":"address","internalType":"address"},{"name":"_lifiDiamond","type":"address","internalType":"address"},{"name":"_hook","type":"address","internalType":"address"}],"stateMutability":"nonpayable"},{"type":"function","name":"hook","inputs":[],"outputs":[{"name":"","type":"address","internalType":"contract IRestlessSettlementHook"}],"stateMutability":"view"},{"type":"function","name":"lifiDiamond","inputs":[],"outputs":[{"name":"","type":"address","internalType":"address"}],"stateMutability":"view"},{"type":"function","name":"owner","inputs":[],"outputs":[{"name":"","type":"address","internalType":"address"}],"stateMutability":"view"},{"type":"function","name":"setHook","inputs":[{"name":"_hook","type":"address","internalType":"address"}],"outputs":[],"stateMutability":"nonpayable"},{"type":"function","name":"settle","inputs":[{"name":"dealId","type":"uint256","internalType":"uint256"},{"name":"depositor","type":"address","internalType":"address"},{"name":"counterparty","type":"address","internalType":"address"},{"name":"principal","type":"uint256","internalType":"uint256"},{"name":"total","type":"uint256","internalType":"uint256"},{"name":"yieldSplitCounterparty","type":"uint8","internalType":"uint8"},{"name":"lifiData","type":"bytes","internalType":"bytes"}],"outputs":[],"stateMutability":"nonpayable"},{"type":"function","name":"settleWithHook","inputs":[{"name":"dealId","type":"uint256","internalType":"uint256"},{"name":"depositor","type":"address","internalType":"address"},{"name":"counterparty","type":"address","internalType":"address"},{"name":"principal","type":"uint256","internalType":"uint256"},{"name":"total","type":"uint256","internalType":"uint256"},{"name":"yieldSplitCounterparty","type":"uint8","internalType":"uint8"},{"name":"preferredToken","type":"address","internalType":"address"}],"outputs":[],"stateMutability":"nonpayable"},{"type":"function","name":"token","inputs":[],"outputs":[{"name":"","type":"address","internalType":"contract IERC20"}],"stateMutability":"view"},{"type":"event","name":"DealSettled","inputs":[{"name":"dealId","type":"uint256","indexed":true,"internalType":"uint256"},{"name":"depositor","type":"address","indexed":true,"internalType":"address"},{"name":"counterparty","type":"address","indexed":true,"internalType":"address"},{"name":"counterpartyPayout","type":"uint256","indexed":false,"internalType":"uint256"},{"name":"depositorPayout","type":"uint256","indexed":false,"internalType":"uint256"}],"anonymous":false},{"type":"event","name":"HookUpdated","inputs":[{"name":"hook","type":"address","indexed":true,"internalType":"address"}],"anonymous":false},{"type":"error","name":"SafeERC20FailedOperation","inputs":[{"name":"token","type":"address","internalType":"address"}]}],"bytecode":{"object":"0x60e060405234801561000f575f80fd5b506040516110db3803806110db83398101604081905261002e916100d5565b6001600160a01b0383166100785760405162461bcd60e51b815260206004820152600d60248201526c24b73b30b634b2103a37b5b2b760991b604482015260640160405180910390fd5b6001600160a01b0380841660805282811660a0523360c0528116156100b2575f80546001600160a01b0319166001600160a01b0383161790555b505050610115565b80516001600160a01b03811681146100d0575f80fd5b919050565b5f805f606084860312156100e7575f80fd5b6100f0846100ba565b92506100fe602085016100ba565b915061010c604085016100ba565b90509250925092565b60805160a05160c051610f2d6101ae5f395f8181610100015261016701525f81816083015281816106ef015281816107f90152818161089b0152610a4901525f818161013a01528181610344015281816103b50152818161040a0152818161050701528181610675015281816107710152818161082b0152818161096f01528181610a7701528181610af70152610b310152610f2d5ff3fe608060405234801561000f575f80fd5b506004361061007a575f3560e01c80637f5a7c7b116100585780637f5a7c7b146100e95780638da5cb5b146100fb578063b310d9c614610122578063fc0c546a14610135575f80fd5b80632bd16c8f1461007e5780633dfd3873146100c15780635ab9a38c146100d6575b5f80fd5b6100a57f000000000000000000000000000000000000000000000000000000000000000081565b6040516001600160a01b03909116815260200160405180910390f35b6100d46100cf366004610ce8565b61015c565b005b6100d46100e4366004610d18565b61020d565b5f546100a5906001600160a01b031681565b6100a57f000000000000000000000000000000000000000000000000000000000000000081565b6100d4610130366004610d84565b61058b565b6100a57f000000000000000000000000000000000000000000000000000000000000000081565b336001600160a01b037f000000000000000000000000000000000000000000000000000000000000000016146101c65760405162461bcd60e51b815260206004820152600a60248201526927b7363c9037bbb732b960b11b60448201526064015b60405180910390fd5b5f80546001600160a01b0319166001600160a01b038316908117825560405190917fe816c20840d998c8612f9b624b91687a80510eeb293cb09f7637379f6d73342d91a250565b5f84116102545760405162461bcd60e51b815260206004820152601560248201527405072696e636970616c206d757374206265203e203605c1b60448201526064016101bd565b838310156102a05760405162461bcd60e51b8152602060048201526019602482015278151bdd185b081b195cdcc81d1a185b881c1c9a5b98da5c185b603a1b60448201526064016101bd565b60648260ff1611156102ea5760405162461bcd60e51b8152602060048201526013602482015272125b9d985b1a59081e5a595b19081cdc1b1a5d606a1b60448201526064016101bd565b5f546001600160a01b03166103375760405162461bcd60e51b8152602060048201526013602482015272121bdbdac81b9bdd0818dbdb999a59dd5c9959606a1b60448201526064016101bd565b61036c6001600160a01b037f000000000000000000000000000000000000000000000000000000000000000016333086610bbe565b5f6103778585610e50565b90505f606461038960ff861684610e69565b6103939190610e80565b90505f6103a08284610e50565b905086156103dc576103dc6001600160a01b037f0000000000000000000000000000000000000000000000000000000000000000168989610c2b565b81156104f4575f5460405163095ea7b360e01b81526001600160a01b039182166004820152602481018490527f00000000000000000000000000000000000000000000000000000000000000009091169063095ea7b3906044016020604051808303815f875af1158015610452573d5f803e3d5ffd5b505050506040513d601f19601f820116820180604052508101906104769190610e9f565b505f546040516329d0820b60e01b81526001600160a01b038a81166004830152602482018590528681166044830152909116906329d0820b906064016020604051808303815f875af11580156104ce573d5f803e3d5ffd5b505050506040513d601f19601f820116820180604052508101906104f29190610ebe565b505b801561052e5761052e6001600160a01b037f0000000000000000000000000000000000000000000000000000000000000000168a83610c2b565b6001600160a01b03808916908a168b7f38d1d351aaed4d042e96c9e1ebf794cafeb9ec533318564d969b5335b2d2c321610568868c610ed5565b60408051918252602082018790520160405180910390a450505050505050505050565b5f85116105d25760405162461bcd60e51b815260206004820152601560248201527405072696e636970616c206d757374206265203e203605c1b60448201526064016101bd565b8484101561061e5760405162461bcd60e51b8152602060048201526019602482015278151bdd185b081b195cdcc81d1a185b881c1c9a5b98da5c185b603a1b60448201526064016101bd565b60648360ff1611156106685760405162461bcd60e51b8152602060048201526013602482015272125b9d985b1a59081e5a595b19081cdc1b1a5d606a1b60448201526064016101bd565b61069d6001600160a01b037f000000000000000000000000000000000000000000000000000000000000000016333087610bbe565b5f6106a88686610e50565b90505f60646106ba60ff871684610e69565b6106c49190610e80565b90505f6106d18284610e50565b90505f6106de838a610ed5565b9050818115610b1e578515610aea577f00000000000000000000000000000000000000000000000000000000000000006001600160a01b031661075a5760405162461bcd60e51b815260206004820152601460248201527313124b9192481b9bdd0818dbdb999a59dd5c995960621b60448201526064016101bd565b6040516370a0823160e01b81523060048201525f907f00000000000000000000000000000000000000000000000000000000000000006001600160a01b0316906370a0823190602401602060405180830381865afa1580156107be573d5f803e3d5ffd5b505050506040513d601f19601f820116820180604052508101906107e29190610ebe565b60405163095ea7b360e01b81526001600160a01b037f000000000000000000000000000000000000000000000000000000000000000081166004830152602482018690529192507f00000000000000000000000000000000000000000000000000000000000000009091169063095ea7b3906044016020604051808303815f875af1158015610873573d5f803e3d5ffd5b505050506040513d601f19601f820116820180604052508101906108979190610e9f565b505f7f00000000000000000000000000000000000000000000000000000000000000006001600160a01b031689896040516108d3929190610ee8565b5f604051808303815f865af19150503d805f811461090c576040519150601f19603f3d011682016040523d82523d5f602084013e610911565b606091505b50509050806109585760405162461bcd60e51b815260206004820152601360248201527213124b919248189c9a5919d94819985a5b1959606a1b60448201526064016101bd565b6040516370a0823160e01b81523060048201525f907f00000000000000000000000000000000000000000000000000000000000000006001600160a01b0316906370a0823190602401602060405180830381865afa1580156109bc573d5f803e3d5ffd5b505050506040513d601f19601f820116820180604052508101906109e09190610ebe565b9050846109ed8285610e50565b14610a325760405162461bcd60e51b8152602060048201526015602482015274098925c8c9240c2dadeeadce840dad2e6dac2e8c6d605b1b60448201526064016101bd565b60405163095ea7b360e01b81526001600160a01b037f0000000000000000000000000000000000000000000000000000000000000000811660048301525f60248301527f0000000000000000000000000000000000000000000000000000000000000000169063095ea7b3906044016020604051808303815f875af1158015610abd573d5f803e3d5ffd5b505050506040513d601f19601f82011682018060405250810190610ae19190610e9f565b50505050610b1e565b610b1e6001600160a01b037f0000000000000000000000000000000000000000000000000000000000000000168c84610c2b565b8015610b5857610b586001600160a01b037f0000000000000000000000000000000000000000000000000000000000000000168d83610c2b565b8a6001600160a01b03168c6001600160a01b03168e7f38d1d351aaed4d042e96c9e1ebf794cafeb9ec533318564d969b5335b2d2c3218585604051610ba7929190918252602082015260400190565b60405180910390a450505050505050505050505050565b6040516001600160a01b038481166024830152838116604483015260648201839052610c259186918216906323b872dd906084015b604051602081830303815290604052915060e01b6020820180516001600160e01b038381831617835250505050610c61565b50505050565b6040516001600160a01b03838116602483015260448201839052610c5c91859182169063a9059cbb90606401610bf3565b505050565b5f8060205f8451602086015f885af180610c80576040513d5f823e3d81fd5b50505f513d91508115610c97578060011415610ca4565b6001600160a01b0384163b155b15610c2557604051635274afe760e01b81526001600160a01b03851660048201526024016101bd565b80356001600160a01b0381168114610ce3575f80fd5b919050565b5f60208284031215610cf8575f80fd5b610d0182610ccd565b9392505050565b803560ff81168114610ce3575f80fd5b5f805f805f805f60e0888a031215610d2e575f80fd5b87359650610d3e60208901610ccd565b9550610d4c60408901610ccd565b94506060880135935060808801359250610d6860a08901610d08565b9150610d7660c08901610ccd565b905092959891949750929550565b5f805f805f805f8060e0898b031215610d9b575f80fd5b88359750610dab60208a01610ccd565b9650610db960408a01610ccd565b95506060890135945060808901359350610dd560a08a01610d08565b925060c089013567ffffffffffffffff80821115610df1575f80fd5b818b0191508b601f830112610e04575f80fd5b813581811115610e12575f80fd5b8c6020828501011115610e23575f80fd5b6020830194508093505050509295985092959890939650565b634e487b7160e01b5f52601160045260245ffd5b81810381811115610e6357610e63610e3c565b92915050565b8082028115828204841417610e6357610e63610e3c565b5f82610e9a57634e487b7160e01b5f52601260045260245ffd5b500490565b5f60208284031215610eaf575f80fd5b81518015158114610d01575f80fd5b5f60208284031215610ece575f80fd5b5051919050565b80820180821115610e6357610e63610e3c565b818382375f910190815291905056fea26469706673582212206c66bed1f1b0009803d3680f6e6dcfa136f40b9600d324c9d74427cdfd9312c864736f6c63430008180033","linkReferences":{}},"methodIdentifiers":{"hook()":"7f5a7c7b","lifiDiamond()":"2bd16c8f","owner()":"8da5cb5b","setHook(address)":"3dfd3873","settle(uint256,address,address,uint256,uint256,uint8,bytes)":"b310d9c6","settleWithHook(uint256,address,address,uint256,uint256,uint8,address)":"5ab9a38c","token()":"fc0c546a"},"id":3}