{"abi":[{"type":"constructor","inputs":[{"name":"_token","type":"address","internalType":"address"},{"name":"_lifiDiamond","type":"address","internalType":"address"},{"name":"_hook","type":"address","internalType":"address"}],"stateMutability":"nonpayable"},{"type":"function","name":"escrow","inputs":[],"outputs":[{"name":"","type":"address","internalType":"address"}],"stateMutability":"view"},{"type":"function","name":"hook","inputs":[],"outputs":[{"name":"","type":"address","internalType":"contract IRestlessSettlementHook"}],"stateMutability":"view"},{"type":"function","name":"lifiDiamond","inputs":[],"outputs":[{"name":"","type":"address","internalType":"address"}],"stateMutability":"view"},{"type":"function","name":"owner","inputs":[],"outputs":[{"name":"","type":"address","internalType":"address"}],"stateMutability":"view"},{"type":"function","name":"setEscrow","inputs":[{"name":"_escrow","type":"address","internalType":"address"}],"outputs":[],"stateMutability":"nonpayable"},{"type":"function","name":"setHook","inputs":[{"name":"_hook","type":"address","internalType":"address"}],"outputs":[],"stateMutability":"nonpayable"},{"type":"function","name":"settle","inputs":[{"name":"params","type":"tuple","internalType":"struct SettleParams","components":[{"name":"dealId","type":"uint256","internalType":"uint256"},{"name":"depositor","type":"address","internalType":"address"},{"name":"counterparty","type":"address","internalType":"address"},{"name":"principal","type":"uint256","internalType":"uint256"},{"name":"total","type":"uint256","internalType":"uint256"},{"name":"yieldSplitCounterparty","type":"uint8","internalType":"uint8"}]},{"name":"lifiData","type":"bytes","internalType":"bytes"}],"outputs":[],"stateMutability":"nonpayable"},{"type":"function","name":"settleWithHook","inputs":[{"name":"params","type":"tuple","internalType":"struct SettleParams","components":[{"name":"dealId","type":"uint256","internalType":"uint256"},{"name":"depositor","type":"address","internalType":"address"},{"name":"counterparty","type":"address","internalType":"address"},{"name":"principal","type":"uint256","internalType":"uint256"},{"name":"total","type":"uint256","internalType":"uint256"},{"name":"yieldSplitCounterparty","type":"uint8","internalType":"uint8"}]},{"name":"preferredToken","type":"address","internalType":"address"}],"outputs":[],"stateMutability":"nonpayable"},{"type":"function","name":"token","inputs":[],"outputs":[{"name":"","type":"address","internalType":"contract IERC20"}],"stateMutability":"view"},{"type":"event","name":"DealSettled","inputs":[{"name":"dealId","type":"uint256","indexed":true,"internalType":"uint256"},{"name":"depositor","type":"address","indexed":true,"internalType":"address"},{"name":"counterparty","type":"address","indexed":true,"internalType":"address"},{"name":"counterpartyPayout","type":"uint256","indexed":false,"internalType":"uint256"},{"name":"depositorPayout","type":"uint256","indexed":false,"internalType":"uint256"}],"anonymous":false},{"type":"event","name":"HookUpdated","inputs":[{"name":"hook","type":"address","indexed":true,"internalType":"address"}],"anonymous":false},{"type":"error","name":"HookNotConfigured","inputs":[]},{"type":"error","name":"InvalidEscrow","inputs":[]},{"type":"error","name":"InvalidPrincipal","inputs":[]},{"type":"error","name":"InvalidToken","inputs":[]},{"type":"error","name":"InvalidYieldSplit","inputs":[]},{"type":"error","name":"LiFiAmountMismatch","inputs":[]},{"type":"error","name":"LiFiBridgeFailed","inputs":[]},{"type":"error","name":"LiFiNotConfigured","inputs":[]},{"type":"error","name":"OnlyEscrow","inputs":[]},{"type":"error","name":"OnlyOwner","inputs":[]},{"type":"error","name":"SafeERC20FailedOperation","inputs":[{"name":"token","type":"address","internalType":"address"}]},{"type":"error","name":"TotalLessThanPrincipal","inputs":[]}],"bytecode":{"object":"0x60e060405234801561000f575f80fd5b50604051610faa380380610faa83398101604081905261002e916100b2565b6001600160a01b0383166100555760405163c1ab6dc160e01b815260040160405180910390fd5b6001600160a01b0380841660805282811660a0523360c05281161561008f575f80546001600160a01b0319166001600160a01b0383161790555b5050506100f2565b80516001600160a01b03811681146100ad575f80fd5b919050565b5f805f606084860312156100c4575f80fd5b6100cd84610097565b92506100db60208501610097565b91506100e960408501610097565b90509250925092565b60805160a05160c051610e1f61018b5f395f8181610129015281816101a3015261065201525f81816099015281816108cf015281816109cd015281816109f50152610b6c01525f818161017601528181610291015281816102f4015281816103350152818161041901528181610501015281816105a00152818161092b015281816109ab01528181610aa40152610b4a0152610e1f5ff3fe608060405234801561000f575f80fd5b5060043610610090575f3560e01c8063850ad1ba11610063578063850ad1ba146101115780638da5cb5b14610124578063c10c35461461014b578063e2fdcc171461015e578063fc0c546a14610171575f80fd5b80632bd16c8f146100945780633dfd3873146100d757806342a7155c146100ec5780637f5a7c7b146100ff575b5f80fd5b6100bb7f000000000000000000000000000000000000000000000000000000000000000081565b6040516001600160a01b03909116815260200160405180910390f35b6100ea6100e5366004610c6e565b610198565b005b6100ea6100fa366004610ca4565b610228565b5f546100bb906001600160a01b031681565b6100ea61011f366004610cd6565b6104c0565b6100bb7f000000000000000000000000000000000000000000000000000000000000000081565b6100ea610159366004610c6e565b610647565b6001546100bb906001600160a01b031681565b6100bb7f000000000000000000000000000000000000000000000000000000000000000081565b336001600160a01b037f000000000000000000000000000000000000000000000000000000000000000016146101e157604051635fc483c560e01b815260040160405180910390fd5b5f80546001600160a01b0319166001600160a01b038316908117825560405190917fe816c20840d998c8612f9b624b91687a80510eeb293cb09f7637379f6d73342d91a250565b6001546001600160a01b0316331461025357604051630d0418ed60e11b815260040160405180910390fd5b61025c826106d9565b5f546001600160a01b03166102845760405163990d458560e01b815260040160405180910390fd5b6102bd6001600160a01b037f0000000000000000000000000000000000000000000000000000000000000000163330608086013561075d565b5f806102c8846107ca565b909250905060608401351561031f5761031f6102ea6060860160408701610c6e565b6001600160a01b037f000000000000000000000000000000000000000000000000000000000000000016906060870135610808565b81156103f6575f5461035e906001600160a01b037f0000000000000000000000000000000000000000000000000000000000000000811691168461083e565b5f546001600160a01b03166329d0820b61037e6060870160408801610c6e565b6040516001600160e01b031960e084901b1681526001600160a01b0391821660048201526024810186905290861660448201526064016020604051808303815f875af11580156103d0573d5f803e3d5ffd5b505050506040513d601f19601f820116820180604052508101906103f49190610d55565b505b80156104405761044061040f6040860160208701610c6e565b6001600160a01b037f0000000000000000000000000000000000000000000000000000000000000000169083610808565b6104506060850160408601610c6e565b6001600160a01b03166104696040860160208701610c6e565b6001600160a01b031685357f38d1d351aaed4d042e96c9e1ebf794cafeb9ec533318564d969b5335b2d2c3216104a38660608a0135610d80565b60408051918252602082018790520160405180910390a450505050565b6001546001600160a01b031633146104eb57604051630d0418ed60e11b815260040160405180910390fd5b6104f4836106d9565b61052d6001600160a01b037f0000000000000000000000000000000000000000000000000000000000000000163330608087013561075d565b5f80610538856107ca565b90925090505f61054c836060880135610d80565b9050801561057d57831561056a576105658186866108cd565b61057d565b61057d61040f6060880160408901610c6e565b81156105c7576105c76105966040880160208901610c6e565b6001600160a01b037f0000000000000000000000000000000000000000000000000000000000000000169084610808565b6105d76060870160408801610c6e565b6001600160a01b03166105f06040880160208901610c6e565b6001600160a01b0316875f01357f38d1d351aaed4d042e96c9e1ebf794cafeb9ec533318564d969b5335b2d2c3218486604051610637929190918252602082015260400190565b60405180910390a4505050505050565b336001600160a01b037f0000000000000000000000000000000000000000000000000000000000000000161461069057604051635fc483c560e01b815260040160405180910390fd5b6001600160a01b0381166106b75760405163c4c3834b60e01b815260040160405180910390fd5b600180546001600160a01b0319166001600160a01b0392909216919091179055565b80606001355f036106fd5760405163dfee2c0b60e01b815260040160405180910390fd5b80606001358160800135101561072657604051633dae791760e21b815260040160405180910390fd5b606461073860c0830160a08401610d93565b60ff16111561075a5760405163abc4df1160e01b815260040160405180910390fd5b50565b6040516001600160a01b0384811660248301528381166044830152606482018390526107c49186918216906323b872dd906084015b604051602081830303815290604052915060e01b6020820180516001600160e01b038381831617835250505050610b98565b50505050565b5f80606083013560808401350360646107e960c0860160a08701610d93565b60ff168202816107fb576107fb610db3565b0494908590039350915050565b6040516001600160a01b0383811660248301526044820183905261083991859182169063a9059cbb90606401610792565b505050565b604080516001600160a01b038416602482015260448082018490528251808303909101815260649091019091526020810180516001600160e01b031663095ea7b360e01b17905261088f8482610c08565b6107c4576040516001600160a01b0384811660248301525f60448301526108c391869182169063095ea7b390606401610792565b6107c48482610b98565b7f00000000000000000000000000000000000000000000000000000000000000006001600160a01b03166109145760405163f22d627560e01b815260040160405180910390fd5b6040516370a0823160e01b81523060048201525f907f00000000000000000000000000000000000000000000000000000000000000006001600160a01b0316906370a0823190602401602060405180830381865afa158015610978573d5f803e3d5ffd5b505050506040513d601f19601f8201168201806040525081019061099c9190610d55565b90506109f26001600160a01b037f0000000000000000000000000000000000000000000000000000000000000000167f00000000000000000000000000000000000000000000000000000000000000008661083e565b5f7f00000000000000000000000000000000000000000000000000000000000000006001600160a01b03168484604051610a2d929190610dc7565b5f604051808303815f865af19150503d805f8114610a66576040519150601f19603f3d011682016040523d82523d5f602084013e610a6b565b606091505b5050905080610a8d576040516389cac52d60e01b815260040160405180910390fd5b6040516370a0823160e01b815230600482015285907f00000000000000000000000000000000000000000000000000000000000000006001600160a01b0316906370a0823190602401602060405180830381865afa158015610af1573d5f803e3d5ffd5b505050506040513d601f19601f82011682018060405250810190610b159190610d55565b610b1f9084610dd6565b14610b3d5760405163b80dff7760e01b815260040160405180910390fd5b610b916001600160a01b037f0000000000000000000000000000000000000000000000000000000000000000167f00000000000000000000000000000000000000000000000000000000000000005f61083e565b5050505050565b5f8060205f8451602086015f885af180610bb7576040513d5f823e3d81fd5b50505f513d91508115610bce578060011415610bdb565b6001600160a01b0384163b155b156107c457604051635274afe760e01b81526001600160a01b038516600482015260240160405180910390fd5b5f805f8060205f8651602088015f8a5af192503d91505f519050828015610c4757508115610c395780600114610c47565b5f866001600160a01b03163b115b93505050505b92915050565b80356001600160a01b0381168114610c69575f80fd5b919050565b5f60208284031215610c7e575f80fd5b610c8782610c53565b9392505050565b5f60c08284031215610c9e575f80fd5b50919050565b5f8060e08385031215610cb5575f80fd5b610cbf8484610c8e565b9150610ccd60c08401610c53565b90509250929050565b5f805f60e08486031215610ce8575f80fd5b610cf28585610c8e565b925060c084013567ffffffffffffffff811115610d0d575f80fd5b8401601f81018613610d1d575f80fd5b803567ffffffffffffffff811115610d33575f80fd5b866020828401011115610d44575f80fd5b939660209190910195509293505050565b5f60208284031215610d65575f80fd5b5051919050565b634e487b7160e01b5f52601160045260245ffd5b80820180821115610c4d57610c4d610d6c565b5f60208284031215610da3575f80fd5b813560ff81168114610c87575f80fd5b634e487b7160e01b5f52601260045260245ffd5b818382375f9101908152919050565b81810381811115610c4d57610c4d610d6c56fea2646970667358221220037f96d2a9553f6e5f24db111e7203c3b490e42735b769ba7f956cbacbb5f5eb64736f6c634300081a0033","linkReferences":{}},"methodIdentifiers":{"escrow()":"e2fdcc17","hook()":"7f5a7c7b","lifiDiamond()":"2bd16c8f","owner()":"8da5cb5b","setEscrow(address)":"c10c3546","setHook(address)":"3dfd3873","settle((uint256,address,address,uint256,uint256,uint8),bytes)":"850ad1ba","settleWithHook((uint256,address,address,uint256,uint256,uint8),address)":"42a7155c","token()":"fc0c546a"},"id":3}