{"abi":[{"type":"constructor","inputs":[{"name":"_token","type":"address","internalType":"address"}],"stateMutability":"nonpayable"},{"type":"function","name":"active","inputs":[{"name":"","type":"uint256","internalType":"uint256"}],"outputs":[{"name":"","type":"bool","internalType":"bool"}],"stateMutability":"view"},{"type":"function","name":"deposit","inputs":[{"name":"dealId","type":"uint256","internalType":"uint256"},{"name":"amount","type":"uint256","internalType":"uint256"}],"outputs":[],"stateMutability":"nonpayable"},{"type":"function","name":"getAccruedYield","inputs":[{"name":"dealId","type":"uint256","internalType":"uint256"}],"outputs":[{"name":"","type":"uint256","internalType":"uint256"}],"stateMutability":"view"},{"type":"function","name":"getPrincipal","inputs":[{"name":"dealId","type":"uint256","internalType":"uint256"}],"outputs":[{"name":"","type":"uint256","internalType":"uint256"}],"stateMutability":"view"},{"type":"function","name":"mockYield","inputs":[],"outputs":[{"name":"","type":"uint256","internalType":"uint256"}],"stateMutability":"view"},{"type":"function","name":"principals","inputs":[{"name":"","type":"uint256","internalType":"uint256"}],"outputs":[{"name":"","type":"uint256","internalType":"uint256"}],"stateMutability":"view"},{"type":"function","name":"setMockYield","inputs":[{"name":"_yield","type":"uint256","internalType":"uint256"}],"outputs":[],"stateMutability":"nonpayable"},{"type":"function","name":"token","inputs":[],"outputs":[{"name":"","type":"address","internalType":"contract IERC20"}],"stateMutability":"view"},{"type":"function","name":"withdraw","inputs":[{"name":"dealId","type":"uint256","internalType":"uint256"}],"outputs":[{"name":"total","type":"uint256","internalType":"uint256"}],"stateMutability":"nonpayable"}],"bytecode":{"object":"0x6080604052348015600e575f80fd5b506040516104e93803806104e9833981016040819052602b91604e565b5f80546001600160a01b0319166001600160a01b03929092169190911790556079565b5f60208284031215605d575f80fd5b81516001600160a01b03811681146072575f80fd5b9392505050565b610463806100865f395ff3fe608060405234801561000f575f80fd5b5060043610610090575f3560e01c80638c42327e116100635780638c42327e146101085780639c3a865c14610127578063da4779e01461013c578063e2bbb1581461015b578063fc0c546a1461016e575f80fd5b806324d09a8f146100945780632b21fa24146100ba5780632e1a7d4d146100c35780638033d581146100d6575b5f80fd5b6100a76100a23660046103ab565b610198565b6040519081526020015b60405180910390f35b6100a760035481565b6100a76100d13660046103ab565b6101bc565b6100f86100e43660046103ab565b60026020525f908152604090205460ff1681565b60405190151581526020016100b1565b6100a76101163660046103ab565b60016020525f908152604090205481565b61013a6101353660046103ab565b600355565b005b6100a761014a3660046103ab565b5f9081526001602052604090205490565b61013a6101693660046103c2565b6102ba565b5f54610180906001600160a01b031681565b6040516001600160a01b0390911681526020016100b1565b5f8181526002602052604081205460ff166101b457505f919050565b505060035490565b5f8181526002602052604081205460ff166102125760405162461bcd60e51b8152602060048201526011602482015270139bc81858dd1a5d994819195c1bdcda5d607a1b60448201526064015b60405180910390fd5b6003545f8381526001602052604090205461022d91906103e2565b5f83815260026020526040808220805460ff191690559054905163a9059cbb60e01b8152336004820152602481018390529192506001600160a01b03169063a9059cbb906044016020604051808303815f875af1158015610290573d5f803e3d5ffd5b505050506040513d601f19601f820116820180604052508101906102b49190610407565b50919050565b5f8281526002602052604090205460ff161561030c5760405162461bcd60e51b8152602060048201526011602482015270105b1c9958591e4819195c1bdcda5d1959607a1b6044820152606401610209565b5f546040516323b872dd60e01b8152336004820152306024820152604481018390526001600160a01b03909116906323b872dd906064016020604051808303815f875af115801561035f573d5f803e3d5ffd5b505050506040513d601f19601f820116820180604052508101906103839190610407565b505f91825260016020818152604080852093909355600290529120805460ff19169091179055565b5f602082840312156103bb575f80fd5b5035919050565b5f80604083850312156103d3575f80fd5b50508035926020909101359150565b8082018082111561040157634e487b7160e01b5f52601160045260245ffd5b92915050565b5f60208284031215610417575f80fd5b81518015158114610426575f80fd5b939250505056fea26469706673582212201a7d672e0b8ac318e2cca86de017eb398b1652d1637393d48719d01d5eef69e264736f6c634300081a0033","linkReferences":{}},"methodIdentifiers":{"active(uint256)":"8033d581","deposit(uint256,uint256)":"e2bbb158","getAccruedYield(uint256)":"24d09a8f","getPrincipal(uint256)":"da4779e0","mockYield()":"2b21fa24","principals(uint256)":"8c42327e","setMockYield(uint256)":"9c3a865c","token()":"fc0c546a","withdraw(uint256)":"2e1a7d4d"},"id":13}