{"abi":[{"type":"constructor","inputs":[{"name":"_inputToken","type":"address","internalType":"address"},{"name":"_settlementAddress","type":"address","internalType":"address"}],"stateMutability":"nonpayable"},{"type":"function","name":"inputToken","inputs":[],"outputs":[{"name":"","type":"address","internalType":"contract IERC20"}],"stateMutability":"view"},{"type":"function","name":"owner","inputs":[],"outputs":[{"name":"","type":"address","internalType":"address"}],"stateMutability":"view"},{"type":"function","name":"setSwapRate","inputs":[{"name":"token","type":"address","internalType":"address"},{"name":"ratePerUnit","type":"uint256","internalType":"uint256"}],"outputs":[],"stateMutability":"nonpayable"},{"type":"function","name":"settleWithSwap","inputs":[{"name":"recipient","type":"address","internalType":"address"},{"name":"yieldAmount","type":"uint256","internalType":"uint256"},{"name":"preferredToken","type":"address","internalType":"address"}],"outputs":[{"name":"amountOut","type":"uint256","internalType":"uint256"}],"stateMutability":"nonpayable"},{"type":"function","name":"settlementAddress","inputs":[],"outputs":[{"name":"","type":"address","internalType":"address"}],"stateMutability":"view"},{"type":"function","name":"swapRates","inputs":[{"name":"","type":"address","internalType":"address"}],"outputs":[{"name":"","type":"uint256","internalType":"uint256"}],"stateMutability":"view"},{"type":"event","name":"PoolKeySet","inputs":[{"name":"preferredToken","type":"address","indexed":true,"internalType":"address"}],"anonymous":false},{"type":"event","name":"YieldSwapped","inputs":[{"name":"recipient","type":"address","indexed":true,"internalType":"address"},{"name":"outputToken","type":"address","indexed":true,"internalType":"address"},{"name":"inputAmount","type":"uint256","indexed":false,"internalType":"uint256"},{"name":"outputAmount","type":"uint256","indexed":false,"internalType":"uint256"}],"anonymous":false},{"type":"error","name":"InvalidAmount","inputs":[]},{"type":"error","name":"InvalidInputToken","inputs":[]},{"type":"error","name":"InvalidOwnerAddress","inputs":[]},{"type":"error","name":"InvalidSettlementAddress","inputs":[]},{"type":"error","name":"NoSwapRate","inputs":[]},{"type":"error","name":"OnlyOwner","inputs":[{"name":"caller","type":"address","internalType":"address"}]},{"type":"error","name":"OnlyPoolManager","inputs":[{"name":"caller","type":"address","internalType":"address"}]},{"type":"error","name":"OnlySettlement","inputs":[{"name":"caller","type":"address","internalType":"address"}]},{"type":"error","name":"PoolNotConfigured","inputs":[]},{"type":"error","name":"SafeERC20FailedOperation","inputs":[{"name":"token","type":"address","internalType":"address"}]}],"bytecode":{"object":"0x60e060405234801561000f575f80fd5b5060405161067b38038061067b83398101604081905261002e916100b2565b6001600160a01b03821661005557604051632df9739b60e01b815260040160405180910390fd5b6001600160a01b03811661007c576040516378c8b5df60e01b815260040160405180910390fd5b6001600160a01b039182166080521660c0523360a0526100e3565b80516001600160a01b03811681146100ad575f80fd5b919050565b5f80604083850312156100c3575f80fd5b6100cc83610097565b91506100da60208401610097565b90509250929050565b60805160a05160c05161055b6101205f395f8181610129015261015701525f818160ed01526102d701525f818160690152610200015261055b5ff3fe608060405234801561000f575f80fd5b5060043610610060575f3560e01c806301b60ef21461006457806307989d5a146100a857806329d0820b146100d55780638da5cb5b146100e8578063cef5f4821461010f578063f738c4a714610124575b5f80fd5b61008b7f000000000000000000000000000000000000000000000000000000000000000081565b6040516001600160a01b0390911681526020015b60405180910390f35b6100c76100b636600461045c565b5f6020819052908152604090205481565b60405190815260200161009f565b6100c76100e336600461047c565b61014b565b61008b7f000000000000000000000000000000000000000000000000000000000000000081565b61012261011d3660046104b5565b6102cc565b005b61008b7f000000000000000000000000000000000000000000000000000000000000000081565b5f336001600160a01b037f0000000000000000000000000000000000000000000000000000000000000000161461019c5760405163df68485960e01b81523360048201526024015b60405180910390fd5b825f036101bc5760405163162908e360e11b815260040160405180910390fd5b6001600160a01b0382165f9081526020819052604081205490036101f3576040516346a3151560e11b815260040160405180910390fd5b6102286001600160a01b037f000000000000000000000000000000000000000000000000000000000000000016333086610332565b6001600160a01b0382165f90815260208190526040902054620f42409061024f90856104dd565b6102599190610506565b905061026f6001600160a01b038316858361039f565b816001600160a01b0316846001600160a01b03167f6940fe9a6a6d888d71e55862284766f174a8db0f8b2b15d80569a08f6ec8f15185846040516102bd929190918252602082015260400190565b60405180910390a39392505050565b336001600160a01b037f0000000000000000000000000000000000000000000000000000000000000000161461031757604051630543601560e11b8152336004820152602401610193565b6001600160a01b039091165f90815260208190526040902055565b6040516001600160a01b0384811660248301528381166044830152606482018390526103999186918216906323b872dd906084015b604051602081830303815290604052915060e01b6020820180516001600160e01b0383818316178352505050506103d5565b50505050565b6040516001600160a01b038381166024830152604482018390526103d091859182169063a9059cbb90606401610367565b505050565b5f8060205f8451602086015f885af1806103f4576040513d5f823e3d81fd5b50505f513d9150811561040b578060011415610418565b6001600160a01b0384163b155b1561039957604051635274afe760e01b81526001600160a01b0385166004820152602401610193565b80356001600160a01b0381168114610457575f80fd5b919050565b5f6020828403121561046c575f80fd5b61047582610441565b9392505050565b5f805f6060848603121561048e575f80fd5b61049784610441565b9250602084013591506104ac60408501610441565b90509250925092565b5f80604083850312156104c6575f80fd5b6104cf83610441565b946020939093013593505050565b808202811582820484141761050057634e487b7160e01b5f52601160045260245ffd5b92915050565b5f8261052057634e487b7160e01b5f52601260045260245ffd5b50049056fea264697066735822122038fa83c6016d32ea2071a6add90779bc42e71afe256e260a12f8de811dba98ba64736f6c634300081a0033","linkReferences":{}},"methodIdentifiers":{"inputToken()":"01b60ef2","owner()":"8da5cb5b","setSwapRate(address,uint256)":"cef5f482","settleWithSwap(address,uint256,address)":"29d0820b","settlementAddress()":"f738c4a7","swapRates(address)":"07989d5a"},"id":12}