{"abi":[{"type":"constructor","inputs":[{"name":"_inputToken","type":"address","internalType":"address"},{"name":"_settlementAddress","type":"address","internalType":"address"}],"stateMutability":"nonpayable"},{"type":"function","name":"inputToken","inputs":[],"outputs":[{"name":"","type":"address","internalType":"contract IERC20"}],"stateMutability":"view"},{"type":"function","name":"owner","inputs":[],"outputs":[{"name":"","type":"address","internalType":"address"}],"stateMutability":"view"},{"type":"function","name":"setSwapRate","inputs":[{"name":"token","type":"address","internalType":"address"},{"name":"ratePerUnit","type":"uint256","internalType":"uint256"}],"outputs":[],"stateMutability":"nonpayable"},{"type":"function","name":"settleWithSwap","inputs":[{"name":"recipient","type":"address","internalType":"address"},{"name":"yieldAmount","type":"uint256","internalType":"uint256"},{"name":"preferredToken","type":"address","internalType":"address"}],"outputs":[{"name":"amountOut","type":"uint256","internalType":"uint256"}],"stateMutability":"nonpayable"},{"type":"function","name":"settlementAddress","inputs":[],"outputs":[{"name":"","type":"address","internalType":"address"}],"stateMutability":"view"},{"type":"function","name":"swapRates","inputs":[{"name":"","type":"address","internalType":"address"}],"outputs":[{"name":"","type":"uint256","internalType":"uint256"}],"stateMutability":"view"},{"type":"event","name":"PoolKeySet","inputs":[{"name":"preferredToken","type":"address","indexed":true,"internalType":"address"}],"anonymous":false},{"type":"event","name":"YieldSwapped","inputs":[{"name":"recipient","type":"address","indexed":true,"internalType":"address"},{"name":"outputToken","type":"address","indexed":true,"internalType":"address"},{"name":"inputAmount","type":"uint256","indexed":false,"internalType":"uint256"},{"name":"outputAmount","type":"uint256","indexed":false,"internalType":"uint256"}],"anonymous":false},{"type":"error","name":"SafeERC20FailedOperation","inputs":[{"name":"token","type":"address","internalType":"address"}]}],"bytecode":{"object":"0x60e060405234801561000f575f80fd5b5060405161075d38038061075d83398101604081905261002e9161010a565b6001600160a01b0382166100895760405162461bcd60e51b815260206004820152601360248201527f496e76616c696420696e70757420746f6b656e0000000000000000000000000060448201526064015b60405180910390fd5b6001600160a01b0381166100d45760405162461bcd60e51b8152602060048201526012602482015271125b9d985b1a59081cd95d1d1b195b595b9d60721b6044820152606401610080565b6001600160a01b039182166080521660c0523360a05261013b565b80516001600160a01b0381168114610105575f80fd5b919050565b5f806040838503121561011b575f80fd5b610124836100ef565b9150610132602084016100ef565b90509250929050565b60805160a05160c0516105e56101785f395f8181610129015261015701525f818160ed015261034701525f81816069015261027001526105e55ff3fe608060405234801561000f575f80fd5b5060043610610060575f3560e01c806301b60ef21461006457806307989d5a146100a857806329d0820b146100d55780638da5cb5b146100e8578063cef5f4821461010f578063f738c4a714610124575b5f80fd5b61008b7f000000000000000000000000000000000000000000000000000000000000000081565b6040516001600160a01b0390911681526020015b60405180910390f35b6100c76100b63660046104e6565b5f6020819052908152604090205481565b60405190815260200161009f565b6100c76100e3366004610506565b61014b565b61008b7f000000000000000000000000000000000000000000000000000000000000000081565b61012261011d36600461053f565b61033c565b005b61008b7f000000000000000000000000000000000000000000000000000000000000000081565b5f336001600160a01b037f000000000000000000000000000000000000000000000000000000000000000016146101bb5760405162461bcd60e51b815260206004820152600f60248201526e13db9b1e481cd95d1d1b195b595b9d608a1b60448201526064015b60405180910390fd5b5f83116101ff5760405162461bcd60e51b81526020600482015260126024820152710416d6f756e74206d757374206265203e20360741b60448201526064016101b2565b6001600160a01b0382165f908152602081905260409020546102635760405162461bcd60e51b815260206004820152601760248201527f4e6f2073776170207261746520636f6e6669677572656400000000000000000060448201526064016101b2565b6102986001600160a01b037f0000000000000000000000000000000000000000000000000000000000000000163330866103bc565b6001600160a01b0382165f90815260208190526040902054620f4240906102bf9085610567565b6102c99190610590565b90506102df6001600160a01b0383168583610429565b816001600160a01b0316846001600160a01b03167f6940fe9a6a6d888d71e55862284766f174a8db0f8b2b15d80569a08f6ec8f151858460405161032d929190918252602082015260400190565b60405180910390a39392505050565b336001600160a01b037f000000000000000000000000000000000000000000000000000000000000000016146103a15760405162461bcd60e51b815260206004820152600a60248201526927b7363c9037bbb732b960b11b60448201526064016101b2565b6001600160a01b039091165f90815260208190526040902055565b6040516001600160a01b0384811660248301528381166044830152606482018390526104239186918216906323b872dd906084015b604051602081830303815290604052915060e01b6020820180516001600160e01b03838183161783525050505061045f565b50505050565b6040516001600160a01b0383811660248301526044820183905261045a91859182169063a9059cbb906064016103f1565b505050565b5f8060205f8451602086015f885af18061047e576040513d5f823e3d81fd5b50505f513d915081156104955780600114156104a2565b6001600160a01b0384163b155b1561042357604051635274afe760e01b81526001600160a01b03851660048201526024016101b2565b80356001600160a01b03811681146104e1575f80fd5b919050565b5f602082840312156104f6575f80fd5b6104ff826104cb565b9392505050565b5f805f60608486031215610518575f80fd5b610521846104cb565b925060208401359150610536604085016104cb565b90509250925092565b5f8060408385031215610550575f80fd5b610559836104cb565b946020939093013593505050565b808202811582820484141761058a57634e487b7160e01b5f52601160045260245ffd5b92915050565b5f826105aa57634e487b7160e01b5f52601260045260245ffd5b50049056fea2646970667358221220dbe146d656b87f54e166a1bb347c8212bee15eae5495bc664640805db300b09064736f6c634300081a0033","linkReferences":{}},"methodIdentifiers":{"inputToken()":"01b60ef2","owner()":"8da5cb5b","setSwapRate(address,uint256)":"cef5f482","settleWithSwap(address,uint256,address)":"29d0820b","settlementAddress()":"f738c4a7","swapRates(address)":"07989d5a"},"id":12}