{"abi":[{"type":"constructor","inputs":[{"name":"_token","type":"address","internalType":"address"},{"name":"_aToken","type":"address","internalType":"address"}],"stateMutability":"nonpayable"},{"type":"function","name":"aToken","inputs":[],"outputs":[{"name":"","type":"address","internalType":"contract MockERC20"}],"stateMutability":"view"},{"type":"function","name":"addBackingUSDC","inputs":[{"name":"amount","type":"uint256","internalType":"uint256"}],"outputs":[],"stateMutability":"nonpayable"},{"type":"function","name":"simulateYield","inputs":[{"name":"holder","type":"address","internalType":"address"},{"name":"yieldAmount","type":"uint256","internalType":"uint256"}],"outputs":[],"stateMutability":"nonpayable"},{"type":"function","name":"supply","inputs":[{"name":"asset","type":"address","internalType":"address"},{"name":"amount","type":"uint256","internalType":"uint256"},{"name":"onBehalfOf","type":"address","internalType":"address"},{"name":"","type":"uint16","internalType":"uint16"}],"outputs":[],"stateMutability":"nonpayable"},{"type":"function","name":"token","inputs":[],"outputs":[{"name":"","type":"address","internalType":"contract IERC20"}],"stateMutability":"view"},{"type":"function","name":"withdraw","inputs":[{"name":"asset","type":"address","internalType":"address"},{"name":"amount","type":"uint256","internalType":"uint256"},{"name":"to","type":"address","internalType":"address"}],"outputs":[{"name":"","type":"uint256","internalType":"uint256"}],"stateMutability":"nonpayable"}],"bytecode":{"object":"0x6080604052348015600e575f80fd5b50604051610652380380610652833981016040819052602b916074565b5f80546001600160a01b039384166001600160a01b0319918216179091556001805492909316911617905560a0565b80516001600160a01b0381168114606f575f80fd5b919050565b5f80604083850312156084575f80fd5b608b83605a565b9150609760208401605a565b90509250929050565b6105a5806100ad5f395ff3fe608060405234801561000f575f80fd5b5060043610610060575f3560e01c8063301475d314610064578063617ba0371461007757806369328dec1461008a5780638e85fd89146100b0578063a0c1f15e146100c3578063fc0c546a146100ee575b5f80fd5b61007561007236600461044d565b50565b005b61007561008536600461047f565b610100565b61009d6100983660046104d1565b61022e565b6040519081526020015b60405180910390f35b6100756100be36600461050a565b6103e8565b6001546100d6906001600160a01b031681565b6040516001600160a01b0390911681526020016100a7565b5f546100d6906001600160a01b031681565b5f546001600160a01b0385811691161461014f5760405162461bcd60e51b815260206004820152600b60248201526a15dc9bdb99c8185cdcd95d60aa1b60448201526064015b60405180910390fd5b5f546040516323b872dd60e01b8152336004820152306024820152604481018590526001600160a01b03909116906323b872dd906064016020604051808303815f875af11580156101a2573d5f803e3d5ffd5b505050506040513d601f19601f820116820180604052508101906101c69190610532565b506001546040516340c10f1960e01b81526001600160a01b03848116600483015260248201869052909116906340c10f19906044015f604051808303815f87803b158015610212575f80fd5b505af1158015610224573d5f803e3d5ffd5b5050505050505050565b5f80546001600160a01b038581169116146102795760405162461bcd60e51b815260206004820152600b60248201526a15dc9bdb99c8185cdcd95d60aa1b6044820152606401610146565b5f5f19841461028857836102f2565b6001546040516370a0823160e01b81523360048201526001600160a01b03909116906370a0823190602401602060405180830381865afa1580156102ce573d5f803e3d5ffd5b505050506040513d601f19601f820116820180604052508101906102f29190610558565b6001546040516323b872dd60e01b8152336004820152306024820152604481018390529192506001600160a01b0316906323b872dd906064016020604051808303815f875af1158015610347573d5f803e3d5ffd5b505050506040513d601f19601f8201168201806040525081019061036b9190610532565b505f5460405163a9059cbb60e01b81526001600160a01b038581166004830152602482018490529091169063a9059cbb906044016020604051808303815f875af11580156103bb573d5f803e3d5ffd5b505050506040513d601f19601f820116820180604052508101906103df9190610532565b50949350505050565b6001546040516340c10f1960e01b81526001600160a01b03848116600483015260248201849052909116906340c10f19906044015f604051808303815f87803b158015610433575f80fd5b505af1158015610445573d5f803e3d5ffd5b505050505050565b5f6020828403121561045d575f80fd5b5035919050565b80356001600160a01b038116811461047a575f80fd5b919050565b5f805f8060808587031215610492575f80fd5b61049b85610464565b9350602085013592506104b060408601610464565b9150606085013561ffff811681146104c6575f80fd5b939692955090935050565b5f805f606084860312156104e3575f80fd5b6104ec84610464565b92506020840135915061050160408501610464565b90509250925092565b5f806040838503121561051b575f80fd5b61052483610464565b946020939093013593505050565b5f60208284031215610542575f80fd5b81518015158114610551575f80fd5b9392505050565b5f60208284031215610568575f80fd5b505191905056fea2646970667358221220471bbed3064d862027a9cbe8f9d4f4bbc0ba9138cc4c25bc5bd21ec3fdb1755464736f6c634300081a0033","linkReferences":{}},"methodIdentifiers":{"aToken()":"a0c1f15e","addBackingUSDC(uint256)":"301475d3","simulateYield(address,uint256)":"8e85fd89","supply(address,uint256,address,uint16)":"617ba037","token()":"fc0c546a","withdraw(address,uint256,address)":"69328dec"},"id":7}