{"abi":[{"type":"constructor","inputs":[{"name":"_token","type":"address","internalType":"address"},{"name":"_yieldAdapter","type":"address","internalType":"address"},{"name":"_settlement","type":"address","internalType":"address"}],"stateMutability":"nonpayable"},{"type":"function","name":"MAX_TIMEOUT","inputs":[],"outputs":[{"name":"","type":"uint32","internalType":"uint32"}],"stateMutability":"view"},{"type":"function","name":"MIN_TIMEOUT","inputs":[],"outputs":[{"name":"","type":"uint32","internalType":"uint32"}],"stateMutability":"view"},{"type":"function","name":"SETTLE_TYPEHASH","inputs":[],"outputs":[{"name":"","type":"bytes32","internalType":"bytes32"}],"stateMutability":"view"},{"type":"function","name":"cancelDeal","inputs":[{"name":"dealId","type":"uint256","internalType":"uint256"}],"outputs":[],"stateMutability":"nonpayable"},{"type":"function","name":"claimTimeout","inputs":[{"name":"dealId","type":"uint256","internalType":"uint256"}],"outputs":[],"stateMutability":"nonpayable"},{"type":"function","name":"createDeal","inputs":[{"name":"params","type":"tuple","internalType":"struct CreateDealParams","components":[{"name":"counterparty","type":"address","internalType":"address"},{"name":"amount","type":"uint256","internalType":"uint256"},{"name":"yieldSplitCounterparty","type":"uint8","internalType":"uint8"},{"name":"timeout","type":"uint32","internalType":"uint32"},{"name":"dealHash","type":"bytes32","internalType":"bytes32"}]}],"outputs":[{"name":"","type":"uint256","internalType":"uint256"}],"stateMutability":"nonpayable"},{"type":"function","name":"dealCount","inputs":[],"outputs":[{"name":"","type":"uint256","internalType":"uint256"}],"stateMutability":"view"},{"type":"function","name":"deals","inputs":[{"name":"","type":"uint256","internalType":"uint256"}],"outputs":[{"name":"depositor","type":"address","internalType":"address"},{"name":"createdAt","type":"uint40","internalType":"uint40"},{"name":"status","type":"uint8","internalType":"enum DealStatus"},{"name":"yieldSplitCounterparty","type":"uint8","internalType":"uint8"},{"name":"timeout","type":"uint32","internalType":"uint32"},{"name":"counterparty","type":"address","internalType":"address"},{"name":"fundedAt","type":"uint40","internalType":"uint40"},{"name":"disputedAt","type":"uint40","internalType":"uint40"},{"name":"amount","type":"uint256","internalType":"uint256"},{"name":"dealHash","type":"bytes32","internalType":"bytes32"}],"stateMutability":"view"},{"type":"function","name":"disputeDeal","inputs":[{"name":"dealId","type":"uint256","internalType":"uint256"}],"outputs":[],"stateMutability":"nonpayable"},{"type":"function","name":"eip712Domain","inputs":[],"outputs":[{"name":"fields","type":"bytes1","internalType":"bytes1"},{"name":"name","type":"string","internalType":"string"},{"name":"version","type":"string","internalType":"string"},{"name":"chainId","type":"uint256","internalType":"uint256"},{"name":"verifyingContract","type":"address","internalType":"address"},{"name":"salt","type":"bytes32","internalType":"bytes32"},{"name":"extensions","type":"uint256[]","internalType":"uint256[]"}],"stateMutability":"view"},{"type":"function","name":"fundDeal","inputs":[{"name":"dealId","type":"uint256","internalType":"uint256"}],"outputs":[],"stateMutability":"nonpayable"},{"type":"function","name":"getAccruedYield","inputs":[{"name":"dealId","type":"uint256","internalType":"uint256"}],"outputs":[{"name":"","type":"uint256","internalType":"uint256"}],"stateMutability":"view"},{"type":"function","name":"getDeal","inputs":[{"name":"dealId","type":"uint256","internalType":"uint256"}],"outputs":[{"name":"","type":"tuple","internalType":"struct Deal","components":[{"name":"depositor","type":"address","internalType":"address"},{"name":"createdAt","type":"uint40","internalType":"uint40"},{"name":"status","type":"uint8","internalType":"enum DealStatus"},{"name":"yieldSplitCounterparty","type":"uint8","internalType":"uint8"},{"name":"timeout","type":"uint32","internalType":"uint32"},{"name":"counterparty","type":"address","internalType":"address"},{"name":"fundedAt","type":"uint40","internalType":"uint40"},{"name":"disputedAt","type":"uint40","internalType":"uint40"},{"name":"amount","type":"uint256","internalType":"uint256"},{"name":"dealHash","type":"bytes32","internalType":"bytes32"}]}],"stateMutability":"view"},{"type":"function","name":"getSettleDigest","inputs":[{"name":"dealId","type":"uint256","internalType":"uint256"}],"outputs":[{"name":"","type":"bytes32","internalType":"bytes32"}],"stateMutability":"view"},{"type":"function","name":"owner","inputs":[],"outputs":[{"name":"","type":"address","internalType":"address"}],"stateMutability":"view"},{"type":"function","name":"pause","inputs":[],"outputs":[],"stateMutability":"nonpayable"},{"type":"function","name":"paused","inputs":[],"outputs":[{"name":"","type":"bool","internalType":"bool"}],"stateMutability":"view"},{"type":"function","name":"rescueTokens","inputs":[{"name":"_token","type":"address","internalType":"contract IERC20"},{"name":"to","type":"address","internalType":"address"},{"name":"amount","type":"uint256","internalType":"uint256"}],"outputs":[],"stateMutability":"nonpayable"},{"type":"function","name":"settleDeal","inputs":[{"name":"dealId","type":"uint256","internalType":"uint256"},{"name":"lifiData","type":"bytes","internalType":"bytes"}],"outputs":[],"stateMutability":"nonpayable"},{"type":"function","name":"settleDealSigned","inputs":[{"name":"dealId","type":"uint256","internalType":"uint256"},{"name":"lifiData","type":"bytes","internalType":"bytes"},{"name":"depositorSig","type":"bytes","internalType":"bytes"},{"name":"counterpartySig","type":"bytes","internalType":"bytes"}],"outputs":[],"stateMutability":"nonpayable"},{"type":"function","name":"settleDealWithHook","inputs":[{"name":"dealId","type":"uint256","internalType":"uint256"},{"name":"preferredToken","type":"address","internalType":"address"}],"outputs":[],"stateMutability":"nonpayable"},{"type":"function","name":"settleDealWithHookSigned","inputs":[{"name":"dealId","type":"uint256","internalType":"uint256"},{"name":"preferredToken","type":"address","internalType":"address"},{"name":"depositorSig","type":"bytes","internalType":"bytes"},{"name":"counterpartySig","type":"bytes","internalType":"bytes"}],"outputs":[],"stateMutability":"nonpayable"},{"type":"function","name":"settlement","inputs":[],"outputs":[{"name":"","type":"address","internalType":"contract ISettlement"}],"stateMutability":"view"},{"type":"function","name":"token","inputs":[],"outputs":[{"name":"","type":"address","internalType":"contract IERC20"}],"stateMutability":"view"},{"type":"function","name":"unpause","inputs":[],"outputs":[],"stateMutability":"nonpayable"},{"type":"function","name":"yieldAdapter","inputs":[],"outputs":[{"name":"","type":"address","internalType":"contract IYieldAdapter"}],"stateMutability":"view"},{"type":"event","name":"DealCancelled","inputs":[{"name":"dealId","type":"uint256","indexed":true,"internalType":"uint256"},{"name":"cancelledBy","type":"address","indexed":false,"internalType":"address"}],"anonymous":false},{"type":"event","name":"DealCreated","inputs":[{"name":"dealId","type":"uint256","indexed":true,"internalType":"uint256"},{"name":"depositor","type":"address","indexed":true,"internalType":"address"},{"name":"counterparty","type":"address","indexed":true,"internalType":"address"},{"name":"amount","type":"uint256","indexed":false,"internalType":"uint256"},{"name":"dealHash","type":"bytes32","indexed":false,"internalType":"bytes32"}],"anonymous":false},{"type":"event","name":"DealDisputed","inputs":[{"name":"dealId","type":"uint256","indexed":true,"internalType":"uint256"},{"name":"disputedBy","type":"address","indexed":false,"internalType":"address"}],"anonymous":false},{"type":"event","name":"DealFunded","inputs":[{"name":"dealId","type":"uint256","indexed":true,"internalType":"uint256"},{"name":"amount","type":"uint256","indexed":false,"internalType":"uint256"}],"anonymous":false},{"type":"event","name":"DealSettled","inputs":[{"name":"dealId","type":"uint256","indexed":true,"internalType":"uint256"},{"name":"totalPayout","type":"uint256","indexed":false,"internalType":"uint256"}],"anonymous":false},{"type":"event","name":"DealTimedOut","inputs":[{"name":"dealId","type":"uint256","indexed":true,"internalType":"uint256"},{"name":"refundAmount","type":"uint256","indexed":false,"internalType":"uint256"}],"anonymous":false},{"type":"event","name":"EIP712DomainChanged","inputs":[],"anonymous":false},{"type":"event","name":"Paused","inputs":[{"name":"account","type":"address","indexed":false,"internalType":"address"}],"anonymous":false},{"type":"event","name":"Unpaused","inputs":[{"name":"account","type":"address","indexed":false,"internalType":"address"}],"anonymous":false},{"type":"error","name":"CannotEscrowWithSelf","inputs":[]},{"type":"error","name":"DealNotFound","inputs":[{"name":"dealId","type":"uint256","internalType":"uint256"}]},{"type":"error","name":"EnforcedPause","inputs":[]},{"type":"error","name":"ExpectedPause","inputs":[]},{"type":"error","name":"FeeOnTransferNotSupported","inputs":[]},{"type":"error","name":"InvalidAddress","inputs":[]},{"type":"error","name":"InvalidAmount","inputs":[]},{"type":"error","name":"InvalidCounterparty","inputs":[]},{"type":"error","name":"InvalidDealStatus","inputs":[{"name":"dealId","type":"uint256","internalType":"uint256"},{"name":"current","type":"uint8","internalType":"enum DealStatus"}]},{"type":"error","name":"InvalidShortString","inputs":[]},{"type":"error","name":"InvalidSignature","inputs":[{"name":"signer","type":"address","internalType":"address"}]},{"type":"error","name":"InvalidTimeout","inputs":[{"name":"provided","type":"uint32","internalType":"uint32"},{"name":"min","type":"uint32","internalType":"uint32"},{"name":"max","type":"uint32","internalType":"uint32"}]},{"type":"error","name":"InvalidYieldSplit","inputs":[{"name":"provided","type":"uint8","internalType":"uint8"}]},{"type":"error","name":"OnlyOwner","inputs":[{"name":"caller","type":"address","internalType":"address"}]},{"type":"error","name":"ReentrancyGuardReentrantCall","inputs":[]},{"type":"error","name":"SafeERC20FailedOperation","inputs":[{"name":"token","type":"address","internalType":"address"}]},{"type":"error","name":"StringTooLong","inputs":[{"name":"str","type":"string","internalType":"string"}]},{"type":"error","name":"TimeoutNotElapsed","inputs":[{"name":"currentTime","type":"uint256","internalType":"uint256"},{"name":"expiresAt","type":"uint256","internalType":"uint256"}]},{"type":"error","name":"Unauthorized","inputs":[{"name":"caller","type":"address","internalType":"address"},{"name":"dealId","type":"uint256","internalType":"uint256"}]}],"bytecode":{"object":"0x6101e0604052348015610010575f80fd5b5060405161322c38038061322c83398101604081905261002f9161024f565b604080518082018252600e81526d526573746c657373457363726f7760901b60208083019190915282518084019093526001808452603160f81b918401919091525f559061007e8260026101bc565b6101205261008d8160036101bc565b61014052815160208084019190912060e052815190820120610100524660a05261011960e05161010051604080517f8b73c3c69bb8fe3d512ecc4cf759cc79239f7b179b0ffacaa9a75d522b39400f60208201529081019290925260608201524660808201523060a08201525f9060c00160405160208183030381529060405280519060200120905090565b60805250503060c0526001600160a01b0383166101495760405163e6c4247b60e01b815260040160405180910390fd5b6001600160a01b0382166101705760405163e6c4247b60e01b815260040160405180910390fd5b6001600160a01b0381166101975760405163e6c4247b60e01b815260040160405180910390fd5b6001600160a01b039283166101605290821661018052166101a052336101c052610439565b5f6020835110156101d7576101d0836101ee565b90506101e8565b816101e28482610327565b5060ff90505b92915050565b5f80829050601f81511115610221578260405163305a27a960e01b815260040161021891906103e1565b60405180910390fd5b805161022c82610416565b179392505050565b80516001600160a01b038116811461024a575f80fd5b919050565b5f805f60608486031215610261575f80fd5b61026a84610234565b925061027860208501610234565b915061028660408501610234565b90509250925092565b634e487b7160e01b5f52604160045260245ffd5b600181811c908216806102b757607f821691505b6020821081036102d557634e487b7160e01b5f52602260045260245ffd5b50919050565b601f82111561032257805f5260205f20601f840160051c810160208510156103005750805b601f840160051c820191505b8181101561031f575f815560010161030c565b50505b505050565b81516001600160401b038111156103405761034061028f565b6103548161034e84546102a3565b846102db565b6020601f821160018114610386575f831561036f5750848201515b5f19600385901b1c1916600184901b17845561031f565b5f84815260208120601f198516915b828110156103b55787850151825560209485019460019092019101610395565b50848210156103d257868401515f19600387901b60f8161c191681555b50505050600190811b01905550565b602081525f82518060208401528060208501604085015e5f604082850101526040601f19601f83011684010191505092915050565b805160208083015191908110156102d5575f1960209190910360031b1b16919050565b60805160a05160c05160e05161010051610120516101405161016051610180516101a0516101c051612cee61053e5f395f81816103b00152818161083d015281816109c9015261170201525f81816102d801528181611bc101528181611c3c01528181611fe2015261205d01525f81816102990152818161049601528181610d0a01528181610d4b01528181610f8701528181611b0c0152611f2d01525f818161044901528181610b7001528181610be701528181610c3b01528181610ce70152818161100401528181611b9f0152611fc001525f611da701525f611d7501525f6121de01525f6121b601525f61211101525f61213b01525f6121650152612cee5ff3fe608060405234801561000f575f80fd5b5060043610610187575f3560e01c806385d60ec6116100d9578063cea9d26f11610093578063ed31aaa71161006e578063ed31aaa71461041e578063f9caf18b14610431578063fc0c546a14610444578063fc8edb521461046b575f80fd5b8063cea9d26f146103f8578063de38eb3a1461040b578063eadb3c9c14610415575f80fd5b806385d60ec61461037257806386e773f1146103855780638af86cc6146103985780638da5cb5b146103ab578063986cc733146103d2578063cba1ad06146103e5575f80fd5b806343d0c32d116101445780635c975abb1161011f5780635c975abb1461031957806382fd5bac1461032f5780638456cb591461034f57806384b0196e14610357575f80fd5b806343d0c32d1461029457806351160630146102d3578063543ad1df146102fa575f80fd5b806303988f841461018b57806324d09a8f1461022f578063261db1001461025057806331ea1a39146102655780633f4ba83a146102785780634020261014610280575b5f80fd5b6102106101993660046125f8565b60056020525f908152604090208054600182015460028301546003909301546001600160a01b038084169464ffffffffff600160a01b80870482169660ff600160c81b808304821698600160d01b84049092169763ffffffff600160d81b909404939093169682169593820485169491041691908a565b6040516102269a99989796959493929190612643565b60405180910390f35b61024261023d3660046125f8565b61047e565b604051908152602001610226565b61026361025e36600461271a565b61050d565b005b6102636102733660046125f8565b61070d565b610263610832565b6102425f80516020612c9983398151915281565b6102bb7f000000000000000000000000000000000000000000000000000000000000000081565b6040516001600160a01b039091168152602001610226565b6102bb7f000000000000000000000000000000000000000000000000000000000000000081565b6103046201518081565b60405163ffffffff9091168152602001610226565b60015460ff166040519015158152602001610226565b61034261033d3660046125f8565b610887565b60405161022691906127a5565b6102636109be565b61035f610a11565b60405161022697969594939291906128a9565b6102636103803660046125f8565b610a53565b6102636103933660046125f8565b610e02565b6102636103a636600461293f565b61105f565b6102bb7f000000000000000000000000000000000000000000000000000000000000000081565b6102636103e03660046129e7565b61125c565b6102426103f3366004612a15565b611358565b610263610406366004612a2e565b6116f7565b61030462278d0081565b61024260045481565b61026361042c366004612a6c565b61175b565b61024261043f3660046125f8565b611854565b6102bb7f000000000000000000000000000000000000000000000000000000000000000081565b6102636104793660046125f8565b6118b0565b6040516324d09a8f60e01b8152600481018290525f907f00000000000000000000000000000000000000000000000000000000000000006001600160a01b0316906324d09a8f90602401602060405180830381865afa1580156104e3573d5f803e3d5ffd5b505050506040513d601f19601f820116820180604052508101906105079190612ab4565b92915050565b6105156119f0565b61051d611a18565b5f86815260056020526040902080546001600160a01b031661055a5760405163cb58af1f60e01b8152600481018890526024015b60405180910390fd5b60018154600160c81b900460ff1660058111156105795761057961260f565b146105a75780546040516319a2639560e11b8152610551918991600160c81b90910460ff1690600401612acb565b6003810154604080515f80516020612c99833981519152602082015290810189905260608101919091525f906080016040516020818303038152906040528051906020012090505f6105f882611a3c565b8354604080516020601f8b01819004810282018101909252898152929350610647926001600160a01b039092169184918b908b90819084018382808284375f92019190915250611a6892505050565b610672578254604051633615713d60e21b81526001600160a01b039091166004820152602401610551565b6001830154604080516020601f88018190048102820181019092528681526106c0926001600160a01b03169184919089908990819084018382808284375f92019190915250611a6892505050565b6106ee576001830154604051633615713d60e21b81526001600160a01b039091166004820152602401610551565b6106f9838a8a611ad9565b50505061070560015f55565b505050505050565b610715611a18565b5f81815260056020526040902080546001600160a01b031661074d5760405163cb58af1f60e01b815260048101839052602401610551565b5f8154600160c81b900460ff16600581111561076b5761076b61260f565b146107995780546040516319a2639560e11b8152610551918491600160c81b90910460ff1690600401612acb565b80546001600160a01b031633148015906107c0575060018101546001600160a01b03163314155b156107e75760405163da47202360e01b815233600482015260248101839052604401610551565b805460ff60c81b1916600560c81b17815560405133815282907fd90dde64ecb6d2913dcde645d1dcb52ab5ec048975d5539088dc4ae68e8ee4fd906020015b60405180910390a25050565b336001600160a01b037f0000000000000000000000000000000000000000000000000000000000000000161461087d57604051630543601560e11b8152336004820152602401610551565b610885611ce1565b565b60408051610140810182525f80825260208201819052918101829052606081018290526080810182905260a0810182905260c0810182905260e0810182905261010081018290526101208101919091525f8281526005602081815260409283902083516101408101855281546001600160a01b0381168252600160a01b810464ffffffffff169382019390935293909290840191600160c81b900460ff16908111156109355761093561260f565b60058111156109465761094661260f565b8152815460ff600160d01b820416602083015263ffffffff600160d81b90910416604082015260018201546001600160a01b038116606083015264ffffffffff600160a01b820481166080840152600160c81b9091041660a0820152600282015460c082015260039091015460e09091015292915050565b336001600160a01b037f00000000000000000000000000000000000000000000000000000000000000001614610a0957604051630543601560e11b8152336004820152602401610551565b610885611d33565b5f6060805f805f6060610a22611d6e565b610a2a611da0565b604080515f80825260208201909252600f60f81b9b939a50919850469750309650945092509050565b610a5b6119f0565b610a63611a18565b5f81815260056020526040902080546001600160a01b0316610a9b5760405163cb58af1f60e01b815260048101839052602401610551565b5f8154600160c81b900460ff166005811115610ab957610ab961260f565b14610ae75780546040516319a2639560e11b8152610551918491600160c81b90910460ff1690600401612acb565b80546001600160a01b03163314610b1a5760405163da47202360e01b815233600482015260248101839052604401610551565b8054600160c81b60ff60c81b1990911617815560018101805464ffffffffff4216600160a01b0264ffffffffff60a01b199091161790556040516370a0823160e01b81523060048201525f906001600160a01b037f000000000000000000000000000000000000000000000000000000000000000016906370a0823190602401602060405180830381865afa158015610bb5573d5f803e3d5ffd5b505050506040513d601f19601f82011682018060405250810190610bd99190612ab4565b9050610c1f333084600201547f00000000000000000000000000000000000000000000000000000000000000006001600160a01b0316611dcd909392919063ffffffff16565b60028201546040516370a0823160e01b815230600482015282907f00000000000000000000000000000000000000000000000000000000000000006001600160a01b0316906370a0823190602401602060405180830381865afa158015610c88573d5f803e3d5ffd5b505050506040513d601f19601f82011682018060405250810190610cac9190612ab4565b610cb69190612af3565b14610cd457604051639bfa3c1760e01b815260040160405180910390fd5b6002820154610d2f906001600160a01b037f000000000000000000000000000000000000000000000000000000000000000016907f000000000000000000000000000000000000000000000000000000000000000090611e3a565b6002820154604051631c57762b60e31b81526001600160a01b037f0000000000000000000000000000000000000000000000000000000000000000169163e2bbb15891610d89918791600401918252602082015260400190565b5f604051808303815f87803b158015610da0575f80fd5b505af1158015610db2573d5f803e3d5ffd5b50505050827fc9dd6762e6024e1ec4c28eac8d4c8cc95bce152afd26092bcbf3a184e18b7c138360020154604051610dec91815260200190565b60405180910390a25050610dff60015f55565b50565b610e0a6119f0565b5f81815260056020526040902080546001600160a01b0316610e425760405163cb58af1f60e01b815260048101839052602401610551565b60038154600160c81b900460ff166005811115610e6157610e6161260f565b14610e8f5780546040516319a2639560e11b8152610551918491600160c81b90910460ff1690600401612acb565b80546001600160a01b03163314610ec25760405163da47202360e01b815233600482015260248101839052604401610551565b80546001820154610eee91600160d81b900463ffffffff1690600160c81b900464ffffffffff16612b06565b64ffffffffff16421015610f5457805460018201544291610f2b91600160d81b90910463ffffffff1690600160c81b900464ffffffffff16612b06565b60405163ce340b6b60e01b8152600481019290925264ffffffffff166024820152604401610551565b8054600160ca1b60ff60c81b19909116178155604051632e1a7d4d60e01b8152600481018390525f906001600160a01b037f00000000000000000000000000000000000000000000000000000000000000001690632e1a7d4d906024016020604051808303815f875af1158015610fcd573d5f803e3d5ffd5b505050506040513d601f19601f82011682018060405250810190610ff19190612ab4565b825490915061102d906001600160a01b037f00000000000000000000000000000000000000000000000000000000000000008116911683611ec9565b827fc6bacab32ae179ec989208384fe707bf74824c0a20b2ade51e9b96eada58e3cd82604051610dec91815260200190565b6110676119f0565b61106f611a18565b5f87815260056020526040902080546001600160a01b03166110a75760405163cb58af1f60e01b815260048101899052602401610551565b60018154600160c81b900460ff1660058111156110c6576110c661260f565b146110f45780546040516319a2639560e11b8152610551918a91600160c81b90910460ff1690600401612acb565b6003810154604080515f80516020612c9983398151915260208201529081018a905260608101919091525f906080016040516020818303038152906040528051906020012090505f61114582611a3c565b8354604080516020601f8b01819004810282018101909252898152929350611194926001600160a01b039092169184918b908b90819084018382808284375f92019190915250611a6892505050565b6111bf578254604051633615713d60e21b81526001600160a01b039091166004820152602401610551565b6001830154604080516020601f880181900481028201810190925286815261120d926001600160a01b03169184919089908990819084018382808284375f92019190915250611a6892505050565b61123b576001830154604051633615713d60e21b81526001600160a01b039091166004820152602401610551565b611247838b8b8b611efa565b50505061125360015f55565b50505050505050565b6112646119f0565b61126c611a18565b5f82815260056020526040902080546001600160a01b03166112a45760405163cb58af1f60e01b815260048101849052602401610551565b60018154600160c81b900460ff1660058111156112c3576112c361260f565b146112f15780546040516319a2639560e11b8152610551918591600160c81b90910460ff1690600401612acb565b80546001600160a01b03163314801590611318575060018101546001600160a01b03163314155b1561133f5760405163da47202360e01b815233600482015260248101849052604401610551565b61134a818484611ad9565b5061135460015f55565b5050565b5f611361611a18565b5f61136f6020840184612b23565b6001600160a01b03160361139657604051634f1332db60e01b815260040160405180910390fd5b336113a46020840184612b23565b6001600160a01b0316036113cb576040516303d1255760e51b815260040160405180910390fd5b81602001355f036113ef5760405163162908e360e11b815260040160405180910390fd5b60646114016060840160408501612b3e565b60ff1611156114395761141a6060830160408401612b3e565b604051631b97b62b60e11b815260ff9091166004820152602401610551565b6201518061144d6080840160608501612b5e565b63ffffffff161080611476575062278d0061146e6080840160608501612b5e565b63ffffffff16115b156114bf5761148b6080830160608401612b5e565b60405163309e873b60e21b815263ffffffff909116600482015262015180602482015262278d006044820152606401610551565b600480546001019055604080516101408101825233815264ffffffffff421660208201529081015f81526020016114fc6060850160408601612b3e565b60ff1681526020016115146080850160608601612b5e565b63ffffffff16815260209081019061152e90850185612b23565b6001600160a01b0390811682525f602080840182905260408085018390528782013560608601526080808901359501949094526004548252600580825291849020855181549287015164ffffffffff16600160a01b026001600160c81b031990931694169390931717808355928401519192839160ff60c81b1990911690600160c81b9084908111156115c3576115c361260f565b021790555060608201518154608084015163ffffffff16600160d81b0263ffffffff60d81b1960ff909316600160d01b029290921664ffffffffff60d01b199091161717815560a082015160018201805460c085015160e086015164ffffffffff908116600160c81b0264ffffffffff60c81b1991909216600160a01b026001600160c81b03199093166001600160a01b0390951694909417919091179290921691909117905561010082015160028201556101209091015160039091015561168f6020830183612b23565b6001600160a01b0316336001600160a01b03166004547f976d89051a12210eb6d076155366c3b7e0f0f1ef6c2c269559482cf0f275a5db856020013586608001356040516116e7929190918252602082015260400190565b60405180910390a4505060045490565b336001600160a01b037f0000000000000000000000000000000000000000000000000000000000000000161461174257604051630543601560e11b8152336004820152602401610551565b6117566001600160a01b0384168383611ec9565b505050565b6117636119f0565b61176b611a18565b5f83815260056020526040902080546001600160a01b03166117a35760405163cb58af1f60e01b815260048101859052602401610551565b60018154600160c81b900460ff1660058111156117c2576117c261260f565b146117f05780546040516319a2639560e11b8152610551918691600160c81b90910460ff1690600401612acb565b80546001600160a01b03163314801590611817575060018101546001600160a01b03163314155b1561183e5760405163da47202360e01b815233600482015260248101859052604401610551565b61184a81858585611efa565b5061175660015f55565b5f8181526005602090815260408083206003015481515f80516020612c99833981519152818501528083018690526060808201929092528251808203909201825260800190915280519101206118a981611a3c565b9392505050565b6118b8611a18565b5f81815260056020526040902080546001600160a01b03166118f05760405163cb58af1f60e01b815260048101839052602401610551565b60018154600160c81b900460ff16600581111561190f5761190f61260f565b1461193d5780546040516319a2639560e11b8152610551918491600160c81b90910460ff1690600401612acb565b80546001600160a01b03163314801590611964575060018101546001600160a01b03163314155b1561198b5760405163da47202360e01b815233600482015260248101839052604401610551565b805460ff60c81b1916600360c81b17815560018101805464ffffffffff60c81b1916600160c81b4264ffffffffff160217905560405133815282907fa68d56a81a9be734bdfa17f0fb210239cdc6cac8f3bcb9d5c09841fcab4b1d8a90602001610826565b60025f5403611a1257604051633ee5aeb560e01b815260040160405180910390fd5b60025f55565b60015460ff16156108855760405163d93c066560e01b815260040160405180910390fd5b5f610507611a48612105565b8360405161190160f01b8152600281019290925260228201526042902090565b5f836001600160a01b03163b5f03611ac6575f80611a86858561222e565b5090925090505f816003811115611a9f57611a9f61260f565b148015611abd5750856001600160a01b0316826001600160a01b0316145b925050506118a9565b611ad1848484612277565b949350505050565b8254600160c91b60ff60c81b19909116178355604051632e1a7d4d60e01b8152600481018390525f906001600160a01b037f00000000000000000000000000000000000000000000000000000000000000001690632e1a7d4d906024016020604051808303815f875af1158015611b52573d5f803e3d5ffd5b505050506040513d601f19601f82011682018060405250810190611b769190612ab4565b90505f84600201548210611b8e578460020154611b90565b815b9050611be66001600160a01b037f0000000000000000000000000000000000000000000000000000000000000000167f000000000000000000000000000000000000000000000000000000000000000084611e3a565b6040805160c08101825285815286546001600160a01b03808216602084015260018901548116838501526060830185905260808301869052600160d01b90910460ff1660a083015291516310a9c55760e21b81527f0000000000000000000000000000000000000000000000000000000000000000909216916342a7155c91611c73918790600401612bce565b5f604051808303815f87803b158015611c8a575f80fd5b505af1158015611c9c573d5f803e3d5ffd5b50505050837f928d6152ac2a52f4a65094c6b49004af42ed6f4203d75ee883b97f53fbd6b8f283604051611cd291815260200190565b60405180910390a25050505050565b611ce961234e565b6001805460ff191690557f5db9ee0a495bf2e6ff9c91a7834c1ba4fdd244a5e8aa4e537bd38aeae4b073aa335b6040516001600160a01b03909116815260200160405180910390a1565b611d3b611a18565b6001805460ff1916811790557f62e78cea01bee320cd4e420270b5ea74000d11b0c9f74754ebdbfc544b05a25833611d16565b6060611d9b7f00000000000000000000000000000000000000000000000000000000000000006002612371565b905090565b6060611d9b7f00000000000000000000000000000000000000000000000000000000000000006003612371565b6040516001600160a01b038481166024830152838116604483015260648201839052611e349186918216906323b872dd906084015b604051602081830303815290604052915060e01b6020820180516001600160e01b03838183161783525050505061241b565b50505050565b604080516001600160a01b038416602482015260448082018490528251808303909101815260649091019091526020810180516001600160e01b031663095ea7b360e01b179052611e8b8482612487565b611e34576040516001600160a01b0384811660248301525f6044830152611ebf91869182169063095ea7b390606401611e02565b611e34848261241b565b6040516001600160a01b0383811660248301526044820183905261175691859182169063a9059cbb90606401611e02565b8354600160c91b60ff60c81b19909116178455604051632e1a7d4d60e01b8152600481018490525f906001600160a01b037f00000000000000000000000000000000000000000000000000000000000000001690632e1a7d4d906024016020604051808303815f875af1158015611f73573d5f803e3d5ffd5b505050506040513d601f19601f82011682018060405250810190611f979190612ab4565b90505f85600201548210611faf578560020154611fb1565b815b90506120076001600160a01b037f0000000000000000000000000000000000000000000000000000000000000000167f000000000000000000000000000000000000000000000000000000000000000084611e3a565b6040805160c08101825286815287546001600160a01b03808216602084015260018a01548116838501526060830185905260808301869052600160d01b90910460ff1660a0830152915163428568dd60e11b81527f00000000000000000000000000000000000000000000000000000000000000009092169163850ad1ba916120969188908890600401612bf4565b5f604051808303815f87803b1580156120ad575f80fd5b505af11580156120bf573d5f803e3d5ffd5b50505050847f928d6152ac2a52f4a65094c6b49004af42ed6f4203d75ee883b97f53fbd6b8f2836040516120f591815260200190565b60405180910390a2505050505050565b5f306001600160a01b037f00000000000000000000000000000000000000000000000000000000000000001614801561215d57507f000000000000000000000000000000000000000000000000000000000000000046145b1561218757507f000000000000000000000000000000000000000000000000000000000000000090565b611d9b604080517f8b73c3c69bb8fe3d512ecc4cf759cc79239f7b179b0ffacaa9a75d522b39400f60208201527f0000000000000000000000000000000000000000000000000000000000000000918101919091527f000000000000000000000000000000000000000000000000000000000000000060608201524660808201523060a08201525f9060c00160405160208183030381529060405280519060200120905090565b5f805f8351604103612265576020840151604085015160608601515f1a612257888285856124cc565b955095509550505050612270565b505081515f91506002905b9250925092565b5f805f856001600160a01b03168585604051602401612297929190612c32565b60408051601f198184030181529181526020820180516001600160e01b0316630b135d3f60e11b179052516122cc9190612c4a565b5f60405180830381855afa9150503d805f8114612304576040519150601f19603f3d011682016040523d82523d5f602084013e612309565b606091505b509150915081801561231d57506020815110155b801561234457508051630b135d3f60e11b906123429083016020908101908401612ab4565b145b9695505050505050565b60015460ff1661088557604051638dfc202b60e01b815260040160405180910390fd5b606060ff831461238b5761238483612594565b9050610507565b81805461239790612c60565b80601f01602080910402602001604051908101604052809291908181526020018280546123c390612c60565b801561240e5780601f106123e55761010080835404028352916020019161240e565b820191905f5260205f20905b8154815290600101906020018083116123f157829003601f168201915b5050505050905092915050565b5f8060205f8451602086015f885af18061243a576040513d5f823e3d81fd5b50505f513d9150811561245157806001141561245e565b6001600160a01b0384163b155b15611e3457604051635274afe760e01b81526001600160a01b0385166004820152602401610551565b5f805f8060205f8651602088015f8a5af192503d91505f519050828015612344575081156124b85780600114612344565b50505050506001600160a01b03163b151590565b5f80807f7fffffffffffffffffffffffffffffff5d576e7357a4501ddfe92f46681b20a084111561250557505f9150600390508261258a565b604080515f808252602082018084528a905260ff891692820192909252606081018790526080810186905260019060a0016020604051602081039080840390855afa158015612556573d5f803e3d5ffd5b5050604051601f1901519150506001600160a01b03811661258157505f92506001915082905061258a565b92505f91508190505b9450945094915050565b60605f6125a0836125d1565b6040805160208082528183019092529192505f91906020820181803683375050509182525060208101929092525090565b5f60ff8216601f81111561050757604051632cd44ac360e21b815260040160405180910390fd5b5f60208284031215612608575f80fd5b5035919050565b634e487b7160e01b5f52602160045260245ffd5b6006811061263f57634e487b7160e01b5f52602160045260245ffd5b9052565b6001600160a01b038b16815264ffffffffff8a166020820152610140810161266e604083018b612623565b60ff98909816606082015263ffffffff9690961660808701526001600160a01b039490941660a086015264ffffffffff92831660c0860152911660e0840152610100830152610120909101529392505050565b6001600160a01b0381168114610dff575f80fd5b5f8083601f8401126126e5575f80fd5b50813567ffffffffffffffff8111156126fc575f80fd5b602083019150836020828501011115612713575f80fd5b9250929050565b5f805f805f806080878903121561272f575f80fd5b863595506020870135612741816126c1565b9450604087013567ffffffffffffffff81111561275c575f80fd5b61276889828a016126d5565b909550935050606087013567ffffffffffffffff811115612787575f80fd5b61279389828a016126d5565b979a9699509497509295939492505050565b81516001600160a01b03168152610140810160208301516127cf602084018264ffffffffff169052565b5060408301516127e26040840182612623565b5060608301516127f7606084018260ff169052565b50608083015161280f608084018263ffffffff169052565b5060a083015161282a60a08401826001600160a01b03169052565b5060c083015161284360c084018264ffffffffff169052565b5060e083015161285c60e084018264ffffffffff169052565b5061010083015161010083015261012083015161012083015292915050565b5f81518084528060208401602086015e5f602082860101526020601f19601f83011685010191505092915050565b60ff60f81b8816815260e060208201525f6128c760e083018961287b565b82810360408401526128d9818961287b565b606084018890526001600160a01b038716608085015260a0840186905283810360c0850152845180825260208087019350909101905f5b8181101561292e578351835260209384019390920191600101612910565b50909b9a5050505050505050505050565b5f805f805f805f6080888a031215612955575f80fd5b87359650602088013567ffffffffffffffff811115612972575f80fd5b61297e8a828b016126d5565b909750955050604088013567ffffffffffffffff81111561299d575f80fd5b6129a98a828b016126d5565b909550935050606088013567ffffffffffffffff8111156129c8575f80fd5b6129d48a828b016126d5565b989b979a50959850939692959293505050565b5f80604083850312156129f8575f80fd5b823591506020830135612a0a816126c1565b809150509250929050565b5f60a0828403128015612a26575f80fd5b509092915050565b5f805f60608486031215612a40575f80fd5b8335612a4b816126c1565b92506020840135612a5b816126c1565b929592945050506040919091013590565b5f805f60408486031215612a7e575f80fd5b83359250602084013567ffffffffffffffff811115612a9b575f80fd5b612aa7868287016126d5565b9497909650939450505050565b5f60208284031215612ac4575f80fd5b5051919050565b828152604081016118a96020830184612623565b634e487b7160e01b5f52601160045260245ffd5b8181038181111561050757610507612adf565b64ffffffffff818116838216019081111561050757610507612adf565b5f60208284031215612b33575f80fd5b81356118a9816126c1565b5f60208284031215612b4e575f80fd5b813560ff811681146118a9575f80fd5b5f60208284031215612b6e575f80fd5b813563ffffffff811681146118a9575f80fd5b8051825260018060a01b03602082015116602083015260018060a01b036040820151166040830152606081015160608301526080810151608083015260ff60a08201511660a08301525050565b60e08101612bdc8285612b81565b6001600160a01b039290921660c09190910152919050565b612bfe8185612b81565b60e060c08201528160e082015281836101008301375f81830161010090810191909152601f909201601f1916010192915050565b828152604060208201525f611ad1604083018461287b565b5f82518060208501845e5f920191825250919050565b600181811c90821680612c7457607f821691505b602082108103612c9257634e487b7160e01b5f52602260045260245ffd5b5091905056fe8d8f31cfb9ffd5889c6ed96d202c87db8bcc23d294215a69365134c478140a63a2646970667358221220af545f69f9f3a8f48eded28e6faec5dfd431cfd0c686a8b0c250f7632ad1ba9864736f6c634300081a0033","linkReferences":{}},"methodIdentifiers":{"MAX_TIMEOUT()":"de38eb3a","MIN_TIMEOUT()":"543ad1df","SETTLE_TYPEHASH()":"40202610","cancelDeal(uint256)":"31ea1a39","claimTimeout(uint256)":"86e773f1","createDeal((address,uint256,uint8,uint32,bytes32))":"cba1ad06","dealCount()":"eadb3c9c","deals(uint256)":"03988f84","disputeDeal(uint256)":"fc8edb52","eip712Domain()":"84b0196e","fundDeal(uint256)":"85d60ec6","getAccruedYield(uint256)":"24d09a8f","getDeal(uint256)":"82fd5bac","getSettleDigest(uint256)":"f9caf18b","owner()":"8da5cb5b","pause()":"8456cb59","paused()":"5c975abb","rescueTokens(address,address,uint256)":"cea9d26f","settleDeal(uint256,bytes)":"ed31aaa7","settleDealSigned(uint256,bytes,bytes,bytes)":"8af86cc6","settleDealWithHook(uint256,address)":"986cc733","settleDealWithHookSigned(uint256,address,bytes,bytes)":"261db100","settlement()":"51160630","token()":"fc0c546a","unpause()":"3f4ba83a","yieldAdapter()":"43d0c32d"},"id":1}