{"abi":[{"type":"constructor","inputs":[{"name":"_token","type":"address","internalType":"address"},{"name":"_yieldAdapter","type":"address","internalType":"address"},{"name":"_settlement","type":"address","internalType":"address"}],"stateMutability":"nonpayable"},{"type":"function","name":"MAX_TIMEOUT","inputs":[],"outputs":[{"name":"","type":"uint32","internalType":"uint32"}],"stateMutability":"view"},{"type":"function","name":"MIN_TIMEOUT","inputs":[],"outputs":[{"name":"","type":"uint32","internalType":"uint32"}],"stateMutability":"view"},{"type":"function","name":"SETTLE_TYPEHASH","inputs":[],"outputs":[{"name":"","type":"bytes32","internalType":"bytes32"}],"stateMutability":"view"},{"type":"function","name":"cancelDeal","inputs":[{"name":"dealId","type":"uint256","internalType":"uint256"}],"outputs":[],"stateMutability":"nonpayable"},{"type":"function","name":"claimTimeout","inputs":[{"name":"dealId","type":"uint256","internalType":"uint256"}],"outputs":[],"stateMutability":"nonpayable"},{"type":"function","name":"createDeal","inputs":[{"name":"params","type":"tuple","internalType":"struct CreateDealParams","components":[{"name":"counterparty","type":"address","internalType":"address"},{"name":"amount","type":"uint256","internalType":"uint256"},{"name":"yieldSplitCounterparty","type":"uint8","internalType":"uint8"},{"name":"timeout","type":"uint32","internalType":"uint32"},{"name":"dealHash","type":"bytes32","internalType":"bytes32"}]}],"outputs":[{"name":"","type":"uint256","internalType":"uint256"}],"stateMutability":"nonpayable"},{"type":"function","name":"dealCount","inputs":[],"outputs":[{"name":"","type":"uint256","internalType":"uint256"}],"stateMutability":"view"},{"type":"function","name":"deals","inputs":[{"name":"","type":"uint256","internalType":"uint256"}],"outputs":[{"name":"depositor","type":"address","internalType":"address"},{"name":"createdAt","type":"uint40","internalType":"uint40"},{"name":"status","type":"uint8","internalType":"enum DealStatus"},{"name":"yieldSplitCounterparty","type":"uint8","internalType":"uint8"},{"name":"timeout","type":"uint32","internalType":"uint32"},{"name":"counterparty","type":"address","internalType":"address"},{"name":"fundedAt","type":"uint40","internalType":"uint40"},{"name":"disputedAt","type":"uint40","internalType":"uint40"},{"name":"amount","type":"uint256","internalType":"uint256"},{"name":"dealHash","type":"bytes32","internalType":"bytes32"}],"stateMutability":"view"},{"type":"function","name":"disputeDeal","inputs":[{"name":"dealId","type":"uint256","internalType":"uint256"}],"outputs":[],"stateMutability":"nonpayable"},{"type":"function","name":"eip712Domain","inputs":[],"outputs":[{"name":"fields","type":"bytes1","internalType":"bytes1"},{"name":"name","type":"string","internalType":"string"},{"name":"version","type":"string","internalType":"string"},{"name":"chainId","type":"uint256","internalType":"uint256"},{"name":"verifyingContract","type":"address","internalType":"address"},{"name":"salt","type":"bytes32","internalType":"bytes32"},{"name":"extensions","type":"uint256[]","internalType":"uint256[]"}],"stateMutability":"view"},{"type":"function","name":"fundDeal","inputs":[{"name":"dealId","type":"uint256","internalType":"uint256"}],"outputs":[],"stateMutability":"nonpayable"},{"type":"function","name":"getAccruedYield","inputs":[{"name":"dealId","type":"uint256","internalType":"uint256"}],"outputs":[{"name":"","type":"uint256","internalType":"uint256"}],"stateMutability":"view"},{"type":"function","name":"getDeal","inputs":[{"name":"dealId","type":"uint256","internalType":"uint256"}],"outputs":[{"name":"","type":"tuple","internalType":"struct Deal","components":[{"name":"depositor","type":"address","internalType":"address"},{"name":"createdAt","type":"uint40","internalType":"uint40"},{"name":"status","type":"uint8","internalType":"enum DealStatus"},{"name":"yieldSplitCounterparty","type":"uint8","internalType":"uint8"},{"name":"timeout","type":"uint32","internalType":"uint32"},{"name":"counterparty","type":"address","internalType":"address"},{"name":"fundedAt","type":"uint40","internalType":"uint40"},{"name":"disputedAt","type":"uint40","internalType":"uint40"},{"name":"amount","type":"uint256","internalType":"uint256"},{"name":"dealHash","type":"bytes32","internalType":"bytes32"}]}],"stateMutability":"view"},{"type":"function","name":"owner","inputs":[],"outputs":[{"name":"","type":"address","internalType":"address"}],"stateMutability":"view"},{"type":"function","name":"pause","inputs":[],"outputs":[],"stateMutability":"nonpayable"},{"type":"function","name":"paused","inputs":[],"outputs":[{"name":"","type":"bool","internalType":"bool"}],"stateMutability":"view"},{"type":"function","name":"settleDeal","inputs":[{"name":"dealId","type":"uint256","internalType":"uint256"},{"name":"lifiData","type":"bytes","internalType":"bytes"}],"outputs":[],"stateMutability":"nonpayable"},{"type":"function","name":"settleDealSigned","inputs":[{"name":"dealId","type":"uint256","internalType":"uint256"},{"name":"lifiData","type":"bytes","internalType":"bytes"},{"name":"depositorSig","type":"bytes","internalType":"bytes"},{"name":"counterpartySig","type":"bytes","internalType":"bytes"}],"outputs":[],"stateMutability":"nonpayable"},{"type":"function","name":"settleDealWithHook","inputs":[{"name":"dealId","type":"uint256","internalType":"uint256"},{"name":"preferredToken","type":"address","internalType":"address"}],"outputs":[],"stateMutability":"nonpayable"},{"type":"function","name":"settleDealWithHookSigned","inputs":[{"name":"dealId","type":"uint256","internalType":"uint256"},{"name":"preferredToken","type":"address","internalType":"address"},{"name":"depositorSig","type":"bytes","internalType":"bytes"},{"name":"counterpartySig","type":"bytes","internalType":"bytes"}],"outputs":[],"stateMutability":"nonpayable"},{"type":"function","name":"settlement","inputs":[],"outputs":[{"name":"","type":"address","internalType":"contract ISettlement"}],"stateMutability":"view"},{"type":"function","name":"token","inputs":[],"outputs":[{"name":"","type":"address","internalType":"contract IERC20"}],"stateMutability":"view"},{"type":"function","name":"unpause","inputs":[],"outputs":[],"stateMutability":"nonpayable"},{"type":"function","name":"yieldAdapter","inputs":[],"outputs":[{"name":"","type":"address","internalType":"contract IYieldAdapter"}],"stateMutability":"view"},{"type":"event","name":"DealCancelled","inputs":[{"name":"dealId","type":"uint256","indexed":true,"internalType":"uint256"},{"name":"cancelledBy","type":"address","indexed":false,"internalType":"address"}],"anonymous":false},{"type":"event","name":"DealCreated","inputs":[{"name":"dealId","type":"uint256","indexed":true,"internalType":"uint256"},{"name":"depositor","type":"address","indexed":true,"internalType":"address"},{"name":"counterparty","type":"address","indexed":true,"internalType":"address"},{"name":"amount","type":"uint256","indexed":false,"internalType":"uint256"},{"name":"dealHash","type":"bytes32","indexed":false,"internalType":"bytes32"}],"anonymous":false},{"type":"event","name":"DealDisputed","inputs":[{"name":"dealId","type":"uint256","indexed":true,"internalType":"uint256"},{"name":"disputedBy","type":"address","indexed":false,"internalType":"address"}],"anonymous":false},{"type":"event","name":"DealFunded","inputs":[{"name":"dealId","type":"uint256","indexed":true,"internalType":"uint256"},{"name":"amount","type":"uint256","indexed":false,"internalType":"uint256"}],"anonymous":false},{"type":"event","name":"DealSettled","inputs":[{"name":"dealId","type":"uint256","indexed":true,"internalType":"uint256"},{"name":"totalPayout","type":"uint256","indexed":false,"internalType":"uint256"}],"anonymous":false},{"type":"event","name":"DealTimedOut","inputs":[{"name":"dealId","type":"uint256","indexed":true,"internalType":"uint256"},{"name":"refundAmount","type":"uint256","indexed":false,"internalType":"uint256"}],"anonymous":false},{"type":"event","name":"EIP712DomainChanged","inputs":[],"anonymous":false},{"type":"event","name":"Paused","inputs":[{"name":"account","type":"address","indexed":false,"internalType":"address"}],"anonymous":false},{"type":"event","name":"Unpaused","inputs":[{"name":"account","type":"address","indexed":false,"internalType":"address"}],"anonymous":false},{"type":"error","name":"CannotEscrowWithSelf","inputs":[]},{"type":"error","name":"DealNotFound","inputs":[]},{"type":"error","name":"ECDSAInvalidSignature","inputs":[]},{"type":"error","name":"ECDSAInvalidSignatureLength","inputs":[{"name":"length","type":"uint256","internalType":"uint256"}]},{"type":"error","name":"ECDSAInvalidSignatureS","inputs":[{"name":"s","type":"bytes32","internalType":"bytes32"}]},{"type":"error","name":"EnforcedPause","inputs":[]},{"type":"error","name":"ExpectedPause","inputs":[]},{"type":"error","name":"InvalidAddress","inputs":[]},{"type":"error","name":"InvalidAmount","inputs":[]},{"type":"error","name":"InvalidCounterparty","inputs":[]},{"type":"error","name":"InvalidDealStatus","inputs":[]},{"type":"error","name":"InvalidShortString","inputs":[]},{"type":"error","name":"InvalidSignature","inputs":[]},{"type":"error","name":"InvalidTimeout","inputs":[]},{"type":"error","name":"InvalidYieldSplit","inputs":[]},{"type":"error","name":"OnlyOwner","inputs":[]},{"type":"error","name":"ReentrancyGuardReentrantCall","inputs":[]},{"type":"error","name":"SafeERC20FailedOperation","inputs":[{"name":"token","type":"address","internalType":"address"}]},{"type":"error","name":"StringTooLong","inputs":[{"name":"str","type":"string","internalType":"string"}]},{"type":"error","name":"TimeoutNotElapsed","inputs":[]},{"type":"error","name":"Unauthorized","inputs":[]}],"bytecode":{"object":"0x6101e0604052348015610010575f80fd5b50604051612d70380380612d7083398101604081905261002f9161024f565b604080518082018252600e81526d526573746c657373457363726f7760901b60208083019190915282518084019093526001808452603160f81b918401919091525f559061007e8260026101bc565b6101205261008d8160036101bc565b61014052815160208084019190912060e052815190820120610100524660a05261011960e05161010051604080517f8b73c3c69bb8fe3d512ecc4cf759cc79239f7b179b0ffacaa9a75d522b39400f60208201529081019290925260608201524660808201523060a08201525f9060c00160405160208183030381529060405280519060200120905090565b60805250503060c0526001600160a01b0383166101495760405163e6c4247b60e01b815260040160405180910390fd5b6001600160a01b0382166101705760405163e6c4247b60e01b815260040160405180910390fd5b6001600160a01b0381166101975760405163e6c4247b60e01b815260040160405180910390fd5b6001600160a01b039283166101605290821661018052166101a052336101c052610439565b5f6020835110156101d7576101d0836101ee565b90506101e8565b816101e28482610327565b5060ff90505b92915050565b5f80829050601f81511115610221578260405163305a27a960e01b815260040161021891906103e1565b60405180910390fd5b805161022c82610416565b179392505050565b80516001600160a01b038116811461024a575f80fd5b919050565b5f805f60608486031215610261575f80fd5b61026a84610234565b925061027860208501610234565b915061028660408501610234565b90509250925092565b634e487b7160e01b5f52604160045260245ffd5b600181811c908216806102b757607f821691505b6020821081036102d557634e487b7160e01b5f52602260045260245ffd5b50919050565b601f82111561032257805f5260205f20601f840160051c810160208510156103005750805b601f840160051c820191505b8181101561031f575f815560010161030c565b50505b505050565b81516001600160401b038111156103405761034061028f565b6103548161034e84546102a3565b846102db565b6020601f821160018114610386575f831561036f5750848201515b5f19600385901b1c1916600184901b17845561031f565b5f84815260208120601f198516915b828110156103b55787850151825560209485019460019092019101610395565b50848210156103d257868401515f19600387901b60f8161c191681555b50505050600190811b01905550565b602081525f82518060208401528060208501604085015e5f604082850101526040601f19601f83011684010191505092915050565b805160208083015191908110156102d5575f1960209190910360031b1b16919050565b60805160a05160c05160e05161010051610120516101405161016051610180516101a0516101c0516128476105295f395f818161038f015281816107c5015261094f01525f81816102b7015281816117eb0152818161186601528181611c0c0152611c8701525f81816102780152818161044f01528181610b2701528181610b6801528181610d47015281816117360152611b5701525f818161040201528181610abf01528181610b0401528181610dc4015281816117c90152611bea01525f6119d101525f61199f01525f611e0801525f611de001525f611d3b01525f611d6501525f611d8f01526128475ff3fe608060405234801561000f575f80fd5b5060043610610153575f3560e01c806384b0196e116100bf578063cba1ad0611610079578063cba1ad06146103c4578063de38eb3a146103d7578063eadb3c9c146103e1578063ed31aaa7146103ea578063fc0c546a146103fd578063fc8edb5214610424575f80fd5b806384b0196e1461033657806385d60ec61461035157806386e773f1146103645780638af86cc6146103775780638da5cb5b1461038a578063986cc733146103b1575f80fd5b806343d0c32d1161011057806343d0c32d1461027357806351160630146102b2578063543ad1df146102d95780635c975abb146102f857806382fd5bac1461030e5780638456cb591461032e575f80fd5b806303988f841461015757806324d09a8f146101fb578063261db1001461021c57806331ea1a39146102315780633f4ba83a14610244578063402026101461024c575b5f80fd5b6101dc61016536600461220b565b60056020525f908152604090208054600182015460028301546003909301546001600160a01b038084169464ffffffffff600160a01b80870482169660ff600160c81b808304821698600160d01b84049092169763ffffffff600160d81b909404939093169682169593820485169491041691908a565b6040516101f29a99989796959493929190612256565b60405180910390f35b61020e61020936600461220b565b610437565b6040519081526020016101f2565b61022f61022a36600461232f565b6104c6565b005b61022f61023f36600461220b565b6106b2565b61022f6107ba565b61020e7f8d8f31cfb9ffd5889c6ed96d202c87db8bcc23d294215a69365134c478140a6381565b61029a7f000000000000000000000000000000000000000000000000000000000000000081565b6040516001600160a01b0390911681526020016101f2565b61029a7f000000000000000000000000000000000000000000000000000000000000000081565b6102e36201518081565b60405163ffffffff90911681526020016101f2565b60015460ff1660405190151581526020016101f2565b61032161031c36600461220b565b61080d565b6040516101f291906123b8565b61022f610944565b61033e610995565b6040516101f297969594939291906124bc565b61022f61035f36600461220b565b6109d7565b61022f61037236600461220b565b610c1e565b61022f610385366004612552565b610e32565b61029a7f000000000000000000000000000000000000000000000000000000000000000081565b61022f6103bf3660046125fa565b611020565b61020e6103d2366004612624565b6110ff565b6102e362278d0081565b61020e60045481565b61022f6103f836600461263d565b61145f565b61029a7f000000000000000000000000000000000000000000000000000000000000000081565b61022f61043236600461220b565b611540565b6040516324d09a8f60e01b8152600481018290525f907f00000000000000000000000000000000000000000000000000000000000000006001600160a01b0316906324d09a8f90602401602060405180830381865afa15801561049c573d5f803e3d5ffd5b505050506040513d601f19601f820116820180604052508101906104c09190612685565b92915050565b6104ce611663565b6104d661168b565b5f86815260056020526040902080546001600160a01b031661050b5760405163223da47360e21b815260040160405180910390fd5b60018154600160c81b900460ff16600581111561052a5761052a612222565b1461054857604051635e40b94f60e01b815260040160405180910390fd5b6003810154604080517f8d8f31cfb9ffd5889c6ed96d202c87db8bcc23d294215a69365134c478140a63602082015290810189905260608101919091525f906080016040516020818303038152906040528051906020012090505f6105ac826116af565b90505f6105ee8289898080601f0160208091040260200160405190810160405280939291908181526020018383808284375f920191909152506116db92505050565b84549091506001600160a01b0380831691161461061e57604051638baa579f60e01b815260040160405180910390fd5b5f61065e8388888080601f0160208091040260200160405190810160405280939291908181526020018383808284375f920191909152506116db92505050565b60018601549091506001600160a01b0380831691161461069157604051638baa579f60e01b815260040160405180910390fd5b61069c858c8c611703565b50505050506106aa60015f55565b505050505050565b6106ba61168b565b5f81815260056020526040902080546001600160a01b03166106ef5760405163223da47360e21b815260040160405180910390fd5b5f8154600160c81b900460ff16600581111561070d5761070d612222565b1461072b57604051635e40b94f60e01b815260040160405180910390fd5b80546001600160a01b03163314801590610752575060018101546001600160a01b03163314155b1561076f576040516282b42960e81b815260040160405180910390fd5b805460ff60c81b1916600560c81b17815560405133815282907fd90dde64ecb6d2913dcde645d1dcb52ab5ec048975d5539088dc4ae68e8ee4fd906020015b60405180910390a25050565b336001600160a01b037f0000000000000000000000000000000000000000000000000000000000000000161461080357604051635fc483c560e01b815260040160405180910390fd5b61080b61190b565b565b60408051610140810182525f80825260208201819052918101829052606081018290526080810182905260a0810182905260c0810182905260e0810182905261010081018290526101208101919091525f8281526005602081815260409283902083516101408101855281546001600160a01b0381168252600160a01b810464ffffffffff169382019390935293909290840191600160c81b900460ff16908111156108bb576108bb612222565b60058111156108cc576108cc612222565b8152815460ff600160d01b820416602083015263ffffffff600160d81b90910416604082015260018201546001600160a01b038116606083015264ffffffffff600160a01b820481166080840152600160c81b9091041660a0820152600282015460c082015260039091015460e09091015292915050565b336001600160a01b037f0000000000000000000000000000000000000000000000000000000000000000161461098d57604051635fc483c560e01b815260040160405180910390fd5b61080b61195d565b5f6060805f805f60606109a6611998565b6109ae6119ca565b604080515f80825260208201909252600f60f81b9b939a50919850469750309650945092509050565b6109df611663565b6109e761168b565b5f81815260056020526040902080546001600160a01b0316610a1c5760405163223da47360e21b815260040160405180910390fd5b5f8154600160c81b900460ff166005811115610a3a57610a3a612222565b14610a5857604051635e40b94f60e01b815260040160405180910390fd5b80546001600160a01b03163314610a81576040516282b42960e81b815260040160405180910390fd5b805460ff60c81b1916600160c81b17815560018101805464ffffffffff60a01b1916600160a01b4264ffffffffff16021790556002810154610af1907f00000000000000000000000000000000000000000000000000000000000000006001600160a01b031690339030906119f7565b6002810154610b4c906001600160a01b037f000000000000000000000000000000000000000000000000000000000000000016907f000000000000000000000000000000000000000000000000000000000000000090611a64565b6002810154604051631c57762b60e31b81526001600160a01b037f0000000000000000000000000000000000000000000000000000000000000000169163e2bbb15891610ba6918691600401918252602082015260400190565b5f604051808303815f87803b158015610bbd575f80fd5b505af1158015610bcf573d5f803e3d5ffd5b50505050817fc9dd6762e6024e1ec4c28eac8d4c8cc95bce152afd26092bcbf3a184e18b7c138260020154604051610c0991815260200190565b60405180910390a250610c1b60015f55565b50565b610c26611663565b5f81815260056020526040902080546001600160a01b0316610c5b5760405163223da47360e21b815260040160405180910390fd5b60038154600160c81b900460ff166005811115610c7a57610c7a612222565b14610c9857604051635e40b94f60e01b815260040160405180910390fd5b80546001600160a01b03163314610cc1576040516282b42960e81b815260040160405180910390fd5b80546001820154610ced91600160d81b900463ffffffff1690600160c81b900464ffffffffff1661269c565b64ffffffffff16421015610d145760405163f5f519bf60e01b815260040160405180910390fd5b8054600160ca1b60ff60c81b19909116178155604051632e1a7d4d60e01b8152600481018390525f906001600160a01b037f00000000000000000000000000000000000000000000000000000000000000001690632e1a7d4d906024016020604051808303815f875af1158015610d8d573d5f803e3d5ffd5b505050506040513d601f19601f82011682018060405250810190610db19190612685565b8254909150610ded906001600160a01b037f00000000000000000000000000000000000000000000000000000000000000008116911683611af3565b827fc6bacab32ae179ec989208384fe707bf74824c0a20b2ade51e9b96eada58e3cd82604051610e1f91815260200190565b60405180910390a25050610c1b60015f55565b610e3a611663565b610e4261168b565b5f87815260056020526040902080546001600160a01b0316610e775760405163223da47360e21b815260040160405180910390fd5b60018154600160c81b900460ff166005811115610e9657610e96612222565b14610eb457604051635e40b94f60e01b815260040160405180910390fd5b6003810154604080517f8d8f31cfb9ffd5889c6ed96d202c87db8bcc23d294215a69365134c478140a6360208201529081018a905260608101919091525f906080016040516020818303038152906040528051906020012090505f610f18826116af565b90505f610f5a8289898080601f0160208091040260200160405190810160405280939291908181526020018383808284375f920191909152506116db92505050565b84549091506001600160a01b03808316911614610f8a57604051638baa579f60e01b815260040160405180910390fd5b5f610fca8388888080601f0160208091040260200160405190810160405280939291908181526020018383808284375f920191909152506116db92505050565b60018601549091506001600160a01b03808316911614610ffd57604051638baa579f60e01b815260040160405180910390fd5b611009858d8d8d611b24565b505050505061101760015f55565b50505050505050565b611028611663565b61103061168b565b5f82815260056020526040902080546001600160a01b03166110655760405163223da47360e21b815260040160405180910390fd5b60018154600160c81b900460ff16600581111561108457611084612222565b146110a257604051635e40b94f60e01b815260040160405180910390fd5b80546001600160a01b031633148015906110c9575060018101546001600160a01b03163314155b156110e6576040516282b42960e81b815260040160405180910390fd5b6110f1818484611703565b506110fb60015f55565b5050565b5f61110861168b565b5f61111660208401846126c5565b6001600160a01b03160361113d57604051634f1332db60e01b815260040160405180910390fd5b3361114b60208401846126c5565b6001600160a01b031603611172576040516303d1255760e51b815260040160405180910390fd5b81602001355f036111965760405163162908e360e11b815260040160405180910390fd5b60646111a860608401604085016126e5565b60ff1611156111ca5760405163abc4df1160e01b815260040160405180910390fd5b620151806111de6080840160608501612705565b63ffffffff161080611207575062278d006111ff6080840160608501612705565b63ffffffff16115b1561122557604051631ffb86f160e21b815260040160405180910390fd5b600480546001019055604080516101408101825233815264ffffffffff421660208201529081015f815260200161126260608501604086016126e5565b60ff16815260200161127a6080850160608601612705565b63ffffffff168152602090810190611294908501856126c5565b6001600160a01b0390811682525f602080840182905260408085018390528782013560608601526080808901359501949094526004548252600580825291849020855181549287015164ffffffffff16600160a01b026001600160c81b031990931694169390931717808355928401519192839160ff60c81b1990911690600160c81b90849081111561132957611329612222565b021790555060608201518154608084015163ffffffff16600160d81b0263ffffffff60d81b1960ff909316600160d01b029290921664ffffffffff60d01b199091161717815560a082015160018201805460c085015160e086015164ffffffffff908116600160c81b0264ffffffffff60c81b1991909216600160a01b026001600160c81b03199093166001600160a01b039095169490941791909117929092169190911790556101008201516002820155610120909101516003909101556113f560208301836126c5565b6001600160a01b0316336001600160a01b03166004547f976d89051a12210eb6d076155366c3b7e0f0f1ef6c2c269559482cf0f275a5db8560200135866080013560405161144d929190918252602082015260400190565b60405180910390a4506004545b919050565b611467611663565b61146f61168b565b5f83815260056020526040902080546001600160a01b03166114a45760405163223da47360e21b815260040160405180910390fd5b60018154600160c81b900460ff1660058111156114c3576114c3612222565b146114e157604051635e40b94f60e01b815260040160405180910390fd5b80546001600160a01b03163314801590611508575060018101546001600160a01b03163314155b15611525576040516282b42960e81b815260040160405180910390fd5b61153181858585611b24565b5061153b60015f55565b505050565b61154861168b565b5f81815260056020526040902080546001600160a01b031661157d5760405163223da47360e21b815260040160405180910390fd5b60018154600160c81b900460ff16600581111561159c5761159c612222565b146115ba57604051635e40b94f60e01b815260040160405180910390fd5b80546001600160a01b031633148015906115e1575060018101546001600160a01b03163314155b156115fe576040516282b42960e81b815260040160405180910390fd5b805460ff60c81b1916600360c81b17815560018101805464ffffffffff60c81b1916600160c81b4264ffffffffff160217905560405133815282907fa68d56a81a9be734bdfa17f0fb210239cdc6cac8f3bcb9d5c09841fcab4b1d8a906020016107ae565b60025f540361168557604051633ee5aeb560e01b815260040160405180910390fd5b60025f55565b60015460ff161561080b5760405163d93c066560e01b815260040160405180910390fd5b5f6104c06116bb611d2f565b8360405161190160f01b8152600281019290925260228201526042902090565b5f805f806116e98686611e58565b9250925092506116f98282611ea1565b5090949350505050565b8254600160c91b60ff60c81b19909116178355604051632e1a7d4d60e01b8152600481018390525f906001600160a01b037f00000000000000000000000000000000000000000000000000000000000000001690632e1a7d4d906024016020604051808303815f875af115801561177c573d5f803e3d5ffd5b505050506040513d601f19601f820116820180604052508101906117a09190612685565b90505f846002015482106117b85784600201546117ba565b815b90506118106001600160a01b037f0000000000000000000000000000000000000000000000000000000000000000167f000000000000000000000000000000000000000000000000000000000000000084611a64565b6040805160c08101825285815286546001600160a01b03808216602084015260018901548116838501526060830185905260808301869052600160d01b90910460ff1660a083015291516310a9c55760e21b81527f0000000000000000000000000000000000000000000000000000000000000000909216916342a7155c9161189d918790600401612775565b5f604051808303815f87803b1580156118b4575f80fd5b505af11580156118c6573d5f803e3d5ffd5b50505050837f928d6152ac2a52f4a65094c6b49004af42ed6f4203d75ee883b97f53fbd6b8f2836040516118fc91815260200190565b60405180910390a25050505050565b611913611f5e565b6001805460ff191690557f5db9ee0a495bf2e6ff9c91a7834c1ba4fdd244a5e8aa4e537bd38aeae4b073aa335b6040516001600160a01b03909116815260200160405180910390a1565b61196561168b565b6001805460ff1916811790557f62e78cea01bee320cd4e420270b5ea74000d11b0c9f74754ebdbfc544b05a25833611940565b60606119c57f00000000000000000000000000000000000000000000000000000000000000006002611f81565b905090565b60606119c57f00000000000000000000000000000000000000000000000000000000000000006003611f81565b6040516001600160a01b038481166024830152838116604483015260648201839052611a5e9186918216906323b872dd906084015b604051602081830303815290604052915060e01b6020820180516001600160e01b03838183161783525050505061202a565b50505050565b604080516001600160a01b038416602482015260448082018490528251808303909101815260649091019091526020810180516001600160e01b031663095ea7b360e01b179052611ab58482612096565b611a5e576040516001600160a01b0384811660248301525f6044830152611ae991869182169063095ea7b390606401611a2c565b611a5e848261202a565b6040516001600160a01b0383811660248301526044820183905261153b91859182169063a9059cbb90606401611a2c565b8354600160c91b60ff60c81b19909116178455604051632e1a7d4d60e01b8152600481018490525f906001600160a01b037f00000000000000000000000000000000000000000000000000000000000000001690632e1a7d4d906024016020604051808303815f875af1158015611b9d573d5f803e3d5ffd5b505050506040513d601f19601f82011682018060405250810190611bc19190612685565b90505f85600201548210611bd9578560020154611bdb565b815b9050611c316001600160a01b037f0000000000000000000000000000000000000000000000000000000000000000167f000000000000000000000000000000000000000000000000000000000000000084611a64565b6040805160c08101825286815287546001600160a01b03808216602084015260018a01548116838501526060830185905260808301869052600160d01b90910460ff1660a0830152915163428568dd60e11b81527f00000000000000000000000000000000000000000000000000000000000000009092169163850ad1ba91611cc0918890889060040161279b565b5f604051808303815f87803b158015611cd7575f80fd5b505af1158015611ce9573d5f803e3d5ffd5b50505050847f928d6152ac2a52f4a65094c6b49004af42ed6f4203d75ee883b97f53fbd6b8f283604051611d1f91815260200190565b60405180910390a2505050505050565b5f306001600160a01b037f000000000000000000000000000000000000000000000000000000000000000016148015611d8757507f000000000000000000000000000000000000000000000000000000000000000046145b15611db157507f000000000000000000000000000000000000000000000000000000000000000090565b6119c5604080517f8b73c3c69bb8fe3d512ecc4cf759cc79239f7b179b0ffacaa9a75d522b39400f60208201527f0000000000000000000000000000000000000000000000000000000000000000918101919091527f000000000000000000000000000000000000000000000000000000000000000060608201524660808201523060a08201525f9060c00160405160208183030381529060405280519060200120905090565b5f805f8351604103611e8f576020840151604085015160608601515f1a611e81888285856120df565b955095509550505050611e9a565b505081515f91506002905b9250925092565b5f826003811115611eb457611eb4612222565b03611ebd575050565b6001826003811115611ed157611ed1612222565b03611eef5760405163f645eedf60e01b815260040160405180910390fd5b6002826003811115611f0357611f03612222565b03611f295760405163fce698f760e01b8152600481018290526024015b60405180910390fd5b6003826003811115611f3d57611f3d612222565b036110fb576040516335e2f38360e21b815260048101829052602401611f20565b60015460ff1661080b57604051638dfc202b60e01b815260040160405180910390fd5b606060ff8314611f9b57611f94836121a7565b90506104c0565b818054611fa7906127d9565b80601f0160208091040260200160405190810160405280929190818152602001828054611fd3906127d9565b801561201e5780601f10611ff55761010080835404028352916020019161201e565b820191905f5260205f20905b81548152906001019060200180831161200157829003601f168201915b505050505090506104c0565b5f8060205f8451602086015f885af180612049576040513d5f823e3d81fd5b50505f513d9150811561206057806001141561206d565b6001600160a01b0384163b155b15611a5e57604051635274afe760e01b81526001600160a01b0385166004820152602401611f20565b5f805f8060205f8651602088015f8a5af192503d91505f5190508280156120d5575081156120c757806001146120d5565b5f866001600160a01b03163b115b9695505050505050565b5f80807f7fffffffffffffffffffffffffffffff5d576e7357a4501ddfe92f46681b20a084111561211857505f9150600390508261219d565b604080515f808252602082018084528a905260ff891692820192909252606081018790526080810186905260019060a0016020604051602081039080840390855afa158015612169573d5f803e3d5ffd5b5050604051601f1901519150506001600160a01b03811661219457505f92506001915082905061219d565b92505f91508190505b9450945094915050565b60605f6121b3836121e4565b6040805160208082528183019092529192505f91906020820181803683375050509182525060208101929092525090565b5f60ff8216601f8111156104c057604051632cd44ac360e21b815260040160405180910390fd5b5f6020828403121561221b575f80fd5b5035919050565b634e487b7160e01b5f52602160045260245ffd5b6006811061225257634e487b7160e01b5f52602160045260245ffd5b9052565b6001600160a01b038b16815264ffffffffff8a1660208201526101408101612281604083018b612236565b60ff98909816606082015263ffffffff9690961660808701526001600160a01b039490941660a086015264ffffffffff92831660c0860152911660e0840152610100830152610120909101529392505050565b80356001600160a01b038116811461145a575f80fd5b5f8083601f8401126122fa575f80fd5b50813567ffffffffffffffff811115612311575f80fd5b602083019150836020828501011115612328575f80fd5b9250929050565b5f805f805f8060808789031215612344575f80fd5b86359550612354602088016122d4565b9450604087013567ffffffffffffffff81111561236f575f80fd5b61237b89828a016122ea565b909550935050606087013567ffffffffffffffff81111561239a575f80fd5b6123a689828a016122ea565b979a9699509497509295939492505050565b81516001600160a01b03168152610140810160208301516123e2602084018264ffffffffff169052565b5060408301516123f56040840182612236565b50606083015161240a606084018260ff169052565b506080830151612422608084018263ffffffff169052565b5060a083015161243d60a08401826001600160a01b03169052565b5060c083015161245660c084018264ffffffffff169052565b5060e083015161246f60e084018264ffffffffff169052565b5061010083015161010083015261012083015161012083015292915050565b5f81518084528060208401602086015e5f602082860101526020601f19601f83011685010191505092915050565b60ff60f81b8816815260e060208201525f6124da60e083018961248e565b82810360408401526124ec818961248e565b606084018890526001600160a01b038716608085015260a0840186905283810360c0850152845180825260208087019350909101905f5b81811015612541578351835260209384019390920191600101612523565b50909b9a5050505050505050505050565b5f805f805f805f6080888a031215612568575f80fd5b87359650602088013567ffffffffffffffff811115612585575f80fd5b6125918a828b016122ea565b909750955050604088013567ffffffffffffffff8111156125b0575f80fd5b6125bc8a828b016122ea565b909550935050606088013567ffffffffffffffff8111156125db575f80fd5b6125e78a828b016122ea565b989b979a50959850939692959293505050565b5f806040838503121561260b575f80fd5b8235915061261b602084016122d4565b90509250929050565b5f60a0828403128015612635575f80fd5b509092915050565b5f805f6040848603121561264f575f80fd5b83359250602084013567ffffffffffffffff81111561266c575f80fd5b612678868287016122ea565b9497909650939450505050565b5f60208284031215612695575f80fd5b5051919050565b64ffffffffff81811683821601908111156104c057634e487b7160e01b5f52601160045260245ffd5b5f602082840312156126d5575f80fd5b6126de826122d4565b9392505050565b5f602082840312156126f5575f80fd5b813560ff811681146126de575f80fd5b5f60208284031215612715575f80fd5b813563ffffffff811681146126de575f80fd5b8051825260018060a01b03602082015116602083015260018060a01b036040820151166040830152606081015160608301526080810151608083015260ff60a08201511660a08301525050565b60e081016127838285612728565b6001600160a01b039290921660c09190910152919050565b6127a58185612728565b60e060c08201528160e082015281836101008301375f81830161010090810191909152601f909201601f1916010192915050565b600181811c908216806127ed57607f821691505b60208210810361280b57634e487b7160e01b5f52602260045260245ffd5b5091905056fea2646970667358221220070f628ac9e1f907fa05368e419d48e5a0498055fc83c1f75504853cd22779d364736f6c634300081a0033","linkReferences":{}},"methodIdentifiers":{"MAX_TIMEOUT()":"de38eb3a","MIN_TIMEOUT()":"543ad1df","SETTLE_TYPEHASH()":"40202610","cancelDeal(uint256)":"31ea1a39","claimTimeout(uint256)":"86e773f1","createDeal((address,uint256,uint8,uint32,bytes32))":"cba1ad06","dealCount()":"eadb3c9c","deals(uint256)":"03988f84","disputeDeal(uint256)":"fc8edb52","eip712Domain()":"84b0196e","fundDeal(uint256)":"85d60ec6","getAccruedYield(uint256)":"24d09a8f","getDeal(uint256)":"82fd5bac","owner()":"8da5cb5b","pause()":"8456cb59","paused()":"5c975abb","settleDeal(uint256,bytes)":"ed31aaa7","settleDealSigned(uint256,bytes,bytes,bytes)":"8af86cc6","settleDealWithHook(uint256,address)":"986cc733","settleDealWithHookSigned(uint256,address,bytes,bytes)":"261db100","settlement()":"51160630","token()":"fc0c546a","unpause()":"3f4ba83a","yieldAdapter()":"43d0c32d"},"id":1}