{"abi":[{"type":"constructor","inputs":[{"name":"_token","type":"address","internalType":"address"},{"name":"_yieldAdapter","type":"address","internalType":"address"},{"name":"_settlement","type":"address","internalType":"address"}],"stateMutability":"nonpayable"},{"type":"function","name":"MAX_TIMEOUT","inputs":[],"outputs":[{"name":"","type":"uint32","internalType":"uint32"}],"stateMutability":"view"},{"type":"function","name":"MIN_TIMEOUT","inputs":[],"outputs":[{"name":"","type":"uint32","internalType":"uint32"}],"stateMutability":"view"},{"type":"function","name":"SETTLE_TYPEHASH","inputs":[],"outputs":[{"name":"","type":"bytes32","internalType":"bytes32"}],"stateMutability":"view"},{"type":"function","name":"cancelDeal","inputs":[{"name":"dealId","type":"uint256","internalType":"uint256"}],"outputs":[],"stateMutability":"nonpayable"},{"type":"function","name":"claimTimeout","inputs":[{"name":"dealId","type":"uint256","internalType":"uint256"}],"outputs":[],"stateMutability":"nonpayable"},{"type":"function","name":"createDeal","inputs":[{"name":"params","type":"tuple","internalType":"struct CreateDealParams","components":[{"name":"counterparty","type":"address","internalType":"address"},{"name":"amount","type":"uint256","internalType":"uint256"},{"name":"yieldSplitCounterparty","type":"uint8","internalType":"uint8"},{"name":"timeout","type":"uint32","internalType":"uint32"},{"name":"dealHash","type":"bytes32","internalType":"bytes32"}]}],"outputs":[{"name":"","type":"uint256","internalType":"uint256"}],"stateMutability":"nonpayable"},{"type":"function","name":"dealCount","inputs":[],"outputs":[{"name":"","type":"uint256","internalType":"uint256"}],"stateMutability":"view"},{"type":"function","name":"deals","inputs":[{"name":"","type":"uint256","internalType":"uint256"}],"outputs":[{"name":"depositor","type":"address","internalType":"address"},{"name":"createdAt","type":"uint40","internalType":"uint40"},{"name":"status","type":"uint8","internalType":"enum DealStatus"},{"name":"yieldSplitCounterparty","type":"uint8","internalType":"uint8"},{"name":"timeout","type":"uint32","internalType":"uint32"},{"name":"counterparty","type":"address","internalType":"address"},{"name":"fundedAt","type":"uint40","internalType":"uint40"},{"name":"disputedAt","type":"uint40","internalType":"uint40"},{"name":"amount","type":"uint256","internalType":"uint256"},{"name":"dealHash","type":"bytes32","internalType":"bytes32"}],"stateMutability":"view"},{"type":"function","name":"disputeDeal","inputs":[{"name":"dealId","type":"uint256","internalType":"uint256"}],"outputs":[],"stateMutability":"nonpayable"},{"type":"function","name":"eip712Domain","inputs":[],"outputs":[{"name":"fields","type":"bytes1","internalType":"bytes1"},{"name":"name","type":"string","internalType":"string"},{"name":"version","type":"string","internalType":"string"},{"name":"chainId","type":"uint256","internalType":"uint256"},{"name":"verifyingContract","type":"address","internalType":"address"},{"name":"salt","type":"bytes32","internalType":"bytes32"},{"name":"extensions","type":"uint256[]","internalType":"uint256[]"}],"stateMutability":"view"},{"type":"function","name":"fundDeal","inputs":[{"name":"dealId","type":"uint256","internalType":"uint256"}],"outputs":[],"stateMutability":"nonpayable"},{"type":"function","name":"getAccruedYield","inputs":[{"name":"dealId","type":"uint256","internalType":"uint256"}],"outputs":[{"name":"","type":"uint256","internalType":"uint256"}],"stateMutability":"view"},{"type":"function","name":"getDeal","inputs":[{"name":"dealId","type":"uint256","internalType":"uint256"}],"outputs":[{"name":"","type":"tuple","internalType":"struct Deal","components":[{"name":"depositor","type":"address","internalType":"address"},{"name":"createdAt","type":"uint40","internalType":"uint40"},{"name":"status","type":"uint8","internalType":"enum DealStatus"},{"name":"yieldSplitCounterparty","type":"uint8","internalType":"uint8"},{"name":"timeout","type":"uint32","internalType":"uint32"},{"name":"counterparty","type":"address","internalType":"address"},{"name":"fundedAt","type":"uint40","internalType":"uint40"},{"name":"disputedAt","type":"uint40","internalType":"uint40"},{"name":"amount","type":"uint256","internalType":"uint256"},{"name":"dealHash","type":"bytes32","internalType":"bytes32"}]}],"stateMutability":"view"},{"type":"function","name":"owner","inputs":[],"outputs":[{"name":"","type":"address","internalType":"address"}],"stateMutability":"view"},{"type":"function","name":"pause","inputs":[],"outputs":[],"stateMutability":"nonpayable"},{"type":"function","name":"paused","inputs":[],"outputs":[{"name":"","type":"bool","internalType":"bool"}],"stateMutability":"view"},{"type":"function","name":"rescueTokens","inputs":[{"name":"_token","type":"address","internalType":"contract IERC20"},{"name":"to","type":"address","internalType":"address"},{"name":"amount","type":"uint256","internalType":"uint256"}],"outputs":[],"stateMutability":"nonpayable"},{"type":"function","name":"settleDeal","inputs":[{"name":"dealId","type":"uint256","internalType":"uint256"},{"name":"lifiData","type":"bytes","internalType":"bytes"}],"outputs":[],"stateMutability":"nonpayable"},{"type":"function","name":"settleDealSigned","inputs":[{"name":"dealId","type":"uint256","internalType":"uint256"},{"name":"lifiData","type":"bytes","internalType":"bytes"},{"name":"depositorSig","type":"bytes","internalType":"bytes"},{"name":"counterpartySig","type":"bytes","internalType":"bytes"}],"outputs":[],"stateMutability":"nonpayable"},{"type":"function","name":"settleDealWithHook","inputs":[{"name":"dealId","type":"uint256","internalType":"uint256"},{"name":"preferredToken","type":"address","internalType":"address"}],"outputs":[],"stateMutability":"nonpayable"},{"type":"function","name":"settleDealWithHookSigned","inputs":[{"name":"dealId","type":"uint256","internalType":"uint256"},{"name":"preferredToken","type":"address","internalType":"address"},{"name":"depositorSig","type":"bytes","internalType":"bytes"},{"name":"counterpartySig","type":"bytes","internalType":"bytes"}],"outputs":[],"stateMutability":"nonpayable"},{"type":"function","name":"settlement","inputs":[],"outputs":[{"name":"","type":"address","internalType":"contract ISettlement"}],"stateMutability":"view"},{"type":"function","name":"token","inputs":[],"outputs":[{"name":"","type":"address","internalType":"contract IERC20"}],"stateMutability":"view"},{"type":"function","name":"unpause","inputs":[],"outputs":[],"stateMutability":"nonpayable"},{"type":"function","name":"yieldAdapter","inputs":[],"outputs":[{"name":"","type":"address","internalType":"contract IYieldAdapter"}],"stateMutability":"view"},{"type":"event","name":"DealCancelled","inputs":[{"name":"dealId","type":"uint256","indexed":true,"internalType":"uint256"},{"name":"cancelledBy","type":"address","indexed":false,"internalType":"address"}],"anonymous":false},{"type":"event","name":"DealCreated","inputs":[{"name":"dealId","type":"uint256","indexed":true,"internalType":"uint256"},{"name":"depositor","type":"address","indexed":true,"internalType":"address"},{"name":"counterparty","type":"address","indexed":true,"internalType":"address"},{"name":"amount","type":"uint256","indexed":false,"internalType":"uint256"},{"name":"dealHash","type":"bytes32","indexed":false,"internalType":"bytes32"}],"anonymous":false},{"type":"event","name":"DealDisputed","inputs":[{"name":"dealId","type":"uint256","indexed":true,"internalType":"uint256"},{"name":"disputedBy","type":"address","indexed":false,"internalType":"address"}],"anonymous":false},{"type":"event","name":"DealFunded","inputs":[{"name":"dealId","type":"uint256","indexed":true,"internalType":"uint256"},{"name":"amount","type":"uint256","indexed":false,"internalType":"uint256"}],"anonymous":false},{"type":"event","name":"DealSettled","inputs":[{"name":"dealId","type":"uint256","indexed":true,"internalType":"uint256"},{"name":"totalPayout","type":"uint256","indexed":false,"internalType":"uint256"}],"anonymous":false},{"type":"event","name":"DealTimedOut","inputs":[{"name":"dealId","type":"uint256","indexed":true,"internalType":"uint256"},{"name":"refundAmount","type":"uint256","indexed":false,"internalType":"uint256"}],"anonymous":false},{"type":"event","name":"EIP712DomainChanged","inputs":[],"anonymous":false},{"type":"event","name":"Paused","inputs":[{"name":"account","type":"address","indexed":false,"internalType":"address"}],"anonymous":false},{"type":"event","name":"Unpaused","inputs":[{"name":"account","type":"address","indexed":false,"internalType":"address"}],"anonymous":false},{"type":"error","name":"CannotEscrowWithSelf","inputs":[]},{"type":"error","name":"DealNotFound","inputs":[]},{"type":"error","name":"EnforcedPause","inputs":[]},{"type":"error","name":"ExpectedPause","inputs":[]},{"type":"error","name":"InvalidAddress","inputs":[]},{"type":"error","name":"InvalidAmount","inputs":[]},{"type":"error","name":"InvalidCounterparty","inputs":[]},{"type":"error","name":"InvalidDealStatus","inputs":[]},{"type":"error","name":"InvalidShortString","inputs":[]},{"type":"error","name":"InvalidSignature","inputs":[]},{"type":"error","name":"InvalidTimeout","inputs":[]},{"type":"error","name":"InvalidYieldSplit","inputs":[]},{"type":"error","name":"OnlyOwner","inputs":[]},{"type":"error","name":"ReentrancyGuardReentrantCall","inputs":[]},{"type":"error","name":"SafeERC20FailedOperation","inputs":[{"name":"token","type":"address","internalType":"address"}]},{"type":"error","name":"StringTooLong","inputs":[{"name":"str","type":"string","internalType":"string"}]},{"type":"error","name":"TimeoutNotElapsed","inputs":[]},{"type":"error","name":"Unauthorized","inputs":[]}],"bytecode":{"object":"0x6101e0604052348015610010575f80fd5b50604051612eb8380380612eb883398101604081905261002f9161024f565b604080518082018252600e81526d526573746c657373457363726f7760901b60208083019190915282518084019093526001808452603160f81b918401919091525f559061007e8260026101bc565b6101205261008d8160036101bc565b61014052815160208084019190912060e052815190820120610100524660a05261011960e05161010051604080517f8b73c3c69bb8fe3d512ecc4cf759cc79239f7b179b0ffacaa9a75d522b39400f60208201529081019290925260608201524660808201523060a08201525f9060c00160405160208183030381529060405280519060200120905090565b60805250503060c0526001600160a01b0383166101495760405163e6c4247b60e01b815260040160405180910390fd5b6001600160a01b0382166101705760405163e6c4247b60e01b815260040160405180910390fd5b6001600160a01b0381166101975760405163e6c4247b60e01b815260040160405180910390fd5b6001600160a01b039283166101605290821661018052166101a052336101c052610439565b5f6020835110156101d7576101d0836101ee565b90506101e8565b816101e28482610327565b5060ff90505b92915050565b5f80829050601f81511115610221578260405163305a27a960e01b815260040161021891906103e1565b60405180910390fd5b805161022c82610416565b179392505050565b80516001600160a01b038116811461024a575f80fd5b919050565b5f805f60608486031215610261575f80fd5b61026a84610234565b925061027860208501610234565b915061028660408501610234565b90509250925092565b634e487b7160e01b5f52604160045260245ffd5b600181811c908216806102b757607f821691505b6020821081036102d557634e487b7160e01b5f52602260045260245ffd5b50919050565b601f82111561032257805f5260205f20601f840160051c810160208510156103005750805b601f840160051c820191505b8181101561031f575f815560010161030c565b50505b505050565b81516001600160401b038111156103405761034061028f565b6103548161034e84546102a3565b846102db565b6020601f821160018114610386575f831561036f5750848201515b5f19600385901b1c1916600184901b17845561031f565b5f84815260208120601f198516915b828110156103b55787850151825560209485019460019092019101610395565b50848210156103d257868401515f19600387901b60f8161c191681555b50505050600190811b01905550565b602081525f82518060208401528060208501604085015e5f604082850101526040601f19601f83011684010191505092915050565b805160208083015191908110156102d5575f1960209190910360031b1b16919050565b60805160a05160c05160e05161010051610120516101405161016051610180516101a0516101c0516129886105305f395f81816103a9015281816107e20152818161096c015261147501525f81816102d10152818161189e0152818161191901528181611cbf0152611d3a01525f81816102920152818161047c01528181610b4401528181610b8501528181610d64015281816117e90152611c0a01525f818161042f01528181610adc01528181610b2101528181610de10152818161187c0152611c9d01525f611a8401525f611a5201525f611ebb01525f611e9301525f611dee01525f611e1801525f611e4201526129885ff3fe608060405234801561000f575f80fd5b506004361061016d575f3560e01c806384b0196e116100d9578063cba1ad0611610093578063eadb3c9c1161006e578063eadb3c9c1461040e578063ed31aaa714610417578063fc0c546a1461042a578063fc8edb5214610451575f80fd5b8063cba1ad06146103de578063cea9d26f146103f1578063de38eb3a14610404575f80fd5b806384b0196e1461035057806385d60ec61461036b57806386e773f11461037e5780638af86cc6146103915780638da5cb5b146103a4578063986cc733146103cb575f80fd5b806343d0c32d1161012a57806343d0c32d1461028d57806351160630146102cc578063543ad1df146102f35780635c975abb1461031257806382fd5bac146103285780638456cb5914610348575f80fd5b806303988f841461017157806324d09a8f14610215578063261db1001461023657806331ea1a391461024b5780633f4ba83a1461025e5780634020261014610266575b5f80fd5b6101f661017f3660046122d9565b60056020525f908152604090208054600182015460028301546003909301546001600160a01b038084169464ffffffffff600160a01b80870482169660ff600160c81b808304821698600160d01b84049092169763ffffffff600160d81b909404939093169682169593820485169491041691908a565b60405161020c9a99989796959493929190612324565b60405180910390f35b6102286102233660046122d9565b610464565b60405190815260200161020c565b6102496102443660046123fb565b6104f3565b005b6102496102593660046122d9565b6106cf565b6102496107d7565b6102287f8d8f31cfb9ffd5889c6ed96d202c87db8bcc23d294215a69365134c478140a6381565b6102b47f000000000000000000000000000000000000000000000000000000000000000081565b6040516001600160a01b03909116815260200161020c565b6102b47f000000000000000000000000000000000000000000000000000000000000000081565b6102fd6201518081565b60405163ffffffff909116815260200161020c565b60015460ff16604051901515815260200161020c565b61033b6103363660046122d9565b61082a565b60405161020c9190612486565b610249610961565b6103586109b2565b60405161020c979695949392919061258a565b6102496103793660046122d9565b6109f4565b61024961038c3660046122d9565b610c3b565b61024961039f366004612620565b610e4f565b6102b47f000000000000000000000000000000000000000000000000000000000000000081565b6102496103d93660046126c8565b61102d565b6102286103ec3660046126f6565b61110c565b6102496103ff36600461270f565b61146a565b6102fd62278d0081565b61022860045481565b61024961042536600461274d565b6114cc565b6102b47f000000000000000000000000000000000000000000000000000000000000000081565b61024961045f3660046122d9565b6115a8565b6040516324d09a8f60e01b8152600481018290525f907f00000000000000000000000000000000000000000000000000000000000000006001600160a01b0316906324d09a8f90602401602060405180830381865afa1580156104c9573d5f803e3d5ffd5b505050506040513d601f19601f820116820180604052508101906104ed9190612795565b92915050565b6104fb6116cb565b6105036116f3565b5f86815260056020526040902080546001600160a01b03166105385760405163223da47360e21b815260040160405180910390fd5b60018154600160c81b900460ff166005811115610557576105576122f0565b1461057557604051635e40b94f60e01b815260040160405180910390fd5b6003810154604080517f8d8f31cfb9ffd5889c6ed96d202c87db8bcc23d294215a69365134c478140a63602082015290810189905260608101919091525f906080016040516020818303038152906040528051906020012090505f6105d982611717565b8354604080516020601f8b01819004810282018101909252898152929350610628926001600160a01b039092169184918b908b90819084018382808284375f9201919091525061174392505050565b61064557604051638baa579f60e01b815260040160405180910390fd5b6001830154604080516020601f8801819004810282018101909252868152610693926001600160a01b03169184919089908990819084018382808284375f9201919091525061174392505050565b6106b057604051638baa579f60e01b815260040160405180910390fd5b6106bb838a8a6117b6565b5050506106c760015f55565b505050505050565b6106d76116f3565b5f81815260056020526040902080546001600160a01b031661070c5760405163223da47360e21b815260040160405180910390fd5b5f8154600160c81b900460ff16600581111561072a5761072a6122f0565b1461074857604051635e40b94f60e01b815260040160405180910390fd5b80546001600160a01b0316331480159061076f575060018101546001600160a01b03163314155b1561078c576040516282b42960e81b815260040160405180910390fd5b805460ff60c81b1916600560c81b17815560405133815282907fd90dde64ecb6d2913dcde645d1dcb52ab5ec048975d5539088dc4ae68e8ee4fd906020015b60405180910390a25050565b336001600160a01b037f0000000000000000000000000000000000000000000000000000000000000000161461082057604051635fc483c560e01b815260040160405180910390fd5b6108286119be565b565b60408051610140810182525f80825260208201819052918101829052606081018290526080810182905260a0810182905260c0810182905260e0810182905261010081018290526101208101919091525f8281526005602081815260409283902083516101408101855281546001600160a01b0381168252600160a01b810464ffffffffff169382019390935293909290840191600160c81b900460ff16908111156108d8576108d86122f0565b60058111156108e9576108e96122f0565b8152815460ff600160d01b820416602083015263ffffffff600160d81b90910416604082015260018201546001600160a01b038116606083015264ffffffffff600160a01b820481166080840152600160c81b9091041660a0820152600282015460c082015260039091015460e09091015292915050565b336001600160a01b037f000000000000000000000000000000000000000000000000000000000000000016146109aa57604051635fc483c560e01b815260040160405180910390fd5b610828611a10565b5f6060805f805f60606109c3611a4b565b6109cb611a7d565b604080515f80825260208201909252600f60f81b9b939a50919850469750309650945092509050565b6109fc6116cb565b610a046116f3565b5f81815260056020526040902080546001600160a01b0316610a395760405163223da47360e21b815260040160405180910390fd5b5f8154600160c81b900460ff166005811115610a5757610a576122f0565b14610a7557604051635e40b94f60e01b815260040160405180910390fd5b80546001600160a01b03163314610a9e576040516282b42960e81b815260040160405180910390fd5b805460ff60c81b1916600160c81b17815560018101805464ffffffffff60a01b1916600160a01b4264ffffffffff16021790556002810154610b0e907f00000000000000000000000000000000000000000000000000000000000000006001600160a01b03169033903090611aaa565b6002810154610b69906001600160a01b037f000000000000000000000000000000000000000000000000000000000000000016907f000000000000000000000000000000000000000000000000000000000000000090611b17565b6002810154604051631c57762b60e31b81526001600160a01b037f0000000000000000000000000000000000000000000000000000000000000000169163e2bbb15891610bc3918691600401918252602082015260400190565b5f604051808303815f87803b158015610bda575f80fd5b505af1158015610bec573d5f803e3d5ffd5b50505050817fc9dd6762e6024e1ec4c28eac8d4c8cc95bce152afd26092bcbf3a184e18b7c138260020154604051610c2691815260200190565b60405180910390a250610c3860015f55565b50565b610c436116cb565b5f81815260056020526040902080546001600160a01b0316610c785760405163223da47360e21b815260040160405180910390fd5b60038154600160c81b900460ff166005811115610c9757610c976122f0565b14610cb557604051635e40b94f60e01b815260040160405180910390fd5b80546001600160a01b03163314610cde576040516282b42960e81b815260040160405180910390fd5b80546001820154610d0a91600160d81b900463ffffffff1690600160c81b900464ffffffffff166127ac565b64ffffffffff16421015610d315760405163f5f519bf60e01b815260040160405180910390fd5b8054600160ca1b60ff60c81b19909116178155604051632e1a7d4d60e01b8152600481018390525f906001600160a01b037f00000000000000000000000000000000000000000000000000000000000000001690632e1a7d4d906024016020604051808303815f875af1158015610daa573d5f803e3d5ffd5b505050506040513d601f19601f82011682018060405250810190610dce9190612795565b8254909150610e0a906001600160a01b037f00000000000000000000000000000000000000000000000000000000000000008116911683611ba6565b827fc6bacab32ae179ec989208384fe707bf74824c0a20b2ade51e9b96eada58e3cd82604051610e3c91815260200190565b60405180910390a25050610c3860015f55565b610e576116cb565b610e5f6116f3565b5f87815260056020526040902080546001600160a01b0316610e945760405163223da47360e21b815260040160405180910390fd5b60018154600160c81b900460ff166005811115610eb357610eb36122f0565b14610ed157604051635e40b94f60e01b815260040160405180910390fd5b6003810154604080517f8d8f31cfb9ffd5889c6ed96d202c87db8bcc23d294215a69365134c478140a6360208201529081018a905260608101919091525f906080016040516020818303038152906040528051906020012090505f610f3582611717565b8354604080516020601f8b01819004810282018101909252898152929350610f84926001600160a01b039092169184918b908b90819084018382808284375f9201919091525061174392505050565b610fa157604051638baa579f60e01b815260040160405180910390fd5b6001830154604080516020601f8801819004810282018101909252868152610fef926001600160a01b03169184919089908990819084018382808284375f9201919091525061174392505050565b61100c57604051638baa579f60e01b815260040160405180910390fd5b611018838b8b8b611bd7565b50505061102460015f55565b50505050505050565b6110356116cb565b61103d6116f3565b5f82815260056020526040902080546001600160a01b03166110725760405163223da47360e21b815260040160405180910390fd5b60018154600160c81b900460ff166005811115611091576110916122f0565b146110af57604051635e40b94f60e01b815260040160405180910390fd5b80546001600160a01b031633148015906110d6575060018101546001600160a01b03163314155b156110f3576040516282b42960e81b815260040160405180910390fd5b6110fe8184846117b6565b5061110860015f55565b5050565b5f6111156116f3565b5f61112360208401846127d5565b6001600160a01b03160361114a57604051634f1332db60e01b815260040160405180910390fd5b3361115860208401846127d5565b6001600160a01b03160361117f576040516303d1255760e51b815260040160405180910390fd5b81602001355f036111a35760405163162908e360e11b815260040160405180910390fd5b60646111b560608401604085016127f0565b60ff1611156111d75760405163abc4df1160e01b815260040160405180910390fd5b620151806111eb6080840160608501612810565b63ffffffff161080611214575062278d0061120c6080840160608501612810565b63ffffffff16115b1561123257604051631ffb86f160e21b815260040160405180910390fd5b600480546001019055604080516101408101825233815264ffffffffff421660208201529081015f815260200161126f60608501604086016127f0565b60ff1681526020016112876080850160608601612810565b63ffffffff1681526020908101906112a1908501856127d5565b6001600160a01b0390811682525f602080840182905260408085018390528782013560608601526080808901359501949094526004548252600580825291849020855181549287015164ffffffffff16600160a01b026001600160c81b031990931694169390931717808355928401519192839160ff60c81b1990911690600160c81b908490811115611336576113366122f0565b021790555060608201518154608084015163ffffffff16600160d81b0263ffffffff60d81b1960ff909316600160d01b029290921664ffffffffff60d01b199091161717815560a082015160018201805460c085015160e086015164ffffffffff908116600160c81b0264ffffffffff60c81b1991909216600160a01b026001600160c81b03199093166001600160a01b0390951694909417919091179290921691909117905561010082015160028201556101209091015160039091015561140260208301836127d5565b6001600160a01b0316336001600160a01b03166004547f976d89051a12210eb6d076155366c3b7e0f0f1ef6c2c269559482cf0f275a5db8560200135866080013560405161145a929190918252602082015260400190565b60405180910390a4505060045490565b336001600160a01b037f000000000000000000000000000000000000000000000000000000000000000016146114b357604051635fc483c560e01b815260040160405180910390fd5b6114c76001600160a01b0384168383611ba6565b505050565b6114d46116cb565b6114dc6116f3565b5f83815260056020526040902080546001600160a01b03166115115760405163223da47360e21b815260040160405180910390fd5b60018154600160c81b900460ff166005811115611530576115306122f0565b1461154e57604051635e40b94f60e01b815260040160405180910390fd5b80546001600160a01b03163314801590611575575060018101546001600160a01b03163314155b15611592576040516282b42960e81b815260040160405180910390fd5b61159e81858585611bd7565b506114c760015f55565b6115b06116f3565b5f81815260056020526040902080546001600160a01b03166115e55760405163223da47360e21b815260040160405180910390fd5b60018154600160c81b900460ff166005811115611604576116046122f0565b1461162257604051635e40b94f60e01b815260040160405180910390fd5b80546001600160a01b03163314801590611649575060018101546001600160a01b03163314155b15611666576040516282b42960e81b815260040160405180910390fd5b805460ff60c81b1916600360c81b17815560018101805464ffffffffff60c81b1916600160c81b4264ffffffffff160217905560405133815282907fa68d56a81a9be734bdfa17f0fb210239cdc6cac8f3bcb9d5c09841fcab4b1d8a906020016107cb565b60025f54036116ed57604051633ee5aeb560e01b815260040160405180910390fd5b60025f55565b60015460ff16156108285760405163d93c066560e01b815260040160405180910390fd5b5f6104ed611723611de2565b8360405161190160f01b8152600281019290925260228201526042902090565b5f836001600160a01b03163b5f036117a1575f806117618585611f0b565b5090925090505f81600381111561177a5761177a6122f0565b1480156117985750856001600160a01b0316826001600160a01b0316145b925050506117af565b6117ac848484611f54565b90505b9392505050565b8254600160c91b60ff60c81b19909116178355604051632e1a7d4d60e01b8152600481018390525f906001600160a01b037f00000000000000000000000000000000000000000000000000000000000000001690632e1a7d4d906024016020604051808303815f875af115801561182f573d5f803e3d5ffd5b505050506040513d601f19601f820116820180604052508101906118539190612795565b90505f8460020154821061186b57846002015461186d565b815b90506118c36001600160a01b037f0000000000000000000000000000000000000000000000000000000000000000167f000000000000000000000000000000000000000000000000000000000000000084611b17565b6040805160c08101825285815286546001600160a01b03808216602084015260018901548116838501526060830185905260808301869052600160d01b90910460ff1660a083015291516310a9c55760e21b81527f0000000000000000000000000000000000000000000000000000000000000000909216916342a7155c91611950918790600401612880565b5f604051808303815f87803b158015611967575f80fd5b505af1158015611979573d5f803e3d5ffd5b50505050837f928d6152ac2a52f4a65094c6b49004af42ed6f4203d75ee883b97f53fbd6b8f2836040516119af91815260200190565b60405180910390a25050505050565b6119c661202b565b6001805460ff191690557f5db9ee0a495bf2e6ff9c91a7834c1ba4fdd244a5e8aa4e537bd38aeae4b073aa335b6040516001600160a01b03909116815260200160405180910390a1565b611a186116f3565b6001805460ff1916811790557f62e78cea01bee320cd4e420270b5ea74000d11b0c9f74754ebdbfc544b05a258336119f3565b6060611a787f0000000000000000000000000000000000000000000000000000000000000000600261204e565b905090565b6060611a787f0000000000000000000000000000000000000000000000000000000000000000600361204e565b6040516001600160a01b038481166024830152838116604483015260648201839052611b119186918216906323b872dd906084015b604051602081830303815290604052915060e01b6020820180516001600160e01b0383818316178352505050506120f8565b50505050565b604080516001600160a01b038416602482015260448082018490528251808303909101815260649091019091526020810180516001600160e01b031663095ea7b360e01b179052611b688482612168565b611b11576040516001600160a01b0384811660248301525f6044830152611b9c91869182169063095ea7b390606401611adf565b611b1184826120f8565b6040516001600160a01b038381166024830152604482018390526114c791859182169063a9059cbb90606401611adf565b8354600160c91b60ff60c81b19909116178455604051632e1a7d4d60e01b8152600481018490525f906001600160a01b037f00000000000000000000000000000000000000000000000000000000000000001690632e1a7d4d906024016020604051808303815f875af1158015611c50573d5f803e3d5ffd5b505050506040513d601f19601f82011682018060405250810190611c749190612795565b90505f85600201548210611c8c578560020154611c8e565b815b9050611ce46001600160a01b037f0000000000000000000000000000000000000000000000000000000000000000167f000000000000000000000000000000000000000000000000000000000000000084611b17565b6040805160c08101825286815287546001600160a01b03808216602084015260018a01548116838501526060830185905260808301869052600160d01b90910460ff1660a0830152915163428568dd60e11b81527f00000000000000000000000000000000000000000000000000000000000000009092169163850ad1ba91611d7391889088906004016128a6565b5f604051808303815f87803b158015611d8a575f80fd5b505af1158015611d9c573d5f803e3d5ffd5b50505050847f928d6152ac2a52f4a65094c6b49004af42ed6f4203d75ee883b97f53fbd6b8f283604051611dd291815260200190565b60405180910390a2505050505050565b5f306001600160a01b037f000000000000000000000000000000000000000000000000000000000000000016148015611e3a57507f000000000000000000000000000000000000000000000000000000000000000046145b15611e6457507f000000000000000000000000000000000000000000000000000000000000000090565b611a78604080517f8b73c3c69bb8fe3d512ecc4cf759cc79239f7b179b0ffacaa9a75d522b39400f60208201527f0000000000000000000000000000000000000000000000000000000000000000918101919091527f000000000000000000000000000000000000000000000000000000000000000060608201524660808201523060a08201525f9060c00160405160208183030381529060405280519060200120905090565b5f805f8351604103611f42576020840151604085015160608601515f1a611f34888285856121ad565b955095509550505050611f4d565b505081515f91506002905b9250925092565b5f805f856001600160a01b03168585604051602401611f749291906128e4565b60408051601f198184030181529181526020820180516001600160e01b0316630b135d3f60e11b17905251611fa99190612904565b5f60405180830381855afa9150503d805f8114611fe1576040519150601f19603f3d011682016040523d82523d5f602084013e611fe6565b606091505b5091509150818015611ffa57506020815110155b801561202157508051630b135d3f60e11b9061201f9083016020908101908401612795565b145b9695505050505050565b60015460ff1661082857604051638dfc202b60e01b815260040160405180910390fd5b606060ff83146120685761206183612275565b90506104ed565b8180546120749061291a565b80601f01602080910402602001604051908101604052809291908181526020018280546120a09061291a565b80156120eb5780601f106120c2576101008083540402835291602001916120eb565b820191905f5260205f20905b8154815290600101906020018083116120ce57829003601f168201915b5050505050905092915050565b5f8060205f8451602086015f885af180612117576040513d5f823e3d81fd5b50505f513d9150811561212e57806001141561213b565b6001600160a01b0384163b155b15611b1157604051635274afe760e01b81526001600160a01b038516600482015260240160405180910390fd5b5f805f8060205f8651602088015f8a5af192503d91505f519050828015612021575081156121995780600114612021565b50505050506001600160a01b03163b151590565b5f80807f7fffffffffffffffffffffffffffffff5d576e7357a4501ddfe92f46681b20a08411156121e657505f9150600390508261226b565b604080515f808252602082018084528a905260ff891692820192909252606081018790526080810186905260019060a0016020604051602081039080840390855afa158015612237573d5f803e3d5ffd5b5050604051601f1901519150506001600160a01b03811661226257505f92506001915082905061226b565b92505f91508190505b9450945094915050565b60605f612281836122b2565b6040805160208082528183019092529192505f91906020820181803683375050509182525060208101929092525090565b5f60ff8216601f8111156104ed57604051632cd44ac360e21b815260040160405180910390fd5b5f602082840312156122e9575f80fd5b5035919050565b634e487b7160e01b5f52602160045260245ffd5b6006811061232057634e487b7160e01b5f52602160045260245ffd5b9052565b6001600160a01b038b16815264ffffffffff8a166020820152610140810161234f604083018b612304565b60ff98909816606082015263ffffffff9690961660808701526001600160a01b039490941660a086015264ffffffffff92831660c0860152911660e0840152610100830152610120909101529392505050565b6001600160a01b0381168114610c38575f80fd5b5f8083601f8401126123c6575f80fd5b50813567ffffffffffffffff8111156123dd575f80fd5b6020830191508360208285010111156123f4575f80fd5b9250929050565b5f805f805f8060808789031215612410575f80fd5b863595506020870135612422816123a2565b9450604087013567ffffffffffffffff81111561243d575f80fd5b61244989828a016123b6565b909550935050606087013567ffffffffffffffff811115612468575f80fd5b61247489828a016123b6565b979a9699509497509295939492505050565b81516001600160a01b03168152610140810160208301516124b0602084018264ffffffffff169052565b5060408301516124c36040840182612304565b5060608301516124d8606084018260ff169052565b5060808301516124f0608084018263ffffffff169052565b5060a083015161250b60a08401826001600160a01b03169052565b5060c083015161252460c084018264ffffffffff169052565b5060e083015161253d60e084018264ffffffffff169052565b5061010083015161010083015261012083015161012083015292915050565b5f81518084528060208401602086015e5f602082860101526020601f19601f83011685010191505092915050565b60ff60f81b8816815260e060208201525f6125a860e083018961255c565b82810360408401526125ba818961255c565b606084018890526001600160a01b038716608085015260a0840186905283810360c0850152845180825260208087019350909101905f5b8181101561260f5783518352602093840193909201916001016125f1565b50909b9a5050505050505050505050565b5f805f805f805f6080888a031215612636575f80fd5b87359650602088013567ffffffffffffffff811115612653575f80fd5b61265f8a828b016123b6565b909750955050604088013567ffffffffffffffff81111561267e575f80fd5b61268a8a828b016123b6565b909550935050606088013567ffffffffffffffff8111156126a9575f80fd5b6126b58a828b016123b6565b989b979a50959850939692959293505050565b5f80604083850312156126d9575f80fd5b8235915060208301356126eb816123a2565b809150509250929050565b5f60a0828403128015612707575f80fd5b509092915050565b5f805f60608486031215612721575f80fd5b833561272c816123a2565b9250602084013561273c816123a2565b929592945050506040919091013590565b5f805f6040848603121561275f575f80fd5b83359250602084013567ffffffffffffffff81111561277c575f80fd5b612788868287016123b6565b9497909650939450505050565b5f602082840312156127a5575f80fd5b5051919050565b64ffffffffff81811683821601908111156104ed57634e487b7160e01b5f52601160045260245ffd5b5f602082840312156127e5575f80fd5b81356117af816123a2565b5f60208284031215612800575f80fd5b813560ff811681146117af575f80fd5b5f60208284031215612820575f80fd5b813563ffffffff811681146117af575f80fd5b8051825260018060a01b03602082015116602083015260018060a01b036040820151166040830152606081015160608301526080810151608083015260ff60a08201511660a08301525050565b60e0810161288e8285612833565b6001600160a01b039290921660c09190910152919050565b6128b08185612833565b60e060c08201528160e082015281836101008301375f81830161010090810191909152601f909201601f1916010192915050565b828152604060208201525f6128fc604083018461255c565b949350505050565b5f82518060208501845e5f920191825250919050565b600181811c9082168061292e57607f821691505b60208210810361294c57634e487b7160e01b5f52602260045260245ffd5b5091905056fea26469706673582212200a9eb6281dddca438179055afb80e4e299c88df978e088aab23efdaedf748d1f64736f6c634300081a0033","linkReferences":{}},"methodIdentifiers":{"MAX_TIMEOUT()":"de38eb3a","MIN_TIMEOUT()":"543ad1df","SETTLE_TYPEHASH()":"40202610","cancelDeal(uint256)":"31ea1a39","claimTimeout(uint256)":"86e773f1","createDeal((address,uint256,uint8,uint32,bytes32))":"cba1ad06","dealCount()":"eadb3c9c","deals(uint256)":"03988f84","disputeDeal(uint256)":"fc8edb52","eip712Domain()":"84b0196e","fundDeal(uint256)":"85d60ec6","getAccruedYield(uint256)":"24d09a8f","getDeal(uint256)":"82fd5bac","owner()":"8da5cb5b","pause()":"8456cb59","paused()":"5c975abb","rescueTokens(address,address,uint256)":"cea9d26f","settleDeal(uint256,bytes)":"ed31aaa7","settleDealSigned(uint256,bytes,bytes,bytes)":"8af86cc6","settleDealWithHook(uint256,address)":"986cc733","settleDealWithHookSigned(uint256,address,bytes,bytes)":"261db100","settlement()":"51160630","token()":"fc0c546a","unpause()":"3f4ba83a","yieldAdapter()":"43d0c32d"},"id":1}