{"abi":[{"type":"constructor","inputs":[{"name":"_token","type":"address","internalType":"address"},{"name":"_yieldAdapter","type":"address","internalType":"address"},{"name":"_settlement","type":"address","internalType":"address"}],"stateMutability":"nonpayable"},{"type":"function","name":"MAX_TIMEOUT","inputs":[],"outputs":[{"name":"","type":"uint256","internalType":"uint256"}],"stateMutability":"view"},{"type":"function","name":"MIN_TIMEOUT","inputs":[],"outputs":[{"name":"","type":"uint256","internalType":"uint256"}],"stateMutability":"view"},{"type":"function","name":"SETTLE_TYPEHASH","inputs":[],"outputs":[{"name":"","type":"bytes32","internalType":"bytes32"}],"stateMutability":"view"},{"type":"function","name":"cancelDeal","inputs":[{"name":"dealId","type":"uint256","internalType":"uint256"}],"outputs":[],"stateMutability":"nonpayable"},{"type":"function","name":"claimTimeout","inputs":[{"name":"dealId","type":"uint256","internalType":"uint256"}],"outputs":[],"stateMutability":"nonpayable"},{"type":"function","name":"createDeal","inputs":[{"name":"counterparty","type":"address","internalType":"address"},{"name":"amount","type":"uint256","internalType":"uint256"},{"name":"yieldSplitCounterparty","type":"uint8","internalType":"uint8"},{"name":"timeout","type":"uint256","internalType":"uint256"},{"name":"dealHash","type":"bytes32","internalType":"bytes32"}],"outputs":[{"name":"","type":"uint256","internalType":"uint256"}],"stateMutability":"nonpayable"},{"type":"function","name":"dealCount","inputs":[],"outputs":[{"name":"","type":"uint256","internalType":"uint256"}],"stateMutability":"view"},{"type":"function","name":"deals","inputs":[{"name":"","type":"uint256","internalType":"uint256"}],"outputs":[{"name":"id","type":"uint256","internalType":"uint256"},{"name":"depositor","type":"address","internalType":"address"},{"name":"counterparty","type":"address","internalType":"address"},{"name":"amount","type":"uint256","internalType":"uint256"},{"name":"yieldSplitCounterparty","type":"uint8","internalType":"uint8"},{"name":"status","type":"uint8","internalType":"enum RestlessEscrow.DealStatus"},{"name":"timeout","type":"uint256","internalType":"uint256"},{"name":"dealHash","type":"bytes32","internalType":"bytes32"},{"name":"createdAt","type":"uint256","internalType":"uint256"},{"name":"fundedAt","type":"uint256","internalType":"uint256"},{"name":"disputedAt","type":"uint256","internalType":"uint256"}],"stateMutability":"view"},{"type":"function","name":"disputeDeal","inputs":[{"name":"dealId","type":"uint256","internalType":"uint256"}],"outputs":[],"stateMutability":"nonpayable"},{"type":"function","name":"eip712Domain","inputs":[],"outputs":[{"name":"fields","type":"bytes1","internalType":"bytes1"},{"name":"name","type":"string","internalType":"string"},{"name":"version","type":"string","internalType":"string"},{"name":"chainId","type":"uint256","internalType":"uint256"},{"name":"verifyingContract","type":"address","internalType":"address"},{"name":"salt","type":"bytes32","internalType":"bytes32"},{"name":"extensions","type":"uint256[]","internalType":"uint256[]"}],"stateMutability":"view"},{"type":"function","name":"fundDeal","inputs":[{"name":"dealId","type":"uint256","internalType":"uint256"}],"outputs":[],"stateMutability":"nonpayable"},{"type":"function","name":"getAccruedYield","inputs":[{"name":"dealId","type":"uint256","internalType":"uint256"}],"outputs":[{"name":"","type":"uint256","internalType":"uint256"}],"stateMutability":"view"},{"type":"function","name":"getDeal","inputs":[{"name":"dealId","type":"uint256","internalType":"uint256"}],"outputs":[{"name":"","type":"tuple","internalType":"struct RestlessEscrow.Deal","components":[{"name":"id","type":"uint256","internalType":"uint256"},{"name":"depositor","type":"address","internalType":"address"},{"name":"counterparty","type":"address","internalType":"address"},{"name":"amount","type":"uint256","internalType":"uint256"},{"name":"yieldSplitCounterparty","type":"uint8","internalType":"uint8"},{"name":"status","type":"uint8","internalType":"enum RestlessEscrow.DealStatus"},{"name":"timeout","type":"uint256","internalType":"uint256"},{"name":"dealHash","type":"bytes32","internalType":"bytes32"},{"name":"createdAt","type":"uint256","internalType":"uint256"},{"name":"fundedAt","type":"uint256","internalType":"uint256"},{"name":"disputedAt","type":"uint256","internalType":"uint256"}]}],"stateMutability":"view"},{"type":"function","name":"owner","inputs":[],"outputs":[{"name":"","type":"address","internalType":"address"}],"stateMutability":"view"},{"type":"function","name":"pause","inputs":[],"outputs":[],"stateMutability":"nonpayable"},{"type":"function","name":"paused","inputs":[],"outputs":[{"name":"","type":"bool","internalType":"bool"}],"stateMutability":"view"},{"type":"function","name":"settleDeal","inputs":[{"name":"dealId","type":"uint256","internalType":"uint256"},{"name":"lifiData","type":"bytes","internalType":"bytes"}],"outputs":[],"stateMutability":"nonpayable"},{"type":"function","name":"settleDealSigned","inputs":[{"name":"dealId","type":"uint256","internalType":"uint256"},{"name":"lifiData","type":"bytes","internalType":"bytes"},{"name":"depositorSig","type":"bytes","internalType":"bytes"},{"name":"counterpartySig","type":"bytes","internalType":"bytes"}],"outputs":[],"stateMutability":"nonpayable"},{"type":"function","name":"settleDealWithHook","inputs":[{"name":"dealId","type":"uint256","internalType":"uint256"},{"name":"preferredToken","type":"address","internalType":"address"}],"outputs":[],"stateMutability":"nonpayable"},{"type":"function","name":"settleDealWithHookSigned","inputs":[{"name":"dealId","type":"uint256","internalType":"uint256"},{"name":"preferredToken","type":"address","internalType":"address"},{"name":"depositorSig","type":"bytes","internalType":"bytes"},{"name":"counterpartySig","type":"bytes","internalType":"bytes"}],"outputs":[],"stateMutability":"nonpayable"},{"type":"function","name":"settlement","inputs":[],"outputs":[{"name":"","type":"address","internalType":"contract ISettlement"}],"stateMutability":"view"},{"type":"function","name":"token","inputs":[],"outputs":[{"name":"","type":"address","internalType":"contract IERC20"}],"stateMutability":"view"},{"type":"function","name":"unpause","inputs":[],"outputs":[],"stateMutability":"nonpayable"},{"type":"function","name":"yieldAdapter","inputs":[],"outputs":[{"name":"","type":"address","internalType":"contract IYieldAdapter"}],"stateMutability":"view"},{"type":"event","name":"DealCancelled","inputs":[{"name":"dealId","type":"uint256","indexed":true,"internalType":"uint256"},{"name":"cancelledBy","type":"address","indexed":false,"internalType":"address"}],"anonymous":false},{"type":"event","name":"DealCreated","inputs":[{"name":"dealId","type":"uint256","indexed":true,"internalType":"uint256"},{"name":"depositor","type":"address","indexed":true,"internalType":"address"},{"name":"counterparty","type":"address","indexed":true,"internalType":"address"},{"name":"amount","type":"uint256","indexed":false,"internalType":"uint256"},{"name":"dealHash","type":"bytes32","indexed":false,"internalType":"bytes32"}],"anonymous":false},{"type":"event","name":"DealDisputed","inputs":[{"name":"dealId","type":"uint256","indexed":true,"internalType":"uint256"},{"name":"disputedBy","type":"address","indexed":false,"internalType":"address"}],"anonymous":false},{"type":"event","name":"DealFunded","inputs":[{"name":"dealId","type":"uint256","indexed":true,"internalType":"uint256"},{"name":"amount","type":"uint256","indexed":false,"internalType":"uint256"}],"anonymous":false},{"type":"event","name":"DealSettled","inputs":[{"name":"dealId","type":"uint256","indexed":true,"internalType":"uint256"},{"name":"totalPayout","type":"uint256","indexed":false,"internalType":"uint256"}],"anonymous":false},{"type":"event","name":"DealTimedOut","inputs":[{"name":"dealId","type":"uint256","indexed":true,"internalType":"uint256"},{"name":"refundAmount","type":"uint256","indexed":false,"internalType":"uint256"}],"anonymous":false},{"type":"event","name":"EIP712DomainChanged","inputs":[],"anonymous":false},{"type":"event","name":"Paused","inputs":[{"name":"account","type":"address","indexed":false,"internalType":"address"}],"anonymous":false},{"type":"event","name":"Unpaused","inputs":[{"name":"account","type":"address","indexed":false,"internalType":"address"}],"anonymous":false},{"type":"error","name":"ECDSAInvalidSignature","inputs":[]},{"type":"error","name":"ECDSAInvalidSignatureLength","inputs":[{"name":"length","type":"uint256","internalType":"uint256"}]},{"type":"error","name":"ECDSAInvalidSignatureS","inputs":[{"name":"s","type":"bytes32","internalType":"bytes32"}]},{"type":"error","name":"EnforcedPause","inputs":[]},{"type":"error","name":"ExpectedPause","inputs":[]},{"type":"error","name":"InvalidShortString","inputs":[]},{"type":"error","name":"ReentrancyGuardReentrantCall","inputs":[]},{"type":"error","name":"SafeERC20FailedOperation","inputs":[{"name":"token","type":"address","internalType":"address"}]},{"type":"error","name":"StringTooLong","inputs":[{"name":"str","type":"string","internalType":"string"}]}],"bytecode":{"object":"0x6101e0604052348015610010575f80fd5b50604051612fd9380380612fd983398101604081905261002f916102af565b604080518082018252600e81526d526573746c657373457363726f7760901b60208083019190915282518084019093526001808452603160f81b918401919091525f559061007e826002610225565b6101205261008d816003610225565b61014052815160208084019190912060e052815190820120610100524660a05261011960e05161010051604080517f8b73c3c69bb8fe3d512ecc4cf759cc79239f7b179b0ffacaa9a75d522b39400f60208201529081019290925260608201524660808201523060a08201525f9060c00160405160208183030381529060405280519060200120905090565b60805250503060c0526001600160a01b03831661016d5760405162461bcd60e51b815260206004820152600d60248201526c24b73b30b634b2103a37b5b2b760991b60448201526064015b60405180910390fd5b6001600160a01b0382166101b55760405162461bcd60e51b815260206004820152600f60248201526e24b73b30b634b21030b230b83a32b960891b6044820152606401610164565b6001600160a01b0381166102005760405162461bcd60e51b8152602060048201526012602482015271125b9d985b1a59081cd95d1d1b195b595b9d60721b6044820152606401610164565b6001600160a01b039283166101605290821661018052166101a052336101c052610499565b5f6020835110156102405761023983610257565b9050610251565b8161024b8482610387565b5060ff90505b92915050565b5f80829050601f81511115610281578260405163305a27a960e01b81526004016101649190610441565b805161028c82610476565b179392505050565b80516001600160a01b03811681146102aa575f80fd5b919050565b5f805f606084860312156102c1575f80fd5b6102ca84610294565b92506102d860208501610294565b91506102e660408501610294565b90509250925092565b634e487b7160e01b5f52604160045260245ffd5b600181811c9082168061031757607f821691505b60208210810361033557634e487b7160e01b5f52602260045260245ffd5b50919050565b601f82111561038257805f5260205f20601f840160051c810160208510156103605750805b601f840160051c820191505b8181101561037f575f815560010161036c565b50505b505050565b81516001600160401b038111156103a0576103a06102ef565b6103b4816103ae8454610303565b8461033b565b6020601f8211600181146103e6575f83156103cf5750848201515b5f19600385901b1c1916600184901b17845561037f565b5f84815260208120601f198516915b8281101561041557878501518255602094850194600190920191016103f5565b508482101561043257868401515f19600387901b60f8161c191681555b50505050600190811b01905550565b602081525f82518060208401528060208501604085015e5f604082850101526040601f19601f83011684010191505092915050565b80516020808301519190811015610335575f1960209190910360031b1b16919050565b60805160a05160c05160e05161010051610120516101405161016051610180516101a0516101c051612a506105895f395f81816103680152818161085501526109e901525f81816102a501528181611a1c01528181611b1801528181611e0a0152611ed001525f81816102660152818161042801528181610c2c01528181610cc501528181610f06015281816119810152611d6f01525f81816103db01528181610bb901528181610bff01528181610f8601528181611a4e0152611e3c01525f611c7801525f611c4601525f61206301525f61203b01525f611f9601525f611fc001525f611fea0152612a505ff3fe608060405234801561000f575f80fd5b5060043610610153575f3560e01c806384b0196e116100bf578063986cc73311610079578063986cc7331461039d578063de38eb3a146103b0578063eadb3c9c146103ba578063ed31aaa7146103c3578063fc0c546a146103d6578063fc8edb52146103fd575f80fd5b806384b0196e1461030f57806385d60ec61461032a57806386e773f11461033d5780638af86cc6146103505780638da5cb5b14610363578063908257d21461038a575f80fd5b806343d0c32d1161011057806343d0c32d1461026157806351160630146102a0578063543ad1df146102c75780635c975abb146102d157806382fd5bac146102e75780638456cb5914610307575f80fd5b806303988f841461015757806324d09a8f146101e9578063261db1001461020a57806331ea1a391461021f5780633f4ba83a14610232578063402026101461023a575b5f80fd5b6101c9610165366004612418565b600560208190525f9182526040909120805460018201546002830154600384015460048501549585015460068601546007870154600888015460099098015496986001600160a01b03968716989690951696939560ff80871696610100900416948b565b6040516101e09b9a99989796959493929190612463565b60405180910390f35b6101fc6101f7366004612418565b610410565b6040519081526020016101e0565b61021d61021836600461252f565b61049f565b005b61021d61022d366004612418565b6106ee565b61021d61084a565b6101fc7f8d8f31cfb9ffd5889c6ed96d202c87db8bcc23d294215a69365134c478140a6381565b6102887f000000000000000000000000000000000000000000000000000000000000000081565b6040516001600160a01b0390911681526020016101e0565b6102887f000000000000000000000000000000000000000000000000000000000000000081565b6101fc6201518081565b60015460ff1660405190151581526020016101e0565b6102fa6102f5366004612418565b6108b9565b6040516101e091906125b8565b61021d6109de565b610317610a4b565b6040516101e09796959493929190612696565b61021d610338366004612418565b610a8d565b61021d61034b366004612418565b610d7b565b61021d61035e36600461272c565b610ff4565b6102887f000000000000000000000000000000000000000000000000000000000000000081565b6101fc6103983660046127d4565b61123c565b61021d6103ab366004612825565b61156f565b6101fc62278d0081565b6101fc60045481565b61021d6103d136600461284f565b611676565b6102887f000000000000000000000000000000000000000000000000000000000000000081565b61021d61040b366004612418565b61177f565b6040516324d09a8f60e01b8152600481018290525f907f00000000000000000000000000000000000000000000000000000000000000006001600160a01b0316906324d09a8f90602401602060405180830381865afa158015610475573d5f803e3d5ffd5b505050506040513d601f19601f820116820180604052508101906104999190612897565b92915050565b6104a76118ae565b6104af6118d6565b5f86815260056020526040812080549091036104e65760405162461bcd60e51b81526004016104dd906128ae565b60405180910390fd5b60016004820154610100900460ff1660058111156105065761050661242f565b146105235760405162461bcd60e51b81526004016104dd906128db565b6006810154604080517f8d8f31cfb9ffd5889c6ed96d202c87db8bcc23d294215a69365134c478140a63602082015290810189905260608101919091525f906080016040516020818303038152906040528051906020012090505f610587826118fa565b90505f6105c98289898080601f0160208091040260200160405190810160405280939291908181526020018383808284375f9201919091525061192692505050565b60018501549091506001600160a01b0380831691161461062b5760405162461bcd60e51b815260206004820152601b60248201527f496e76616c6964206465706f7369746f72207369676e6174757265000000000060448201526064016104dd565b5f61066b8388888080601f0160208091040260200160405190810160405280939291908181526020018383808284375f9201919091525061192692505050565b60028601549091506001600160a01b038083169116146106cd5760405162461bcd60e51b815260206004820152601e60248201527f496e76616c696420636f756e7465727061727479207369676e6174757265000060448201526064016104dd565b6106d8858c8c61194e565b50505050506106e660015f55565b505050505050565b6106f66118d6565b5f81815260056020526040812080549091036107245760405162461bcd60e51b81526004016104dd906128ae565b5f6004820154610100900460ff1660058111156107435761074361242f565b1461078c5760405162461bcd60e51b81526020600482015260196024820152784465616c206e6f7420696e204372656174656420737461746560381b60448201526064016104dd565b60018101546001600160a01b03163314806107b3575060028101546001600160a01b031633145b6107ff5760405162461bcd60e51b815260206004820152601c60248201527f4f6e6c79206465616c20706172746965732063616e2063616e63656c0000000060448201526064016104dd565b60048101805461ff00191661050017905560405133815282907fd90dde64ecb6d2913dcde645d1dcb52ab5ec048975d5539088dc4ae68e8ee4fd906020015b60405180910390a25050565b336001600160a01b037f000000000000000000000000000000000000000000000000000000000000000016146108af5760405162461bcd60e51b815260206004820152600a60248201526927b7363c9037bbb732b960b11b60448201526064016104dd565b6108b7611bb2565b565b61091360408051610160810182525f8082526020820181905291810182905260608101829052608081018290529060a082019081526020015f81526020015f80191681526020015f81526020015f81526020015f81525090565b5f828152600560208181526040928390208351610160810185528154815260018201546001600160a01b039081169382019390935260028201549092169382019390935260038301546060820152600483015460ff808216608084015291939260a0850192610100909204909116908111156109915761099161242f565b60058111156109a2576109a261242f565b81526005820154602082015260068201546040820152600782015460608201526008820154608082015260099091015460a09091015292915050565b336001600160a01b037f00000000000000000000000000000000000000000000000000000000000000001614610a435760405162461bcd60e51b815260206004820152600a60248201526927b7363c9037bbb732b960b11b60448201526064016104dd565b6108b7611c04565b5f6060805f805f6060610a5c611c3f565b610a64611c71565b604080515f80825260208201909252600f60f81b9b939a50919850469750309650945092509050565b610a956118ae565b610a9d6118d6565b5f8181526005602052604081208054909103610acb5760405162461bcd60e51b81526004016104dd906128ae565b5f6004820154610100900460ff166005811115610aea57610aea61242f565b14610b335760405162461bcd60e51b81526020600482015260196024820152784465616c206e6f7420696e204372656174656420737461746560381b60448201526064016104dd565b60018101546001600160a01b03163314610b8f5760405162461bcd60e51b815260206004820152601760248201527f4f6e6c79206465706f7369746f722063616e2066756e6400000000000000000060448201526064016104dd565b60048101805461ff0019166101001790554260088201556003810154610be3906001600160a01b037f0000000000000000000000000000000000000000000000000000000000000000169033903090611c9e565b600381015460405163095ea7b360e01b81526001600160a01b037f0000000000000000000000000000000000000000000000000000000000000000169163095ea7b391610c68917f0000000000000000000000000000000000000000000000000000000000000000916004016001600160a01b03929092168252602082015260400190565b6020604051808303815f875af1158015610c84573d5f803e3d5ffd5b505050506040513d601f19601f82011682018060405250810190610ca89190612912565b506003810154604051631c57762b60e31b81526001600160a01b037f0000000000000000000000000000000000000000000000000000000000000000169163e2bbb15891610d03918691600401918252602082015260400190565b5f604051808303815f87803b158015610d1a575f80fd5b505af1158015610d2c573d5f803e3d5ffd5b50505050817fc9dd6762e6024e1ec4c28eac8d4c8cc95bce152afd26092bcbf3a184e18b7c138260030154604051610d6691815260200190565b60405180910390a250610d7860015f55565b50565b610d836118ae565b5f8181526005602052604081208054909103610db15760405162461bcd60e51b81526004016104dd906128ae565b60036004820154610100900460ff166005811115610dd157610dd161242f565b14610e1e5760405162461bcd60e51b815260206004820152601a60248201527f4465616c206e6f7420696e20446973707574656420737461746500000000000060448201526064016104dd565b60018101546001600160a01b03163314610e7a5760405162461bcd60e51b815260206004820181905260248201527f4f6e6c79206465706f7369746f722063616e20636c61696d2074696d656f757460448201526064016104dd565b80600501548160090154610e8e919061294c565b421015610ed35760405162461bcd60e51b8152602060048201526013602482015272151a5b595bdd5d081b9bdd08195b185c1cd959606a1b60448201526064016104dd565b6004818101805461040061ff0019909116179055604051632e1a7d4d60e01b81529081018390525f906001600160a01b037f00000000000000000000000000000000000000000000000000000000000000001690632e1a7d4d906024016020604051808303815f875af1158015610f4c573d5f803e3d5ffd5b505050506040513d601f19601f82011682018060405250810190610f709190612897565b6001830154909150610faf906001600160a01b037f00000000000000000000000000000000000000000000000000000000000000008116911683611d0b565b827fc6bacab32ae179ec989208384fe707bf74824c0a20b2ade51e9b96eada58e3cd82604051610fe191815260200190565b60405180910390a25050610d7860015f55565b610ffc6118ae565b6110046118d6565b5f87815260056020526040812080549091036110325760405162461bcd60e51b81526004016104dd906128ae565b60016004820154610100900460ff1660058111156110525761105261242f565b1461106f5760405162461bcd60e51b81526004016104dd906128db565b6006810154604080517f8d8f31cfb9ffd5889c6ed96d202c87db8bcc23d294215a69365134c478140a6360208201529081018a905260608101919091525f906080016040516020818303038152906040528051906020012090505f6110d3826118fa565b90505f6111158289898080601f0160208091040260200160405190810160405280939291908181526020018383808284375f9201919091525061192692505050565b60018501549091506001600160a01b038083169116146111775760405162461bcd60e51b815260206004820152601b60248201527f496e76616c6964206465706f7369746f72207369676e6174757265000000000060448201526064016104dd565b5f6111b78388888080601f0160208091040260200160405190810160405280939291908181526020018383808284375f9201919091525061192692505050565b60028601549091506001600160a01b038083169116146112195760405162461bcd60e51b815260206004820152601e60248201527f496e76616c696420636f756e7465727061727479207369676e6174757265000060448201526064016104dd565b611225858d8d8d611d3c565b505050505061123360015f55565b50505050505050565b5f6112456118d6565b6001600160a01b0386166112925760405162461bcd60e51b8152602060048201526014602482015273496e76616c696420636f756e746572706172747960601b60448201526064016104dd565b336001600160a01b038716036112ea5760405162461bcd60e51b815260206004820152601760248201527f43616e6e6f7420657363726f7720776974682073656c6600000000000000000060448201526064016104dd565b5f851161132e5760405162461bcd60e51b81526020600482015260126024820152710416d6f756e74206d757374206265203e20360741b60448201526064016104dd565b60648460ff1611156113785760405162461bcd60e51b8152602060048201526013602482015272125b9d985b1a59081e5a595b19081cdc1b1a5d606a1b60448201526064016104dd565b62015180831015801561138e575062278d008311155b6113cc5760405162461bcd60e51b815260206004820152600f60248201526e125b9d985b1a59081d1a5b595bdd5d608a1b60448201526064016104dd565b60048054905f6113db8361295f565b9091555050604080516101608101825260045481523360208201526001600160a01b038816918101919091526060810186905260ff8516608082015260a081015f815260208082018690526040808301869052426060808501919091525f608080860182905260a095860182905260048054835260058087529285902088518155958801516001870180546001600160a01b03199081166001600160a01b03938416179091559589015160028801805490971691161790945591860151600385015590850151918301805460ff19811660ff9094169384178255948601519394909261ffff1990911617906101009084908111156114db576114db61242f565b021790555060c0820151600582015560e08201516006820155610100820151600782015561012082015160088201556101409091015160099091015560045460408051878152602081018590526001600160a01b03891692339290917f976d89051a12210eb6d076155366c3b7e0f0f1ef6c2c269559482cf0f275a5db910160405180910390a45060045495945050505050565b6115776118ae565b61157f6118d6565b5f82815260056020526040812080549091036115ad5760405162461bcd60e51b81526004016104dd906128ae565b60016004820154610100900460ff1660058111156115cd576115cd61242f565b146115ea5760405162461bcd60e51b81526004016104dd906128db565b60018101546001600160a01b0316331480611611575060028101546001600160a01b031633145b61165d5760405162461bcd60e51b815260206004820152601c60248201527f4f6e6c79206465616c20706172746965732063616e20736574746c650000000060448201526064016104dd565b61166881848461194e565b5061167260015f55565b5050565b61167e6118ae565b6116866118d6565b5f83815260056020526040812080549091036116b45760405162461bcd60e51b81526004016104dd906128ae565b60016004820154610100900460ff1660058111156116d4576116d461242f565b146116f15760405162461bcd60e51b81526004016104dd906128db565b60018101546001600160a01b0316331480611718575060028101546001600160a01b031633145b6117645760405162461bcd60e51b815260206004820152601c60248201527f4f6e6c79206465616c20706172746965732063616e20736574746c650000000060448201526064016104dd565b61177081858585611d3c565b5061177a60015f55565b505050565b6117876118d6565b5f81815260056020526040812080549091036117b55760405162461bcd60e51b81526004016104dd906128ae565b60016004820154610100900460ff1660058111156117d5576117d561242f565b146117f25760405162461bcd60e51b81526004016104dd906128db565b60018101546001600160a01b0316331480611819575060028101546001600160a01b031633145b6118655760405162461bcd60e51b815260206004820152601d60248201527f4f6e6c79206465616c20706172746965732063616e206469737075746500000060448201526064016104dd565b60048101805461ff00191661030017905542600982015560405133815282907fa68d56a81a9be734bdfa17f0fb210239cdc6cac8f3bcb9d5c09841fcab4b1d8a9060200161083e565b60025f54036118d057604051633ee5aeb560e01b815260040160405180910390fd5b60025f55565b60015460ff16156108b75760405163d93c066560e01b815260040160405180910390fd5b5f610499611906611f8a565b8360405161190160f01b8152600281019290925260228201526042902090565b5f805f8061193486866120b3565b92509250925061194482826120fc565b5090949350505050565b6004838101805461020061ff0019909116179055604051632e1a7d4d60e01b81529081018390525f906001600160a01b037f00000000000000000000000000000000000000000000000000000000000000001690632e1a7d4d906024016020604051808303815f875af11580156119c7573d5f803e3d5ffd5b505050506040513d601f19601f820116820180604052508101906119eb9190612897565b90505f84600301548210611a03578460030154611a05565b815b60405163095ea7b360e01b81526001600160a01b037f000000000000000000000000000000000000000000000000000000000000000081166004830152602482018590529192507f00000000000000000000000000000000000000000000000000000000000000009091169063095ea7b3906044016020604051808303815f875af1158015611a96573d5f803e3d5ffd5b505050506040513d601f19601f82011682018060405250810190611aba9190612912565b50600185015460028601546004808801546040516316ae68e360e21b81529182018890526001600160a01b0393841660248301529183166044820152606481018490526084810185905260ff90911660a482015284821660c48201527f000000000000000000000000000000000000000000000000000000000000000090911690635ab9a38c9060e4015f604051808303815f87803b158015611b5b575f80fd5b505af1158015611b6d573d5f803e3d5ffd5b50505050837f928d6152ac2a52f4a65094c6b49004af42ed6f4203d75ee883b97f53fbd6b8f283604051611ba391815260200190565b60405180910390a25050505050565b611bba6121b4565b6001805460ff191690557f5db9ee0a495bf2e6ff9c91a7834c1ba4fdd244a5e8aa4e537bd38aeae4b073aa335b6040516001600160a01b03909116815260200160405180910390a1565b611c0c6118d6565b6001805460ff1916811790557f62e78cea01bee320cd4e420270b5ea74000d11b0c9f74754ebdbfc544b05a25833611be7565b6060611c6c7f000000000000000000000000000000000000000000000000000000000000000060026121d7565b905090565b6060611c6c7f000000000000000000000000000000000000000000000000000000000000000060036121d7565b6040516001600160a01b038481166024830152838116604483015260648201839052611d059186918216906323b872dd906084015b604051602081830303815290604052915060e01b6020820180516001600160e01b038381831617835250505050612280565b50505050565b6040516001600160a01b0383811660248301526044820183905261177a91859182169063a9059cbb90606401611cd3565b6004848101805461020061ff0019909116179055604051632e1a7d4d60e01b81529081018490525f906001600160a01b037f00000000000000000000000000000000000000000000000000000000000000001690632e1a7d4d906024016020604051808303815f875af1158015611db5573d5f803e3d5ffd5b505050506040513d601f19601f82011682018060405250810190611dd99190612897565b90505f85600301548210611df1578560030154611df3565b815b60405163095ea7b360e01b81526001600160a01b037f000000000000000000000000000000000000000000000000000000000000000081166004830152602482018590529192507f00000000000000000000000000000000000000000000000000000000000000009091169063095ea7b3906044016020604051808303815f875af1158015611e84573d5f803e3d5ffd5b505050506040513d601f19601f82011682018060405250810190611ea89190612912565b50600186015460028701546004808901546040516359886ce360e11b81526001600160a01b037f000000000000000000000000000000000000000000000000000000000000000081169563b310d9c695611f1b958d9592841694919093169289928b9260ff909116918e918e9101612977565b5f604051808303815f87803b158015611f32575f80fd5b505af1158015611f44573d5f803e3d5ffd5b50505050847f928d6152ac2a52f4a65094c6b49004af42ed6f4203d75ee883b97f53fbd6b8f283604051611f7a91815260200190565b60405180910390a2505050505050565b5f306001600160a01b037f000000000000000000000000000000000000000000000000000000000000000016148015611fe257507f000000000000000000000000000000000000000000000000000000000000000046145b1561200c57507f000000000000000000000000000000000000000000000000000000000000000090565b611c6c604080517f8b73c3c69bb8fe3d512ecc4cf759cc79239f7b179b0ffacaa9a75d522b39400f60208201527f0000000000000000000000000000000000000000000000000000000000000000918101919091527f000000000000000000000000000000000000000000000000000000000000000060608201524660808201523060a08201525f9060c00160405160208183030381529060405280519060200120905090565b5f805f83516041036120ea576020840151604085015160608601515f1a6120dc888285856122ec565b9550955095505050506120f5565b505081515f91506002905b9250925092565b5f82600381111561210f5761210f61242f565b03612118575050565b600182600381111561212c5761212c61242f565b0361214a5760405163f645eedf60e01b815260040160405180910390fd5b600282600381111561215e5761215e61242f565b0361217f5760405163fce698f760e01b8152600481018290526024016104dd565b60038260038111156121935761219361242f565b03611672576040516335e2f38360e21b8152600481018290526024016104dd565b60015460ff166108b757604051638dfc202b60e01b815260040160405180910390fd5b606060ff83146121f1576121ea836123b4565b9050610499565b8180546121fd906129e2565b80601f0160208091040260200160405190810160405280929190818152602001828054612229906129e2565b80156122745780601f1061224b57610100808354040283529160200191612274565b820191905f5260205f20905b81548152906001019060200180831161225757829003601f168201915b50505050509050610499565b5f8060205f8451602086015f885af18061229f576040513d5f823e3d81fd5b50505f513d915081156122b65780600114156122c3565b6001600160a01b0384163b155b15611d0557604051635274afe760e01b81526001600160a01b03851660048201526024016104dd565b5f80807f7fffffffffffffffffffffffffffffff5d576e7357a4501ddfe92f46681b20a084111561232557505f915060039050826123aa565b604080515f808252602082018084528a905260ff891692820192909252606081018790526080810186905260019060a0016020604051602081039080840390855afa158015612376573d5f803e3d5ffd5b5050604051601f1901519150506001600160a01b0381166123a157505f9250600191508290506123aa565b92505f91508190505b9450945094915050565b60605f6123c0836123f1565b6040805160208082528183019092529192505f91906020820181803683375050509182525060208101929092525090565b5f60ff8216601f81111561049957604051632cd44ac360e21b815260040160405180910390fd5b5f60208284031215612428575f80fd5b5035919050565b634e487b7160e01b5f52602160045260245ffd5b6006811061245f57634e487b7160e01b5f52602160045260245ffd5b9052565b8b81526001600160a01b038b811660208301528a1660408201526060810189905260ff88166080820152610160810161249f60a0830189612443565b60c082019690965260e0810194909452610100840192909252610120830152610140909101529695505050505050565b80356001600160a01b03811681146124e5575f80fd5b919050565b5f8083601f8401126124fa575f80fd5b50813567ffffffffffffffff811115612511575f80fd5b602083019150836020828501011115612528575f80fd5b9250929050565b5f805f805f8060808789031215612544575f80fd5b86359550612554602088016124cf565b9450604087013567ffffffffffffffff81111561256f575f80fd5b61257b89828a016124ea565b909550935050606087013567ffffffffffffffff81111561259a575f80fd5b6125a689828a016124ea565b979a9699509497509295939492505050565b815181526020808301516101608301916125dc908401826001600160a01b03169052565b5060408301516125f760408401826001600160a01b03169052565b50606083015160608301526080830151612616608084018260ff169052565b5060a083015161262960a0840182612443565b5060c083015160c083015260e083015160e083015261010083015161010083015261012083015161012083015261014083015161014083015292915050565b5f81518084528060208401602086015e5f602082860101526020601f19601f83011685010191505092915050565b60ff60f81b8816815260e060208201525f6126b460e0830189612668565b82810360408401526126c68189612668565b606084018890526001600160a01b038716608085015260a0840186905283810360c0850152845180825260208087019350909101905f5b8181101561271b5783518352602093840193909201916001016126fd565b50909b9a5050505050505050505050565b5f805f805f805f6080888a031215612742575f80fd5b87359650602088013567ffffffffffffffff81111561275f575f80fd5b61276b8a828b016124ea565b909750955050604088013567ffffffffffffffff81111561278a575f80fd5b6127968a828b016124ea565b909550935050606088013567ffffffffffffffff8111156127b5575f80fd5b6127c18a828b016124ea565b989b979a50959850939692959293505050565b5f805f805f60a086880312156127e8575f80fd5b6127f1866124cf565b945060208601359350604086013560ff8116811461280d575f80fd5b94979396509394606081013594506080013592915050565b5f8060408385031215612836575f80fd5b82359150612846602084016124cf565b90509250929050565b5f805f60408486031215612861575f80fd5b83359250602084013567ffffffffffffffff81111561287e575f80fd5b61288a868287016124ea565b9497909650939450505050565b5f602082840312156128a7575f80fd5b5051919050565b6020808252601390820152721119585b08191bd95cc81b9bdd08195e1a5cdd606a1b604082015260600190565b60208082526018908201527f4465616c206e6f7420696e2046756e6465642073746174650000000000000000604082015260600190565b5f60208284031215612922575f80fd5b81518015158114612931575f80fd5b9392505050565b634e487b7160e01b5f52601160045260245ffd5b8082018082111561049957610499612938565b5f6001820161297057612970612938565b5060010190565b8881526001600160a01b03888116602083015287166040820152606081018690526080810185905260ff841660a082015260e060c08201819052810182905281836101008301375f81830161010090810191909152601f909201601f19160101979650505050505050565b600181811c908216806129f657607f821691505b602082108103612a1457634e487b7160e01b5f52602260045260245ffd5b5091905056fea264697066735822122031ee474c8885a7ad3ec3db38f3067f00068c508440ef667cece58554dfabe24064736f6c634300081a0033","linkReferences":{}},"methodIdentifiers":{"MAX_TIMEOUT()":"de38eb3a","MIN_TIMEOUT()":"543ad1df","SETTLE_TYPEHASH()":"40202610","cancelDeal(uint256)":"31ea1a39","claimTimeout(uint256)":"86e773f1","createDeal(address,uint256,uint8,uint256,bytes32)":"908257d2","dealCount()":"eadb3c9c","deals(uint256)":"03988f84","disputeDeal(uint256)":"fc8edb52","eip712Domain()":"84b0196e","fundDeal(uint256)":"85d60ec6","getAccruedYield(uint256)":"24d09a8f","getDeal(uint256)":"82fd5bac","owner()":"8da5cb5b","pause()":"8456cb59","paused()":"5c975abb","settleDeal(uint256,bytes)":"ed31aaa7","settleDealSigned(uint256,bytes,bytes,bytes)":"8af86cc6","settleDealWithHook(uint256,address)":"986cc733","settleDealWithHookSigned(uint256,address,bytes,bytes)":"261db100","settlement()":"51160630","token()":"fc0c546a","unpause()":"3f4ba83a","yieldAdapter()":"43d0c32d"},"id":0}