{"abi":[{"type":"constructor","inputs":[{"name":"_token","type":"address","internalType":"address"},{"name":"_yieldAdapter","type":"address","internalType":"address"},{"name":"_settlement","type":"address","internalType":"address"}],"stateMutability":"nonpayable"},{"type":"function","name":"MAX_TIMEOUT","inputs":[],"outputs":[{"name":"","type":"uint256","internalType":"uint256"}],"stateMutability":"view"},{"type":"function","name":"MIN_TIMEOUT","inputs":[],"outputs":[{"name":"","type":"uint256","internalType":"uint256"}],"stateMutability":"view"},{"type":"function","name":"SETTLE_TYPEHASH","inputs":[],"outputs":[{"name":"","type":"bytes32","internalType":"bytes32"}],"stateMutability":"view"},{"type":"function","name":"cancelDeal","inputs":[{"name":"dealId","type":"uint256","internalType":"uint256"}],"outputs":[],"stateMutability":"nonpayable"},{"type":"function","name":"claimTimeout","inputs":[{"name":"dealId","type":"uint256","internalType":"uint256"}],"outputs":[],"stateMutability":"nonpayable"},{"type":"function","name":"createDeal","inputs":[{"name":"params","type":"tuple","internalType":"struct RestlessEscrow.CreateDealParams","components":[{"name":"counterparty","type":"address","internalType":"address"},{"name":"amount","type":"uint256","internalType":"uint256"},{"name":"yieldSplitCounterparty","type":"uint8","internalType":"uint8"},{"name":"timeout","type":"uint256","internalType":"uint256"},{"name":"dealHash","type":"bytes32","internalType":"bytes32"}]}],"outputs":[{"name":"","type":"uint256","internalType":"uint256"}],"stateMutability":"nonpayable"},{"type":"function","name":"dealCount","inputs":[],"outputs":[{"name":"","type":"uint256","internalType":"uint256"}],"stateMutability":"view"},{"type":"function","name":"deals","inputs":[{"name":"","type":"uint256","internalType":"uint256"}],"outputs":[{"name":"id","type":"uint256","internalType":"uint256"},{"name":"depositor","type":"address","internalType":"address"},{"name":"counterparty","type":"address","internalType":"address"},{"name":"amount","type":"uint256","internalType":"uint256"},{"name":"yieldSplitCounterparty","type":"uint8","internalType":"uint8"},{"name":"status","type":"uint8","internalType":"enum RestlessEscrow.DealStatus"},{"name":"timeout","type":"uint256","internalType":"uint256"},{"name":"dealHash","type":"bytes32","internalType":"bytes32"},{"name":"createdAt","type":"uint256","internalType":"uint256"},{"name":"fundedAt","type":"uint256","internalType":"uint256"},{"name":"disputedAt","type":"uint256","internalType":"uint256"}],"stateMutability":"view"},{"type":"function","name":"disputeDeal","inputs":[{"name":"dealId","type":"uint256","internalType":"uint256"}],"outputs":[],"stateMutability":"nonpayable"},{"type":"function","name":"eip712Domain","inputs":[],"outputs":[{"name":"fields","type":"bytes1","internalType":"bytes1"},{"name":"name","type":"string","internalType":"string"},{"name":"version","type":"string","internalType":"string"},{"name":"chainId","type":"uint256","internalType":"uint256"},{"name":"verifyingContract","type":"address","internalType":"address"},{"name":"salt","type":"bytes32","internalType":"bytes32"},{"name":"extensions","type":"uint256[]","internalType":"uint256[]"}],"stateMutability":"view"},{"type":"function","name":"fundDeal","inputs":[{"name":"dealId","type":"uint256","internalType":"uint256"}],"outputs":[],"stateMutability":"nonpayable"},{"type":"function","name":"getAccruedYield","inputs":[{"name":"dealId","type":"uint256","internalType":"uint256"}],"outputs":[{"name":"","type":"uint256","internalType":"uint256"}],"stateMutability":"view"},{"type":"function","name":"getDeal","inputs":[{"name":"dealId","type":"uint256","internalType":"uint256"}],"outputs":[{"name":"","type":"tuple","internalType":"struct RestlessEscrow.Deal","components":[{"name":"id","type":"uint256","internalType":"uint256"},{"name":"depositor","type":"address","internalType":"address"},{"name":"counterparty","type":"address","internalType":"address"},{"name":"amount","type":"uint256","internalType":"uint256"},{"name":"yieldSplitCounterparty","type":"uint8","internalType":"uint8"},{"name":"status","type":"uint8","internalType":"enum RestlessEscrow.DealStatus"},{"name":"timeout","type":"uint256","internalType":"uint256"},{"name":"dealHash","type":"bytes32","internalType":"bytes32"},{"name":"createdAt","type":"uint256","internalType":"uint256"},{"name":"fundedAt","type":"uint256","internalType":"uint256"},{"name":"disputedAt","type":"uint256","internalType":"uint256"}]}],"stateMutability":"view"},{"type":"function","name":"owner","inputs":[],"outputs":[{"name":"","type":"address","internalType":"address"}],"stateMutability":"view"},{"type":"function","name":"pause","inputs":[],"outputs":[],"stateMutability":"nonpayable"},{"type":"function","name":"paused","inputs":[],"outputs":[{"name":"","type":"bool","internalType":"bool"}],"stateMutability":"view"},{"type":"function","name":"settleDeal","inputs":[{"name":"dealId","type":"uint256","internalType":"uint256"},{"name":"lifiData","type":"bytes","internalType":"bytes"}],"outputs":[],"stateMutability":"nonpayable"},{"type":"function","name":"settleDealSigned","inputs":[{"name":"dealId","type":"uint256","internalType":"uint256"},{"name":"lifiData","type":"bytes","internalType":"bytes"},{"name":"depositorSig","type":"bytes","internalType":"bytes"},{"name":"counterpartySig","type":"bytes","internalType":"bytes"}],"outputs":[],"stateMutability":"nonpayable"},{"type":"function","name":"settleDealWithHook","inputs":[{"name":"dealId","type":"uint256","internalType":"uint256"},{"name":"preferredToken","type":"address","internalType":"address"}],"outputs":[],"stateMutability":"nonpayable"},{"type":"function","name":"settleDealWithHookSigned","inputs":[{"name":"dealId","type":"uint256","internalType":"uint256"},{"name":"preferredToken","type":"address","internalType":"address"},{"name":"depositorSig","type":"bytes","internalType":"bytes"},{"name":"counterpartySig","type":"bytes","internalType":"bytes"}],"outputs":[],"stateMutability":"nonpayable"},{"type":"function","name":"settlement","inputs":[],"outputs":[{"name":"","type":"address","internalType":"contract ISettlement"}],"stateMutability":"view"},{"type":"function","name":"token","inputs":[],"outputs":[{"name":"","type":"address","internalType":"contract IERC20"}],"stateMutability":"view"},{"type":"function","name":"unpause","inputs":[],"outputs":[],"stateMutability":"nonpayable"},{"type":"function","name":"yieldAdapter","inputs":[],"outputs":[{"name":"","type":"address","internalType":"contract IYieldAdapter"}],"stateMutability":"view"},{"type":"event","name":"DealCancelled","inputs":[{"name":"dealId","type":"uint256","indexed":true,"internalType":"uint256"},{"name":"cancelledBy","type":"address","indexed":false,"internalType":"address"}],"anonymous":false},{"type":"event","name":"DealCreated","inputs":[{"name":"dealId","type":"uint256","indexed":true,"internalType":"uint256"},{"name":"depositor","type":"address","indexed":true,"internalType":"address"},{"name":"counterparty","type":"address","indexed":true,"internalType":"address"},{"name":"amount","type":"uint256","indexed":false,"internalType":"uint256"},{"name":"dealHash","type":"bytes32","indexed":false,"internalType":"bytes32"}],"anonymous":false},{"type":"event","name":"DealDisputed","inputs":[{"name":"dealId","type":"uint256","indexed":true,"internalType":"uint256"},{"name":"disputedBy","type":"address","indexed":false,"internalType":"address"}],"anonymous":false},{"type":"event","name":"DealFunded","inputs":[{"name":"dealId","type":"uint256","indexed":true,"internalType":"uint256"},{"name":"amount","type":"uint256","indexed":false,"internalType":"uint256"}],"anonymous":false},{"type":"event","name":"DealSettled","inputs":[{"name":"dealId","type":"uint256","indexed":true,"internalType":"uint256"},{"name":"totalPayout","type":"uint256","indexed":false,"internalType":"uint256"}],"anonymous":false},{"type":"event","name":"DealTimedOut","inputs":[{"name":"dealId","type":"uint256","indexed":true,"internalType":"uint256"},{"name":"refundAmount","type":"uint256","indexed":false,"internalType":"uint256"}],"anonymous":false},{"type":"event","name":"EIP712DomainChanged","inputs":[],"anonymous":false},{"type":"event","name":"Paused","inputs":[{"name":"account","type":"address","indexed":false,"internalType":"address"}],"anonymous":false},{"type":"event","name":"Unpaused","inputs":[{"name":"account","type":"address","indexed":false,"internalType":"address"}],"anonymous":false},{"type":"error","name":"ECDSAInvalidSignature","inputs":[]},{"type":"error","name":"ECDSAInvalidSignatureLength","inputs":[{"name":"length","type":"uint256","internalType":"uint256"}]},{"type":"error","name":"ECDSAInvalidSignatureS","inputs":[{"name":"s","type":"bytes32","internalType":"bytes32"}]},{"type":"error","name":"EnforcedPause","inputs":[]},{"type":"error","name":"ExpectedPause","inputs":[]},{"type":"error","name":"InvalidShortString","inputs":[]},{"type":"error","name":"ReentrancyGuardReentrantCall","inputs":[]},{"type":"error","name":"SafeERC20FailedOperation","inputs":[{"name":"token","type":"address","internalType":"address"}]},{"type":"error","name":"StringTooLong","inputs":[{"name":"str","type":"string","internalType":"string"}]}],"bytecode":{"object":"0x6101e0604052348015610010575f80fd5b506040516130c83803806130c883398101604081905261002f916102af565b604080518082018252600e81526d526573746c657373457363726f7760901b60208083019190915282518084019093526001808452603160f81b918401919091525f559061007e826002610225565b6101205261008d816003610225565b61014052815160208084019190912060e052815190820120610100524660a05261011960e05161010051604080517f8b73c3c69bb8fe3d512ecc4cf759cc79239f7b179b0ffacaa9a75d522b39400f60208201529081019290925260608201524660808201523060a08201525f9060c00160405160208183030381529060405280519060200120905090565b60805250503060c0526001600160a01b03831661016d5760405162461bcd60e51b815260206004820152600d60248201526c24b73b30b634b2103a37b5b2b760991b60448201526064015b60405180910390fd5b6001600160a01b0382166101b55760405162461bcd60e51b815260206004820152600f60248201526e24b73b30b634b21030b230b83a32b960891b6044820152606401610164565b6001600160a01b0381166102005760405162461bcd60e51b8152602060048201526012602482015271125b9d985b1a59081cd95d1d1b195b595b9d60721b6044820152606401610164565b6001600160a01b039283166101605290821661018052166101a052336101c052610499565b5f6020835110156102405761023983610257565b9050610251565b8161024b8482610387565b5060ff90505b92915050565b5f80829050601f81511115610281578260405163305a27a960e01b81526004016101649190610441565b805161028c82610476565b179392505050565b80516001600160a01b03811681146102aa575f80fd5b919050565b5f805f606084860312156102c1575f80fd5b6102ca84610294565b92506102d860208501610294565b91506102e660408501610294565b90509250925092565b634e487b7160e01b5f52604160045260245ffd5b600181811c9082168061031757607f821691505b60208210810361033557634e487b7160e01b5f52602260045260245ffd5b50919050565b601f82111561038257805f5260205f20601f840160051c810160208510156103605750805b601f840160051c820191505b8181101561037f575f815560010161036c565b50505b505050565b81516001600160401b038111156103a0576103a06102ef565b6103b4816103ae8454610303565b8461033b565b6020601f8211600181146103e6575f83156103cf5750848201515b5f19600385901b1c1916600184901b17845561037f565b5f84815260208120601f198516915b8281101561041557878501518255602094850194600190920191016103f5565b508482101561043257868401515f19600387901b60f8161c191681555b50505050600190811b01905550565b602081525f82518060208401528060208501604085015e5f604082850101526040601f19601f83011684010191505092915050565b80516020808301519190811015610335575f1960209190910360031b1b16919050565b60805160a05160c05160e05161010051610120516101405161016051610180516101a0516101c051612b3f6105895f395f818161037b015281816108550152610da601525f81816102b801528181611aa601528181611b9c01528181611e990152611f8f01525f81816102660152818161042801528181610fe901528181611082015281816112c301528181611a0b0152611dfe01525f81816103db01528181610f7601528181610fbc0152818161134301528181611ad80152611ecb01525f611d0701525f611cd501525f61211001525f6120e801525f61204301525f61206d01525f6120970152612b3f5ff3fe608060405234801561000f575f80fd5b5060043610610153575f3560e01c80638456cb59116100bf578063986cc73311610079578063986cc7331461039d578063de38eb3a146103b0578063eadb3c9c146103ba578063ed31aaa7146103c3578063fc0c546a146103d6578063fc8edb52146103fd575f80fd5b80638456cb591461031a57806384b0196e1461032257806385d60ec61461033d57806386e773f1146103505780638af86cc6146103635780638da5cb5b14610376575f80fd5b806343d0c32d1161011057806343d0c32d146102615780634aeb4f8c146102a057806351160630146102b3578063543ad1df146102da5780635c975abb146102e457806382fd5bac146102fa575f80fd5b806303988f841461015757806324d09a8f146101e9578063261db1001461020a57806331ea1a391461021f5780633f4ba83a14610232578063402026101461023a575b5f80fd5b6101c96101653660046124c5565b600560208190525f9182526040909120805460018201546002830154600384015460048501549585015460068601546007870154600888015460099098015496986001600160a01b03968716989690951696939560ff80871696610100900416948b565b6040516101e09b9a99989796959493929190612510565b60405180910390f35b6101fc6101f73660046124c5565b610410565b6040519081526020016101e0565b61021d6102183660046125d7565b61049f565b005b61021d61022d3660046124c5565b6106ee565b61021d61084a565b6101fc7f8d8f31cfb9ffd5889c6ed96d202c87db8bcc23d294215a69365134c478140a6381565b6102887f000000000000000000000000000000000000000000000000000000000000000081565b6040516001600160a01b0390911681526020016101e0565b6101fc6102ae366004612660565b6108b9565b6102887f000000000000000000000000000000000000000000000000000000000000000081565b6101fc6201518081565b60015460ff1660405190151581526020016101e0565b61030d6103083660046124c5565b610c76565b6040516101e09190612679565b61021d610d9b565b61032a610e08565b6040516101e09796959493929190612757565b61021d61034b3660046124c5565b610e4a565b61021d61035e3660046124c5565b611138565b61021d6103713660046127ed565b6113b1565b6102887f000000000000000000000000000000000000000000000000000000000000000081565b61021d6103ab366004612895565b6115f9565b6101fc62278d0081565b6101fc60045481565b61021d6103d13660046128bf565b611700565b6102887f000000000000000000000000000000000000000000000000000000000000000081565b61021d61040b3660046124c5565b611809565b6040516324d09a8f60e01b8152600481018290525f907f00000000000000000000000000000000000000000000000000000000000000006001600160a01b0316906324d09a8f90602401602060405180830381865afa158015610475573d5f803e3d5ffd5b505050506040513d601f19601f820116820180604052508101906104999190612907565b92915050565b6104a7611938565b6104af611960565b5f86815260056020526040812080549091036104e65760405162461bcd60e51b81526004016104dd9061291e565b60405180910390fd5b60016004820154610100900460ff166005811115610506576105066124dc565b146105235760405162461bcd60e51b81526004016104dd9061294b565b6006810154604080517f8d8f31cfb9ffd5889c6ed96d202c87db8bcc23d294215a69365134c478140a63602082015290810189905260608101919091525f906080016040516020818303038152906040528051906020012090505f61058782611984565b90505f6105c98289898080601f0160208091040260200160405190810160405280939291908181526020018383808284375f920191909152506119b092505050565b60018501549091506001600160a01b0380831691161461062b5760405162461bcd60e51b815260206004820152601b60248201527f496e76616c6964206465706f7369746f72207369676e6174757265000000000060448201526064016104dd565b5f61066b8388888080601f0160208091040260200160405190810160405280939291908181526020018383808284375f920191909152506119b092505050565b60028601549091506001600160a01b038083169116146106cd5760405162461bcd60e51b815260206004820152601e60248201527f496e76616c696420636f756e7465727061727479207369676e6174757265000060448201526064016104dd565b6106d8858c8c6119d8565b50505050506106e660015f55565b505050505050565b6106f6611960565b5f81815260056020526040812080549091036107245760405162461bcd60e51b81526004016104dd9061291e565b5f6004820154610100900460ff166005811115610743576107436124dc565b1461078c5760405162461bcd60e51b81526020600482015260196024820152784465616c206e6f7420696e204372656174656420737461746560381b60448201526064016104dd565b60018101546001600160a01b03163314806107b3575060028101546001600160a01b031633145b6107ff5760405162461bcd60e51b815260206004820152601c60248201527f4f6e6c79206465616c20706172746965732063616e2063616e63656c0000000060448201526064016104dd565b60048101805461ff00191661050017905560405133815282907fd90dde64ecb6d2913dcde645d1dcb52ab5ec048975d5539088dc4ae68e8ee4fd906020015b60405180910390a25050565b336001600160a01b037f000000000000000000000000000000000000000000000000000000000000000016146108af5760405162461bcd60e51b815260206004820152600a60248201526927b7363c9037bbb732b960b11b60448201526064016104dd565b6108b7611c41565b565b5f6108c2611960565b5f6108d06020840184612982565b6001600160a01b03160361091d5760405162461bcd60e51b8152602060048201526014602482015273496e76616c696420636f756e746572706172747960601b60448201526064016104dd565b3361092b6020840184612982565b6001600160a01b0316036109815760405162461bcd60e51b815260206004820152601760248201527f43616e6e6f7420657363726f7720776974682073656c6600000000000000000060448201526064016104dd565b5f8260200135116109c95760405162461bcd60e51b81526020600482015260126024820152710416d6f756e74206d757374206265203e20360741b60448201526064016104dd565b60646109db60608401604085016129a2565b60ff161115610a225760405162461bcd60e51b8152602060048201526013602482015272125b9d985b1a59081e5a595b19081cdc1b1a5d606a1b60448201526064016104dd565b62015180826060013510158015610a40575062278d00826060013511155b610a7e5760405162461bcd60e51b815260206004820152600f60248201526e125b9d985b1a59081d1a5b595bdd5d608a1b60448201526064016104dd565b60048054905f610a8d836129d6565b91905055506040518061016001604052806004548152602001336001600160a01b03168152602001835f016020810190610ac79190612982565b6001600160a01b0316815260200183602001358152602001836040016020810190610af291906129a2565b60ff1681526020015f815260608481013560208084019190915260808087013560408086019190915242848601525f82860181905260a095860181905260048054825260058086529183902088518155948801516001860180546001600160a01b03199081166001600160a01b03938416179091559389015160028701805490951691161790925593860151600384015590850151908201805460ff19811660ff90931692831782559486015192949293909261ffff191690911790610100908490811115610bc357610bc36124dc565b021790555060c0820151600582015560e082015160068201556101008201516007820155610120820151600882015561014090910151600990910155610c0c6020830183612982565b6001600160a01b0316336001600160a01b03166004547f976d89051a12210eb6d076155366c3b7e0f0f1ef6c2c269559482cf0f275a5db85602001358660800135604051610c64929190918252602082015260400190565b60405180910390a4506004545b919050565b610cd060408051610160810182525f8082526020820181905291810182905260608101829052608081018290529060a082019081526020015f81526020015f80191681526020015f81526020015f81526020015f81525090565b5f828152600560208181526040928390208351610160810185528154815260018201546001600160a01b039081169382019390935260028201549092169382019390935260038301546060820152600483015460ff808216608084015291939260a085019261010090920490911690811115610d4e57610d4e6124dc565b6005811115610d5f57610d5f6124dc565b81526005820154602082015260068201546040820152600782015460608201526008820154608082015260099091015460a09091015292915050565b336001600160a01b037f00000000000000000000000000000000000000000000000000000000000000001614610e005760405162461bcd60e51b815260206004820152600a60248201526927b7363c9037bbb732b960b11b60448201526064016104dd565b6108b7611c93565b5f6060805f805f6060610e19611cce565b610e21611d00565b604080515f80825260208201909252600f60f81b9b939a50919850469750309650945092509050565b610e52611938565b610e5a611960565b5f8181526005602052604081208054909103610e885760405162461bcd60e51b81526004016104dd9061291e565b5f6004820154610100900460ff166005811115610ea757610ea76124dc565b14610ef05760405162461bcd60e51b81526020600482015260196024820152784465616c206e6f7420696e204372656174656420737461746560381b60448201526064016104dd565b60018101546001600160a01b03163314610f4c5760405162461bcd60e51b815260206004820152601760248201527f4f6e6c79206465706f7369746f722063616e2066756e6400000000000000000060448201526064016104dd565b60048101805461ff0019166101001790554260088201556003810154610fa0906001600160a01b037f0000000000000000000000000000000000000000000000000000000000000000169033903090611d2d565b600381015460405163095ea7b360e01b81526001600160a01b037f0000000000000000000000000000000000000000000000000000000000000000169163095ea7b391611025917f0000000000000000000000000000000000000000000000000000000000000000916004016001600160a01b03929092168252602082015260400190565b6020604051808303815f875af1158015611041573d5f803e3d5ffd5b505050506040513d601f19601f8201168201806040525081019061106591906129ee565b506003810154604051631c57762b60e31b81526001600160a01b037f0000000000000000000000000000000000000000000000000000000000000000169163e2bbb158916110c0918691600401918252602082015260400190565b5f604051808303815f87803b1580156110d7575f80fd5b505af11580156110e9573d5f803e3d5ffd5b50505050817fc9dd6762e6024e1ec4c28eac8d4c8cc95bce152afd26092bcbf3a184e18b7c13826003015460405161112391815260200190565b60405180910390a25061113560015f55565b50565b611140611938565b5f818152600560205260408120805490910361116e5760405162461bcd60e51b81526004016104dd9061291e565b60036004820154610100900460ff16600581111561118e5761118e6124dc565b146111db5760405162461bcd60e51b815260206004820152601a60248201527f4465616c206e6f7420696e20446973707574656420737461746500000000000060448201526064016104dd565b60018101546001600160a01b031633146112375760405162461bcd60e51b815260206004820181905260248201527f4f6e6c79206465706f7369746f722063616e20636c61696d2074696d656f757460448201526064016104dd565b8060050154816009015461124b9190612a0d565b4210156112905760405162461bcd60e51b8152602060048201526013602482015272151a5b595bdd5d081b9bdd08195b185c1cd959606a1b60448201526064016104dd565b6004818101805461040061ff0019909116179055604051632e1a7d4d60e01b81529081018390525f906001600160a01b037f00000000000000000000000000000000000000000000000000000000000000001690632e1a7d4d906024016020604051808303815f875af1158015611309573d5f803e3d5ffd5b505050506040513d601f19601f8201168201806040525081019061132d9190612907565b600183015490915061136c906001600160a01b037f00000000000000000000000000000000000000000000000000000000000000008116911683611d9a565b827fc6bacab32ae179ec989208384fe707bf74824c0a20b2ade51e9b96eada58e3cd8260405161139e91815260200190565b60405180910390a2505061113560015f55565b6113b9611938565b6113c1611960565b5f87815260056020526040812080549091036113ef5760405162461bcd60e51b81526004016104dd9061291e565b60016004820154610100900460ff16600581111561140f5761140f6124dc565b1461142c5760405162461bcd60e51b81526004016104dd9061294b565b6006810154604080517f8d8f31cfb9ffd5889c6ed96d202c87db8bcc23d294215a69365134c478140a6360208201529081018a905260608101919091525f906080016040516020818303038152906040528051906020012090505f61149082611984565b90505f6114d28289898080601f0160208091040260200160405190810160405280939291908181526020018383808284375f920191909152506119b092505050565b60018501549091506001600160a01b038083169116146115345760405162461bcd60e51b815260206004820152601b60248201527f496e76616c6964206465706f7369746f72207369676e6174757265000000000060448201526064016104dd565b5f6115748388888080601f0160208091040260200160405190810160405280939291908181526020018383808284375f920191909152506119b092505050565b60028601549091506001600160a01b038083169116146115d65760405162461bcd60e51b815260206004820152601e60248201527f496e76616c696420636f756e7465727061727479207369676e6174757265000060448201526064016104dd565b6115e2858d8d8d611dcb565b50505050506115f060015f55565b50505050505050565b611601611938565b611609611960565b5f82815260056020526040812080549091036116375760405162461bcd60e51b81526004016104dd9061291e565b60016004820154610100900460ff166005811115611657576116576124dc565b146116745760405162461bcd60e51b81526004016104dd9061294b565b60018101546001600160a01b031633148061169b575060028101546001600160a01b031633145b6116e75760405162461bcd60e51b815260206004820152601c60248201527f4f6e6c79206465616c20706172746965732063616e20736574746c650000000060448201526064016104dd565b6116f28184846119d8565b506116fc60015f55565b5050565b611708611938565b611710611960565b5f838152600560205260408120805490910361173e5760405162461bcd60e51b81526004016104dd9061291e565b60016004820154610100900460ff16600581111561175e5761175e6124dc565b1461177b5760405162461bcd60e51b81526004016104dd9061294b565b60018101546001600160a01b03163314806117a2575060028101546001600160a01b031633145b6117ee5760405162461bcd60e51b815260206004820152601c60248201527f4f6e6c79206465616c20706172746965732063616e20736574746c650000000060448201526064016104dd565b6117fa81858585611dcb565b5061180460015f55565b505050565b611811611960565b5f818152600560205260408120805490910361183f5760405162461bcd60e51b81526004016104dd9061291e565b60016004820154610100900460ff16600581111561185f5761185f6124dc565b1461187c5760405162461bcd60e51b81526004016104dd9061294b565b60018101546001600160a01b03163314806118a3575060028101546001600160a01b031633145b6118ef5760405162461bcd60e51b815260206004820152601d60248201527f4f6e6c79206465616c20706172746965732063616e206469737075746500000060448201526064016104dd565b60048101805461ff00191661030017905542600982015560405133815282907fa68d56a81a9be734bdfa17f0fb210239cdc6cac8f3bcb9d5c09841fcab4b1d8a9060200161083e565b60025f540361195a57604051633ee5aeb560e01b815260040160405180910390fd5b60025f55565b60015460ff16156108b75760405163d93c066560e01b815260040160405180910390fd5b5f610499611990612037565b8360405161190160f01b8152600281019290925260228201526042902090565b5f805f806119be8686612160565b9250925092506119ce82826121a9565b5090949350505050565b6004838101805461020061ff0019909116179055604051632e1a7d4d60e01b81529081018390525f906001600160a01b037f00000000000000000000000000000000000000000000000000000000000000001690632e1a7d4d906024016020604051808303815f875af1158015611a51573d5f803e3d5ffd5b505050506040513d601f19601f82011682018060405250810190611a759190612907565b90505f84600301548210611a8d578460030154611a8f565b815b60405163095ea7b360e01b81526001600160a01b037f000000000000000000000000000000000000000000000000000000000000000081166004830152602482018590529192507f00000000000000000000000000000000000000000000000000000000000000009091169063095ea7b3906044016020604051808303815f875af1158015611b20573d5f803e3d5ffd5b505050506040513d601f19601f82011682018060405250810190611b4491906129ee565b506040805160c08101825285815260018701546001600160a01b0390811660208301526002880154811682840152606082018490526080820185905260048089015460ff1660a084015292516310a9c55760e21b81527f0000000000000000000000000000000000000000000000000000000000000000909116926342a7155c92611bd3929091889101612a6d565b5f604051808303815f87803b158015611bea575f80fd5b505af1158015611bfc573d5f803e3d5ffd5b50505050837f928d6152ac2a52f4a65094c6b49004af42ed6f4203d75ee883b97f53fbd6b8f283604051611c3291815260200190565b60405180910390a25050505050565b611c49612261565b6001805460ff191690557f5db9ee0a495bf2e6ff9c91a7834c1ba4fdd244a5e8aa4e537bd38aeae4b073aa335b6040516001600160a01b03909116815260200160405180910390a1565b611c9b611960565b6001805460ff1916811790557f62e78cea01bee320cd4e420270b5ea74000d11b0c9f74754ebdbfc544b05a25833611c76565b6060611cfb7f00000000000000000000000000000000000000000000000000000000000000006002612284565b905090565b6060611cfb7f00000000000000000000000000000000000000000000000000000000000000006003612284565b6040516001600160a01b038481166024830152838116604483015260648201839052611d949186918216906323b872dd906084015b604051602081830303815290604052915060e01b6020820180516001600160e01b03838183161783525050505061232d565b50505050565b6040516001600160a01b0383811660248301526044820183905261180491859182169063a9059cbb90606401611d62565b6004848101805461020061ff0019909116179055604051632e1a7d4d60e01b81529081018490525f906001600160a01b037f00000000000000000000000000000000000000000000000000000000000000001690632e1a7d4d906024016020604051808303815f875af1158015611e44573d5f803e3d5ffd5b505050506040513d601f19601f82011682018060405250810190611e689190612907565b90505f85600301548210611e80578560030154611e82565b815b60405163095ea7b360e01b81526001600160a01b037f000000000000000000000000000000000000000000000000000000000000000081166004830152602482018590529192507f00000000000000000000000000000000000000000000000000000000000000009091169063095ea7b3906044016020604051808303815f875af1158015611f13573d5f803e3d5ffd5b505050506040513d601f19601f82011682018060405250810190611f3791906129ee565b506040805160c08101825286815260018801546001600160a01b039081166020830152600289015481168284015260608201849052608082018590526004808a015460ff1660a0840152925163428568dd60e11b81527f00000000000000000000000000000000000000000000000000000000000000009091169263850ad1ba92611fc89290918991899101612a93565b5f604051808303815f87803b158015611fdf575f80fd5b505af1158015611ff1573d5f803e3d5ffd5b50505050847f928d6152ac2a52f4a65094c6b49004af42ed6f4203d75ee883b97f53fbd6b8f28360405161202791815260200190565b60405180910390a2505050505050565b5f306001600160a01b037f00000000000000000000000000000000000000000000000000000000000000001614801561208f57507f000000000000000000000000000000000000000000000000000000000000000046145b156120b957507f000000000000000000000000000000000000000000000000000000000000000090565b611cfb604080517f8b73c3c69bb8fe3d512ecc4cf759cc79239f7b179b0ffacaa9a75d522b39400f60208201527f0000000000000000000000000000000000000000000000000000000000000000918101919091527f000000000000000000000000000000000000000000000000000000000000000060608201524660808201523060a08201525f9060c00160405160208183030381529060405280519060200120905090565b5f805f8351604103612197576020840151604085015160608601515f1a61218988828585612399565b9550955095505050506121a2565b505081515f91506002905b9250925092565b5f8260038111156121bc576121bc6124dc565b036121c5575050565b60018260038111156121d9576121d96124dc565b036121f75760405163f645eedf60e01b815260040160405180910390fd5b600282600381111561220b5761220b6124dc565b0361222c5760405163fce698f760e01b8152600481018290526024016104dd565b6003826003811115612240576122406124dc565b036116fc576040516335e2f38360e21b8152600481018290526024016104dd565b60015460ff166108b757604051638dfc202b60e01b815260040160405180910390fd5b606060ff831461229e5761229783612461565b9050610499565b8180546122aa90612ad1565b80601f01602080910402602001604051908101604052809291908181526020018280546122d690612ad1565b80156123215780601f106122f857610100808354040283529160200191612321565b820191905f5260205f20905b81548152906001019060200180831161230457829003601f168201915b50505050509050610499565b5f8060205f8451602086015f885af18061234c576040513d5f823e3d81fd5b50505f513d91508115612363578060011415612370565b6001600160a01b0384163b155b15611d9457604051635274afe760e01b81526001600160a01b03851660048201526024016104dd565b5f80807f7fffffffffffffffffffffffffffffff5d576e7357a4501ddfe92f46681b20a08411156123d257505f91506003905082612457565b604080515f808252602082018084528a905260ff891692820192909252606081018790526080810186905260019060a0016020604051602081039080840390855afa158015612423573d5f803e3d5ffd5b5050604051601f1901519150506001600160a01b03811661244e57505f925060019150829050612457565b92505f91508190505b9450945094915050565b60605f61246d8361249e565b6040805160208082528183019092529192505f91906020820181803683375050509182525060208101929092525090565b5f60ff8216601f81111561049957604051632cd44ac360e21b815260040160405180910390fd5b5f602082840312156124d5575f80fd5b5035919050565b634e487b7160e01b5f52602160045260245ffd5b6006811061250c57634e487b7160e01b5f52602160045260245ffd5b9052565b8b81526001600160a01b038b811660208301528a1660408201526060810189905260ff88166080820152610160810161254c60a08301896124f0565b60c082019690965260e0810194909452610100840192909252610120830152610140909101529695505050505050565b80356001600160a01b0381168114610c71575f80fd5b5f8083601f8401126125a2575f80fd5b50813567ffffffffffffffff8111156125b9575f80fd5b6020830191508360208285010111156125d0575f80fd5b9250929050565b5f805f805f80608087890312156125ec575f80fd5b863595506125fc6020880161257c565b9450604087013567ffffffffffffffff811115612617575f80fd5b61262389828a01612592565b909550935050606087013567ffffffffffffffff811115612642575f80fd5b61264e89828a01612592565b979a9699509497509295939492505050565b5f60a0828403128015612671575f80fd5b509092915050565b8151815260208083015161016083019161269d908401826001600160a01b03169052565b5060408301516126b860408401826001600160a01b03169052565b506060830151606083015260808301516126d7608084018260ff169052565b5060a08301516126ea60a08401826124f0565b5060c083015160c083015260e083015160e083015261010083015161010083015261012083015161012083015261014083015161014083015292915050565b5f81518084528060208401602086015e5f602082860101526020601f19601f83011685010191505092915050565b60ff60f81b8816815260e060208201525f61277560e0830189612729565b82810360408401526127878189612729565b606084018890526001600160a01b038716608085015260a0840186905283810360c0850152845180825260208087019350909101905f5b818110156127dc5783518352602093840193909201916001016127be565b50909b9a5050505050505050505050565b5f805f805f805f6080888a031215612803575f80fd5b87359650602088013567ffffffffffffffff811115612820575f80fd5b61282c8a828b01612592565b909750955050604088013567ffffffffffffffff81111561284b575f80fd5b6128578a828b01612592565b909550935050606088013567ffffffffffffffff811115612876575f80fd5b6128828a828b01612592565b989b979a50959850939692959293505050565b5f80604083850312156128a6575f80fd5b823591506128b66020840161257c565b90509250929050565b5f805f604084860312156128d1575f80fd5b83359250602084013567ffffffffffffffff8111156128ee575f80fd5b6128fa86828701612592565b9497909650939450505050565b5f60208284031215612917575f80fd5b5051919050565b6020808252601390820152721119585b08191bd95cc81b9bdd08195e1a5cdd606a1b604082015260600190565b60208082526018908201527f4465616c206e6f7420696e2046756e6465642073746174650000000000000000604082015260600190565b5f60208284031215612992575f80fd5b61299b8261257c565b9392505050565b5f602082840312156129b2575f80fd5b813560ff8116811461299b575f80fd5b634e487b7160e01b5f52601160045260245ffd5b5f600182016129e7576129e76129c2565b5060010190565b5f602082840312156129fe575f80fd5b8151801515811461299b575f80fd5b80820180821115610499576104996129c2565b8051825260018060a01b03602082015116602083015260018060a01b036040820151166040830152606081015160608301526080810151608083015260ff60a08201511660a08301525050565b60e08101612a7b8285612a20565b6001600160a01b039290921660c09190910152919050565b612a9d8185612a20565b60e060c08201528160e082015281836101008301375f81830161010090810191909152601f909201601f1916010192915050565b600181811c90821680612ae557607f821691505b602082108103612b0357634e487b7160e01b5f52602260045260245ffd5b5091905056fea2646970667358221220aa0f2ebc78db280f3b5d22f48ba20d12c8dc42d2e4f6f4e22adb61811674d16064736f6c634300081a0033","linkReferences":{}},"methodIdentifiers":{"MAX_TIMEOUT()":"de38eb3a","MIN_TIMEOUT()":"543ad1df","SETTLE_TYPEHASH()":"40202610","cancelDeal(uint256)":"31ea1a39","claimTimeout(uint256)":"86e773f1","createDeal((address,uint256,uint8,uint256,bytes32))":"4aeb4f8c","dealCount()":"eadb3c9c","deals(uint256)":"03988f84","disputeDeal(uint256)":"fc8edb52","eip712Domain()":"84b0196e","fundDeal(uint256)":"85d60ec6","getAccruedYield(uint256)":"24d09a8f","getDeal(uint256)":"82fd5bac","owner()":"8da5cb5b","pause()":"8456cb59","paused()":"5c975abb","settleDeal(uint256,bytes)":"ed31aaa7","settleDealSigned(uint256,bytes,bytes,bytes)":"8af86cc6","settleDealWithHook(uint256,address)":"986cc733","settleDealWithHookSigned(uint256,address,bytes,bytes)":"261db100","settlement()":"51160630","token()":"fc0c546a","unpause()":"3f4ba83a","yieldAdapter()":"43d0c32d"},"id":0}