{"abi":[{"type":"function","name":"MAX_PROTOCOL_FEE","inputs":[],"outputs":[{"name":"","type":"uint16","internalType":"uint16"}],"stateMutability":"view"}],"bytecode":{"object":"0x608b6032600b8282823980515f1a607314602657634e487b7160e01b5f525f60045260245ffd5b305f52607381538281f3fe73000000000000000000000000000000000000000030146080604052600436106032575f3560e01c8063b8ca3b83146036575b5f80fd5b603e6103e881565b60405161ffff909116815260200160405180910390f3fea26469706673582212207bfbcd2321ac5f7683dd95f37c81e6cf31a932ff28e92150d09740514fb6d8e464736f6c634300081a0033","linkReferences":{}},"methodIdentifiers":{"MAX_PROTOCOL_FEE()":"b8ca3b83"},"id":67}