{"abi":[{"type":"constructor","inputs":[{"name":"_poolManager","type":"address","internalType":"contract IPoolManager"},{"name":"_inputToken","type":"address","internalType":"address"},{"name":"_settlementAddress","type":"address","internalType":"address"},{"name":"_owner","type":"address","internalType":"address"}],"stateMutability":"nonpayable"},{"type":"function","name":"afterAddLiquidity","inputs":[{"name":"sender","type":"address","internalType":"address"},{"name":"key","type":"tuple","internalType":"struct PoolKey","components":[{"name":"currency0","type":"address","internalType":"Currency"},{"name":"currency1","type":"address","internalType":"Currency"},{"name":"fee","type":"uint24","internalType":"uint24"},{"name":"tickSpacing","type":"int24","internalType":"int24"},{"name":"hooks","type":"address","internalType":"contract IHooks"}]},{"name":"params","type":"tuple","internalType":"struct ModifyLiquidityParams","components":[{"name":"tickLower","type":"int24","internalType":"int24"},{"name":"tickUpper","type":"int24","internalType":"int24"},{"name":"liquidityDelta","type":"int256","internalType":"int256"},{"name":"salt","type":"bytes32","internalType":"bytes32"}]},{"name":"delta","type":"int256","internalType":"BalanceDelta"},{"name":"feesAccrued","type":"int256","internalType":"BalanceDelta"},{"name":"hookData","type":"bytes","internalType":"bytes"}],"outputs":[{"name":"","type":"bytes4","internalType":"bytes4"},{"name":"","type":"int256","internalType":"BalanceDelta"}],"stateMutability":"nonpayable"},{"type":"function","name":"afterDonate","inputs":[{"name":"sender","type":"address","internalType":"address"},{"name":"key","type":"tuple","internalType":"struct PoolKey","components":[{"name":"currency0","type":"address","internalType":"Currency"},{"name":"currency1","type":"address","internalType":"Currency"},{"name":"fee","type":"uint24","internalType":"uint24"},{"name":"tickSpacing","type":"int24","internalType":"int24"},{"name":"hooks","type":"address","internalType":"contract IHooks"}]},{"name":"amount0","type":"uint256","internalType":"uint256"},{"name":"amount1","type":"uint256","internalType":"uint256"},{"name":"hookData","type":"bytes","internalType":"bytes"}],"outputs":[{"name":"","type":"bytes4","internalType":"bytes4"}],"stateMutability":"nonpayable"},{"type":"function","name":"afterInitialize","inputs":[{"name":"sender","type":"address","internalType":"address"},{"name":"key","type":"tuple","internalType":"struct PoolKey","components":[{"name":"currency0","type":"address","internalType":"Currency"},{"name":"currency1","type":"address","internalType":"Currency"},{"name":"fee","type":"uint24","internalType":"uint24"},{"name":"tickSpacing","type":"int24","internalType":"int24"},{"name":"hooks","type":"address","internalType":"contract IHooks"}]},{"name":"sqrtPriceX96","type":"uint160","internalType":"uint160"},{"name":"tick","type":"int24","internalType":"int24"}],"outputs":[{"name":"","type":"bytes4","internalType":"bytes4"}],"stateMutability":"nonpayable"},{"type":"function","name":"afterRemoveLiquidity","inputs":[{"name":"sender","type":"address","internalType":"address"},{"name":"key","type":"tuple","internalType":"struct PoolKey","components":[{"name":"currency0","type":"address","internalType":"Currency"},{"name":"currency1","type":"address","internalType":"Currency"},{"name":"fee","type":"uint24","internalType":"uint24"},{"name":"tickSpacing","type":"int24","internalType":"int24"},{"name":"hooks","type":"address","internalType":"contract IHooks"}]},{"name":"params","type":"tuple","internalType":"struct ModifyLiquidityParams","components":[{"name":"tickLower","type":"int24","internalType":"int24"},{"name":"tickUpper","type":"int24","internalType":"int24"},{"name":"liquidityDelta","type":"int256","internalType":"int256"},{"name":"salt","type":"bytes32","internalType":"bytes32"}]},{"name":"delta","type":"int256","internalType":"BalanceDelta"},{"name":"feesAccrued","type":"int256","internalType":"BalanceDelta"},{"name":"hookData","type":"bytes","internalType":"bytes"}],"outputs":[{"name":"","type":"bytes4","internalType":"bytes4"},{"name":"","type":"int256","internalType":"BalanceDelta"}],"stateMutability":"nonpayable"},{"type":"function","name":"afterSwap","inputs":[{"name":"sender","type":"address","internalType":"address"},{"name":"key","type":"tuple","internalType":"struct PoolKey","components":[{"name":"currency0","type":"address","internalType":"Currency"},{"name":"currency1","type":"address","internalType":"Currency"},{"name":"fee","type":"uint24","internalType":"uint24"},{"name":"tickSpacing","type":"int24","internalType":"int24"},{"name":"hooks","type":"address","internalType":"contract IHooks"}]},{"name":"params","type":"tuple","internalType":"struct SwapParams","components":[{"name":"zeroForOne","type":"bool","internalType":"bool"},{"name":"amountSpecified","type":"int256","internalType":"int256"},{"name":"sqrtPriceLimitX96","type":"uint160","internalType":"uint160"}]},{"name":"delta","type":"int256","internalType":"BalanceDelta"},{"name":"hookData","type":"bytes","internalType":"bytes"}],"outputs":[{"name":"","type":"bytes4","internalType":"bytes4"},{"name":"","type":"int128","internalType":"int128"}],"stateMutability":"nonpayable"},{"type":"function","name":"beforeAddLiquidity","inputs":[{"name":"sender","type":"address","internalType":"address"},{"name":"key","type":"tuple","internalType":"struct PoolKey","components":[{"name":"currency0","type":"address","internalType":"Currency"},{"name":"currency1","type":"address","internalType":"Currency"},{"name":"fee","type":"uint24","internalType":"uint24"},{"name":"tickSpacing","type":"int24","internalType":"int24"},{"name":"hooks","type":"address","internalType":"contract IHooks"}]},{"name":"params","type":"tuple","internalType":"struct ModifyLiquidityParams","components":[{"name":"tickLower","type":"int24","internalType":"int24"},{"name":"tickUpper","type":"int24","internalType":"int24"},{"name":"liquidityDelta","type":"int256","internalType":"int256"},{"name":"salt","type":"bytes32","internalType":"bytes32"}]},{"name":"hookData","type":"bytes","internalType":"bytes"}],"outputs":[{"name":"","type":"bytes4","internalType":"bytes4"}],"stateMutability":"nonpayable"},{"type":"function","name":"beforeDonate","inputs":[{"name":"sender","type":"address","internalType":"address"},{"name":"key","type":"tuple","internalType":"struct PoolKey","components":[{"name":"currency0","type":"address","internalType":"Currency"},{"name":"currency1","type":"address","internalType":"Currency"},{"name":"fee","type":"uint24","internalType":"uint24"},{"name":"tickSpacing","type":"int24","internalType":"int24"},{"name":"hooks","type":"address","internalType":"contract IHooks"}]},{"name":"amount0","type":"uint256","internalType":"uint256"},{"name":"amount1","type":"uint256","internalType":"uint256"},{"name":"hookData","type":"bytes","internalType":"bytes"}],"outputs":[{"name":"","type":"bytes4","internalType":"bytes4"}],"stateMutability":"nonpayable"},{"type":"function","name":"beforeInitialize","inputs":[{"name":"sender","type":"address","internalType":"address"},{"name":"key","type":"tuple","internalType":"struct PoolKey","components":[{"name":"currency0","type":"address","internalType":"Currency"},{"name":"currency1","type":"address","internalType":"Currency"},{"name":"fee","type":"uint24","internalType":"uint24"},{"name":"tickSpacing","type":"int24","internalType":"int24"},{"name":"hooks","type":"address","internalType":"contract IHooks"}]},{"name":"sqrtPriceX96","type":"uint160","internalType":"uint160"}],"outputs":[{"name":"","type":"bytes4","internalType":"bytes4"}],"stateMutability":"nonpayable"},{"type":"function","name":"beforeRemoveLiquidity","inputs":[{"name":"sender","type":"address","internalType":"address"},{"name":"key","type":"tuple","internalType":"struct PoolKey","components":[{"name":"currency0","type":"address","internalType":"Currency"},{"name":"currency1","type":"address","internalType":"Currency"},{"name":"fee","type":"uint24","internalType":"uint24"},{"name":"tickSpacing","type":"int24","internalType":"int24"},{"name":"hooks","type":"address","internalType":"contract IHooks"}]},{"name":"params","type":"tuple","internalType":"struct ModifyLiquidityParams","components":[{"name":"tickLower","type":"int24","internalType":"int24"},{"name":"tickUpper","type":"int24","internalType":"int24"},{"name":"liquidityDelta","type":"int256","internalType":"int256"},{"name":"salt","type":"bytes32","internalType":"bytes32"}]},{"name":"hookData","type":"bytes","internalType":"bytes"}],"outputs":[{"name":"","type":"bytes4","internalType":"bytes4"}],"stateMutability":"nonpayable"},{"type":"function","name":"beforeSwap","inputs":[{"name":"sender","type":"address","internalType":"address"},{"name":"key","type":"tuple","internalType":"struct PoolKey","components":[{"name":"currency0","type":"address","internalType":"Currency"},{"name":"currency1","type":"address","internalType":"Currency"},{"name":"fee","type":"uint24","internalType":"uint24"},{"name":"tickSpacing","type":"int24","internalType":"int24"},{"name":"hooks","type":"address","internalType":"contract IHooks"}]},{"name":"params","type":"tuple","internalType":"struct SwapParams","components":[{"name":"zeroForOne","type":"bool","internalType":"bool"},{"name":"amountSpecified","type":"int256","internalType":"int256"},{"name":"sqrtPriceLimitX96","type":"uint160","internalType":"uint160"}]},{"name":"hookData","type":"bytes","internalType":"bytes"}],"outputs":[{"name":"","type":"bytes4","internalType":"bytes4"},{"name":"","type":"int256","internalType":"BeforeSwapDelta"},{"name":"","type":"uint24","internalType":"uint24"}],"stateMutability":"nonpayable"},{"type":"function","name":"getHookPermissions","inputs":[],"outputs":[{"name":"","type":"tuple","internalType":"struct Hooks.Permissions","components":[{"name":"beforeInitialize","type":"bool","internalType":"bool"},{"name":"afterInitialize","type":"bool","internalType":"bool"},{"name":"beforeAddLiquidity","type":"bool","internalType":"bool"},{"name":"afterAddLiquidity","type":"bool","internalType":"bool"},{"name":"beforeRemoveLiquidity","type":"bool","internalType":"bool"},{"name":"afterRemoveLiquidity","type":"bool","internalType":"bool"},{"name":"beforeSwap","type":"bool","internalType":"bool"},{"name":"afterSwap","type":"bool","internalType":"bool"},{"name":"beforeDonate","type":"bool","internalType":"bool"},{"name":"afterDonate","type":"bool","internalType":"bool"},{"name":"beforeSwapReturnDelta","type":"bool","internalType":"bool"},{"name":"afterSwapReturnDelta","type":"bool","internalType":"bool"},{"name":"afterAddLiquidityReturnDelta","type":"bool","internalType":"bool"},{"name":"afterRemoveLiquidityReturnDelta","type":"bool","internalType":"bool"}]}],"stateMutability":"pure"},{"type":"function","name":"inputToken","inputs":[],"outputs":[{"name":"","type":"address","internalType":"address"}],"stateMutability":"view"},{"type":"function","name":"owner","inputs":[],"outputs":[{"name":"","type":"address","internalType":"address"}],"stateMutability":"view"},{"type":"function","name":"poolKeys","inputs":[{"name":"","type":"address","internalType":"address"}],"outputs":[{"name":"currency0","type":"address","internalType":"Currency"},{"name":"currency1","type":"address","internalType":"Currency"},{"name":"fee","type":"uint24","internalType":"uint24"},{"name":"tickSpacing","type":"int24","internalType":"int24"},{"name":"hooks","type":"address","internalType":"contract IHooks"}],"stateMutability":"view"},{"type":"function","name":"poolManager","inputs":[],"outputs":[{"name":"","type":"address","internalType":"contract IPoolManager"}],"stateMutability":"view"},{"type":"function","name":"setPoolKey","inputs":[{"name":"preferredToken","type":"address","internalType":"address"},{"name":"key","type":"tuple","internalType":"struct PoolKey","components":[{"name":"currency0","type":"address","internalType":"Currency"},{"name":"currency1","type":"address","internalType":"Currency"},{"name":"fee","type":"uint24","internalType":"uint24"},{"name":"tickSpacing","type":"int24","internalType":"int24"},{"name":"hooks","type":"address","internalType":"contract IHooks"}]}],"outputs":[],"stateMutability":"nonpayable"},{"type":"function","name":"settleWithSwap","inputs":[{"name":"recipient","type":"address","internalType":"address"},{"name":"yieldAmount","type":"uint256","internalType":"uint256"},{"name":"preferredToken","type":"address","internalType":"address"}],"outputs":[{"name":"amountOut","type":"uint256","internalType":"uint256"}],"stateMutability":"nonpayable"},{"type":"function","name":"settlementAddress","inputs":[],"outputs":[{"name":"","type":"address","internalType":"address"}],"stateMutability":"view"},{"type":"function","name":"unlockCallback","inputs":[{"name":"data","type":"bytes","internalType":"bytes"}],"outputs":[{"name":"","type":"bytes","internalType":"bytes"}],"stateMutability":"nonpayable"},{"type":"event","name":"PoolKeySet","inputs":[{"name":"preferredToken","type":"address","indexed":true,"internalType":"address"}],"anonymous":false},{"type":"event","name":"YieldSwapped","inputs":[{"name":"recipient","type":"address","indexed":true,"internalType":"address"},{"name":"outputToken","type":"address","indexed":true,"internalType":"address"},{"name":"inputAmount","type":"uint256","indexed":false,"internalType":"uint256"},{"name":"outputAmount","type":"uint256","indexed":false,"internalType":"uint256"}],"anonymous":false},{"type":"error","name":"HookNotImplemented","inputs":[]},{"type":"error","name":"InvalidAmount","inputs":[]},{"type":"error","name":"InvalidInputToken","inputs":[]},{"type":"error","name":"InvalidOwnerAddress","inputs":[]},{"type":"error","name":"InvalidSettlementAddress","inputs":[]},{"type":"error","name":"NotPoolManager","inputs":[]},{"type":"error","name":"OnlyOwner","inputs":[]},{"type":"error","name":"OnlyPoolManager","inputs":[]},{"type":"error","name":"OnlySettlement","inputs":[]},{"type":"error","name":"PoolNotConfigured","inputs":[]},{"type":"error","name":"SafeERC20FailedOperation","inputs":[{"name":"token","type":"address","internalType":"address"}]}],"bytecode":{"object":"0x610100604052348015610010575f80fd5b50604051611ef2380380611ef283398101604081905261002f91610346565b6001600160a01b03841660805283610046306100da565b506001600160a01b03831661006e57604051632df9739b60e01b815260040160405180910390fd5b6001600160a01b038216610095576040516378c8b5df60e01b815260040160405180910390fd5b6001600160a01b0381166100bc57604051633649397d60e21b815260040160405180910390fd5b6001600160a01b0392831660a05290821660c0521660e052506103a2565b6101ca816101c5604080516101c0810182525f80825260208201819052918101829052606081018290526080810182905260a0810182905260c0810182905260e08101829052610100810182905261012081018290526101408101829052610160810182905261018081018290526101a081019190915250604080516101c0810182525f80825260208201819052918101829052606081018290526080810182905260a0810182905260c08101829052600160e0820152610100810182905261012081018290526101408101829052610160810182905261018081018290526101a081019190915290565b6101cd565b50565b80511515612000831615151415806101f15750602081015115156110008316151514155b806102085750604081015115156108008316151514155b8061021f5750606081015115156104008316151514155b806102365750608081015115156102008316151514155b8061024d575060a081015115156101008316151514155b80610263575060c0810151151560808316151514155b80610279575060e0810151151560408316151514155b806102905750610100810151151560208316151514155b806102a75750610120810151151560108316151514155b806102be5750610140810151151560088316151514155b806102d55750610160810151151560048316151514155b806102ec5750610180810151151560028316151514155b8061030357506101a0810151151560018316151514155b1561031957610319630732d7b560e51b8361031d565b5050565b815f526001600160a01b03811660045260245ffd5b6001600160a01b03811681146101ca575f80fd5b5f805f8060808587031215610359575f80fd5b845161036481610332565b602086015190945061037581610332565b604086015190935061038681610332565b606086015190925061039781610332565b939692955090935050565b60805160a05160c05160e051611a9f6104535f395f81816102ce01526109b101525f81816104a1015261053001525f8181610125015281816105d2015261066d01525f8181610467015281816104cf015281816106b0015281816107d60152818161083f015281816108a80152818161090801528181610a5801528181610ab801528181610b1b01528181610ca801528181610d9d01528181610e0b01528181610e890152610f910152611a9f5ff3fe608060405234801561000f575f80fd5b506004361061011c575f3560e01c806391dd7346116100a9578063c4e833ce1161006e578063c4e833ce1461036e578063dc4c90d314610462578063dc98354e14610489578063e1b4af691461035b578063f738c4a71461049c575f80fd5b806391dd7346146102f05780639f063efc146101ef578063b37166a014610310578063b47b2fb114610325578063b6a8b0fa1461035b575f80fd5b8063575e24b4116100ef578063575e24b4146101b15780636c2bbe7e146101ef5780636fe7e6eb1461022257806371589ef6146102355780638da5cb5b146102c9575f80fd5b806301b60ef21461012057806321d0ee7014610164578063259982e51461016457806329d0820b14610190575b5f80fd5b6101477f000000000000000000000000000000000000000000000000000000000000000081565b6040516001600160a01b0390911681526020015b60405180910390f35b6101776101723660046110f2565b6104c3565b6040516001600160e01b0319909116815260200161015b565b6101a361019e366004611169565b610524565b60405190815260200161015b565b6101c46101bf3660046111b8565b6107c8565b604080516001600160e01b03199094168452602084019290925262ffffff169082015260600161015b565b6102026101fd366004611212565b610832565b604080516001600160e01b0319909316835260208301919091520161015b565b6101776102303660046112ab565b61089c565b610289610243366004611304565b5f602081905290815260409020805460018201546002928301546001600160a01b03928316938284169362ffffff600160a01b85041693600160b81b900490910b911685565b604080516001600160a01b039687168152948616602086015262ffffff9093169284019290925260020b606083015291909116608082015260a00161015b565b6101477f000000000000000000000000000000000000000000000000000000000000000081565b6103036102fe36600461131f565b6108fb565b60405161015b919061135e565b61032361031e366004611393565b6109a6565b005b6103386103333660046113c7565b610a4b565b604080516001600160e01b03199093168352600f9190910b60208301520161015b565b610177610369366004611448565b610aac565b610455604080516101c0810182525f80825260208201819052918101829052606081018290526080810182905260a0810182905260c0810182905260e08101829052610100810182905261012081018290526101408101829052610160810182905261018081018290526101a081019190915250604080516101c0810182525f80825260208201819052918101829052606081018290526080810182905260a0810182905260c08101829052600160e0820152610100810182905261012081018290526101408101829052610160810182905261018081018290526101a081019190915290565b60405161015b91906114a2565b6101477f000000000000000000000000000000000000000000000000000000000000000081565b6101776104973660046115c3565b610b0f565b6101477f000000000000000000000000000000000000000000000000000000000000000081565b5f336001600160a01b037f0000000000000000000000000000000000000000000000000000000000000000161461050d5760405163570c108560e11b815260040160405180910390fd5b61051a8686868686610b6c565b9695505050505050565b5f336001600160a01b037f0000000000000000000000000000000000000000000000000000000000000000161461056e57604051630ad98cbb60e11b815260040160405180910390fd5b825f0361058e5760405163162908e360e11b815260040160405180910390fd5b6001600160a01b038281165f90815260208190526040902054166105c557604051636b271baf60e11b815260040160405180910390fd5b6105fa6001600160a01b037f000000000000000000000000000000000000000000000000000000000000000016333086610b86565b6001600160a01b038083165f90815260208181526040808320815160a0810183528154861680825260018301548088168387015262ffffff600160a01b82041683860152600160b81b9004600290810b6060808501919091529301548716608080840191909152845190810185528281527f000000000000000000000000000000000000000000000000000000000000000088169091148186018190528185018b90528b881693820193909352925190959194937f0000000000000000000000000000000000000000000000000000000000000000909216926348c89491926106e39201611642565b6040516020818303038152906040526040518263ffffffff1660e01b815260040161070e919061135e565b5f604051808303815f875af1158015610729573d5f803e3d5ffd5b505050506040513d5f823e601f3d908101601f191682016040526107509190810190611714565b90508080602001905181019061076691906117a8565b9350846001600160a01b0316876001600160a01b03167f6940fe9a6a6d888d71e55862284766f174a8db0f8b2b15d80569a08f6ec8f15188876040516107b6929190918252602082015260400190565b60405180910390a35050509392505050565b5f8080336001600160a01b037f000000000000000000000000000000000000000000000000000000000000000016146108145760405163570c108560e11b815260040160405180910390fd5b6108218888888888610be6565b925092509250955095509592505050565b5f80336001600160a01b037f0000000000000000000000000000000000000000000000000000000000000000161461087d5760405163570c108560e11b815260040160405180910390fd5b61088c89898989898989610c02565b9150915097509795505050505050565b5f336001600160a01b037f000000000000000000000000000000000000000000000000000000000000000016146108e65760405163570c108560e11b815260040160405180910390fd5b6108f285858585610b6c565b95945050505050565b6060336001600160a01b037f000000000000000000000000000000000000000000000000000000000000000016146109465760405163f655705d60e01b815260040160405180910390fd5b5f610953838501856117e7565b90505f61095f82610c1d565b905061096b8282610d26565b5f6109768383610f10565b90508060405160200161098b91815260200190565b60405160208183030381529060405293505050505b92915050565b336001600160a01b037f000000000000000000000000000000000000000000000000000000000000000016146109ef57604051635fc483c560e01b815260040160405180910390fd5b6001600160a01b0382165f9081526020819052604090208190610a1282826118ce565b50506040516001600160a01b038316907f5f2fd3450d4c0a55836492bdc27a4c2f72b1e936f7ac1a2f9609d444c9d91dca905f90a25050565b5f80336001600160a01b037f00000000000000000000000000000000000000000000000000000000000000001614610a965760405163570c108560e11b815260040160405180910390fd5b5063b47b2fb160e01b975f975095505050505050565b5f336001600160a01b037f00000000000000000000000000000000000000000000000000000000000000001614610af65760405163570c108560e11b815260040160405180910390fd5b610b04878787878787610b6c565b979650505050505050565b5f336001600160a01b037f00000000000000000000000000000000000000000000000000000000000000001614610b595760405163570c108560e11b815260040160405180910390fd5b610b64848484610b6c565b949350505050565b5f604051630a85dc2960e01b815260040160405180910390fd5b604080516001600160a01b0385811660248301528416604482015260648082018490528251808303909101815260849091019091526020810180516001600160e01b03166323b872dd60e01b179052610be0908590610ff0565b50505050565b5f805f604051630a85dc2960e01b815260040160405180910390fd5b5f80604051630a85dc2960e01b815260040160405180910390fd5b5f8060405180606001604052808460200151151581526020018460400151610c449061197f565b81526020018460200151610c7657610c71600173fffd8963efd1fc6a506488495d951d5263988d26611999565b610c86565b610c866401000276a360016119b8565b6001600160a01b039081169091528451604051633cf3645360e21b81529293507f00000000000000000000000000000000000000000000000000000000000000009091169163f3cd914c91610cdf9185906004016119d7565b6020604051808303815f875af1158015610cfb573d5f803e3d5ffd5b505050506040513d601f19601f82011682018060405250810190610d1f91906117a8565b9392505050565b5f8260200151610d3b57825160200151610d3f565b8251515b90505f8360200151610d5a57610d5583600f0b90565b610d64565b610d648360801d90565b90505f610d7082611a21565b604051632961046560e21b81526001600160a01b0385811660048301526001600160801b039290921692507f00000000000000000000000000000000000000000000000000000000000000009091169063a5841194906024015f604051808303815f87803b158015610de0575f80fd5b505af1158015610df2573d5f803e3d5ffd5b505060405163a9059cbb60e01b81526001600160a01b037f000000000000000000000000000000000000000000000000000000000000000081166004830152602482018590528616925063a9059cbb91506044016020604051808303815f875af1158015610e62573d5f803e3d5ffd5b505050506040513d601f19601f82011682018060405250810190610e869190611a4e565b507f00000000000000000000000000000000000000000000000000000000000000006001600160a01b03166311da60b46040518163ffffffff1660e01b81526004016020604051808303815f875af1158015610ee4573d5f803e3d5ffd5b505050506040513d601f19601f82011682018060405250810190610f0891906117a8565b505050505050565b5f808360200151610f2357835151610f2a565b8351602001515b90505f8460200151610f4557610f408460801d90565b610f4f565b610f4f84600f0b90565b6060860151604051630b0d9c0960e01b81526001600160a01b03858116600483015291821660248201526001600160801b0383166044820181905295509192507f00000000000000000000000000000000000000000000000000000000000000001690630b0d9c09906064015f604051808303815f87803b158015610fd2575f80fd5b505af1158015610fe4573d5f803e3d5ffd5b50505050505092915050565b5f8060205f8451602086015f885af18061100f576040513d5f823e3d81fd5b50505f513d91508115611026578060011415611033565b6001600160a01b0384163b155b15610be057604051635274afe760e01b81526001600160a01b038516600482015260240160405180910390fd5b6001600160a01b0381168114611074575f80fd5b50565b803561108281611060565b919050565b5f60a08284031215611097575f80fd5b50919050565b5f60808284031215611097575f80fd5b5f8083601f8401126110bd575f80fd5b50813567ffffffffffffffff8111156110d4575f80fd5b6020830191508360208285010111156110eb575f80fd5b9250929050565b5f805f805f6101608688031215611107575f80fd5b853561111281611060565b94506111218760208801611087565b93506111308760c0880161109d565b925061014086013567ffffffffffffffff81111561114c575f80fd5b611158888289016110ad565b969995985093965092949392505050565b5f805f6060848603121561117b575f80fd5b833561118681611060565b925060208401359150604084013561119d81611060565b809150509250925092565b5f60608284031215611097575f80fd5b5f805f805f61014086880312156111cd575f80fd5b85356111d881611060565b94506111e78760208801611087565b93506111f68760c088016111a8565b925061012086013567ffffffffffffffff81111561114c575f80fd5b5f805f805f805f6101a0888a031215611229575f80fd5b873561123481611060565b96506112438960208a01611087565b95506112528960c08a0161109d565b94506101408801359350610160880135925061018088013567ffffffffffffffff81111561127e575f80fd5b61128a8a828b016110ad565b989b979a50959850939692959293505050565b8060020b8114611074575f80fd5b5f805f8061010085870312156112bf575f80fd5b84356112ca81611060565b93506112d98660208701611087565b925060c08501356112e981611060565b915060e08501356112f98161129d565b939692955090935050565b5f60208284031215611314575f80fd5b8135610d1f81611060565b5f8060208385031215611330575f80fd5b823567ffffffffffffffff811115611346575f80fd5b611352858286016110ad565b90969095509350505050565b602081525f82518060208401528060208501604085015e5f604082850101526040601f19601f83011684010191505092915050565b5f8060c083850312156113a4575f80fd5b82356113af81611060565b91506113be8460208501611087565b90509250929050565b5f805f805f8061016087890312156113dd575f80fd5b86356113e881611060565b95506113f78860208901611087565b94506114068860c089016111a8565b9350610120870135925061014087013567ffffffffffffffff81111561142a575f80fd5b61143689828a016110ad565b979a9699509497509295939492505050565b5f805f805f80610120878903121561145e575f80fd5b863561146981611060565b95506114788860208901611087565b945060c0870135935060e0870135925061010087013567ffffffffffffffff81111561142a575f80fd5b8151151581526101c0810160208301516114c0602084018215159052565b5060408301516114d4604084018215159052565b5060608301516114e8606084018215159052565b5060808301516114fc608084018215159052565b5060a083015161151060a084018215159052565b5060c083015161152460c084018215159052565b5060e083015161153860e084018215159052565b5061010083015161154e61010084018215159052565b5061012083015161156461012084018215159052565b5061014083015161157a61014084018215159052565b5061016083015161159061016084018215159052565b506101808301516115a661018084018215159052565b506101a08301516115bc6101a084018215159052565b5092915050565b5f805f60e084860312156115d5575f80fd5b83356115e081611060565b92506115ef8560208601611087565b915060c084013561119d81611060565b80516001600160a01b03908116835260208083015182169084015260408083015162ffffff169084015260608083015160020b9084015260809182015116910152565b5f610100820190506116558284516115ff565b6020830151151560a0830152604083015160c08301526060909201516001600160a01b031660e09091015290565b634e487b7160e01b5f52604160045260245ffd5b6040516080810167ffffffffffffffff811182821017156116ba576116ba611683565b60405290565b60405160a0810167ffffffffffffffff811182821017156116ba576116ba611683565b604051601f8201601f1916810167ffffffffffffffff8111828210171561170c5761170c611683565b604052919050565b5f60208284031215611724575f80fd5b815167ffffffffffffffff81111561173a575f80fd5b8201601f8101841361174a575f80fd5b805167ffffffffffffffff81111561176457611764611683565b611777601f8201601f19166020016116e3565b81815285602083850101111561178b575f80fd5b8160208401602083015e5f91810160200191909152949350505050565b5f602082840312156117b8575f80fd5b5051919050565b62ffffff81168114611074575f80fd5b8015158114611074575f80fd5b8035611082816117cf565b5f818303610100811280156117fa575f80fd5b50611803611697565b60a0821215611810575f80fd5b6118186116c0565b9150833561182581611060565b8252602084013561183581611060565b60208301526040840135611848816117bf565b6040830152606084013561185b8161129d565b6060830152608084013561186e81611060565b608083015281815261188260a085016117dc565b602082015260c08401356040820181905291506118a160e08501611077565b6060820152949350505050565b80546001600160a01b0319166001600160a01b0392909216919091179055565b81356118d981611060565b6118e381836118ae565b506001810160208301356118f681611060565b61190081836118ae565b50604083013561190f816117bf565b8154606085013561191f8161129d565b8060b81b62ffffff60b81b1662ffffff60a01b8460a01b1665ffffffffffff60a01b19841617178455505050505f608083013561195b81611060565b809150610be081600285016118ae565b634e487b7160e01b5f52601160045260245ffd5b5f600160ff1b82016119935761199361196b565b505f0390565b6001600160a01b0382811682821603908111156109a0576109a061196b565b6001600160a01b0381811683821601908111156109a0576109a061196b565b6119e181846115ff565b8151151560a0820152602082015160c08201526040909101516001600160a01b031660e082015261012061010082018190525f9082015261014001919050565b5f81600f0b6f7fffffffffffffffffffffffffffffff198103611a4657611a4661196b565b5f0392915050565b5f60208284031215611a5e575f80fd5b8151610d1f816117cf56fea264697066735822122044338de208e7e09a652ee877bed9ac89b9965b380f38190394ec1e6fc34b519b64736f6c634300081a0033","linkReferences":{}},"methodIdentifiers":{"afterAddLiquidity(address,(address,address,uint24,int24,address),(int24,int24,int256,bytes32),int256,int256,bytes)":"9f063efc","afterDonate(address,(address,address,uint24,int24,address),uint256,uint256,bytes)":"e1b4af69","afterInitialize(address,(address,address,uint24,int24,address),uint160,int24)":"6fe7e6eb","afterRemoveLiquidity(address,(address,address,uint24,int24,address),(int24,int24,int256,bytes32),int256,int256,bytes)":"6c2bbe7e","afterSwap(address,(address,address,uint24,int24,address),(bool,int256,uint160),int256,bytes)":"b47b2fb1","beforeAddLiquidity(address,(address,address,uint24,int24,address),(int24,int24,int256,bytes32),bytes)":"259982e5","beforeDonate(address,(address,address,uint24,int24,address),uint256,uint256,bytes)":"b6a8b0fa","beforeInitialize(address,(address,address,uint24,int24,address),uint160)":"dc98354e","beforeRemoveLiquidity(address,(address,address,uint24,int24,address),(int24,int24,int256,bytes32),bytes)":"21d0ee70","beforeSwap(address,(address,address,uint24,int24,address),(bool,int256,uint160),bytes)":"575e24b4","getHookPermissions()":"c4e833ce","inputToken()":"01b60ef2","owner()":"8da5cb5b","poolKeys(address)":"71589ef6","poolManager()":"dc4c90d3","setPoolKey(address,(address,address,uint24,int24,address))":"b37166a0","settleWithSwap(address,uint256,address)":"29d0820b","settlementAddress()":"f738c4a7","unlockCallback(bytes)":"91dd7346"},"id":2}