{"abi":[{"type":"constructor","inputs":[{"name":"_poolManager","type":"address","internalType":"contract IPoolManager"},{"name":"_inputToken","type":"address","internalType":"address"},{"name":"_settlementAddress","type":"address","internalType":"address"},{"name":"_owner","type":"address","internalType":"address"}],"stateMutability":"nonpayable"},{"type":"function","name":"afterAddLiquidity","inputs":[{"name":"sender","type":"address","internalType":"address"},{"name":"key","type":"tuple","internalType":"struct PoolKey","components":[{"name":"currency0","type":"address","internalType":"Currency"},{"name":"currency1","type":"address","internalType":"Currency"},{"name":"fee","type":"uint24","internalType":"uint24"},{"name":"tickSpacing","type":"int24","internalType":"int24"},{"name":"hooks","type":"address","internalType":"contract IHooks"}]},{"name":"params","type":"tuple","internalType":"struct ModifyLiquidityParams","components":[{"name":"tickLower","type":"int24","internalType":"int24"},{"name":"tickUpper","type":"int24","internalType":"int24"},{"name":"liquidityDelta","type":"int256","internalType":"int256"},{"name":"salt","type":"bytes32","internalType":"bytes32"}]},{"name":"delta","type":"int256","internalType":"BalanceDelta"},{"name":"feesAccrued","type":"int256","internalType":"BalanceDelta"},{"name":"hookData","type":"bytes","internalType":"bytes"}],"outputs":[{"name":"","type":"bytes4","internalType":"bytes4"},{"name":"","type":"int256","internalType":"BalanceDelta"}],"stateMutability":"nonpayable"},{"type":"function","name":"afterDonate","inputs":[{"name":"sender","type":"address","internalType":"address"},{"name":"key","type":"tuple","internalType":"struct PoolKey","components":[{"name":"currency0","type":"address","internalType":"Currency"},{"name":"currency1","type":"address","internalType":"Currency"},{"name":"fee","type":"uint24","internalType":"uint24"},{"name":"tickSpacing","type":"int24","internalType":"int24"},{"name":"hooks","type":"address","internalType":"contract IHooks"}]},{"name":"amount0","type":"uint256","internalType":"uint256"},{"name":"amount1","type":"uint256","internalType":"uint256"},{"name":"hookData","type":"bytes","internalType":"bytes"}],"outputs":[{"name":"","type":"bytes4","internalType":"bytes4"}],"stateMutability":"nonpayable"},{"type":"function","name":"afterInitialize","inputs":[{"name":"sender","type":"address","internalType":"address"},{"name":"key","type":"tuple","internalType":"struct PoolKey","components":[{"name":"currency0","type":"address","internalType":"Currency"},{"name":"currency1","type":"address","internalType":"Currency"},{"name":"fee","type":"uint24","internalType":"uint24"},{"name":"tickSpacing","type":"int24","internalType":"int24"},{"name":"hooks","type":"address","internalType":"contract IHooks"}]},{"name":"sqrtPriceX96","type":"uint160","internalType":"uint160"},{"name":"tick","type":"int24","internalType":"int24"}],"outputs":[{"name":"","type":"bytes4","internalType":"bytes4"}],"stateMutability":"nonpayable"},{"type":"function","name":"afterRemoveLiquidity","inputs":[{"name":"sender","type":"address","internalType":"address"},{"name":"key","type":"tuple","internalType":"struct PoolKey","components":[{"name":"currency0","type":"address","internalType":"Currency"},{"name":"currency1","type":"address","internalType":"Currency"},{"name":"fee","type":"uint24","internalType":"uint24"},{"name":"tickSpacing","type":"int24","internalType":"int24"},{"name":"hooks","type":"address","internalType":"contract IHooks"}]},{"name":"params","type":"tuple","internalType":"struct ModifyLiquidityParams","components":[{"name":"tickLower","type":"int24","internalType":"int24"},{"name":"tickUpper","type":"int24","internalType":"int24"},{"name":"liquidityDelta","type":"int256","internalType":"int256"},{"name":"salt","type":"bytes32","internalType":"bytes32"}]},{"name":"delta","type":"int256","internalType":"BalanceDelta"},{"name":"feesAccrued","type":"int256","internalType":"BalanceDelta"},{"name":"hookData","type":"bytes","internalType":"bytes"}],"outputs":[{"name":"","type":"bytes4","internalType":"bytes4"},{"name":"","type":"int256","internalType":"BalanceDelta"}],"stateMutability":"nonpayable"},{"type":"function","name":"afterSwap","inputs":[{"name":"sender","type":"address","internalType":"address"},{"name":"key","type":"tuple","internalType":"struct PoolKey","components":[{"name":"currency0","type":"address","internalType":"Currency"},{"name":"currency1","type":"address","internalType":"Currency"},{"name":"fee","type":"uint24","internalType":"uint24"},{"name":"tickSpacing","type":"int24","internalType":"int24"},{"name":"hooks","type":"address","internalType":"contract IHooks"}]},{"name":"params","type":"tuple","internalType":"struct SwapParams","components":[{"name":"zeroForOne","type":"bool","internalType":"bool"},{"name":"amountSpecified","type":"int256","internalType":"int256"},{"name":"sqrtPriceLimitX96","type":"uint160","internalType":"uint160"}]},{"name":"delta","type":"int256","internalType":"BalanceDelta"},{"name":"hookData","type":"bytes","internalType":"bytes"}],"outputs":[{"name":"","type":"bytes4","internalType":"bytes4"},{"name":"","type":"int128","internalType":"int128"}],"stateMutability":"nonpayable"},{"type":"function","name":"beforeAddLiquidity","inputs":[{"name":"sender","type":"address","internalType":"address"},{"name":"key","type":"tuple","internalType":"struct PoolKey","components":[{"name":"currency0","type":"address","internalType":"Currency"},{"name":"currency1","type":"address","internalType":"Currency"},{"name":"fee","type":"uint24","internalType":"uint24"},{"name":"tickSpacing","type":"int24","internalType":"int24"},{"name":"hooks","type":"address","internalType":"contract IHooks"}]},{"name":"params","type":"tuple","internalType":"struct ModifyLiquidityParams","components":[{"name":"tickLower","type":"int24","internalType":"int24"},{"name":"tickUpper","type":"int24","internalType":"int24"},{"name":"liquidityDelta","type":"int256","internalType":"int256"},{"name":"salt","type":"bytes32","internalType":"bytes32"}]},{"name":"hookData","type":"bytes","internalType":"bytes"}],"outputs":[{"name":"","type":"bytes4","internalType":"bytes4"}],"stateMutability":"nonpayable"},{"type":"function","name":"beforeDonate","inputs":[{"name":"sender","type":"address","internalType":"address"},{"name":"key","type":"tuple","internalType":"struct PoolKey","components":[{"name":"currency0","type":"address","internalType":"Currency"},{"name":"currency1","type":"address","internalType":"Currency"},{"name":"fee","type":"uint24","internalType":"uint24"},{"name":"tickSpacing","type":"int24","internalType":"int24"},{"name":"hooks","type":"address","internalType":"contract IHooks"}]},{"name":"amount0","type":"uint256","internalType":"uint256"},{"name":"amount1","type":"uint256","internalType":"uint256"},{"name":"hookData","type":"bytes","internalType":"bytes"}],"outputs":[{"name":"","type":"bytes4","internalType":"bytes4"}],"stateMutability":"nonpayable"},{"type":"function","name":"beforeInitialize","inputs":[{"name":"sender","type":"address","internalType":"address"},{"name":"key","type":"tuple","internalType":"struct PoolKey","components":[{"name":"currency0","type":"address","internalType":"Currency"},{"name":"currency1","type":"address","internalType":"Currency"},{"name":"fee","type":"uint24","internalType":"uint24"},{"name":"tickSpacing","type":"int24","internalType":"int24"},{"name":"hooks","type":"address","internalType":"contract IHooks"}]},{"name":"sqrtPriceX96","type":"uint160","internalType":"uint160"}],"outputs":[{"name":"","type":"bytes4","internalType":"bytes4"}],"stateMutability":"nonpayable"},{"type":"function","name":"beforeRemoveLiquidity","inputs":[{"name":"sender","type":"address","internalType":"address"},{"name":"key","type":"tuple","internalType":"struct PoolKey","components":[{"name":"currency0","type":"address","internalType":"Currency"},{"name":"currency1","type":"address","internalType":"Currency"},{"name":"fee","type":"uint24","internalType":"uint24"},{"name":"tickSpacing","type":"int24","internalType":"int24"},{"name":"hooks","type":"address","internalType":"contract IHooks"}]},{"name":"params","type":"tuple","internalType":"struct ModifyLiquidityParams","components":[{"name":"tickLower","type":"int24","internalType":"int24"},{"name":"tickUpper","type":"int24","internalType":"int24"},{"name":"liquidityDelta","type":"int256","internalType":"int256"},{"name":"salt","type":"bytes32","internalType":"bytes32"}]},{"name":"hookData","type":"bytes","internalType":"bytes"}],"outputs":[{"name":"","type":"bytes4","internalType":"bytes4"}],"stateMutability":"nonpayable"},{"type":"function","name":"beforeSwap","inputs":[{"name":"sender","type":"address","internalType":"address"},{"name":"key","type":"tuple","internalType":"struct PoolKey","components":[{"name":"currency0","type":"address","internalType":"Currency"},{"name":"currency1","type":"address","internalType":"Currency"},{"name":"fee","type":"uint24","internalType":"uint24"},{"name":"tickSpacing","type":"int24","internalType":"int24"},{"name":"hooks","type":"address","internalType":"contract IHooks"}]},{"name":"params","type":"tuple","internalType":"struct SwapParams","components":[{"name":"zeroForOne","type":"bool","internalType":"bool"},{"name":"amountSpecified","type":"int256","internalType":"int256"},{"name":"sqrtPriceLimitX96","type":"uint160","internalType":"uint160"}]},{"name":"hookData","type":"bytes","internalType":"bytes"}],"outputs":[{"name":"","type":"bytes4","internalType":"bytes4"},{"name":"","type":"int256","internalType":"BeforeSwapDelta"},{"name":"","type":"uint24","internalType":"uint24"}],"stateMutability":"nonpayable"},{"type":"function","name":"getHookPermissions","inputs":[],"outputs":[{"name":"","type":"tuple","internalType":"struct Hooks.Permissions","components":[{"name":"beforeInitialize","type":"bool","internalType":"bool"},{"name":"afterInitialize","type":"bool","internalType":"bool"},{"name":"beforeAddLiquidity","type":"bool","internalType":"bool"},{"name":"afterAddLiquidity","type":"bool","internalType":"bool"},{"name":"beforeRemoveLiquidity","type":"bool","internalType":"bool"},{"name":"afterRemoveLiquidity","type":"bool","internalType":"bool"},{"name":"beforeSwap","type":"bool","internalType":"bool"},{"name":"afterSwap","type":"bool","internalType":"bool"},{"name":"beforeDonate","type":"bool","internalType":"bool"},{"name":"afterDonate","type":"bool","internalType":"bool"},{"name":"beforeSwapReturnDelta","type":"bool","internalType":"bool"},{"name":"afterSwapReturnDelta","type":"bool","internalType":"bool"},{"name":"afterAddLiquidityReturnDelta","type":"bool","internalType":"bool"},{"name":"afterRemoveLiquidityReturnDelta","type":"bool","internalType":"bool"}]}],"stateMutability":"pure"},{"type":"function","name":"inputToken","inputs":[],"outputs":[{"name":"","type":"address","internalType":"address"}],"stateMutability":"view"},{"type":"function","name":"owner","inputs":[],"outputs":[{"name":"","type":"address","internalType":"address"}],"stateMutability":"view"},{"type":"function","name":"poolKeys","inputs":[{"name":"","type":"address","internalType":"address"}],"outputs":[{"name":"currency0","type":"address","internalType":"Currency"},{"name":"currency1","type":"address","internalType":"Currency"},{"name":"fee","type":"uint24","internalType":"uint24"},{"name":"tickSpacing","type":"int24","internalType":"int24"},{"name":"hooks","type":"address","internalType":"contract IHooks"}],"stateMutability":"view"},{"type":"function","name":"poolManager","inputs":[],"outputs":[{"name":"","type":"address","internalType":"contract IPoolManager"}],"stateMutability":"view"},{"type":"function","name":"rescueTokens","inputs":[{"name":"_token","type":"address","internalType":"contract IERC20"},{"name":"to","type":"address","internalType":"address"},{"name":"amount","type":"uint256","internalType":"uint256"}],"outputs":[],"stateMutability":"nonpayable"},{"type":"function","name":"setPoolKey","inputs":[{"name":"preferredToken","type":"address","internalType":"address"},{"name":"key","type":"tuple","internalType":"struct PoolKey","components":[{"name":"currency0","type":"address","internalType":"Currency"},{"name":"currency1","type":"address","internalType":"Currency"},{"name":"fee","type":"uint24","internalType":"uint24"},{"name":"tickSpacing","type":"int24","internalType":"int24"},{"name":"hooks","type":"address","internalType":"contract IHooks"}]}],"outputs":[],"stateMutability":"nonpayable"},{"type":"function","name":"settleWithSwap","inputs":[{"name":"recipient","type":"address","internalType":"address"},{"name":"yieldAmount","type":"uint256","internalType":"uint256"},{"name":"preferredToken","type":"address","internalType":"address"}],"outputs":[{"name":"amountOut","type":"uint256","internalType":"uint256"}],"stateMutability":"nonpayable"},{"type":"function","name":"settlementAddress","inputs":[],"outputs":[{"name":"","type":"address","internalType":"address"}],"stateMutability":"view"},{"type":"function","name":"unlockCallback","inputs":[{"name":"data","type":"bytes","internalType":"bytes"}],"outputs":[{"name":"","type":"bytes","internalType":"bytes"}],"stateMutability":"nonpayable"},{"type":"event","name":"PoolKeySet","inputs":[{"name":"preferredToken","type":"address","indexed":true,"internalType":"address"}],"anonymous":false},{"type":"event","name":"YieldSwapped","inputs":[{"name":"recipient","type":"address","indexed":true,"internalType":"address"},{"name":"outputToken","type":"address","indexed":true,"internalType":"address"},{"name":"inputAmount","type":"uint256","indexed":false,"internalType":"uint256"},{"name":"outputAmount","type":"uint256","indexed":false,"internalType":"uint256"}],"anonymous":false},{"type":"error","name":"HookNotImplemented","inputs":[]},{"type":"error","name":"InvalidAmount","inputs":[]},{"type":"error","name":"InvalidInputToken","inputs":[]},{"type":"error","name":"InvalidOwnerAddress","inputs":[]},{"type":"error","name":"InvalidSettlementAddress","inputs":[]},{"type":"error","name":"NotPoolManager","inputs":[]},{"type":"error","name":"OnlyOwner","inputs":[]},{"type":"error","name":"OnlyPoolManager","inputs":[]},{"type":"error","name":"OnlySettlement","inputs":[]},{"type":"error","name":"PoolNotConfigured","inputs":[]},{"type":"error","name":"SafeERC20FailedOperation","inputs":[{"name":"token","type":"address","internalType":"address"}]}],"bytecode":{"object":"0x610100604052348015610010575f80fd5b50604051611f75380380611f7583398101604081905261002f91610346565b6001600160a01b03841660805283610046306100da565b506001600160a01b03831661006e57604051632df9739b60e01b815260040160405180910390fd5b6001600160a01b038216610095576040516378c8b5df60e01b815260040160405180910390fd5b6001600160a01b0381166100bc57604051633649397d60e21b815260040160405180910390fd5b6001600160a01b0392831660a05290821660c0521660e052506103a2565b6101ca816101c5604080516101c0810182525f80825260208201819052918101829052606081018290526080810182905260a0810182905260c0810182905260e08101829052610100810182905261012081018290526101408101829052610160810182905261018081018290526101a081019190915250604080516101c0810182525f80825260208201819052918101829052606081018290526080810182905260a0810182905260c08101829052600160e0820152610100810182905261012081018290526101408101829052610160810182905261018081018290526101a081019190915290565b6101cd565b50565b80511515612000831615151415806101f15750602081015115156110008316151514155b806102085750604081015115156108008316151514155b8061021f5750606081015115156104008316151514155b806102365750608081015115156102008316151514155b8061024d575060a081015115156101008316151514155b80610263575060c0810151151560808316151514155b80610279575060e0810151151560408316151514155b806102905750610100810151151560208316151514155b806102a75750610120810151151560108316151514155b806102be5750610140810151151560088316151514155b806102d55750610160810151151560048316151514155b806102ec5750610180810151151560028316151514155b8061030357506101a0810151151560018316151514155b1561031957610319630732d7b560e51b8361031d565b5050565b815f526001600160a01b03811660045260245ffd5b6001600160a01b03811681146101ca575f80fd5b5f805f8060808587031215610359575f80fd5b845161036481610332565b602086015190945061037581610332565b604086015190935061038681610332565b606086015190925061039781610332565b939692955090935050565b60805160a05160c05160e051611b1b61045a5f395f81816102d9015281816109cf0152610b3801525f81816104bf015261054e01525f8181610130015281816105f0015261068b01525f8181610485015281816104ed015281816106ce015281816107f40152818161085d015281816108c60152818161092601528181610a7601528181610ad601528181610b9b01528181610d3501528181610e2a01528181610e9301528181610eba0152610fc20152611b1b5ff3fe608060405234801561000f575f80fd5b5060043610610127575f3560e01c80639f063efc116100a9578063cea9d26f1161006e578063cea9d26f1461046d578063dc4c90d314610480578063dc98354e146104a7578063e1b4af6914610366578063f738c4a7146104ba575f80fd5b80639f063efc146101fa578063b37166a01461031b578063b47b2fb114610330578063b6a8b0fa14610366578063c4e833ce14610379575f80fd5b80636c2bbe7e116100ef5780636c2bbe7e146101fa5780636fe7e6eb1461022d57806371589ef6146102405780638da5cb5b146102d457806391dd7346146102fb575f80fd5b806301b60ef21461012b57806321d0ee701461016f578063259982e51461016f57806329d0820b1461019b578063575e24b4146101bc575b5f80fd5b6101527f000000000000000000000000000000000000000000000000000000000000000081565b6040516001600160a01b0390911681526020015b60405180910390f35b61018261017d366004611154565b6104e1565b6040516001600160e01b03199091168152602001610166565b6101ae6101a93660046111cb565b610542565b604051908152602001610166565b6101cf6101ca36600461121a565b6107e6565b604080516001600160e01b03199094168452602084019290925262ffffff1690820152606001610166565b61020d610208366004611274565b610850565b604080516001600160e01b03199093168352602083019190915201610166565b61018261023b36600461130d565b6108ba565b61029461024e366004611366565b5f602081905290815260409020805460018201546002928301546001600160a01b03928316938284169362ffffff600160a01b85041693600160b81b900490910b911685565b604080516001600160a01b039687168152948616602086015262ffffff9093169284019290925260020b606083015291909116608082015260a001610166565b6101527f000000000000000000000000000000000000000000000000000000000000000081565b61030e610309366004611381565b610919565b60405161016691906113c0565b61032e6103293660046113f5565b6109c4565b005b61034361033e366004611429565b610a69565b604080516001600160e01b03199093168352600f9190910b602083015201610166565b6101826103743660046114aa565b610aca565b610460604080516101c0810182525f80825260208201819052918101829052606081018290526080810182905260a0810182905260c0810182905260e08101829052610100810182905261012081018290526101408101829052610160810182905261018081018290526101a081019190915250604080516101c0810182525f80825260208201819052918101829052606081018290526080810182905260a0810182905260c08101829052600160e0820152610100810182905261012081018290526101408101829052610160810182905261018081018290526101a081019190915290565b6040516101669190611504565b61032e61047b366004611625565b610b2d565b6101527f000000000000000000000000000000000000000000000000000000000000000081565b6101826104b5366004611663565b610b8f565b6101527f000000000000000000000000000000000000000000000000000000000000000081565b5f336001600160a01b037f0000000000000000000000000000000000000000000000000000000000000000161461052b5760405163570c108560e11b815260040160405180910390fd5b6105388686868686610bec565b9695505050505050565b5f336001600160a01b037f0000000000000000000000000000000000000000000000000000000000000000161461058c57604051630ad98cbb60e11b815260040160405180910390fd5b825f036105ac5760405163162908e360e11b815260040160405180910390fd5b6001600160a01b038281165f90815260208190526040902054166105e357604051636b271baf60e11b815260040160405180910390fd5b6106186001600160a01b037f000000000000000000000000000000000000000000000000000000000000000016333086610c06565b6001600160a01b038083165f90815260208181526040808320815160a0810183528154861680825260018301548088168387015262ffffff600160a01b82041683860152600160b81b9004600290810b6060808501919091529301548716608080840191909152845190810185528281527f000000000000000000000000000000000000000000000000000000000000000088169091148186018190528185018b90528b881693820193909352925190959194937f0000000000000000000000000000000000000000000000000000000000000000909216926348c894919261070192016116e2565b6040516020818303038152906040526040518263ffffffff1660e01b815260040161072c91906113c0565b5f604051808303815f875af1158015610747573d5f803e3d5ffd5b505050506040513d5f823e601f3d908101601f1916820160405261076e91908101906117b4565b9050808060200190518101906107849190611848565b9350846001600160a01b0316876001600160a01b03167f6940fe9a6a6d888d71e55862284766f174a8db0f8b2b15d80569a08f6ec8f15188876040516107d4929190918252602082015260400190565b60405180910390a35050509392505050565b5f8080336001600160a01b037f000000000000000000000000000000000000000000000000000000000000000016146108325760405163570c108560e11b815260040160405180910390fd5b61083f8888888888610c73565b925092509250955095509592505050565b5f80336001600160a01b037f0000000000000000000000000000000000000000000000000000000000000000161461089b5760405163570c108560e11b815260040160405180910390fd5b6108aa89898989898989610c8f565b9150915097509795505050505050565b5f336001600160a01b037f000000000000000000000000000000000000000000000000000000000000000016146109045760405163570c108560e11b815260040160405180910390fd5b61091085858585610bec565b95945050505050565b6060336001600160a01b037f000000000000000000000000000000000000000000000000000000000000000016146109645760405163f655705d60e01b815260040160405180910390fd5b5f6109718385018561187e565b90505f61097d82610caa565b90506109898282610db3565b5f6109948383610f41565b9050806040516020016109a991815260200190565b60405160208183030381529060405293505050505b92915050565b336001600160a01b037f00000000000000000000000000000000000000000000000000000000000000001614610a0d57604051635fc483c560e01b815260040160405180910390fd5b6001600160a01b0382165f9081526020819052604090208190610a308282611965565b50506040516001600160a01b038316907f5f2fd3450d4c0a55836492bdc27a4c2f72b1e936f7ac1a2f9609d444c9d91dca905f90a25050565b5f80336001600160a01b037f00000000000000000000000000000000000000000000000000000000000000001614610ab45760405163570c108560e11b815260040160405180910390fd5b5063b47b2fb160e01b975f975095505050505050565b5f336001600160a01b037f00000000000000000000000000000000000000000000000000000000000000001614610b145760405163570c108560e11b815260040160405180910390fd5b610b22878787878787610bec565b979650505050505050565b336001600160a01b037f00000000000000000000000000000000000000000000000000000000000000001614610b7657604051635fc483c560e01b815260040160405180910390fd5b610b8a6001600160a01b0384168383611021565b505050565b5f336001600160a01b037f00000000000000000000000000000000000000000000000000000000000000001614610bd95760405163570c108560e11b815260040160405180910390fd5b610be4848484610bec565b949350505050565b5f604051630a85dc2960e01b815260040160405180910390fd5b6040516001600160a01b038481166024830152838116604483015260648201839052610c6d9186918216906323b872dd906084015b604051602081830303815290604052915060e01b6020820180516001600160e01b038381831617835250505050611052565b50505050565b5f805f604051630a85dc2960e01b815260040160405180910390fd5b5f80604051630a85dc2960e01b815260040160405180910390fd5b5f8060405180606001604052808460200151151581526020018460400151610cd190611a16565b81526020018460200151610d0357610cfe600173fffd8963efd1fc6a506488495d951d5263988d26611a30565b610d13565b610d136401000276a36001611a4f565b6001600160a01b039081169091528451604051633cf3645360e21b81529293507f00000000000000000000000000000000000000000000000000000000000000009091169163f3cd914c91610d6c918590600401611a6e565b6020604051808303815f875af1158015610d88573d5f803e3d5ffd5b505050506040513d601f19601f82011682018060405250810190610dac9190611848565b9392505050565b5f8260200151610dc857825160200151610dcc565b8251515b90505f8360200151610de757610de283600f0b90565b610df1565b610df18360801d90565b90505f610dfd82611ab8565b604051632961046560e21b81526001600160a01b0385811660048301526001600160801b039290921692507f00000000000000000000000000000000000000000000000000000000000000009091169063a5841194906024015f604051808303815f87803b158015610e6d575f80fd5b505af1158015610e7f573d5f803e3d5ffd5b50610eb8925050506001600160a01b0384167f000000000000000000000000000000000000000000000000000000000000000083611021565b7f00000000000000000000000000000000000000000000000000000000000000006001600160a01b03166311da60b46040518163ffffffff1660e01b81526004016020604051808303815f875af1158015610f15573d5f803e3d5ffd5b505050506040513d601f19601f82011682018060405250810190610f399190611848565b505050505050565b5f808360200151610f5457835151610f5b565b8351602001515b90505f8460200151610f7657610f718460801d90565b610f80565b610f8084600f0b90565b6060860151604051630b0d9c0960e01b81526001600160a01b03858116600483015291821660248201526001600160801b0383166044820181905295509192507f00000000000000000000000000000000000000000000000000000000000000001690630b0d9c09906064015f604051808303815f87803b158015611003575f80fd5b505af1158015611015573d5f803e3d5ffd5b50505050505092915050565b6040516001600160a01b03838116602483015260448201839052610b8a91859182169063a9059cbb90606401610c3b565b5f8060205f8451602086015f885af180611071576040513d5f823e3d81fd5b50505f513d91508115611088578060011415611095565b6001600160a01b0384163b155b15610c6d57604051635274afe760e01b81526001600160a01b038516600482015260240160405180910390fd5b6001600160a01b03811681146110d6575f80fd5b50565b80356110e4816110c2565b919050565b5f60a082840312156110f9575f80fd5b50919050565b5f608082840312156110f9575f80fd5b5f8083601f84011261111f575f80fd5b50813567ffffffffffffffff811115611136575f80fd5b60208301915083602082850101111561114d575f80fd5b9250929050565b5f805f805f6101608688031215611169575f80fd5b8535611174816110c2565b945061118387602088016110e9565b93506111928760c088016110ff565b925061014086013567ffffffffffffffff8111156111ae575f80fd5b6111ba8882890161110f565b969995985093965092949392505050565b5f805f606084860312156111dd575f80fd5b83356111e8816110c2565b92506020840135915060408401356111ff816110c2565b809150509250925092565b5f606082840312156110f9575f80fd5b5f805f805f610140868803121561122f575f80fd5b853561123a816110c2565b945061124987602088016110e9565b93506112588760c0880161120a565b925061012086013567ffffffffffffffff8111156111ae575f80fd5b5f805f805f805f6101a0888a03121561128b575f80fd5b8735611296816110c2565b96506112a58960208a016110e9565b95506112b48960c08a016110ff565b94506101408801359350610160880135925061018088013567ffffffffffffffff8111156112e0575f80fd5b6112ec8a828b0161110f565b989b979a50959850939692959293505050565b8060020b81146110d6575f80fd5b5f805f806101008587031215611321575f80fd5b843561132c816110c2565b935061133b86602087016110e9565b925060c085013561134b816110c2565b915060e085013561135b816112ff565b939692955090935050565b5f60208284031215611376575f80fd5b8135610dac816110c2565b5f8060208385031215611392575f80fd5b823567ffffffffffffffff8111156113a8575f80fd5b6113b48582860161110f565b90969095509350505050565b602081525f82518060208401528060208501604085015e5f604082850101526040601f19601f83011684010191505092915050565b5f8060c08385031215611406575f80fd5b8235611411816110c2565b915061142084602085016110e9565b90509250929050565b5f805f805f80610160878903121561143f575f80fd5b863561144a816110c2565b955061145988602089016110e9565b94506114688860c0890161120a565b9350610120870135925061014087013567ffffffffffffffff81111561148c575f80fd5b61149889828a0161110f565b979a9699509497509295939492505050565b5f805f805f8061012087890312156114c0575f80fd5b86356114cb816110c2565b95506114da88602089016110e9565b945060c0870135935060e0870135925061010087013567ffffffffffffffff81111561148c575f80fd5b8151151581526101c081016020830151611522602084018215159052565b506040830151611536604084018215159052565b50606083015161154a606084018215159052565b50608083015161155e608084018215159052565b5060a083015161157260a084018215159052565b5060c083015161158660c084018215159052565b5060e083015161159a60e084018215159052565b506101008301516115b061010084018215159052565b506101208301516115c661012084018215159052565b506101408301516115dc61014084018215159052565b506101608301516115f261016084018215159052565b5061018083015161160861018084018215159052565b506101a083015161161e6101a084018215159052565b5092915050565b5f805f60608486031215611637575f80fd5b8335611642816110c2565b92506020840135611652816110c2565b929592945050506040919091013590565b5f805f60e08486031215611675575f80fd5b8335611680816110c2565b925061168f85602086016110e9565b915060c08401356111ff816110c2565b80516001600160a01b03908116835260208083015182169084015260408083015162ffffff169084015260608083015160020b9084015260809182015116910152565b5f610100820190506116f582845161169f565b6020830151151560a0830152604083015160c08301526060909201516001600160a01b031660e09091015290565b634e487b7160e01b5f52604160045260245ffd5b6040516080810167ffffffffffffffff8111828210171561175a5761175a611723565b60405290565b60405160a0810167ffffffffffffffff8111828210171561175a5761175a611723565b604051601f8201601f1916810167ffffffffffffffff811182821017156117ac576117ac611723565b604052919050565b5f602082840312156117c4575f80fd5b815167ffffffffffffffff8111156117da575f80fd5b8201601f810184136117ea575f80fd5b805167ffffffffffffffff81111561180457611804611723565b611817601f8201601f1916602001611783565b81815285602083850101111561182b575f80fd5b8160208401602083015e5f91810160200191909152949350505050565b5f60208284031215611858575f80fd5b5051919050565b62ffffff811681146110d6575f80fd5b803580151581146110e4575f80fd5b5f81830361010081128015611891575f80fd5b5061189a611737565b60a08212156118a7575f80fd5b6118af611760565b915083356118bc816110c2565b825260208401356118cc816110c2565b602083015260408401356118df8161185f565b604083015260608401356118f2816112ff565b60608301526080840135611905816110c2565b608083015281815261191960a0850161186f565b602082015260c084013560408201819052915061193860e085016110d9565b6060820152949350505050565b80546001600160a01b0319166001600160a01b0392909216919091179055565b8135611970816110c2565b61197a8183611945565b5060018101602083013561198d816110c2565b6119978183611945565b5060408301356119a68161185f565b815460608501356119b6816112ff565b8060b81b62ffffff60b81b1662ffffff60a01b8460a01b1665ffffffffffff60a01b19841617178455505050505f60808301356119f2816110c2565b809150610c6d8160028501611945565b634e487b7160e01b5f52601160045260245ffd5b5f600160ff1b8201611a2a57611a2a611a02565b505f0390565b6001600160a01b0382811682821603908111156109be576109be611a02565b6001600160a01b0381811683821601908111156109be576109be611a02565b611a78818461169f565b8151151560a0820152602082015160c08201526040909101516001600160a01b031660e082015261012061010082018190525f9082015261014001919050565b5f81600f0b6f7fffffffffffffffffffffffffffffff198103611add57611add611a02565b5f039291505056fea2646970667358221220d6d9544a730ac7f22b4bc534555cfb62da4ffd11c3db63d9400b55180a7b6e6364736f6c634300081a0033","linkReferences":{}},"methodIdentifiers":{"afterAddLiquidity(address,(address,address,uint24,int24,address),(int24,int24,int256,bytes32),int256,int256,bytes)":"9f063efc","afterDonate(address,(address,address,uint24,int24,address),uint256,uint256,bytes)":"e1b4af69","afterInitialize(address,(address,address,uint24,int24,address),uint160,int24)":"6fe7e6eb","afterRemoveLiquidity(address,(address,address,uint24,int24,address),(int24,int24,int256,bytes32),int256,int256,bytes)":"6c2bbe7e","afterSwap(address,(address,address,uint24,int24,address),(bool,int256,uint160),int256,bytes)":"b47b2fb1","beforeAddLiquidity(address,(address,address,uint24,int24,address),(int24,int24,int256,bytes32),bytes)":"259982e5","beforeDonate(address,(address,address,uint24,int24,address),uint256,uint256,bytes)":"b6a8b0fa","beforeInitialize(address,(address,address,uint24,int24,address),uint160)":"dc98354e","beforeRemoveLiquidity(address,(address,address,uint24,int24,address),(int24,int24,int256,bytes32),bytes)":"21d0ee70","beforeSwap(address,(address,address,uint24,int24,address),(bool,int256,uint160),bytes)":"575e24b4","getHookPermissions()":"c4e833ce","inputToken()":"01b60ef2","owner()":"8da5cb5b","poolKeys(address)":"71589ef6","poolManager()":"dc4c90d3","rescueTokens(address,address,uint256)":"cea9d26f","setPoolKey(address,(address,address,uint24,int24,address))":"b37166a0","settleWithSwap(address,uint256,address)":"29d0820b","settlementAddress()":"f738c4a7","unlockCallback(bytes)":"91dd7346"},"id":2}