{"abi":[{"type":"constructor","inputs":[{"name":"_poolManager","type":"address","internalType":"contract IPoolManager"},{"name":"_inputToken","type":"address","internalType":"address"},{"name":"_settlementAddress","type":"address","internalType":"address"}],"stateMutability":"nonpayable"},{"type":"function","name":"afterAddLiquidity","inputs":[{"name":"sender","type":"address","internalType":"address"},{"name":"key","type":"tuple","internalType":"struct PoolKey","components":[{"name":"currency0","type":"address","internalType":"Currency"},{"name":"currency1","type":"address","internalType":"Currency"},{"name":"fee","type":"uint24","internalType":"uint24"},{"name":"tickSpacing","type":"int24","internalType":"int24"},{"name":"hooks","type":"address","internalType":"contract IHooks"}]},{"name":"params","type":"tuple","internalType":"struct ModifyLiquidityParams","components":[{"name":"tickLower","type":"int24","internalType":"int24"},{"name":"tickUpper","type":"int24","internalType":"int24"},{"name":"liquidityDelta","type":"int256","internalType":"int256"},{"name":"salt","type":"bytes32","internalType":"bytes32"}]},{"name":"delta","type":"int256","internalType":"BalanceDelta"},{"name":"feesAccrued","type":"int256","internalType":"BalanceDelta"},{"name":"hookData","type":"bytes","internalType":"bytes"}],"outputs":[{"name":"","type":"bytes4","internalType":"bytes4"},{"name":"","type":"int256","internalType":"BalanceDelta"}],"stateMutability":"nonpayable"},{"type":"function","name":"afterDonate","inputs":[{"name":"sender","type":"address","internalType":"address"},{"name":"key","type":"tuple","internalType":"struct PoolKey","components":[{"name":"currency0","type":"address","internalType":"Currency"},{"name":"currency1","type":"address","internalType":"Currency"},{"name":"fee","type":"uint24","internalType":"uint24"},{"name":"tickSpacing","type":"int24","internalType":"int24"},{"name":"hooks","type":"address","internalType":"contract IHooks"}]},{"name":"amount0","type":"uint256","internalType":"uint256"},{"name":"amount1","type":"uint256","internalType":"uint256"},{"name":"hookData","type":"bytes","internalType":"bytes"}],"outputs":[{"name":"","type":"bytes4","internalType":"bytes4"}],"stateMutability":"nonpayable"},{"type":"function","name":"afterInitialize","inputs":[{"name":"sender","type":"address","internalType":"address"},{"name":"key","type":"tuple","internalType":"struct PoolKey","components":[{"name":"currency0","type":"address","internalType":"Currency"},{"name":"currency1","type":"address","internalType":"Currency"},{"name":"fee","type":"uint24","internalType":"uint24"},{"name":"tickSpacing","type":"int24","internalType":"int24"},{"name":"hooks","type":"address","internalType":"contract IHooks"}]},{"name":"sqrtPriceX96","type":"uint160","internalType":"uint160"},{"name":"tick","type":"int24","internalType":"int24"}],"outputs":[{"name":"","type":"bytes4","internalType":"bytes4"}],"stateMutability":"nonpayable"},{"type":"function","name":"afterRemoveLiquidity","inputs":[{"name":"sender","type":"address","internalType":"address"},{"name":"key","type":"tuple","internalType":"struct PoolKey","components":[{"name":"currency0","type":"address","internalType":"Currency"},{"name":"currency1","type":"address","internalType":"Currency"},{"name":"fee","type":"uint24","internalType":"uint24"},{"name":"tickSpacing","type":"int24","internalType":"int24"},{"name":"hooks","type":"address","internalType":"contract IHooks"}]},{"name":"params","type":"tuple","internalType":"struct ModifyLiquidityParams","components":[{"name":"tickLower","type":"int24","internalType":"int24"},{"name":"tickUpper","type":"int24","internalType":"int24"},{"name":"liquidityDelta","type":"int256","internalType":"int256"},{"name":"salt","type":"bytes32","internalType":"bytes32"}]},{"name":"delta","type":"int256","internalType":"BalanceDelta"},{"name":"feesAccrued","type":"int256","internalType":"BalanceDelta"},{"name":"hookData","type":"bytes","internalType":"bytes"}],"outputs":[{"name":"","type":"bytes4","internalType":"bytes4"},{"name":"","type":"int256","internalType":"BalanceDelta"}],"stateMutability":"nonpayable"},{"type":"function","name":"afterSwap","inputs":[{"name":"sender","type":"address","internalType":"address"},{"name":"key","type":"tuple","internalType":"struct PoolKey","components":[{"name":"currency0","type":"address","internalType":"Currency"},{"name":"currency1","type":"address","internalType":"Currency"},{"name":"fee","type":"uint24","internalType":"uint24"},{"name":"tickSpacing","type":"int24","internalType":"int24"},{"name":"hooks","type":"address","internalType":"contract IHooks"}]},{"name":"params","type":"tuple","internalType":"struct SwapParams","components":[{"name":"zeroForOne","type":"bool","internalType":"bool"},{"name":"amountSpecified","type":"int256","internalType":"int256"},{"name":"sqrtPriceLimitX96","type":"uint160","internalType":"uint160"}]},{"name":"delta","type":"int256","internalType":"BalanceDelta"},{"name":"hookData","type":"bytes","internalType":"bytes"}],"outputs":[{"name":"","type":"bytes4","internalType":"bytes4"},{"name":"","type":"int128","internalType":"int128"}],"stateMutability":"nonpayable"},{"type":"function","name":"beforeAddLiquidity","inputs":[{"name":"sender","type":"address","internalType":"address"},{"name":"key","type":"tuple","internalType":"struct PoolKey","components":[{"name":"currency0","type":"address","internalType":"Currency"},{"name":"currency1","type":"address","internalType":"Currency"},{"name":"fee","type":"uint24","internalType":"uint24"},{"name":"tickSpacing","type":"int24","internalType":"int24"},{"name":"hooks","type":"address","internalType":"contract IHooks"}]},{"name":"params","type":"tuple","internalType":"struct ModifyLiquidityParams","components":[{"name":"tickLower","type":"int24","internalType":"int24"},{"name":"tickUpper","type":"int24","internalType":"int24"},{"name":"liquidityDelta","type":"int256","internalType":"int256"},{"name":"salt","type":"bytes32","internalType":"bytes32"}]},{"name":"hookData","type":"bytes","internalType":"bytes"}],"outputs":[{"name":"","type":"bytes4","internalType":"bytes4"}],"stateMutability":"nonpayable"},{"type":"function","name":"beforeDonate","inputs":[{"name":"sender","type":"address","internalType":"address"},{"name":"key","type":"tuple","internalType":"struct PoolKey","components":[{"name":"currency0","type":"address","internalType":"Currency"},{"name":"currency1","type":"address","internalType":"Currency"},{"name":"fee","type":"uint24","internalType":"uint24"},{"name":"tickSpacing","type":"int24","internalType":"int24"},{"name":"hooks","type":"address","internalType":"contract IHooks"}]},{"name":"amount0","type":"uint256","internalType":"uint256"},{"name":"amount1","type":"uint256","internalType":"uint256"},{"name":"hookData","type":"bytes","internalType":"bytes"}],"outputs":[{"name":"","type":"bytes4","internalType":"bytes4"}],"stateMutability":"nonpayable"},{"type":"function","name":"beforeInitialize","inputs":[{"name":"sender","type":"address","internalType":"address"},{"name":"key","type":"tuple","internalType":"struct PoolKey","components":[{"name":"currency0","type":"address","internalType":"Currency"},{"name":"currency1","type":"address","internalType":"Currency"},{"name":"fee","type":"uint24","internalType":"uint24"},{"name":"tickSpacing","type":"int24","internalType":"int24"},{"name":"hooks","type":"address","internalType":"contract IHooks"}]},{"name":"sqrtPriceX96","type":"uint160","internalType":"uint160"}],"outputs":[{"name":"","type":"bytes4","internalType":"bytes4"}],"stateMutability":"nonpayable"},{"type":"function","name":"beforeRemoveLiquidity","inputs":[{"name":"sender","type":"address","internalType":"address"},{"name":"key","type":"tuple","internalType":"struct PoolKey","components":[{"name":"currency0","type":"address","internalType":"Currency"},{"name":"currency1","type":"address","internalType":"Currency"},{"name":"fee","type":"uint24","internalType":"uint24"},{"name":"tickSpacing","type":"int24","internalType":"int24"},{"name":"hooks","type":"address","internalType":"contract IHooks"}]},{"name":"params","type":"tuple","internalType":"struct ModifyLiquidityParams","components":[{"name":"tickLower","type":"int24","internalType":"int24"},{"name":"tickUpper","type":"int24","internalType":"int24"},{"name":"liquidityDelta","type":"int256","internalType":"int256"},{"name":"salt","type":"bytes32","internalType":"bytes32"}]},{"name":"hookData","type":"bytes","internalType":"bytes"}],"outputs":[{"name":"","type":"bytes4","internalType":"bytes4"}],"stateMutability":"nonpayable"},{"type":"function","name":"beforeSwap","inputs":[{"name":"sender","type":"address","internalType":"address"},{"name":"key","type":"tuple","internalType":"struct PoolKey","components":[{"name":"currency0","type":"address","internalType":"Currency"},{"name":"currency1","type":"address","internalType":"Currency"},{"name":"fee","type":"uint24","internalType":"uint24"},{"name":"tickSpacing","type":"int24","internalType":"int24"},{"name":"hooks","type":"address","internalType":"contract IHooks"}]},{"name":"params","type":"tuple","internalType":"struct SwapParams","components":[{"name":"zeroForOne","type":"bool","internalType":"bool"},{"name":"amountSpecified","type":"int256","internalType":"int256"},{"name":"sqrtPriceLimitX96","type":"uint160","internalType":"uint160"}]},{"name":"hookData","type":"bytes","internalType":"bytes"}],"outputs":[{"name":"","type":"bytes4","internalType":"bytes4"},{"name":"","type":"int256","internalType":"BeforeSwapDelta"},{"name":"","type":"uint24","internalType":"uint24"}],"stateMutability":"nonpayable"},{"type":"function","name":"getHookPermissions","inputs":[],"outputs":[{"name":"","type":"tuple","internalType":"struct Hooks.Permissions","components":[{"name":"beforeInitialize","type":"bool","internalType":"bool"},{"name":"afterInitialize","type":"bool","internalType":"bool"},{"name":"beforeAddLiquidity","type":"bool","internalType":"bool"},{"name":"afterAddLiquidity","type":"bool","internalType":"bool"},{"name":"beforeRemoveLiquidity","type":"bool","internalType":"bool"},{"name":"afterRemoveLiquidity","type":"bool","internalType":"bool"},{"name":"beforeSwap","type":"bool","internalType":"bool"},{"name":"afterSwap","type":"bool","internalType":"bool"},{"name":"beforeDonate","type":"bool","internalType":"bool"},{"name":"afterDonate","type":"bool","internalType":"bool"},{"name":"beforeSwapReturnDelta","type":"bool","internalType":"bool"},{"name":"afterSwapReturnDelta","type":"bool","internalType":"bool"},{"name":"afterAddLiquidityReturnDelta","type":"bool","internalType":"bool"},{"name":"afterRemoveLiquidityReturnDelta","type":"bool","internalType":"bool"}]}],"stateMutability":"pure"},{"type":"function","name":"inputToken","inputs":[],"outputs":[{"name":"","type":"address","internalType":"address"}],"stateMutability":"view"},{"type":"function","name":"owner","inputs":[],"outputs":[{"name":"","type":"address","internalType":"address"}],"stateMutability":"view"},{"type":"function","name":"poolConfigured","inputs":[{"name":"","type":"address","internalType":"address"}],"outputs":[{"name":"","type":"bool","internalType":"bool"}],"stateMutability":"view"},{"type":"function","name":"poolKeys","inputs":[{"name":"","type":"address","internalType":"address"}],"outputs":[{"name":"currency0","type":"address","internalType":"Currency"},{"name":"currency1","type":"address","internalType":"Currency"},{"name":"fee","type":"uint24","internalType":"uint24"},{"name":"tickSpacing","type":"int24","internalType":"int24"},{"name":"hooks","type":"address","internalType":"contract IHooks"}],"stateMutability":"view"},{"type":"function","name":"poolManager","inputs":[],"outputs":[{"name":"","type":"address","internalType":"contract IPoolManager"}],"stateMutability":"view"},{"type":"function","name":"setPoolKey","inputs":[{"name":"preferredToken","type":"address","internalType":"address"},{"name":"key","type":"tuple","internalType":"struct PoolKey","components":[{"name":"currency0","type":"address","internalType":"Currency"},{"name":"currency1","type":"address","internalType":"Currency"},{"name":"fee","type":"uint24","internalType":"uint24"},{"name":"tickSpacing","type":"int24","internalType":"int24"},{"name":"hooks","type":"address","internalType":"contract IHooks"}]}],"outputs":[],"stateMutability":"nonpayable"},{"type":"function","name":"settleWithSwap","inputs":[{"name":"recipient","type":"address","internalType":"address"},{"name":"yieldAmount","type":"uint256","internalType":"uint256"},{"name":"preferredToken","type":"address","internalType":"address"}],"outputs":[{"name":"amountOut","type":"uint256","internalType":"uint256"}],"stateMutability":"nonpayable"},{"type":"function","name":"settlementAddress","inputs":[],"outputs":[{"name":"","type":"address","internalType":"address"}],"stateMutability":"view"},{"type":"function","name":"unlockCallback","inputs":[{"name":"data","type":"bytes","internalType":"bytes"}],"outputs":[{"name":"","type":"bytes","internalType":"bytes"}],"stateMutability":"nonpayable"},{"type":"event","name":"PoolKeySet","inputs":[{"name":"preferredToken","type":"address","indexed":true,"internalType":"address"}],"anonymous":false},{"type":"event","name":"YieldSwapped","inputs":[{"name":"recipient","type":"address","indexed":true,"internalType":"address"},{"name":"outputToken","type":"address","indexed":true,"internalType":"address"},{"name":"inputAmount","type":"uint256","indexed":false,"internalType":"uint256"},{"name":"outputAmount","type":"uint256","indexed":false,"internalType":"uint256"}],"anonymous":false},{"type":"error","name":"HookNotImplemented","inputs":[]},{"type":"error","name":"NotPoolManager","inputs":[]},{"type":"error","name":"SafeERC20FailedOperation","inputs":[{"name":"token","type":"address","internalType":"address"}]}],"bytecode":{"object":"0x610100604052348015610010575f80fd5b50604051611fea380380611fea83398101604081905261002f91610375565b6001600160a01b0383166080528261004630610109565b506001600160a01b0382166100a25760405162461bcd60e51b815260206004820152601360248201527f496e76616c696420696e70757420746f6b656e0000000000000000000000000060448201526064015b60405180910390fd5b6001600160a01b0381166100ed5760405162461bcd60e51b8152602060048201526012602482015271125b9d985b1a59081cd95d1d1b195b595b9d60721b6044820152606401610099565b6001600160a01b0391821660a0521660c052503360e0526103bf565b6101f9816101f4604080516101c0810182525f80825260208201819052918101829052606081018290526080810182905260a0810182905260c0810182905260e08101829052610100810182905261012081018290526101408101829052610160810182905261018081018290526101a081019190915250604080516101c0810182525f80825260208201819052918101829052606081018290526080810182905260a0810182905260c08101829052600160e0820152610100810182905261012081018290526101408101829052610160810182905261018081018290526101a081019190915290565b6101fc565b50565b80511515612000831615151415806102205750602081015115156110008316151514155b806102375750604081015115156108008316151514155b8061024e5750606081015115156104008316151514155b806102655750608081015115156102008316151514155b8061027c575060a081015115156101008316151514155b80610292575060c0810151151560808316151514155b806102a8575060e0810151151560408316151514155b806102bf5750610100810151151560208316151514155b806102d65750610120810151151560108316151514155b806102ed5750610140810151151560088316151514155b806103045750610160810151151560048316151514155b8061031b5750610180810151151560028316151514155b8061033257506101a0810151151560018316151514155b1561034857610348630732d7b560e51b8361034c565b5050565b815f526001600160a01b03811660045260245ffd5b6001600160a01b03811681146101f9575f80fd5b5f805f60608486031215610387575f80fd5b835161039281610361565b60208501519093506103a381610361565b60408501519092506103b481610361565b809150509250925092565b60805160a05160c05160e051611b7a6104705f395f81816102d90152610e2801525f81816104de015261056d01525f81816101300152818161067f015261071a01525f81816104a40152818161050c0152818161075d01528181610883015281816108ec01528181610955015281816109b501528181610a9e01528181610ba601528181610c1401528181610c9201528181610d9001528181610f0301528181610f630152610fc60152611b7a5ff3fe608060405234801561000f575f80fd5b5060043610610127575f3560e01c80639f063efc116100a9578063c4e833ce1161006e578063c4e833ce146103ab578063dc4c90d31461049f578063dc98354e146104c6578063e1b4af6914610398578063f738c4a7146104d9575f80fd5b80639f063efc146101fa578063ae7ee6af1461031b578063b37166a01461034d578063b47b2fb114610362578063b6a8b0fa14610398575f80fd5b80636c2bbe7e116100ef5780636c2bbe7e146101fa5780636fe7e6eb1461022d57806371589ef6146102405780638da5cb5b146102d457806391dd7346146102fb575f80fd5b806301b60ef21461012b57806321d0ee701461016f578063259982e51461016f57806329d0820b1461019b578063575e24b4146101bc575b5f80fd5b6101527f000000000000000000000000000000000000000000000000000000000000000081565b6040516001600160a01b0390911681526020015b60405180910390f35b61018261017d3660046111c6565b610500565b6040516001600160e01b03199091168152602001610166565b6101ae6101a936600461123d565b610561565b604051908152602001610166565b6101cf6101ca36600461128c565b610875565b604080516001600160e01b03199094168452602084019290925262ffffff1690820152606001610166565b61020d6102083660046112e6565b6108df565b604080516001600160e01b03199093168352602083019190915201610166565b61018261023b36600461137f565b610949565b61029461024e3660046113d8565b5f602081905290815260409020805460018201546002928301546001600160a01b03928316938284169362ffffff600160a01b85041693600160b81b900490910b911685565b604080516001600160a01b039687168152948616602086015262ffffff9093169284019290925260020b606083015291909116608082015260a001610166565b6101527f000000000000000000000000000000000000000000000000000000000000000081565b61030e6103093660046113fa565b6109a8565b6040516101669190611439565b61033d6103293660046113d8565b60016020525f908152604090205460ff1681565b6040519015158152602001610166565b61036061035b36600461146e565b610e1d565b005b6103756103703660046114a2565b610ef6565b604080516001600160e01b03199093168352600f9190910b602083015201610166565b6101826103a6366004611523565b610f57565b610492604080516101c0810182525f80825260208201819052918101829052606081018290526080810182905260a0810182905260c0810182905260e08101829052610100810182905261012081018290526101408101829052610160810182905261018081018290526101a081019190915250604080516101c0810182525f80825260208201819052918101829052606081018290526080810182905260a0810182905260c08101829052600160e0820152610100810182905261012081018290526101408101829052610160810182905261018081018290526101a081019190915290565b604051610166919061157d565b6101527f000000000000000000000000000000000000000000000000000000000000000081565b6101826104d436600461169e565b610fba565b6101527f000000000000000000000000000000000000000000000000000000000000000081565b5f336001600160a01b037f0000000000000000000000000000000000000000000000000000000000000000161461054a5760405163570c108560e11b815260040160405180910390fd5b6105578686868686611017565b9695505050505050565b5f336001600160a01b037f000000000000000000000000000000000000000000000000000000000000000016146105d15760405162461bcd60e51b815260206004820152600f60248201526e13db9b1e481cd95d1d1b195b595b9d608a1b60448201526064015b60405180910390fd5b5f83116106155760405162461bcd60e51b81526020600482015260126024820152710416d6f756e74206d757374206265203e20360741b60448201526064016105c8565b6001600160a01b0382165f9081526001602052604090205460ff166106725760405162461bcd60e51b8152602060048201526013602482015272141bdbdb081b9bdd0818dbdb999a59dd5c9959606a1b60448201526064016105c8565b6106a76001600160a01b037f000000000000000000000000000000000000000000000000000000000000000016333086611031565b6001600160a01b038083165f90815260208181526040808320815160a0810183528154861680825260018301548088168387015262ffffff600160a01b82041683860152600160b81b9004600290810b6060808501919091529301548716608080840191909152845190810185528281527f000000000000000000000000000000000000000000000000000000000000000088169091148186018190528185018b90528b881693820193909352925190959194937f0000000000000000000000000000000000000000000000000000000000000000909216926348c8949192610790920161171d565b6040516020818303038152906040526040518263ffffffff1660e01b81526004016107bb9190611439565b5f604051808303815f875af11580156107d6573d5f803e3d5ffd5b505050506040513d5f823e601f3d908101601f191682016040526107fd91908101906117ef565b9050808060200190518101906108139190611883565b9350846001600160a01b0316876001600160a01b03167f6940fe9a6a6d888d71e55862284766f174a8db0f8b2b15d80569a08f6ec8f1518887604051610863929190918252602082015260400190565b60405180910390a35050509392505050565b5f8080336001600160a01b037f000000000000000000000000000000000000000000000000000000000000000016146108c15760405163570c108560e11b815260040160405180910390fd5b6108ce8888888888611091565b925092509250955095509592505050565b5f80336001600160a01b037f0000000000000000000000000000000000000000000000000000000000000000161461092a5760405163570c108560e11b815260040160405180910390fd5b610939898989898989896110ad565b9150915097509795505050505050565b5f336001600160a01b037f000000000000000000000000000000000000000000000000000000000000000016146109935760405163570c108560e11b815260040160405180910390fd5b61099f85858585611017565b95945050505050565b6060336001600160a01b037f00000000000000000000000000000000000000000000000000000000000000001614610a165760405162461bcd60e51b815260206004820152601160248201527027b7363c903837b7b61036b0b730b3b2b960791b60448201526064016105c8565b5f610a23838501856118c2565b90505f60405180606001604052808360200151151581526020018360400151610a4b9061199d565b81526020018360200151610a7d57610a78600173fffd8963efd1fc6a506488495d951d5263988d266119b7565b610a8d565b610a8d6401000276a360016119d6565b6001600160a01b031681525090505f7f00000000000000000000000000000000000000000000000000000000000000006001600160a01b031663f3cd914c845f0151846040518363ffffffff1660e01b8152600401610aed9291906119f5565b6020604051808303815f875af1158015610b09573d5f803e3d5ffd5b505050506040513d601f19601f82011682018060405250810190610b2d9190611883565b90505f8360200151610b4457835160200151610b48565b8351515b90505f8460200151610b6357610b5e83600f0b90565b610b6d565b610b6d8360801d90565b90505f610b7982611a3f565b604051632961046560e21b81526001600160a01b0385811660048301526001600160801b039290921692507f00000000000000000000000000000000000000000000000000000000000000009091169063a5841194906024015f604051808303815f87803b158015610be9575f80fd5b505af1158015610bfb573d5f803e3d5ffd5b505060405163a9059cbb60e01b81526001600160a01b037f000000000000000000000000000000000000000000000000000000000000000081166004830152602482018590528616925063a9059cbb91506044016020604051808303815f875af1158015610c6b573d5f803e3d5ffd5b505050506040513d601f19601f82011682018060405250810190610c8f9190611a6c565b507f00000000000000000000000000000000000000000000000000000000000000006001600160a01b03166311da60b46040518163ffffffff1660e01b81526004016020604051808303815f875af1158015610ced573d5f803e3d5ffd5b505050506040513d601f19601f82011682018060405250810190610d119190611883565b505f8660200151610d2457865151610d2b565b8651602001515b90505f8760200151610d4657610d418660801d90565b610d50565b610d5086600f0b90565b6060890151604051630b0d9c0960e01b81526001600160a01b03858116600483015291821660248201526001600160801b038316604482018190529293507f000000000000000000000000000000000000000000000000000000000000000090911690630b0d9c09906064015f604051808303815f87803b158015610dd3575f80fd5b505af1158015610de5573d5f803e3d5ffd5b5050505080604051602001610dfc91815260200190565b60405160208183030381529060405299505050505050505050505b92915050565b336001600160a01b037f00000000000000000000000000000000000000000000000000000000000000001614610e825760405162461bcd60e51b815260206004820152600a60248201526927b7363c9037bbb732b960b11b60448201526064016105c8565b6001600160a01b0382165f9081526020819052604090208190610ea58282611aa7565b50506001600160a01b0382165f818152600160208190526040808320805460ff1916909217909155517f5f2fd3450d4c0a55836492bdc27a4c2f72b1e936f7ac1a2f9609d444c9d91dca9190a25050565b5f80336001600160a01b037f00000000000000000000000000000000000000000000000000000000000000001614610f415760405163570c108560e11b815260040160405180910390fd5b5063b47b2fb160e01b975f975095505050505050565b5f336001600160a01b037f00000000000000000000000000000000000000000000000000000000000000001614610fa15760405163570c108560e11b815260040160405180910390fd5b610faf878787878787611017565b979650505050505050565b5f336001600160a01b037f000000000000000000000000000000000000000000000000000000000000000016146110045760405163570c108560e11b815260040160405180910390fd5b61100f848484611017565b949350505050565b5f604051630a85dc2960e01b815260040160405180910390fd5b604080516001600160a01b0385811660248301528416604482015260648082018490528251808303909101815260849091019091526020810180516001600160e01b03166323b872dd60e01b17905261108b9085906110c8565b50505050565b5f805f604051630a85dc2960e01b815260040160405180910390fd5b5f80604051630a85dc2960e01b815260040160405180910390fd5b5f8060205f8451602086015f885af1806110e7576040513d5f823e3d81fd5b50505f513d915081156110fe57806001141561110b565b6001600160a01b0384163b155b1561108b57604051635274afe760e01b81526001600160a01b03851660048201526024016105c8565b6001600160a01b0381168114611148575f80fd5b50565b803561115681611134565b919050565b5f60a0828403121561116b575f80fd5b50919050565b5f6080828403121561116b575f80fd5b5f8083601f840112611191575f80fd5b50813567ffffffffffffffff8111156111a8575f80fd5b6020830191508360208285010111156111bf575f80fd5b9250929050565b5f805f805f61016086880312156111db575f80fd5b85356111e681611134565b94506111f5876020880161115b565b93506112048760c08801611171565b925061014086013567ffffffffffffffff811115611220575f80fd5b61122c88828901611181565b969995985093965092949392505050565b5f805f6060848603121561124f575f80fd5b833561125a81611134565b925060208401359150604084013561127181611134565b809150509250925092565b5f6060828403121561116b575f80fd5b5f805f805f61014086880312156112a1575f80fd5b85356112ac81611134565b94506112bb876020880161115b565b93506112ca8760c0880161127c565b925061012086013567ffffffffffffffff811115611220575f80fd5b5f805f805f805f6101a0888a0312156112fd575f80fd5b873561130881611134565b96506113178960208a0161115b565b95506113268960c08a01611171565b94506101408801359350610160880135925061018088013567ffffffffffffffff811115611352575f80fd5b61135e8a828b01611181565b989b979a50959850939692959293505050565b8060020b8114611148575f80fd5b5f805f806101008587031215611393575f80fd5b843561139e81611134565b93506113ad866020870161115b565b925060c08501356113bd81611134565b915060e08501356113cd81611371565b939692955090935050565b5f602082840312156113e8575f80fd5b81356113f381611134565b9392505050565b5f806020838503121561140b575f80fd5b823567ffffffffffffffff811115611421575f80fd5b61142d85828601611181565b90969095509350505050565b602081525f82518060208401528060208501604085015e5f604082850101526040601f19601f83011684010191505092915050565b5f8060c0838503121561147f575f80fd5b823561148a81611134565b9150611499846020850161115b565b90509250929050565b5f805f805f8061016087890312156114b8575f80fd5b86356114c381611134565b95506114d2886020890161115b565b94506114e18860c0890161127c565b9350610120870135925061014087013567ffffffffffffffff811115611505575f80fd5b61151189828a01611181565b979a9699509497509295939492505050565b5f805f805f806101208789031215611539575f80fd5b863561154481611134565b9550611553886020890161115b565b945060c0870135935060e0870135925061010087013567ffffffffffffffff811115611505575f80fd5b8151151581526101c08101602083015161159b602084018215159052565b5060408301516115af604084018215159052565b5060608301516115c3606084018215159052565b5060808301516115d7608084018215159052565b5060a08301516115eb60a084018215159052565b5060c08301516115ff60c084018215159052565b5060e083015161161360e084018215159052565b5061010083015161162961010084018215159052565b5061012083015161163f61012084018215159052565b5061014083015161165561014084018215159052565b5061016083015161166b61016084018215159052565b5061018083015161168161018084018215159052565b506101a08301516116976101a084018215159052565b5092915050565b5f805f60e084860312156116b0575f80fd5b83356116bb81611134565b92506116ca856020860161115b565b915060c084013561127181611134565b80516001600160a01b03908116835260208083015182169084015260408083015162ffffff169084015260608083015160020b9084015260809182015116910152565b5f610100820190506117308284516116da565b6020830151151560a0830152604083015160c08301526060909201516001600160a01b031660e09091015290565b634e487b7160e01b5f52604160045260245ffd5b6040516080810167ffffffffffffffff811182821017156117955761179561175e565b60405290565b60405160a0810167ffffffffffffffff811182821017156117955761179561175e565b604051601f8201601f1916810167ffffffffffffffff811182821017156117e7576117e761175e565b604052919050565b5f602082840312156117ff575f80fd5b815167ffffffffffffffff811115611815575f80fd5b8201601f81018413611825575f80fd5b805167ffffffffffffffff81111561183f5761183f61175e565b611852601f8201601f19166020016117be565b818152856020838501011115611866575f80fd5b8160208401602083015e5f91810160200191909152949350505050565b5f60208284031215611893575f80fd5b5051919050565b62ffffff81168114611148575f80fd5b8015158114611148575f80fd5b8035611156816118aa565b5f818303610100811280156118d5575f80fd5b506118de611772565b60a08212156118eb575f80fd5b6118f361179b565b9150833561190081611134565b8252602084013561191081611134565b602083015260408401356119238161189a565b6040830152606084013561193681611371565b6060830152608084013561194981611134565b608083015281815261195d60a085016118b7565b602082015260c084013560408201819052915061197c60e0850161114b565b6060820152949350505050565b634e487b7160e01b5f52601160045260245ffd5b5f600160ff1b82016119b1576119b1611989565b505f0390565b6001600160a01b038281168282160390811115610e1757610e17611989565b6001600160a01b038181168382160190811115610e1757610e17611989565b6119ff81846116da565b8151151560a0820152602082015160c08201526040909101516001600160a01b031660e082015261012061010082018190525f9082015261014001919050565b5f81600f0b6f7fffffffffffffffffffffffffffffff198103611a6457611a64611989565b5f0392915050565b5f60208284031215611a7c575f80fd5b81516113f3816118aa565b80546001600160a01b0319166001600160a01b0392909216919091179055565b8135611ab281611134565b611abc8183611a87565b50600181016020830135611acf81611134565b611ad98183611a87565b506040830135611ae88161189a565b81546060850135611af881611371565b8060b81b62ffffff60b81b1662ffffff60a01b8460a01b1665ffffffffffff60a01b19841617178455505050505f6080830135611b3481611134565b80915061108b8160028501611a8756fea26469706673582212209e499242fa19dadc4f4fb9867e4e2477dbc1134ba3e29956081dde586ee5cc8064736f6c634300081a0033","linkReferences":{}},"methodIdentifiers":{"afterAddLiquidity(address,(address,address,uint24,int24,address),(int24,int24,int256,bytes32),int256,int256,bytes)":"9f063efc","afterDonate(address,(address,address,uint24,int24,address),uint256,uint256,bytes)":"e1b4af69","afterInitialize(address,(address,address,uint24,int24,address),uint160,int24)":"6fe7e6eb","afterRemoveLiquidity(address,(address,address,uint24,int24,address),(int24,int24,int256,bytes32),int256,int256,bytes)":"6c2bbe7e","afterSwap(address,(address,address,uint24,int24,address),(bool,int256,uint160),int256,bytes)":"b47b2fb1","beforeAddLiquidity(address,(address,address,uint24,int24,address),(int24,int24,int256,bytes32),bytes)":"259982e5","beforeDonate(address,(address,address,uint24,int24,address),uint256,uint256,bytes)":"b6a8b0fa","beforeInitialize(address,(address,address,uint24,int24,address),uint160)":"dc98354e","beforeRemoveLiquidity(address,(address,address,uint24,int24,address),(int24,int24,int256,bytes32),bytes)":"21d0ee70","beforeSwap(address,(address,address,uint24,int24,address),(bool,int256,uint160),bytes)":"575e24b4","getHookPermissions()":"c4e833ce","inputToken()":"01b60ef2","owner()":"8da5cb5b","poolConfigured(address)":"ae7ee6af","poolKeys(address)":"71589ef6","poolManager()":"dc4c90d3","setPoolKey(address,(address,address,uint24,int24,address))":"b37166a0","settleWithSwap(address,uint256,address)":"29d0820b","settlementAddress()":"f738c4a7","unlockCallback(bytes)":"91dd7346"},"id":2}